{"abi":[{"inputs":[{"internalType":"address","name":"_creator","type":"address"},{"internalType":"string","name":"_topic","type":"string"},{"internalType":"string[]","name":"_options","type":"string[]"}],"stateMutability":"nonpayable","type":"constructor"},{"inputs":[],"name":"closeVoting","outputs":[],"stateMutability":"nonpayable","type":"function"},{"inputs":[],"name":"closed","outputs":[{"internalType":"bool","name":"","type":"bool"}],"stateMutability":"view","type":"function"},{"inputs":[],"name":"creator","outputs":[{"internalType":"address","name":"","type":"address"}],"stateMutability":"view","type":"function"},{"inputs":[{"internalType":"string","name":"option","type":"string"}],"name":"getOptionVotes","outputs":[{"internalType":"uint256","name":"","type":"uint256"}],"stateMutability":"view","type":"function"},{"inputs":[],"name":"getOptions","outputs":[{"internalType":"string[]","name":"","type":"string[]"}],"stateMutability":"view","type":"function"},{"inputs":[],"name":"getOptionsCount","outputs":[{"internalType":"uint256","name":"","type":"uint256"}],"stateMutability":"view","type":"function"},{"inputs":[],"name":"getSummary","outputs":[{"internalType":"address","name":"","type":"address"},{"internalType":"string","name":"","type":"string"},{"internalType":"uint256","name":"","type":"uint256"},{"internalType":"bool","name":"","type":"bool"}],"stateMutability":"view","type":"function"},{"inputs":[],"name":"getVotersCount","outputs":[{"internalType":"uint256","name":"","type":"uint256"}],"stateMutability":"view","type":"function"},{"inputs":[{"internalType":"uint256","name":"","type":"uint256"}],"name":"options","outputs":[{"internalType":"string","name":"","type":"string"}],"stateMutability":"view","type":"function"},{"inputs":[{"internalType":"string","name":"","type":"string"}],"name":"optionsVotes","outputs":[{"internalType":"uint256","name":"","type":"uint256"}],"stateMutability":"view","type":"function"},{"inputs":[],"name":"topic","outputs":[{"internalType":"string","name":"","type":"string"}],"stateMutability":"view","type":"function"},{"inputs":[{"internalType":"string","name":"option","type":"string"}],"name":"vote","outputs":[],"stateMutability":"nonpayable","type":"function"},{"inputs":[{"internalType":"address","name":"","type":"address"}],"name":"voters","outputs":[{"internalType":"bool","name":"","type":"bool"}],"stateMutability":"view","type":"function"},{"inputs":[],"name":"votersCount","outputs":[{"internalType":"uint256","name":"","type":"uint256"}],"stateMutability":"view","type":"function"}],"devdoc":{"kind":"dev","methods":{},"version":1},"evm":{"assembly":"    /* \"Voting.sol\":710:2606  contract Voting {... */\n  mstore(0x40, 0x80)\n    /* \"Voting.sol\":1091:1257  constructor (address _creator, string memory _topic, string[] memory _options) {... */\n  callvalue\n  dup1\n  iszero\n  tag_1\n  jumpi\n  0x00\n  dup1\n  revert\ntag_1:\n  pop\n  mload(0x40)\n  sub(codesize, bytecodeSize)\n  dup1\n  bytecodeSize\n  dup4\n  codecopy\n  dup2\n  dup2\n  add\n  0x40\n  mstore\n  dup2\n  add\n  swap1\n  tag_2\n  swap2\n  swap1\n  tag_3\n  jump\t// in\ntag_2:\n    /* \"Voting.sol\":1190:1198  _creator */\n  dup3\n    /* \"Voting.sol\":1180:1187  creator */\n  0x00\n  dup1\n    /* \"Voting.sol\":1180:1198  creator = _creator */\n  0x0100\n  exp\n  dup2\n  sload\n  dup2\n  0xffffffffffffffffffffffffffffffffffffffff\n  mul\n  not\n  and\n  swap1\n  dup4\n  0xffffffffffffffffffffffffffffffffffffffff\n  and\n  mul\n  or\n  swap1\n  sstore\n  pop\n    /* \"Voting.sol\":1216:1222  _topic */\n  dup2\n    /* \"Voting.sol\":1208:1213  topic */\n  0x01\n    /* \"Voting.sol\":1208:1222  topic = _topic */\n  swap1\n  dup2\n  tag_6\n  swap2\n  swap1\n  tag_7\n  jump\t// in\ntag_6:\n  pop\n    /* \"Voting.sol\":1242:1250  _options */\n  dup1\n    /* \"Voting.sol\":1232:1239  options */\n  0x02\n    /* \"Voting.sol\":1232:1250  options = _options */\n  swap1\n  dup1\n  mload\n  swap1\n  0x20\n  add\n  swap1\n  tag_8\n  swap3\n  swap2\n  swap1\n  tag_9\n  jump\t// in\ntag_8:\n  pop\n    /* \"Voting.sol\":1091:1257  constructor (address _creator, string memory _topic, string[] memory _options) {... */\n  pop\n  pop\n  pop\n    /* \"Voting.sol\":710:2606  contract Voting {... */\n  jump(tag_10)\ntag_9:\n  dup3\n  dup1\n  sload\n  dup3\n  dup3\n  sstore\n  swap1\n  0x00\n  mstore\n  keccak256(0x00, 0x20)\n  swap1\n  dup2\n  add\n  swap3\n  dup3\n  iszero\n  tag_11\n  jumpi\n  swap2\n  0x20\n  mul\n  dup3\n  add\ntag_12:\n  dup3\n  dup2\n  gt\n  iszero\n  tag_13\n  jumpi\n  dup3\n  mload\n  dup3\n  swap1\n  dup2\n  tag_14\n  swap2\n  swap1\n  tag_7\n  jump\t// in\ntag_14:\n  pop\n  swap2\n  0x20\n  add\n  swap2\n  swap1\n  0x01\n  add\n  swap1\n  jump(tag_12)\ntag_13:\ntag_11:\n  pop\n  swap1\n  pop\n  tag_15\n  swap2\n  swap1\n  tag_16\n  jump\t// in\ntag_15:\n  pop\n  swap1\n  jump\t// out\ntag_16:\ntag_17:\n  dup1\n  dup3\n  gt\n  iszero\n  tag_18\n  jumpi\n  0x00\n  dup2\n  dup2\n  tag_19\n  swap2\n  swap1\n  tag_20\n  jump\t// in\ntag_19:\n  pop\n  0x01\n  add\n  jump(tag_17)\ntag_18:\n  pop\n  swap1\n  jump\t// out\ntag_20:\n  pop\n  dup1\n  sload\n  tag_21\n  swap1\n  tag_22\n  jump\t// in\ntag_21:\n  0x00\n  dup3\n  sstore\n  dup1\n  0x1f\n  lt\n  tag_24\n  jumpi\n  pop\n  jump(tag_23)\ntag_24:\n  0x1f\n  add\n  0x20\n  swap1\n  div\n  swap1\n  0x00\n  mstore\n  keccak256(0x00, 0x20)\n  swap1\n  dup2\n  add\n  swap1\n  tag_25\n  swap2\n  swap1\n  tag_26\n  jump\t// in\ntag_25:\ntag_23:\n  pop\n  jump\t// out\ntag_26:\ntag_27:\n  dup1\n  dup3\n  gt\n  iszero\n  tag_28\n  jumpi\n  0x00\n  dup2\n  0x00\n  swap1\n  sstore\n  pop\n  0x01\n  add\n  jump(tag_27)\ntag_28:\n  pop\n  swap1\n  jump\t// out\n    /* \"#utility.yul\":7:82   */\ntag_29:\n    /* \"#utility.yul\":40:46   */\n  0x00\n    /* \"#utility.yul\":73:75   */\n  0x40\n    /* \"#utility.yul\":67:76   */\n  mload\n    /* \"#utility.yul\":57:76   */\n  swap1\n  pop\n    /* \"#utility.yul\":7:82   */\n  swap1\n  jump\t// out\n    /* \"#utility.yul\":88:205   */\ntag_30:\n    /* \"#utility.yul\":197:198   */\n  0x00\n    /* \"#utility.yul\":194:195   */\n  dup1\n    /* \"#utility.yul\":187:199   */\n  revert\n    /* \"#utility.yul\":211:328   */\ntag_31:\n    /* \"#utility.yul\":320:321   */\n  0x00\n    /* \"#utility.yul\":317:318   */\n  dup1\n    /* \"#utility.yul\":310:322   */\n  revert\n    /* \"#utility.yul\":334:460   */\ntag_32:\n    /* \"#utility.yul\":371:378   */\n  0x00\n    /* \"#utility.yul\":411:453   */\n  0xffffffffffffffffffffffffffffffffffffffff\n    /* \"#utility.yul\":404:409   */\n  dup3\n    /* \"#utility.yul\":400:454   */\n  and\n    /* \"#utility.yul\":389:454   */\n  swap1\n  pop\n    /* \"#utility.yul\":334:460   */\n  swap2\n  swap1\n  pop\n  jump\t// out\n    /* \"#utility.yul\":466:562   */\ntag_33:\n    /* \"#utility.yul\":503:510   */\n  0x00\n    /* \"#utility.yul\":532:556   */\n  tag_74\n    /* \"#utility.yul\":550:555   */\n  dup3\n    /* \"#utility.yul\":532:556   */\n  tag_32\n  jump\t// in\ntag_74:\n    /* \"#utility.yul\":521:556   */\n  swap1\n  pop\n    /* \"#utility.yul\":466:562   */\n  swap2\n  swap1\n  pop\n  jump\t// out\n    /* \"#utility.yul\":568:690   */\ntag_34:\n    /* \"#utility.yul\":641:665   */\n  tag_76\n    /* \"#utility.yul\":659:664   */\n  dup2\n    /* \"#utility.yul\":641:665   */\n  tag_33\n  jump\t// in\ntag_76:\n    /* \"#utility.yul\":634:639   */\n  dup2\n    /* \"#utility.yul\":631:666   */\n  eq\n    /* \"#utility.yul\":621:684   */\n  tag_77\n  jumpi\n    /* \"#utility.yul\":680:681   */\n  0x00\n    /* \"#utility.yul\":677:678   */\n  dup1\n    /* \"#utility.yul\":670:682   */\n  revert\n    /* \"#utility.yul\":621:684   */\ntag_77:\n    /* \"#utility.yul\":568:690   */\n  pop\n  jump\t// out\n    /* \"#utility.yul\":696:839   */\ntag_35:\n    /* \"#utility.yul\":753:758   */\n  0x00\n    /* \"#utility.yul\":784:790   */\n  dup2\n    /* \"#utility.yul\":778:791   */\n  mload\n    /* \"#utility.yul\":769:791   */\n  swap1\n  pop\n    /* \"#utility.yul\":800:833   */\n  tag_79\n    /* \"#utility.yul\":827:832   */\n  dup2\n    /* \"#utility.yul\":800:833   */\n  tag_34\n  jump\t// in\ntag_79:\n    /* \"#utility.yul\":696:839   */\n  swap3\n  swap2\n  pop\n  pop\n  jump\t// out\n    /* \"#utility.yul\":845:962   */\ntag_36:\n    /* \"#utility.yul\":954:955   */\n  0x00\n    /* \"#utility.yul\":951:952   */\n  dup1\n    /* \"#utility.yul\":944:956   */\n  revert\n    /* \"#utility.yul\":968:1085   */\ntag_37:\n    /* \"#utility.yul\":1077:1078   */\n  0x00\n    /* \"#utility.yul\":1074:1075   */\n  dup1\n    /* \"#utility.yul\":1067:1079   */\n  revert\n    /* \"#utility.yul\":1091:1193   */\ntag_38:\n    /* \"#utility.yul\":1132:1138   */\n  0x00\n    /* \"#utility.yul\":1183:1185   */\n  0x1f\n    /* \"#utility.yul\":1179:1186   */\n  not\n    /* \"#utility.yul\":1174:1176   */\n  0x1f\n    /* \"#utility.yul\":1167:1172   */\n  dup4\n    /* \"#utility.yul\":1163:1177   */\n  add\n    /* \"#utility.yul\":1159:1187   */\n  and\n    /* \"#utility.yul\":1149:1187   */\n  swap1\n  pop\n    /* \"#utility.yul\":1091:1193   */\n  swap2\n  swap1\n  pop\n  jump\t// out\n    /* \"#utility.yul\":1199:1379   */\ntag_39:\n    /* \"#utility.yul\":1247:1324   */\n  0x4e487b7100000000000000000000000000000000000000000000000000000000\n    /* \"#utility.yul\":1244:1245   */\n  0x00\n    /* \"#utility.yul\":1237:1325   */\n  mstore\n    /* \"#utility.yul\":1344:1348   */\n  0x41\n    /* \"#utility.yul\":1341:1342   */\n  0x04\n    /* \"#utility.yul\":1334:1349   */\n  mstore\n    /* \"#utility.yul\":1368:1372   */\n  0x24\n    /* \"#utility.yul\":1365:1366   */\n  0x00\n    /* \"#utility.yul\":1358:1373   */\n  revert\n    /* \"#utility.yul\":1385:1666   */\ntag_40:\n    /* \"#utility.yul\":1468:1495   */\n  tag_85\n    /* \"#utility.yul\":1490:1494   */\n  dup3\n    /* \"#utility.yul\":1468:1495   */\n  tag_38\n  jump\t// in\ntag_85:\n    /* \"#utility.yul\":1460:1466   */\n  dup2\n    /* \"#utility.yul\":1456:1496   */\n  add\n    /* \"#utility.yul\":1598:1604   */\n  dup2\n    /* \"#utility.yul\":1586:1596   */\n  dup2\n    /* \"#utility.yul\":1583:1605   */\n  lt\n    /* \"#utility.yul\":1562:1580   */\n  0xffffffffffffffff\n    /* \"#utility.yul\":1550:1560   */\n  dup3\n    /* \"#utility.yul\":1547:1581   */\n  gt\n    /* \"#utility.yul\":1544:1606   */\n  or\n    /* \"#utility.yul\":1541:1629   */\n  iszero\n  tag_86\n  jumpi\n    /* \"#utility.yul\":1609:1627   */\n  tag_87\n  tag_39\n  jump\t// in\ntag_87:\n    /* \"#utility.yul\":1541:1629   */\ntag_86:\n    /* \"#utility.yul\":1649:1659   */\n  dup1\n    /* \"#utility.yul\":1645:1647   */\n  0x40\n    /* \"#utility.yul\":1638:1660   */\n  mstore\n    /* \"#utility.yul\":1428:1666   */\n  pop\n    /* \"#utility.yul\":1385:1666   */\n  pop\n  pop\n  jump\t// out\n    /* \"#utility.yul\":1672:1801   */\ntag_41:\n    /* \"#utility.yul\":1706:1712   */\n  0x00\n    /* \"#utility.yul\":1733:1753   */\n  tag_89\n  tag_29\n  jump\t// in\ntag_89:\n    /* \"#utility.yul\":1723:1753   */\n  swap1\n  pop\n    /* \"#utility.yul\":1762:1795   */\n  tag_90\n    /* \"#utility.yul\":1790:1794   */\n  dup3\n    /* \"#utility.yul\":1782:1788   */\n  dup3\n    /* \"#utility.yul\":1762:1795   */\n  tag_40\n  jump\t// in\ntag_90:\n    /* \"#utility.yul\":1672:1801   */\n  swap2\n  swap1\n  pop\n  jump\t// out\n    /* \"#utility.yul\":1807:2115   */\ntag_42:\n    /* \"#utility.yul\":1869:1873   */\n  0x00\n    /* \"#utility.yul\":1959:1977   */\n  0xffffffffffffffff\n    /* \"#utility.yul\":1951:1957   */\n  dup3\n    /* \"#utility.yul\":1948:1978   */\n  gt\n    /* \"#utility.yul\":1945:2001   */\n  iszero\n  tag_92\n  jumpi\n    /* \"#utility.yul\":1981:1999   */\n  tag_93\n  tag_39\n  jump\t// in\ntag_93:\n    /* \"#utility.yul\":1945:2001   */\ntag_92:\n    /* \"#utility.yul\":2019:2048   */\n  tag_94\n    /* \"#utility.yul\":2041:2047   */\n  dup3\n    /* \"#utility.yul\":2019:2048   */\n  tag_38\n  jump\t// in\ntag_94:\n    /* \"#utility.yul\":2011:2048   */\n  swap1\n  pop\n    /* \"#utility.yul\":2103:2107   */\n  0x20\n    /* \"#utility.yul\":2097:2101   */\n  dup2\n    /* \"#utility.yul\":2093:2108   */\n  add\n    /* \"#utility.yul\":2085:2108   */\n  swap1\n  pop\n    /* \"#utility.yul\":1807:2115   */\n  swap2\n  swap1\n  pop\n  jump\t// out\n    /* \"#utility.yul\":2121:2367   */\ntag_43:\n    /* \"#utility.yul\":2202:2203   */\n  0x00\n    /* \"#utility.yul\":2212:2325   */\ntag_96:\n    /* \"#utility.yul\":2226:2232   */\n  dup4\n    /* \"#utility.yul\":2223:2224   */\n  dup2\n    /* \"#utility.yul\":2220:2233   */\n  lt\n    /* \"#utility.yul\":2212:2325   */\n  iszero\n  tag_98\n  jumpi\n    /* \"#utility.yul\":2311:2312   */\n  dup1\n    /* \"#utility.yul\":2306:2309   */\n  dup3\n    /* \"#utility.yul\":2302:2313   */\n  add\n    /* \"#utility.yul\":2296:2314   */\n  mload\n    /* \"#utility.yul\":2292:2293   */\n  dup2\n    /* \"#utility.yul\":2287:2290   */\n  dup5\n    /* \"#utility.yul\":2283:2294   */\n  add\n    /* \"#utility.yul\":2276:2315   */\n  mstore\n    /* \"#utility.yul\":2248:2250   */\n  0x20\n    /* \"#utility.yul\":2245:2246   */\n  dup2\n    /* \"#utility.yul\":2241:2251   */\n  add\n    /* \"#utility.yul\":2236:2251   */\n  swap1\n  pop\n    /* \"#utility.yul\":2212:2325   */\n  jump(tag_96)\ntag_98:\n    /* \"#utility.yul\":2359:2360   */\n  0x00\n    /* \"#utility.yul\":2350:2356   */\n  dup5\n    /* \"#utility.yul\":2345:2348   */\n  dup5\n    /* \"#utility.yul\":2341:2357   */\n  add\n    /* \"#utility.yul\":2334:2361   */\n  mstore\n    /* \"#utility.yul\":2183:2367   */\n  pop\n    /* \"#utility.yul\":2121:2367   */\n  pop\n  pop\n  pop\n  jump\t// out\n    /* \"#utility.yul\":2373:2807   */\ntag_44:\n    /* \"#utility.yul\":2462:2467   */\n  0x00\n    /* \"#utility.yul\":2487:2553   */\n  tag_100\n    /* \"#utility.yul\":2503:2552   */\n  tag_101\n    /* \"#utility.yul\":2545:2551   */\n  dup5\n    /* \"#utility.yul\":2503:2552   */\n  tag_42\n  jump\t// in\ntag_101:\n    /* \"#utility.yul\":2487:2553   */\n  tag_41\n  jump\t// in\ntag_100:\n    /* \"#utility.yul\":2478:2553   */\n  swap1\n  pop\n    /* \"#utility.yul\":2576:2582   */\n  dup3\n    /* \"#utility.yul\":2569:2574   */\n  dup2\n    /* \"#utility.yul\":2562:2583   */\n  mstore\n    /* \"#utility.yul\":2614:2618   */\n  0x20\n    /* \"#utility.yul\":2607:2612   */\n  dup2\n    /* \"#utility.yul\":2603:2619   */\n  add\n    /* \"#utility.yul\":2652:2655   */\n  dup5\n    /* \"#utility.yul\":2643:2649   */\n  dup5\n    /* \"#utility.yul\":2638:2641   */\n  dup5\n    /* \"#utility.yul\":2634:2650   */\n  add\n    /* \"#utility.yul\":2631:2656   */\n  gt\n    /* \"#utility.yul\":2628:2740   */\n  iszero\n  tag_102\n  jumpi\n    /* \"#utility.yul\":2659:2738   */\n  tag_103\n  tag_37\n  jump\t// in\ntag_103:\n    /* \"#utility.yul\":2628:2740   */\ntag_102:\n    /* \"#utility.yul\":2749:2801   */\n  tag_104\n    /* \"#utility.yul\":2794:2800   */\n  dup5\n    /* \"#utility.yul\":2789:2792   */\n  dup3\n    /* \"#utility.yul\":2784:2787   */\n  dup6\n    /* \"#utility.yul\":2749:2801   */\n  tag_43\n  jump\t// in\ntag_104:\n    /* \"#utility.yul\":2468:2807   */\n  pop\n    /* \"#utility.yul\":2373:2807   */\n  swap4\n  swap3\n  pop\n  pop\n  pop\n  jump\t// out\n    /* \"#utility.yul\":2827:3182   */\ntag_45:\n    /* \"#utility.yul\":2894:2899   */\n  0x00\n    /* \"#utility.yul\":2943:2946   */\n  dup3\n    /* \"#utility.yul\":2936:2940   */\n  0x1f\n    /* \"#utility.yul\":2928:2934   */\n  dup4\n    /* \"#utility.yul\":2924:2941   */\n  add\n    /* \"#utility.yul\":2920:2947   */\n  slt\n    /* \"#utility.yul\":2910:3032   */\n  tag_106\n  jumpi\n    /* \"#utility.yul\":2951:3030   */\n  tag_107\n  tag_36\n  jump\t// in\ntag_107:\n    /* \"#utility.yul\":2910:3032   */\ntag_106:\n    /* \"#utility.yul\":3061:3067   */\n  dup2\n    /* \"#utility.yul\":3055:3068   */\n  mload\n    /* \"#utility.yul\":3086:3176   */\n  tag_108\n    /* \"#utility.yul\":3172:3175   */\n  dup5\n    /* \"#utility.yul\":3164:3170   */\n  dup3\n    /* \"#utility.yul\":3157:3161   */\n  0x20\n    /* \"#utility.yul\":3149:3155   */\n  dup7\n    /* \"#utility.yul\":3145:3162   */\n  add\n    /* \"#utility.yul\":3086:3176   */\n  tag_44\n  jump\t// in\ntag_108:\n    /* \"#utility.yul\":3077:3176   */\n  swap2\n  pop\n    /* \"#utility.yul\":2900:3182   */\n  pop\n    /* \"#utility.yul\":2827:3182   */\n  swap3\n  swap2\n  pop\n  pop\n  jump\t// out\n    /* \"#utility.yul\":3188:3509   */\ntag_46:\n    /* \"#utility.yul\":3275:3279   */\n  0x00\n    /* \"#utility.yul\":3365:3383   */\n  0xffffffffffffffff\n    /* \"#utility.yul\":3357:3363   */\n  dup3\n    /* \"#utility.yul\":3354:3384   */\n  gt\n    /* \"#utility.yul\":3351:3407   */\n  iszero\n  tag_110\n  jumpi\n    /* \"#utility.yul\":3387:3405   */\n  tag_111\n  tag_39\n  jump\t// in\ntag_111:\n    /* \"#utility.yul\":3351:3407   */\ntag_110:\n    /* \"#utility.yul\":3437:3441   */\n  0x20\n    /* \"#utility.yul\":3429:3435   */\n  dup3\n    /* \"#utility.yul\":3425:3442   */\n  mul\n    /* \"#utility.yul\":3417:3442   */\n  swap1\n  pop\n    /* \"#utility.yul\":3497:3501   */\n  0x20\n    /* \"#utility.yul\":3491:3495   */\n  dup2\n    /* \"#utility.yul\":3487:3502   */\n  add\n    /* \"#utility.yul\":3479:3502   */\n  swap1\n  pop\n    /* \"#utility.yul\":3188:3509   */\n  swap2\n  swap1\n  pop\n  jump\t// out\n    /* \"#utility.yul\":3515:3632   */\ntag_47:\n    /* \"#utility.yul\":3624:3625   */\n  0x00\n    /* \"#utility.yul\":3621:3622   */\n  dup1\n    /* \"#utility.yul\":3614:3626   */\n  revert\n    /* \"#utility.yul\":3654:4614   */\ntag_48:\n    /* \"#utility.yul\":3771:3776   */\n  0x00\n    /* \"#utility.yul\":3796:3887   */\n  tag_114\n    /* \"#utility.yul\":3812:3886   */\n  tag_115\n    /* \"#utility.yul\":3879:3885   */\n  dup5\n    /* \"#utility.yul\":3812:3886   */\n  tag_46\n  jump\t// in\ntag_115:\n    /* \"#utility.yul\":3796:3887   */\n  tag_41\n  jump\t// in\ntag_114:\n    /* \"#utility.yul\":3787:3887   */\n  swap1\n  pop\n    /* \"#utility.yul\":3907:3912   */\n  dup1\n    /* \"#utility.yul\":3936:3942   */\n  dup4\n    /* \"#utility.yul\":3929:3934   */\n  dup3\n    /* \"#utility.yul\":3922:3943   */\n  mstore\n    /* \"#utility.yul\":3970:3974   */\n  0x20\n    /* \"#utility.yul\":3963:3968   */\n  dup3\n    /* \"#utility.yul\":3959:3975   */\n  add\n    /* \"#utility.yul\":3952:3975   */\n  swap1\n  pop\n    /* \"#utility.yul\":4023:4027   */\n  0x20\n    /* \"#utility.yul\":4015:4021   */\n  dup5\n    /* \"#utility.yul\":4011:4028   */\n  mul\n    /* \"#utility.yul\":4003:4009   */\n  dup4\n    /* \"#utility.yul\":3999:4029   */\n  add\n    /* \"#utility.yul\":4052:4055   */\n  dup6\n    /* \"#utility.yul\":4044:4050   */\n  dup2\n    /* \"#utility.yul\":4041:4056   */\n  gt\n    /* \"#utility.yul\":4038:4160   */\n  iszero\n  tag_116\n  jumpi\n    /* \"#utility.yul\":4071:4150   */\n  tag_117\n  tag_47\n  jump\t// in\ntag_117:\n    /* \"#utility.yul\":4038:4160   */\ntag_116:\n    /* \"#utility.yul\":4186:4192   */\n  dup4\n    /* \"#utility.yul\":4169:4608   */\ntag_118:\n    /* \"#utility.yul\":4203:4209   */\n  dup2\n    /* \"#utility.yul\":4198:4201   */\n  dup2\n    /* \"#utility.yul\":4195:4210   */\n  lt\n    /* \"#utility.yul\":4169:4608   */\n  iszero\n  tag_120\n  jumpi\n    /* \"#utility.yul\":4285:4288   */\n  dup1\n    /* \"#utility.yul\":4279:4289   */\n  mload\n    /* \"#utility.yul\":4321:4339   */\n  0xffffffffffffffff\n    /* \"#utility.yul\":4308:4319   */\n  dup2\n    /* \"#utility.yul\":4305:4340   */\n  gt\n    /* \"#utility.yul\":4302:4424   */\n  iszero\n  tag_121\n  jumpi\n    /* \"#utility.yul\":4343:4422   */\n  tag_122\n  tag_36\n  jump\t// in\ntag_122:\n    /* \"#utility.yul\":4302:4424   */\ntag_121:\n    /* \"#utility.yul\":4467:4478   */\n  dup1\n    /* \"#utility.yul\":4459:4465   */\n  dup7\n    /* \"#utility.yul\":4455:4479   */\n  add\n    /* \"#utility.yul\":4505:4563   */\n  tag_123\n    /* \"#utility.yul\":4559:4562   */\n  dup10\n    /* \"#utility.yul\":4547:4557   */\n  dup3\n    /* \"#utility.yul\":4505:4563   */\n  tag_45\n  jump\t// in\ntag_123:\n    /* \"#utility.yul\":4500:4503   */\n  dup6\n    /* \"#utility.yul\":4493:4564   */\n  mstore\n    /* \"#utility.yul\":4593:4597   */\n  0x20\n    /* \"#utility.yul\":4588:4591   */\n  dup6\n    /* \"#utility.yul\":4584:4598   */\n  add\n    /* \"#utility.yul\":4577:4598   */\n  swap5\n  pop\n    /* \"#utility.yul\":4245:4608   */\n  pop\n  pop\n    /* \"#utility.yul\":4229:4233   */\n  0x20\n    /* \"#utility.yul\":4224:4227   */\n  dup2\n    /* \"#utility.yul\":4220:4234   */\n  add\n    /* \"#utility.yul\":4213:4234   */\n  swap1\n  pop\n    /* \"#utility.yul\":4169:4608   */\n  jump(tag_118)\ntag_120:\n    /* \"#utility.yul\":4173:4194   */\n  pop\n    /* \"#utility.yul\":3777:4614   */\n  pop\n  pop\n    /* \"#utility.yul\":3654:4614   */\n  swap4\n  swap3\n  pop\n  pop\n  pop\n  jump\t// out\n    /* \"#utility.yul\":4636:5041   */\ntag_49:\n    /* \"#utility.yul\":4728:4733   */\n  0x00\n    /* \"#utility.yul\":4777:4780   */\n  dup3\n    /* \"#utility.yul\":4770:4774   */\n  0x1f\n    /* \"#utility.yul\":4762:4768   */\n  dup4\n    /* \"#utility.yul\":4758:4775   */\n  add\n    /* \"#utility.yul\":4754:4781   */\n  slt\n    /* \"#utility.yul\":4744:4866   */\n  tag_125\n  jumpi\n    /* \"#utility.yul\":4785:4864   */\n  tag_126\n  tag_36\n  jump\t// in\ntag_126:\n    /* \"#utility.yul\":4744:4866   */\ntag_125:\n    /* \"#utility.yul\":4895:4901   */\n  dup2\n    /* \"#utility.yul\":4889:4902   */\n  mload\n    /* \"#utility.yul\":4920:5035   */\n  tag_127\n    /* \"#utility.yul\":5031:5034   */\n  dup5\n    /* \"#utility.yul\":5023:5029   */\n  dup3\n    /* \"#utility.yul\":5016:5020   */\n  0x20\n    /* \"#utility.yul\":5008:5014   */\n  dup7\n    /* \"#utility.yul\":5004:5021   */\n  add\n    /* \"#utility.yul\":4920:5035   */\n  tag_48\n  jump\t// in\ntag_127:\n    /* \"#utility.yul\":4911:5035   */\n  swap2\n  pop\n    /* \"#utility.yul\":4734:5041   */\n  pop\n    /* \"#utility.yul\":4636:5041   */\n  swap3\n  swap2\n  pop\n  pop\n  jump\t// out\n    /* \"#utility.yul\":5047:6106   */\ntag_3:\n    /* \"#utility.yul\":5180:5186   */\n  0x00\n    /* \"#utility.yul\":5188:5194   */\n  dup1\n    /* \"#utility.yul\":5196:5202   */\n  0x00\n    /* \"#utility.yul\":5245:5247   */\n  0x60\n    /* \"#utility.yul\":5233:5242   */\n  dup5\n    /* \"#utility.yul\":5224:5231   */\n  dup7\n    /* \"#utility.yul\":5220:5243   */\n  sub\n    /* \"#utility.yul\":5216:5248   */\n  slt\n    /* \"#utility.yul\":5213:5332   */\n  iszero\n  tag_129\n  jumpi\n    /* \"#utility.yul\":5251:5330   */\n  tag_130\n  tag_30\n  jump\t// in\ntag_130:\n    /* \"#utility.yul\":5213:5332   */\ntag_129:\n    /* \"#utility.yul\":5371:5372   */\n  0x00\n    /* \"#utility.yul\":5396:5460   */\n  tag_131\n    /* \"#utility.yul\":5452:5459   */\n  dup7\n    /* \"#utility.yul\":5443:5449   */\n  dup3\n    /* \"#utility.yul\":5432:5441   */\n  dup8\n    /* \"#utility.yul\":5428:5450   */\n  add\n    /* \"#utility.yul\":5396:5460   */\n  tag_35\n  jump\t// in\ntag_131:\n    /* \"#utility.yul\":5386:5460   */\n  swap4\n  pop\n    /* \"#utility.yul\":5342:5470   */\n  pop\n    /* \"#utility.yul\":5530:5532   */\n  0x20\n    /* \"#utility.yul\":5519:5528   */\n  dup5\n    /* \"#utility.yul\":5515:5533   */\n  add\n    /* \"#utility.yul\":5509:5534   */\n  mload\n    /* \"#utility.yul\":5561:5579   */\n  0xffffffffffffffff\n    /* \"#utility.yul\":5553:5559   */\n  dup2\n    /* \"#utility.yul\":5550:5580   */\n  gt\n    /* \"#utility.yul\":5547:5664   */\n  iszero\n  tag_132\n  jumpi\n    /* \"#utility.yul\":5583:5662   */\n  tag_133\n  tag_31\n  jump\t// in\ntag_133:\n    /* \"#utility.yul\":5547:5664   */\ntag_132:\n    /* \"#utility.yul\":5688:5762   */\n  tag_134\n    /* \"#utility.yul\":5754:5761   */\n  dup7\n    /* \"#utility.yul\":5745:5751   */\n  dup3\n    /* \"#utility.yul\":5734:5743   */\n  dup8\n    /* \"#utility.yul\":5730:5752   */\n  add\n    /* \"#utility.yul\":5688:5762   */\n  tag_45\n  jump\t// in\ntag_134:\n    /* \"#utility.yul\":5678:5762   */\n  swap3\n  pop\n    /* \"#utility.yul\":5480:5772   */\n  pop\n    /* \"#utility.yul\":5832:5834   */\n  0x40\n    /* \"#utility.yul\":5821:5830   */\n  dup5\n    /* \"#utility.yul\":5817:5835   */\n  add\n    /* \"#utility.yul\":5811:5836   */\n  mload\n    /* \"#utility.yul\":5863:5881   */\n  0xffffffffffffffff\n    /* \"#utility.yul\":5855:5861   */\n  dup2\n    /* \"#utility.yul\":5852:5882   */\n  gt\n    /* \"#utility.yul\":5849:5966   */\n  iszero\n  tag_135\n  jumpi\n    /* \"#utility.yul\":5885:5964   */\n  tag_136\n  tag_31\n  jump\t// in\ntag_136:\n    /* \"#utility.yul\":5849:5966   */\ntag_135:\n    /* \"#utility.yul\":5990:6089   */\n  tag_137\n    /* \"#utility.yul\":6081:6088   */\n  dup7\n    /* \"#utility.yul\":6072:6078   */\n  dup3\n    /* \"#utility.yul\":6061:6070   */\n  dup8\n    /* \"#utility.yul\":6057:6079   */\n  add\n    /* \"#utility.yul\":5990:6089   */\n  tag_49\n  jump\t// in\ntag_137:\n    /* \"#utility.yul\":5980:6089   */\n  swap2\n  pop\n    /* \"#utility.yul\":5782:6099   */\n  pop\n    /* \"#utility.yul\":5047:6106   */\n  swap3\n  pop\n  swap3\n  pop\n  swap3\n  jump\t// out\n    /* \"#utility.yul\":6112:6211   */\ntag_50:\n    /* \"#utility.yul\":6164:6170   */\n  0x00\n    /* \"#utility.yul\":6198:6203   */\n  dup2\n    /* \"#utility.yul\":6192:6204   */\n  mload\n    /* \"#utility.yul\":6182:6204   */\n  swap1\n  pop\n    /* \"#utility.yul\":6112:6211   */\n  swap2\n  swap1\n  pop\n  jump\t// out\n    /* \"#utility.yul\":6217:6397   */\ntag_51:\n    /* \"#utility.yul\":6265:6342   */\n  0x4e487b7100000000000000000000000000000000000000000000000000000000\n    /* \"#utility.yul\":6262:6263   */\n  0x00\n    /* \"#utility.yul\":6255:6343   */\n  mstore\n    /* \"#utility.yul\":6362:6366   */\n  0x22\n    /* \"#utility.yul\":6359:6360   */\n  0x04\n    /* \"#utility.yul\":6352:6367   */\n  mstore\n    /* \"#utility.yul\":6386:6390   */\n  0x24\n    /* \"#utility.yul\":6383:6384   */\n  0x00\n    /* \"#utility.yul\":6376:6391   */\n  revert\n    /* \"#utility.yul\":6403:6723   */\ntag_22:\n    /* \"#utility.yul\":6447:6453   */\n  0x00\n    /* \"#utility.yul\":6484:6485   */\n  0x02\n    /* \"#utility.yul\":6478:6482   */\n  dup3\n    /* \"#utility.yul\":6474:6486   */\n  div\n    /* \"#utility.yul\":6464:6486   */\n  swap1\n  pop\n    /* \"#utility.yul\":6531:6532   */\n  0x01\n    /* \"#utility.yul\":6525:6529   */\n  dup3\n    /* \"#utility.yul\":6521:6533   */\n  and\n    /* \"#utility.yul\":6552:6570   */\n  dup1\n    /* \"#utility.yul\":6542:6623   */\n  tag_141\n  jumpi\n    /* \"#utility.yul\":6608:6612   */\n  0x7f\n    /* \"#utility.yul\":6600:6606   */\n  dup3\n    /* \"#utility.yul\":6596:6613   */\n  and\n    /* \"#utility.yul\":6586:6613   */\n  swap2\n  pop\n    /* \"#utility.yul\":6542:6623   */\ntag_141:\n    /* \"#utility.yul\":6670:6672   */\n  0x20\n    /* \"#utility.yul\":6662:6668   */\n  dup3\n    /* \"#utility.yul\":6659:6673   */\n  lt\n    /* \"#utility.yul\":6639:6657   */\n  dup2\n    /* \"#utility.yul\":6636:6674   */\n  sub\n    /* \"#utility.yul\":6633:6717   */\n  tag_142\n  jumpi\n    /* \"#utility.yul\":6689:6707   */\n  tag_143\n  tag_51\n  jump\t// in\ntag_143:\n    /* \"#utility.yul\":6633:6717   */\ntag_142:\n    /* \"#utility.yul\":6454:6723   */\n  pop\n    /* \"#utility.yul\":6403:6723   */\n  swap2\n  swap1\n  pop\n  jump\t// out\n    /* \"#utility.yul\":6729:6870   */\ntag_52:\n    /* \"#utility.yul\":6778:6782   */\n  0x00\n    /* \"#utility.yul\":6801:6804   */\n  dup2\n    /* \"#utility.yul\":6793:6804   */\n  swap1\n  pop\n    /* \"#utility.yul\":6824:6827   */\n  dup2\n    /* \"#utility.yul\":6821:6822   */\n  0x00\n    /* \"#utility.yul\":6814:6828   */\n  mstore\n    /* \"#utility.yul\":6858:6862   */\n  0x20\n    /* \"#utility.yul\":6855:6856   */\n  0x00\n    /* \"#utility.yul\":6845:6863   */\n  keccak256\n    /* \"#utility.yul\":6837:6863   */\n  swap1\n  pop\n    /* \"#utility.yul\":6729:6870   */\n  swap2\n  swap1\n  pop\n  jump\t// out\n    /* \"#utility.yul\":6876:6969   */\ntag_53:\n    /* \"#utility.yul\":6913:6919   */\n  0x00\n    /* \"#utility.yul\":6960:6962   */\n  0x20\n    /* \"#utility.yul\":6955:6957   */\n  0x1f\n    /* \"#utility.yul\":6948:6953   */\n  dup4\n    /* \"#utility.yul\":6944:6958   */\n  add\n    /* \"#utility.yul\":6940:6963   */\n  div\n    /* \"#utility.yul\":6930:6963   */\n  swap1\n  pop\n    /* \"#utility.yul\":6876:6969   */\n  swap2\n  swap1\n  pop\n  jump\t// out\n    /* \"#utility.yul\":6975:7082   */\ntag_54:\n    /* \"#utility.yul\":7019:7027   */\n  0x00\n    /* \"#utility.yul\":7069:7074   */\n  dup3\n    /* \"#utility.yul\":7063:7067   */\n  dup3\n    /* \"#utility.yul\":7059:7075   */\n  shl\n    /* \"#utility.yul\":7038:7075   */\n  swap1\n  pop\n    /* \"#utility.yul\":6975:7082   */\n  swap3\n  swap2\n  pop\n  pop\n  jump\t// out\n    /* \"#utility.yul\":7088:7481   */\ntag_55:\n    /* \"#utility.yul\":7157:7163   */\n  0x00\n    /* \"#utility.yul\":7207:7208   */\n  0x08\n    /* \"#utility.yul\":7195:7205   */\n  dup4\n    /* \"#utility.yul\":7191:7209   */\n  mul\n    /* \"#utility.yul\":7230:7327   */\n  tag_148\n    /* \"#utility.yul\":7260:7326   */\n  0xffffffffffffffffffffffffffffffffffffffffffffffffffffffffffffffff\n    /* \"#utility.yul\":7249:7258   */\n  dup3\n    /* \"#utility.yul\":7230:7327   */\n  tag_54\n  jump\t// in\ntag_148:\n    /* \"#utility.yul\":7348:7387   */\n  tag_149\n    /* \"#utility.yul\":7378:7386   */\n  dup7\n    /* \"#utility.yul\":7367:7376   */\n  dup4\n    /* \"#utility.yul\":7348:7387   */\n  tag_54\n  jump\t// in\ntag_149:\n    /* \"#utility.yul\":7336:7387   */\n  swap6\n  pop\n    /* \"#utility.yul\":7420:7424   */\n  dup1\n    /* \"#utility.yul\":7416:7425   */\n  not\n    /* \"#utility.yul\":7409:7414   */\n  dup5\n    /* \"#utility.yul\":7405:7426   */\n  and\n    /* \"#utility.yul\":7396:7426   */\n  swap4\n  pop\n    /* \"#utility.yul\":7469:7473   */\n  dup1\n    /* \"#utility.yul\":7459:7467   */\n  dup7\n    /* \"#utility.yul\":7455:7474   */\n  and\n    /* \"#utility.yul\":7448:7453   */\n  dup5\n    /* \"#utility.yul\":7445:7475   */\n  or\n    /* \"#utility.yul\":7435:7475   */\n  swap3\n  pop\n    /* \"#utility.yul\":7164:7481   */\n  pop\n  pop\n    /* \"#utility.yul\":7088:7481   */\n  swap4\n  swap3\n  pop\n  pop\n  pop\n  jump\t// out\n    /* \"#utility.yul\":7487:7564   */\ntag_56:\n    /* \"#utility.yul\":7524:7531   */\n  0x00\n    /* \"#utility.yul\":7553:7558   */\n  dup2\n    /* \"#utility.yul\":7542:7558   */\n  swap1\n  pop\n    /* \"#utility.yul\":7487:7564   */\n  swap2\n  swap1\n  pop\n  jump\t// out\n    /* \"#utility.yul\":7570:7630   */\ntag_57:\n    /* \"#utility.yul\":7598:7601   */\n  0x00\n    /* \"#utility.yul\":7619:7624   */\n  dup2\n    /* \"#utility.yul\":7612:7624   */\n  swap1\n  pop\n    /* \"#utility.yul\":7570:7630   */\n  swap2\n  swap1\n  pop\n  jump\t// out\n    /* \"#utility.yul\":7636:7778   */\ntag_58:\n    /* \"#utility.yul\":7686:7695   */\n  0x00\n    /* \"#utility.yul\":7719:7772   */\n  tag_153\n    /* \"#utility.yul\":7737:7771   */\n  tag_154\n    /* \"#utility.yul\":7746:7770   */\n  tag_155\n    /* \"#utility.yul\":7764:7769   */\n  dup5\n    /* \"#utility.yul\":7746:7770   */\n  tag_56\n  jump\t// in\ntag_155:\n    /* \"#utility.yul\":7737:7771   */\n  tag_57\n  jump\t// in\ntag_154:\n    /* \"#utility.yul\":7719:7772   */\n  tag_56\n  jump\t// in\ntag_153:\n    /* \"#utility.yul\":7706:7772   */\n  swap1\n  pop\n    /* \"#utility.yul\":7636:7778   */\n  swap2\n  swap1\n  pop\n  jump\t// out\n    /* \"#utility.yul\":7784:7859   */\ntag_59:\n    /* \"#utility.yul\":7827:7830   */\n  0x00\n    /* \"#utility.yul\":7848:7853   */\n  dup2\n    /* \"#utility.yul\":7841:7853   */\n  swap1\n  pop\n    /* \"#utility.yul\":7784:7859   */\n  swap2\n  swap1\n  pop\n  jump\t// out\n    /* \"#utility.yul\":7865:8134   */\ntag_60:\n    /* \"#utility.yul\":7975:8014   */\n  tag_158\n    /* \"#utility.yul\":8006:8013   */\n  dup4\n    /* \"#utility.yul\":7975:8014   */\n  tag_58\n  jump\t// in\ntag_158:\n    /* \"#utility.yul\":8036:8127   */\n  tag_159\n    /* \"#utility.yul\":8085:8126   */\n  tag_160\n    /* \"#utility.yul\":8109:8125   */\n  dup3\n    /* \"#utility.yul\":8085:8126   */\n  tag_59\n  jump\t// in\ntag_160:\n    /* \"#utility.yul\":8077:8083   */\n  dup5\n    /* \"#utility.yul\":8070:8074   */\n  dup5\n    /* \"#utility.yul\":8064:8075   */\n  sload\n    /* \"#utility.yul\":8036:8127   */\n  tag_55\n  jump\t// in\ntag_159:\n    /* \"#utility.yul\":8030:8034   */\n  dup3\n    /* \"#utility.yul\":8023:8128   */\n  sstore\n    /* \"#utility.yul\":7941:8134   */\n  pop\n    /* \"#utility.yul\":7865:8134   */\n  pop\n  pop\n  pop\n  jump\t// out\n    /* \"#utility.yul\":8140:8213   */\ntag_61:\n    /* \"#utility.yul\":8185:8188   */\n  0x00\n    /* \"#utility.yul\":8140:8213   */\n  swap1\n  jump\t// out\n    /* \"#utility.yul\":8219:8408   */\ntag_62:\n    /* \"#utility.yul\":8296:8328   */\n  tag_163\n  tag_61\n  jump\t// in\ntag_163:\n    /* \"#utility.yul\":8337:8402   */\n  tag_164\n    /* \"#utility.yul\":8395:8401   */\n  dup2\n    /* \"#utility.yul\":8387:8393   */\n  dup5\n    /* \"#utility.yul\":8381:8385   */\n  dup5\n    /* \"#utility.yul\":8337:8402   */\n  tag_60\n  jump\t// in\ntag_164:\n    /* \"#utility.yul\":8272:8408   */\n  pop\n    /* \"#utility.yul\":8219:8408   */\n  pop\n  pop\n  jump\t// out\n    /* \"#utility.yul\":8414:8600   */\ntag_63:\n    /* \"#utility.yul\":8474:8594   */\ntag_166:\n    /* \"#utility.yul\":8491:8494   */\n  dup2\n    /* \"#utility.yul\":8484:8489   */\n  dup2\n    /* \"#utility.yul\":8481:8495   */\n  lt\n    /* \"#utility.yul\":8474:8594   */\n  iszero\n  tag_168\n  jumpi\n    /* \"#utility.yul\":8545:8584   */\n  tag_169\n    /* \"#utility.yul\":8582:8583   */\n  0x00\n    /* \"#utility.yul\":8575:8580   */\n  dup3\n    /* \"#utility.yul\":8545:8584   */\n  tag_62\n  jump\t// in\ntag_169:\n    /* \"#utility.yul\":8518:8519   */\n  0x01\n    /* \"#utility.yul\":8511:8516   */\n  dup2\n    /* \"#utility.yul\":8507:8520   */\n  add\n    /* \"#utility.yul\":8498:8520   */\n  swap1\n  pop\n    /* \"#utility.yul\":8474:8594   */\n  jump(tag_166)\ntag_168:\n    /* \"#utility.yul\":8414:8600   */\n  pop\n  pop\n  jump\t// out\n    /* \"#utility.yul\":8606:9149   */\ntag_64:\n    /* \"#utility.yul\":8707:8709   */\n  0x1f\n    /* \"#utility.yul\":8702:8705   */\n  dup3\n    /* \"#utility.yul\":8699:8710   */\n  gt\n    /* \"#utility.yul\":8696:9142   */\n  iszero\n  tag_171\n  jumpi\n    /* \"#utility.yul\":8741:8779   */\n  tag_172\n    /* \"#utility.yul\":8773:8778   */\n  dup2\n    /* \"#utility.yul\":8741:8779   */\n  tag_52\n  jump\t// in\ntag_172:\n    /* \"#utility.yul\":8825:8854   */\n  tag_173\n    /* \"#utility.yul\":8843:8853   */\n  dup5\n    /* \"#utility.yul\":8825:8854   */\n  tag_53\n  jump\t// in\ntag_173:\n    /* \"#utility.yul\":8815:8823   */\n  dup2\n    /* \"#utility.yul\":8811:8855   */\n  add\n    /* \"#utility.yul\":9008:9010   */\n  0x20\n    /* \"#utility.yul\":8996:9006   */\n  dup6\n    /* \"#utility.yul\":8993:9011   */\n  lt\n    /* \"#utility.yul\":8990:9039   */\n  iszero\n  tag_174\n  jumpi\n    /* \"#utility.yul\":9029:9037   */\n  dup2\n    /* \"#utility.yul\":9014:9037   */\n  swap1\n  pop\n    /* \"#utility.yul\":8990:9039   */\ntag_174:\n    /* \"#utility.yul\":9052:9132   */\n  tag_175\n    /* \"#utility.yul\":9108:9130   */\n  tag_176\n    /* \"#utility.yul\":9126:9129   */\n  dup6\n    /* \"#utility.yul\":9108:9130   */\n  tag_53\n  jump\t// in\ntag_176:\n    /* \"#utility.yul\":9098:9106   */\n  dup4\n    /* \"#utility.yul\":9094:9131   */\n  add\n    /* \"#utility.yul\":9081:9092   */\n  dup3\n    /* \"#utility.yul\":9052:9132   */\n  tag_63\n  jump\t// in\ntag_175:\n    /* \"#utility.yul\":8711:9142   */\n  pop\n  pop\n    /* \"#utility.yul\":8696:9142   */\ntag_171:\n    /* \"#utility.yul\":8606:9149   */\n  pop\n  pop\n  pop\n  jump\t// out\n    /* \"#utility.yul\":9155:9272   */\ntag_65:\n    /* \"#utility.yul\":9209:9217   */\n  0x00\n    /* \"#utility.yul\":9259:9264   */\n  dup3\n    /* \"#utility.yul\":9253:9257   */\n  dup3\n    /* \"#utility.yul\":9249:9265   */\n  shr\n    /* \"#utility.yul\":9228:9265   */\n  swap1\n  pop\n    /* \"#utility.yul\":9155:9272   */\n  swap3\n  swap2\n  pop\n  pop\n  jump\t// out\n    /* \"#utility.yul\":9278:9447   */\ntag_66:\n    /* \"#utility.yul\":9322:9328   */\n  0x00\n    /* \"#utility.yul\":9355:9406   */\n  tag_179\n    /* \"#utility.yul\":9403:9404   */\n  0x00\n    /* \"#utility.yul\":9399:9405   */\n  not\n    /* \"#utility.yul\":9391:9396   */\n  dup5\n    /* \"#utility.yul\":9388:9389   */\n  0x08\n    /* \"#utility.yul\":9384:9397   */\n  mul\n    /* \"#utility.yul\":9355:9406   */\n  tag_65\n  jump\t// in\ntag_179:\n    /* \"#utility.yul\":9351:9407   */\n  not\n    /* \"#utility.yul\":9436:9440   */\n  dup1\n    /* \"#utility.yul\":9430:9434   */\n  dup4\n    /* \"#utility.yul\":9426:9441   */\n  and\n    /* \"#utility.yul\":9416:9441   */\n  swap2\n  pop\n    /* \"#utility.yul\":9329:9447   */\n  pop\n    /* \"#utility.yul\":9278:9447   */\n  swap3\n  swap2\n  pop\n  pop\n  jump\t// out\n    /* \"#utility.yul\":9452:9747   */\ntag_67:\n    /* \"#utility.yul\":9528:9532   */\n  0x00\n    /* \"#utility.yul\":9674:9703   */\n  tag_181\n    /* \"#utility.yul\":9699:9702   */\n  dup4\n    /* \"#utility.yul\":9693:9697   */\n  dup4\n    /* \"#utility.yul\":9674:9703   */\n  tag_66\n  jump\t// in\ntag_181:\n    /* \"#utility.yul\":9666:9703   */\n  swap2\n  pop\n    /* \"#utility.yul\":9736:9739   */\n  dup3\n    /* \"#utility.yul\":9733:9734   */\n  0x02\n    /* \"#utility.yul\":9729:9740   */\n  mul\n    /* \"#utility.yul\":9723:9727   */\n  dup3\n    /* \"#utility.yul\":9720:9741   */\n  or\n    /* \"#utility.yul\":9712:9741   */\n  swap1\n  pop\n    /* \"#utility.yul\":9452:9747   */\n  swap3\n  swap2\n  pop\n  pop\n  jump\t// out\n    /* \"#utility.yul\":9752:11147   */\ntag_7:\n    /* \"#utility.yul\":9869:9906   */\n  tag_183\n    /* \"#utility.yul\":9902:9905   */\n  dup3\n    /* \"#utility.yul\":9869:9906   */\n  tag_50\n  jump\t// in\ntag_183:\n    /* \"#utility.yul\":9971:9989   */\n  0xffffffffffffffff\n    /* \"#utility.yul\":9963:9969   */\n  dup2\n    /* \"#utility.yul\":9960:9990   */\n  gt\n    /* \"#utility.yul\":9957:10013   */\n  iszero\n  tag_184\n  jumpi\n    /* \"#utility.yul\":9993:10011   */\n  tag_185\n  tag_39\n  jump\t// in\ntag_185:\n    /* \"#utility.yul\":9957:10013   */\ntag_184:\n    /* \"#utility.yul\":10037:10075   */\n  tag_186\n    /* \"#utility.yul\":10069:10073   */\n  dup3\n    /* \"#utility.yul\":10063:10074   */\n  sload\n    /* \"#utility.yul\":10037:10075   */\n  tag_22\n  jump\t// in\ntag_186:\n    /* \"#utility.yul\":10122:10189   */\n  tag_187\n    /* \"#utility.yul\":10182:10188   */\n  dup3\n    /* \"#utility.yul\":10174:10180   */\n  dup3\n    /* \"#utility.yul\":10168:10172   */\n  dup6\n    /* \"#utility.yul\":10122:10189   */\n  tag_64\n  jump\t// in\ntag_187:\n    /* \"#utility.yul\":10216:10217   */\n  0x00\n    /* \"#utility.yul\":10240:10244   */\n  0x20\n    /* \"#utility.yul\":10227:10244   */\n  swap1\n  pop\n    /* \"#utility.yul\":10272:10274   */\n  0x1f\n    /* \"#utility.yul\":10264:10270   */\n  dup4\n    /* \"#utility.yul\":10261:10275   */\n  gt\n    /* \"#utility.yul\":10289:10290   */\n  0x01\n    /* \"#utility.yul\":10284:10902   */\n  dup2\n  eq\n  tag_189\n  jumpi\n    /* \"#utility.yul\":10946:10947   */\n  0x00\n    /* \"#utility.yul\":10963:10969   */\n  dup5\n    /* \"#utility.yul\":10960:11037   */\n  iszero\n  tag_190\n  jumpi\n    /* \"#utility.yul\":11012:11021   */\n  dup3\n    /* \"#utility.yul\":11007:11010   */\n  dup8\n    /* \"#utility.yul\":11003:11022   */\n  add\n    /* \"#utility.yul\":10997:11023   */\n  mload\n    /* \"#utility.yul\":10988:11023   */\n  swap1\n  pop\n    /* \"#utility.yul\":10960:11037   */\ntag_190:\n    /* \"#utility.yul\":11063:11130   */\n  tag_191\n    /* \"#utility.yul\":11123:11129   */\n  dup6\n    /* \"#utility.yul\":11116:11121   */\n  dup3\n    /* \"#utility.yul\":11063:11130   */\n  tag_67\n  jump\t// in\ntag_191:\n    /* \"#utility.yul\":11057:11061   */\n  dup7\n    /* \"#utility.yul\":11050:11131   */\n  sstore\n    /* \"#utility.yul\":10919:11141   */\n  pop\n    /* \"#utility.yul\":10254:11141   */\n  jump(tag_188)\n    /* \"#utility.yul\":10284:10902   */\ntag_189:\n    /* \"#utility.yul\":10336:10340   */\n  0x1f\n    /* \"#utility.yul\":10332:10341   */\n  not\n    /* \"#utility.yul\":10324:10330   */\n  dup5\n    /* \"#utility.yul\":10320:10342   */\n  and\n    /* \"#utility.yul\":10370:10407   */\n  tag_192\n    /* \"#utility.yul\":10402:10406   */\n  dup7\n    /* \"#utility.yul\":10370:10407   */\n  tag_52\n  jump\t// in\ntag_192:\n    /* \"#utility.yul\":10429:10430   */\n  0x00\n    /* \"#utility.yul\":10443:10651   */\ntag_193:\n    /* \"#utility.yul\":10457:10464   */\n  dup3\n    /* \"#utility.yul\":10454:10455   */\n  dup2\n    /* \"#utility.yul\":10451:10465   */\n  lt\n    /* \"#utility.yul\":10443:10651   */\n  iszero\n  tag_195\n  jumpi\n    /* \"#utility.yul\":10536:10545   */\n  dup5\n    /* \"#utility.yul\":10531:10534   */\n  dup10\n    /* \"#utility.yul\":10527:10546   */\n  add\n    /* \"#utility.yul\":10521:10547   */\n  mload\n    /* \"#utility.yul\":10513:10519   */\n  dup3\n    /* \"#utility.yul\":10506:10548   */\n  sstore\n    /* \"#utility.yul\":10587:10588   */\n  0x01\n    /* \"#utility.yul\":10579:10585   */\n  dup3\n    /* \"#utility.yul\":10575:10589   */\n  add\n    /* \"#utility.yul\":10565:10589   */\n  swap2\n  pop\n    /* \"#utility.yul\":10634:10636   */\n  0x20\n    /* \"#utility.yul\":10623:10632   */\n  dup6\n    /* \"#utility.yul\":10619:10637   */\n  add\n    /* \"#utility.yul\":10606:10637   */\n  swap5\n  pop\n    /* \"#utility.yul\":10480:10484   */\n  0x20\n    /* \"#utility.yul\":10477:10478   */\n  dup2\n    /* \"#utility.yul\":10473:10485   */\n  add\n    /* \"#utility.yul\":10468:10485   */\n  swap1\n  pop\n    /* \"#utility.yul\":10443:10651   */\n  jump(tag_193)\ntag_195:\n    /* \"#utility.yul\":10679:10685   */\n  dup7\n    /* \"#utility.yul\":10670:10677   */\n  dup4\n    /* \"#utility.yul\":10667:10686   */\n  lt\n    /* \"#utility.yul\":10664:10843   */\n  iszero\n  tag_196\n  jumpi\n    /* \"#utility.yul\":10737:10746   */\n  dup5\n    /* \"#utility.yul\":10732:10735   */\n  dup10\n    /* \"#utility.yul\":10728:10747   */\n  add\n    /* \"#utility.yul\":10722:10748   */\n  mload\n    /* \"#utility.yul\":10780:10828   */\n  tag_197\n    /* \"#utility.yul\":10822:10826   */\n  0x1f\n    /* \"#utility.yul\":10814:10820   */\n  dup10\n    /* \"#utility.yul\":10810:10827   */\n  and\n    /* \"#utility.yul\":10799:10808   */\n  dup3\n    /* \"#utility.yul\":10780:10828   */\n  tag_66\n  jump\t// in\ntag_197:\n    /* \"#utility.yul\":10772:10778   */\n  dup4\n    /* \"#utility.yul\":10765:10829   */\n  sstore\n    /* \"#utility.yul\":10687:10843   */\n  pop\n    /* \"#utility.yul\":10664:10843   */\ntag_196:\n    /* \"#utility.yul\":10889:10890   */\n  0x01\n    /* \"#utility.yul\":10885:10886   */\n  0x02\n    /* \"#utility.yul\":10877:10883   */\n  dup9\n    /* \"#utility.yul\":10873:10887   */\n  mul\n    /* \"#utility.yul\":10869:10891   */\n  add\n    /* \"#utility.yul\":10863:10867   */\n  dup9\n    /* \"#utility.yul\":10856:10892   */\n  sstore\n    /* \"#utility.yul\":10291:10902   */\n  pop\n  pop\n  pop\n    /* \"#utility.yul\":10254:11141   */\ntag_188:\n  pop\n    /* \"#utility.yul\":9844:11147   */\n  pop\n  pop\n  pop\n    /* \"#utility.yul\":9752:11147   */\n  pop\n  pop\n  jump\t// out\n    /* \"Voting.sol\":710:2606  contract Voting {... */\ntag_10:\n  dataSize(sub_0)\n  dup1\n  dataOffset(sub_0)\n  0x00\n  codecopy\n  0x00\n  return\nstop\n\nsub_0: assembly {\n        /* \"Voting.sol\":710:2606  contract Voting {... */\n      mstore(0x40, 0x80)\n      callvalue\n      dup1\n      iszero\n      tag_1\n      jumpi\n      0x00\n      dup1\n      revert\n    tag_1:\n      pop\n      jumpi(tag_2, lt(calldatasize, 0x04))\n      shr(0xe0, calldataload(0x00))\n      dup1\n      0xa3ec138d\n      gt\n      tag_17\n      jumpi\n      dup1\n      0xc0f2a777\n      gt\n      tag_18\n      jumpi\n      dup1\n      0xc0f2a777\n      eq\n      tag_13\n      jumpi\n      dup1\n      0xc631b292\n      eq\n      tag_14\n      jumpi\n      dup1\n      0xcc2ee196\n      eq\n      tag_15\n      jumpi\n      dup1\n      0xfc36e15b\n      eq\n      tag_16\n      jumpi\n      jump(tag_2)\n    tag_18:\n      dup1\n      0xa3ec138d\n      eq\n      tag_10\n      jumpi\n      dup1\n      0xa4d4334a\n      eq\n      tag_11\n      jumpi\n      dup1\n      0xbf63a577\n      eq\n      tag_12\n      jumpi\n      jump(tag_2)\n    tag_17:\n      dup1\n      0x409e2205\n      gt\n      tag_19\n      jumpi\n      dup1\n      0x409e2205\n      eq\n      tag_6\n      jumpi\n      dup1\n      0x57c9d738\n      eq\n      tag_7\n      jumpi\n      dup1\n      0x597e1fb5\n      eq\n      tag_8\n      jumpi\n      dup1\n      0x98c07938\n      eq\n      tag_9\n      jumpi\n      jump(tag_2)\n    tag_19:\n      dup1\n      0x02d05d3f\n      eq\n      tag_3\n      jumpi\n      dup1\n      0x19ad7cd2\n      eq\n      tag_4\n      jumpi\n      dup1\n      0x4051ddac\n      eq\n      tag_5\n      jumpi\n    tag_2:\n      0x00\n      dup1\n      revert\n        /* \"Voting.sol\":737:759  address public creator */\n    tag_3:\n      tag_20\n      tag_21\n      jump\t// in\n    tag_20:\n      mload(0x40)\n      tag_22\n      swap2\n      swap1\n      tag_23\n      jump\t// in\n    tag_22:\n      mload(0x40)\n      dup1\n      swap2\n      sub\n      swap1\n      return\n        /* \"Voting.sol\":819:862  mapping(string => uint) public optionsVotes */\n    tag_4:\n      tag_24\n      0x04\n      dup1\n      calldatasize\n      sub\n      dup2\n      add\n      swap1\n      tag_25\n      swap2\n      swap1\n      tag_26\n      jump\t// in\n    tag_25:\n      tag_27\n      jump\t// in\n    tag_24:\n      mload(0x40)\n      tag_28\n      swap2\n      swap1\n      tag_29\n      jump\t// in\n    tag_28:\n      mload(0x40)\n      dup1\n      swap2\n      sub\n      swap1\n      return\n        /* \"Voting.sol\":1984:2188  function getSummary() public view returns (... */\n    tag_5:\n      tag_30\n      tag_31\n      jump\t// in\n    tag_30:\n      mload(0x40)\n      tag_32\n      swap5\n      swap4\n      swap3\n      swap2\n      swap1\n      tag_33\n      jump\t// in\n    tag_32:\n      mload(0x40)\n      dup1\n      swap2\n      sub\n      swap1\n      return\n        /* \"Voting.sol\":790:813  string[] public options */\n    tag_6:\n      tag_34\n      0x04\n      dup1\n      calldatasize\n      sub\n      dup2\n      add\n      swap1\n      tag_35\n      swap2\n      swap1\n      tag_36\n      jump\t// in\n    tag_35:\n      tag_37\n      jump\t// in\n    tag_34:\n      mload(0x40)\n      tag_38\n      swap2\n      swap1\n      tag_39\n      jump\t// in\n    tag_38:\n      mload(0x40)\n      dup1\n      swap2\n      sub\n      swap1\n      return\n        /* \"Voting.sol\":2291:2408  function getOptionVotes(string memory option) public view returns (uint) {... */\n    tag_7:\n      tag_40\n      0x04\n      dup1\n      calldatasize\n      sub\n      dup2\n      add\n      swap1\n      tag_41\n      swap2\n      swap1\n      tag_26\n      jump\t// in\n    tag_41:\n      tag_42\n      jump\t// in\n    tag_40:\n      mload(0x40)\n      tag_43\n      swap2\n      swap1\n      tag_29\n      jump\t// in\n    tag_43:\n      mload(0x40)\n      dup1\n      swap2\n      sub\n      swap1\n      return\n        /* \"Voting.sol\":941:959  bool public closed */\n    tag_8:\n      tag_44\n      tag_45\n      jump\t// in\n    tag_44:\n      mload(0x40)\n      tag_46\n      swap2\n      swap1\n      tag_47\n      jump\t// in\n    tag_46:\n      mload(0x40)\n      dup1\n      swap2\n      sub\n      swap1\n      return\n        /* \"Voting.sol\":912:935  uint public votersCount */\n    tag_9:\n      tag_48\n      tag_49\n      jump\t// in\n    tag_48:\n      mload(0x40)\n      tag_50\n      swap2\n      swap1\n      tag_29\n      jump\t// in\n    tag_50:\n      mload(0x40)\n      dup1\n      swap2\n      sub\n      swap1\n      return\n        /* \"Voting.sol\":868:906  mapping(address => bool) public voters */\n    tag_10:\n      tag_51\n      0x04\n      dup1\n      calldatasize\n      sub\n      dup2\n      add\n      swap1\n      tag_52\n      swap2\n      swap1\n      tag_53\n      jump\t// in\n    tag_52:\n      tag_54\n      jump\t// in\n    tag_51:\n      mload(0x40)\n      tag_55\n      swap2\n      swap1\n      tag_47\n      jump\t// in\n    tag_55:\n      mload(0x40)\n      dup1\n      swap2\n      sub\n      swap1\n      return\n        /* \"Voting.sol\":2512:2604  function getOptionsCount() public view returns (uint) {... */\n    tag_11:\n      tag_56\n      tag_57\n      jump\t// in\n    tag_56:\n      mload(0x40)\n      tag_58\n      swap2\n      swap1\n      tag_29\n      jump\t// in\n    tag_58:\n      mload(0x40)\n      dup1\n      swap2\n      sub\n      swap1\n      return\n        /* \"Voting.sol\":765:784  string public topic */\n    tag_12:\n      tag_59\n      tag_60\n      jump\t// in\n    tag_59:\n      mload(0x40)\n      tag_61\n      swap2\n      swap1\n      tag_39\n      jump\t// in\n    tag_61:\n      mload(0x40)\n      dup1\n      swap2\n      sub\n      swap1\n      return\n        /* \"Voting.sol\":2418:2506  function getVotersCount() public view returns (uint) {... */\n    tag_13:\n      tag_62\n      tag_63\n      jump\t// in\n    tag_62:\n      mload(0x40)\n      tag_64\n      swap2\n      swap1\n      tag_29\n      jump\t// in\n    tag_64:\n      mload(0x40)\n      dup1\n      swap2\n      sub\n      swap1\n      return\n        /* \"Voting.sol\":1848:1974  function closeVoting() public restricted {... */\n    tag_14:\n      tag_65\n      tag_66\n      jump\t// in\n    tag_65:\n      stop\n        /* \"Voting.sol\":2194:2285  function getOptions() public view returns (string[] memory) {... */\n    tag_15:\n      tag_67\n      tag_68\n      jump\t// in\n    tag_67:\n      mload(0x40)\n      tag_69\n      swap2\n      swap1\n      tag_70\n      jump\t// in\n    tag_69:\n      mload(0x40)\n      dup1\n      swap2\n      sub\n      swap1\n      return\n        /* \"Voting.sol\":1263:1842  function vote(string memory option) public {... */\n    tag_16:\n      tag_71\n      0x04\n      dup1\n      calldatasize\n      sub\n      dup2\n      add\n      swap1\n      tag_72\n      swap2\n      swap1\n      tag_26\n      jump\t// in\n    tag_72:\n      tag_73\n      jump\t// in\n    tag_71:\n      stop\n        /* \"Voting.sol\":737:759  address public creator */\n    tag_21:\n      0x00\n      dup1\n      sload\n      swap1\n      0x0100\n      exp\n      swap1\n      div\n      0xffffffffffffffffffffffffffffffffffffffff\n      and\n      dup2\n      jump\t// out\n        /* \"Voting.sol\":819:862  mapping(string => uint) public optionsVotes */\n    tag_27:\n      0x03\n      dup2\n      dup1\n      mload\n      0x20\n      dup2\n      add\n      dup3\n      add\n      dup1\n      mload\n      dup5\n      dup3\n      mstore\n      0x20\n      dup4\n      add\n      0x20\n      dup6\n      add\n      keccak256\n      dup2\n      dup4\n      mstore\n      dup1\n      swap6\n      pop\n      pop\n      pop\n      pop\n      pop\n      pop\n      0x00\n      swap2\n      pop\n      swap1\n      pop\n      sload\n      dup2\n      jump\t// out\n        /* \"Voting.sol\":1984:2188  function getSummary() public view returns (... */\n    tag_31:\n        /* \"Voting.sol\":2034:2041  address */\n      0x00\n        /* \"Voting.sol\":2043:2056  string memory */\n      0x60\n        /* \"Voting.sol\":2058:2062  uint */\n      0x00\n        /* \"Voting.sol\":2064:2068  bool */\n      dup1\n        /* \"Voting.sol\":2106:2113  creator */\n      0x00\n      dup1\n      sload\n      swap1\n      0x0100\n      exp\n      swap1\n      div\n      0xffffffffffffffffffffffffffffffffffffffff\n      and\n        /* \"Voting.sol\":2125:2130  topic */\n      0x01\n        /* \"Voting.sol\":2142:2153  votersCount */\n      sload(0x05)\n        /* \"Voting.sol\":2165:2171  closed */\n      0x06\n      0x00\n      swap1\n      sload\n      swap1\n      0x0100\n      exp\n      swap1\n      div\n      0xff\n      and\n        /* \"Voting.sol\":2087:2181  return (... */\n      dup3\n      dup1\n      sload\n      tag_75\n      swap1\n      tag_76\n      jump\t// in\n    tag_75:\n      dup1\n      0x1f\n      add\n      0x20\n      dup1\n      swap2\n      div\n      mul\n      0x20\n      add\n      mload(0x40)\n      swap1\n      dup2\n      add\n      0x40\n      mstore\n      dup1\n      swap3\n      swap2\n      swap1\n      dup2\n      dup2\n      mstore\n      0x20\n      add\n      dup3\n      dup1\n      sload\n      tag_77\n      swap1\n      tag_76\n      jump\t// in\n    tag_77:\n      dup1\n      iszero\n      tag_78\n      jumpi\n      dup1\n      0x1f\n      lt\n      tag_79\n      jumpi\n      0x0100\n      dup1\n      dup4\n      sload\n      div\n      mul\n      dup4\n      mstore\n      swap2\n      0x20\n      add\n      swap2\n      jump(tag_78)\n    tag_79:\n      dup3\n      add\n      swap2\n      swap1\n      0x00\n      mstore\n      keccak256(0x00, 0x20)\n      swap1\n    tag_80:\n      dup2\n      sload\n      dup2\n      mstore\n      swap1\n      0x01\n      add\n      swap1\n      0x20\n      add\n      dup1\n      dup4\n      gt\n      tag_80\n      jumpi\n      dup3\n      swap1\n      sub\n      0x1f\n      and\n      dup3\n      add\n      swap2\n    tag_78:\n      pop\n      pop\n      pop\n      pop\n      pop\n      swap3\n      pop\n      swap4\n      pop\n      swap4\n      pop\n      swap4\n      pop\n      swap4\n      pop\n        /* \"Voting.sol\":1984:2188  function getSummary() public view returns (... */\n      swap1\n      swap2\n      swap3\n      swap4\n      jump\t// out\n        /* \"Voting.sol\":790:813  string[] public options */\n    tag_37:\n      0x02\n      dup2\n      dup2\n      sload\n      dup2\n      lt\n      tag_81\n      jumpi\n      0x00\n      dup1\n      revert\n    tag_81:\n      swap1\n      0x00\n      mstore\n      keccak256(0x00, 0x20)\n      add\n      0x00\n      swap2\n      pop\n      swap1\n      pop\n      dup1\n      sload\n      tag_83\n      swap1\n      tag_76\n      jump\t// in\n    tag_83:\n      dup1\n      0x1f\n      add\n      0x20\n      dup1\n      swap2\n      div\n      mul\n      0x20\n      add\n      mload(0x40)\n      swap1\n      dup2\n      add\n      0x40\n      mstore\n      dup1\n      swap3\n      swap2\n      swap1\n      dup2\n      dup2\n      mstore\n      0x20\n      add\n      dup3\n      dup1\n      sload\n      tag_84\n      swap1\n      tag_76\n      jump\t// in\n    tag_84:\n      dup1\n      iszero\n      tag_85\n      jumpi\n      dup1\n      0x1f\n      lt\n      tag_86\n      jumpi\n      0x0100\n      dup1\n      dup4\n      sload\n      div\n      mul\n      dup4\n      mstore\n      swap2\n      0x20\n      add\n      swap2\n      jump(tag_85)\n    tag_86:\n      dup3\n      add\n      swap2\n      swap1\n      0x00\n      mstore\n      keccak256(0x00, 0x20)\n      swap1\n    tag_87:\n      dup2\n      sload\n      dup2\n      mstore\n      swap1\n      0x01\n      add\n      swap1\n      0x20\n      add\n      dup1\n      dup4\n      gt\n      tag_87\n      jumpi\n      dup3\n      swap1\n      sub\n      0x1f\n      and\n      dup3\n      add\n      swap2\n    tag_85:\n      pop\n      pop\n      pop\n      pop\n      pop\n      dup2\n      jump\t// out\n        /* \"Voting.sol\":2291:2408  function getOptionVotes(string memory option) public view returns (uint) {... */\n    tag_42:\n        /* \"Voting.sol\":2358:2362  uint */\n      0x00\n        /* \"Voting.sol\":2381:2393  optionsVotes */\n      0x03\n        /* \"Voting.sol\":2394:2400  option */\n      dup3\n        /* \"Voting.sol\":2381:2401  optionsVotes[option] */\n      mload(0x40)\n      tag_89\n      swap2\n      swap1\n      tag_90\n      jump\t// in\n    tag_89:\n      swap1\n      dup2\n      mstore\n      0x20\n      add\n      mload(0x40)\n      dup1\n      swap2\n      sub\n      swap1\n      keccak256\n      sload\n        /* \"Voting.sol\":2374:2401  return optionsVotes[option] */\n      swap1\n      pop\n        /* \"Voting.sol\":2291:2408  function getOptionVotes(string memory option) public view returns (uint) {... */\n      swap2\n      swap1\n      pop\n      jump\t// out\n        /* \"Voting.sol\":941:959  bool public closed */\n    tag_45:\n      0x06\n      0x00\n      swap1\n      sload\n      swap1\n      0x0100\n      exp\n      swap1\n      div\n      0xff\n      and\n      dup2\n      jump\t// out\n        /* \"Voting.sol\":912:935  uint public votersCount */\n    tag_49:\n      sload(0x05)\n      dup2\n      jump\t// out\n        /* \"Voting.sol\":868:906  mapping(address => bool) public voters */\n    tag_54:\n      mstore(0x20, 0x04)\n      dup1\n      0x00\n      mstore\n      keccak256(0x00, 0x40)\n      0x00\n      swap2\n      pop\n      sload\n      swap1\n      0x0100\n      exp\n      swap1\n      div\n      0xff\n      and\n      dup2\n      jump\t// out\n        /* \"Voting.sol\":2512:2604  function getOptionsCount() public view returns (uint) {... */\n    tag_57:\n        /* \"Voting.sol\":2560:2564  uint */\n      0x00\n        /* \"Voting.sol\":2583:2590  options */\n      0x02\n        /* \"Voting.sol\":2583:2597  options.length */\n      dup1\n      sload\n      swap1\n      pop\n        /* \"Voting.sol\":2576:2597  return options.length */\n      swap1\n      pop\n        /* \"Voting.sol\":2512:2604  function getOptionsCount() public view returns (uint) {... */\n      swap1\n      jump\t// out\n        /* \"Voting.sol\":765:784  string public topic */\n    tag_60:\n      0x01\n      dup1\n      sload\n      tag_92\n      swap1\n      tag_76\n      jump\t// in\n    tag_92:\n      dup1\n      0x1f\n      add\n      0x20\n      dup1\n      swap2\n      div\n      mul\n      0x20\n      add\n      mload(0x40)\n      swap1\n      dup2\n      add\n      0x40\n      mstore\n      dup1\n      swap3\n      swap2\n      swap1\n      dup2\n      dup2\n      mstore\n      0x20\n      add\n      dup3\n      dup1\n      sload\n      tag_93\n      swap1\n      tag_76\n      jump\t// in\n    tag_93:\n      dup1\n      iszero\n      tag_94\n      jumpi\n      dup1\n      0x1f\n      lt\n      tag_95\n      jumpi\n      0x0100\n      dup1\n      dup4\n      sload\n      div\n      mul\n      dup4\n      mstore\n      swap2\n      0x20\n      add\n      swap2\n      jump(tag_94)\n    tag_95:\n      dup3\n      add\n      swap2\n      swap1\n      0x00\n      mstore\n      keccak256(0x00, 0x20)\n      swap1\n    tag_96:\n      dup2\n      sload\n      dup2\n      mstore\n      swap1\n      0x01\n      add\n      swap1\n      0x20\n      add\n      dup1\n      dup4\n      gt\n      tag_96\n      jumpi\n      dup3\n      swap1\n      sub\n      0x1f\n      and\n      dup3\n      add\n      swap2\n    tag_94:\n      pop\n      pop\n      pop\n      pop\n      pop\n      dup2\n      jump\t// out\n        /* \"Voting.sol\":2418:2506  function getVotersCount() public view returns (uint) {... */\n    tag_63:\n        /* \"Voting.sol\":2465:2469  uint */\n      0x00\n        /* \"Voting.sol\":2488:2499  votersCount */\n      sload(0x05)\n        /* \"Voting.sol\":2481:2499  return votersCount */\n      swap1\n      pop\n        /* \"Voting.sol\":2418:2506  function getVotersCount() public view returns (uint) {... */\n      swap1\n      jump\t// out\n        /* \"Voting.sol\":1848:1974  function closeVoting() public restricted {... */\n    tag_66:\n        /* \"Voting.sol\":1020:1027  creator */\n      0x00\n      dup1\n      sload\n      swap1\n      0x0100\n      exp\n      swap1\n      div\n      0xffffffffffffffffffffffffffffffffffffffff\n      and\n        /* \"Voting.sol\":1006:1027  msg.sender == creator */\n      0xffffffffffffffffffffffffffffffffffffffff\n      and\n        /* \"Voting.sol\":1006:1016  msg.sender */\n      caller\n        /* \"Voting.sol\":1006:1027  msg.sender == creator */\n      0xffffffffffffffffffffffffffffffffffffffff\n      and\n      eq\n        /* \"Voting.sol\":998:1067  require(msg.sender == creator, \"Only creator can call this function\") */\n      tag_99\n      jumpi\n      mload(0x40)\n      0x08c379a000000000000000000000000000000000000000000000000000000000\n      dup2\n      mstore\n      0x04\n      add\n      tag_100\n      swap1\n      tag_101\n      jump\t// in\n    tag_100:\n      mload(0x40)\n      dup1\n      swap2\n      sub\n      swap1\n      revert\n    tag_99:\n        /* \"Voting.sol\":1908:1914  closed */\n      0x06\n      0x00\n      swap1\n      sload\n      swap1\n      0x0100\n      exp\n      swap1\n      div\n      0xff\n      and\n        /* \"Voting.sol\":1907:1914  !closed */\n      iszero\n        /* \"Voting.sol\":1899:1943  require(!closed, \"Voting is already closed\") */\n      tag_103\n      jumpi\n      mload(0x40)\n      0x08c379a000000000000000000000000000000000000000000000000000000000\n      dup2\n      mstore\n      0x04\n      add\n      tag_104\n      swap1\n      tag_105\n      jump\t// in\n    tag_104:\n      mload(0x40)\n      dup1\n      swap2\n      sub\n      swap1\n      revert\n    tag_103:\n        /* \"Voting.sol\":1963:1967  true */\n      0x01\n        /* \"Voting.sol\":1954:1960  closed */\n      0x06\n      0x00\n        /* \"Voting.sol\":1954:1967  closed = true */\n      0x0100\n      exp\n      dup2\n      sload\n      dup2\n      0xff\n      mul\n      not\n      and\n      swap1\n      dup4\n      iszero\n      iszero\n      mul\n      or\n      swap1\n      sstore\n      pop\n        /* \"Voting.sol\":1848:1974  function closeVoting() public restricted {... */\n      jump\t// out\n        /* \"Voting.sol\":2194:2285  function getOptions() public view returns (string[] memory) {... */\n    tag_68:\n        /* \"Voting.sol\":2237:2252  string[] memory */\n      0x60\n        /* \"Voting.sol\":2271:2278  options */\n      0x02\n        /* \"Voting.sol\":2264:2278  return options */\n      dup1\n      sload\n      dup1\n      0x20\n      mul\n      0x20\n      add\n      mload(0x40)\n      swap1\n      dup2\n      add\n      0x40\n      mstore\n      dup1\n      swap3\n      swap2\n      swap1\n      dup2\n      dup2\n      mstore\n      0x20\n      add\n      0x00\n      swap1\n    tag_107:\n      dup3\n      dup3\n      lt\n      iszero\n      tag_108\n      jumpi\n      dup4\n      dup3\n      swap1\n      0x00\n      mstore\n      keccak256(0x00, 0x20)\n      add\n      dup1\n      sload\n      tag_110\n      swap1\n      tag_76\n      jump\t// in\n    tag_110:\n      dup1\n      0x1f\n      add\n      0x20\n      dup1\n      swap2\n      div\n      mul\n      0x20\n      add\n      mload(0x40)\n      swap1\n      dup2\n      add\n      0x40\n      mstore\n      dup1\n      swap3\n      swap2\n      swap1\n      dup2\n      dup2\n      mstore\n      0x20\n      add\n      dup3\n      dup1\n      sload\n      tag_111\n      swap1\n      tag_76\n      jump\t// in\n    tag_111:\n      dup1\n      iszero\n      tag_112\n      jumpi\n      dup1\n      0x1f\n      lt\n      tag_113\n      jumpi\n      0x0100\n      dup1\n      dup4\n      sload\n      div\n      mul\n      dup4\n      mstore\n      swap2\n      0x20\n      add\n      swap2\n      jump(tag_112)\n    tag_113:\n      dup3\n      add\n      swap2\n      swap1\n      0x00\n      mstore\n      keccak256(0x00, 0x20)\n      swap1\n    tag_114:\n      dup2\n      sload\n      dup2\n      mstore\n      swap1\n      0x01\n      add\n      swap1\n      0x20\n      add\n      dup1\n      dup4\n      gt\n      tag_114\n      jumpi\n      dup3\n      swap1\n      sub\n      0x1f\n      and\n      dup3\n      add\n      swap2\n    tag_112:\n      pop\n      pop\n      pop\n      pop\n      pop\n      dup2\n      mstore\n      0x20\n      add\n      swap1\n      0x01\n      add\n      swap1\n      jump(tag_107)\n    tag_108:\n      pop\n      pop\n      pop\n      pop\n      swap1\n      pop\n        /* \"Voting.sol\":2194:2285  function getOptions() public view returns (string[] memory) {... */\n      swap1\n      jump\t// out\n        /* \"Voting.sol\":1263:1842  function vote(string memory option) public {... */\n    tag_73:\n        /* \"Voting.sol\":1325:1331  voters */\n      0x04\n        /* \"Voting.sol\":1325:1343  voters[msg.sender] */\n      0x00\n        /* \"Voting.sol\":1332:1342  msg.sender */\n      caller\n        /* \"Voting.sol\":1325:1343  voters[msg.sender] */\n      0xffffffffffffffffffffffffffffffffffffffff\n      and\n      0xffffffffffffffffffffffffffffffffffffffff\n      and\n      dup2\n      mstore\n      0x20\n      add\n      swap1\n      dup2\n      mstore\n      0x20\n      add\n      0x00\n      keccak256\n      0x00\n      swap1\n      sload\n      swap1\n      0x0100\n      exp\n      swap1\n      div\n      0xff\n      and\n        /* \"Voting.sol\":1324:1343  !voters[msg.sender] */\n      iszero\n        /* \"Voting.sol\":1316:1370  require(!voters[msg.sender], \"You have already voted\") */\n      tag_116\n      jumpi\n      mload(0x40)\n      0x08c379a000000000000000000000000000000000000000000000000000000000\n      dup2\n      mstore\n      0x04\n      add\n      tag_117\n      swap1\n      tag_118\n      jump\t// in\n    tag_117:\n      mload(0x40)\n      dup1\n      swap2\n      sub\n      swap1\n      revert\n    tag_116:\n        /* \"Voting.sol\":1389:1395  closed */\n      0x06\n      0x00\n      swap1\n      sload\n      swap1\n      0x0100\n      exp\n      swap1\n      div\n      0xff\n      and\n        /* \"Voting.sol\":1388:1395  !closed */\n      iszero\n        /* \"Voting.sol\":1380:1416  require(!closed, \"Voting is closed\") */\n      tag_119\n      jumpi\n      mload(0x40)\n      0x08c379a000000000000000000000000000000000000000000000000000000000\n      dup2\n      mstore\n      0x04\n      add\n      tag_120\n      swap1\n      tag_121\n      jump\t// in\n    tag_120:\n      mload(0x40)\n      dup1\n      swap2\n      sub\n      swap1\n      revert\n    tag_119:\n        /* \"Voting.sol\":1426:1443  bool optionExists */\n      0x00\n        /* \"Voting.sol\":1465:1471  uint i */\n      dup1\n        /* \"Voting.sol\":1461:1684  for(uint i = 0; i < options.length; i++) {... */\n    tag_122:\n        /* \"Voting.sol\":1481:1488  options */\n      0x02\n        /* \"Voting.sol\":1481:1495  options.length */\n      dup1\n      sload\n      swap1\n      pop\n        /* \"Voting.sol\":1477:1478  i */\n      dup2\n        /* \"Voting.sol\":1477:1495  i < options.length */\n      lt\n        /* \"Voting.sol\":1461:1684  for(uint i = 0; i < options.length; i++) {... */\n      iszero\n      tag_123\n      jumpi\n        /* \"Voting.sol\":1589:1595  option */\n      dup3\n        /* \"Voting.sol\":1572:1596  abi.encodePacked(option) */\n      add(0x20, mload(0x40))\n      tag_125\n      swap2\n      swap1\n      tag_90\n      jump\t// in\n    tag_125:\n      mload(0x40)\n      0x20\n      dup2\n      dup4\n      sub\n      sub\n      dup2\n      mstore\n      swap1\n      0x40\n      mstore\n        /* \"Voting.sol\":1562:1597  keccak256(abi.encodePacked(option)) */\n      dup1\n      mload\n      swap1\n      0x20\n      add\n      keccak256\n        /* \"Voting.sol\":1546:1553  options */\n      0x02\n        /* \"Voting.sol\":1554:1555  i */\n      dup3\n        /* \"Voting.sol\":1546:1556  options[i] */\n      dup2\n      sload\n      dup2\n      lt\n      tag_126\n      jumpi\n      tag_127\n      tag_128\n      jump\t// in\n    tag_127:\n    tag_126:\n      swap1\n      0x00\n      mstore\n      keccak256(0x00, 0x20)\n      add\n        /* \"Voting.sol\":1529:1557  abi.encodePacked(options[i]) */\n      add(0x20, mload(0x40))\n      tag_130\n      swap2\n      swap1\n      tag_131\n      jump\t// in\n    tag_130:\n      mload(0x40)\n      0x20\n      dup2\n      dup4\n      sub\n      sub\n      dup2\n      mstore\n      swap1\n      0x40\n      mstore\n        /* \"Voting.sol\":1519:1558  keccak256(abi.encodePacked(options[i])) */\n      dup1\n      mload\n      swap1\n      0x20\n      add\n      keccak256\n        /* \"Voting.sol\":1519:1597  keccak256(abi.encodePacked(options[i])) == keccak256(abi.encodePacked(option)) */\n      sub\n        /* \"Voting.sol\":1516:1674  if(keccak256(abi.encodePacked(options[i])) == keccak256(abi.encodePacked(option))) {... */\n      tag_132\n      jumpi\n        /* \"Voting.sol\":1632:1636  true */\n      0x01\n        /* \"Voting.sol\":1617:1636  optionExists = true */\n      swap2\n      pop\n        /* \"Voting.sol\":1654:1659  break */\n      jump(tag_123)\n        /* \"Voting.sol\":1516:1674  if(keccak256(abi.encodePacked(options[i])) == keccak256(abi.encodePacked(option))) {... */\n    tag_132:\n        /* \"Voting.sol\":1497:1500  i++ */\n      dup1\n      dup1\n      tag_133\n      swap1\n      tag_134\n      jump\t// in\n    tag_133:\n      swap2\n      pop\n      pop\n        /* \"Voting.sol\":1461:1684  for(uint i = 0; i < options.length; i++) {... */\n      jump(tag_122)\n    tag_123:\n      pop\n        /* \"Voting.sol\":1701:1713  optionExists */\n      dup1\n        /* \"Voting.sol\":1693:1739  require(optionExists, \"Option does not exist\") */\n      tag_135\n      jumpi\n      mload(0x40)\n      0x08c379a000000000000000000000000000000000000000000000000000000000\n      dup2\n      mstore\n      0x04\n      add\n      tag_136\n      swap1\n      tag_137\n      jump\t// in\n    tag_136:\n      mload(0x40)\n      dup1\n      swap2\n      sub\n      swap1\n      revert\n    tag_135:\n        /* \"Voting.sol\":1770:1774  true */\n      0x01\n        /* \"Voting.sol\":1749:1755  voters */\n      0x04\n        /* \"Voting.sol\":1749:1767  voters[msg.sender] */\n      0x00\n        /* \"Voting.sol\":1756:1766  msg.sender */\n      caller\n        /* \"Voting.sol\":1749:1767  voters[msg.sender] */\n      0xffffffffffffffffffffffffffffffffffffffff\n      and\n      0xffffffffffffffffffffffffffffffffffffffff\n      and\n      dup2\n      mstore\n      0x20\n      add\n      swap1\n      dup2\n      mstore\n      0x20\n      add\n      0x00\n      keccak256\n      0x00\n        /* \"Voting.sol\":1749:1774  voters[msg.sender] = true */\n      0x0100\n      exp\n      dup2\n      sload\n      dup2\n      0xff\n      mul\n      not\n      and\n      swap1\n      dup4\n      iszero\n      iszero\n      mul\n      or\n      swap1\n      sstore\n      pop\n        /* \"Voting.sol\":1808:1809  1 */\n      0x01\n        /* \"Voting.sol\":1784:1796  optionsVotes */\n      0x03\n        /* \"Voting.sol\":1797:1803  option */\n      dup4\n        /* \"Voting.sol\":1784:1804  optionsVotes[option] */\n      mload(0x40)\n      tag_138\n      swap2\n      swap1\n      tag_90\n      jump\t// in\n    tag_138:\n      swap1\n      dup2\n      mstore\n      0x20\n      add\n      mload(0x40)\n      dup1\n      swap2\n      sub\n      swap1\n      keccak256\n      0x00\n        /* \"Voting.sol\":1784:1809  optionsVotes[option] += 1 */\n      dup3\n      dup3\n      sload\n      tag_139\n      swap2\n      swap1\n      tag_140\n      jump\t// in\n    tag_139:\n      swap3\n      pop\n      pop\n      dup2\n      swap1\n      sstore\n      pop\n        /* \"Voting.sol\":1834:1835  1 */\n      0x01\n        /* \"Voting.sol\":1819:1830  votersCount */\n      0x05\n      0x00\n        /* \"Voting.sol\":1819:1835  votersCount += 1 */\n      dup3\n      dup3\n      sload\n      tag_141\n      swap2\n      swap1\n      tag_140\n      jump\t// in\n    tag_141:\n      swap3\n      pop\n      pop\n      dup2\n      swap1\n      sstore\n      pop\n        /* \"Voting.sol\":1306:1842  {... */\n      pop\n        /* \"Voting.sol\":1263:1842  function vote(string memory option) public {... */\n      pop\n      jump\t// out\n        /* \"#utility.yul\":7:133   */\n    tag_142:\n        /* \"#utility.yul\":44:51   */\n      0x00\n        /* \"#utility.yul\":84:126   */\n      0xffffffffffffffffffffffffffffffffffffffff\n        /* \"#utility.yul\":77:82   */\n      dup3\n        /* \"#utility.yul\":73:127   */\n      and\n        /* \"#utility.yul\":62:127   */\n      swap1\n      pop\n        /* \"#utility.yul\":7:133   */\n      swap2\n      swap1\n      pop\n      jump\t// out\n        /* \"#utility.yul\":139:235   */\n    tag_143:\n        /* \"#utility.yul\":176:183   */\n      0x00\n        /* \"#utility.yul\":205:229   */\n      tag_197\n        /* \"#utility.yul\":223:228   */\n      dup3\n        /* \"#utility.yul\":205:229   */\n      tag_142\n      jump\t// in\n    tag_197:\n        /* \"#utility.yul\":194:229   */\n      swap1\n      pop\n        /* \"#utility.yul\":139:235   */\n      swap2\n      swap1\n      pop\n      jump\t// out\n        /* \"#utility.yul\":241:359   */\n    tag_144:\n        /* \"#utility.yul\":328:352   */\n      tag_199\n        /* \"#utility.yul\":346:351   */\n      dup2\n        /* \"#utility.yul\":328:352   */\n      tag_143\n      jump\t// in\n    tag_199:\n        /* \"#utility.yul\":323:326   */\n      dup3\n        /* \"#utility.yul\":316:353   */\n      mstore\n        /* \"#utility.yul\":241:359   */\n      pop\n      pop\n      jump\t// out\n        /* \"#utility.yul\":365:587   */\n    tag_23:\n        /* \"#utility.yul\":458:462   */\n      0x00\n        /* \"#utility.yul\":496:498   */\n      0x20\n        /* \"#utility.yul\":485:494   */\n      dup3\n        /* \"#utility.yul\":481:499   */\n      add\n        /* \"#utility.yul\":473:499   */\n      swap1\n      pop\n        /* \"#utility.yul\":509:580   */\n      tag_201\n        /* \"#utility.yul\":577:578   */\n      0x00\n        /* \"#utility.yul\":566:575   */\n      dup4\n        /* \"#utility.yul\":562:579   */\n      add\n        /* \"#utility.yul\":553:559   */\n      dup5\n        /* \"#utility.yul\":509:580   */\n      tag_144\n      jump\t// in\n    tag_201:\n        /* \"#utility.yul\":365:587   */\n      swap3\n      swap2\n      pop\n      pop\n      jump\t// out\n        /* \"#utility.yul\":593:668   */\n    tag_145:\n        /* \"#utility.yul\":626:632   */\n      0x00\n        /* \"#utility.yul\":659:661   */\n      0x40\n        /* \"#utility.yul\":653:662   */\n      mload\n        /* \"#utility.yul\":643:662   */\n      swap1\n      pop\n        /* \"#utility.yul\":593:668   */\n      swap1\n      jump\t// out\n        /* \"#utility.yul\":674:791   */\n    tag_146:\n        /* \"#utility.yul\":783:784   */\n      0x00\n        /* \"#utility.yul\":780:781   */\n      dup1\n        /* \"#utility.yul\":773:785   */\n      revert\n        /* \"#utility.yul\":797:914   */\n    tag_147:\n        /* \"#utility.yul\":906:907   */\n      0x00\n        /* \"#utility.yul\":903:904   */\n      dup1\n        /* \"#utility.yul\":896:908   */\n      revert\n        /* \"#utility.yul\":920:1037   */\n    tag_148:\n        /* \"#utility.yul\":1029:1030   */\n      0x00\n        /* \"#utility.yul\":1026:1027   */\n      dup1\n        /* \"#utility.yul\":1019:1031   */\n      revert\n        /* \"#utility.yul\":1043:1160   */\n    tag_149:\n        /* \"#utility.yul\":1152:1153   */\n      0x00\n        /* \"#utility.yul\":1149:1150   */\n      dup1\n        /* \"#utility.yul\":1142:1154   */\n      revert\n        /* \"#utility.yul\":1166:1268   */\n    tag_150:\n        /* \"#utility.yul\":1207:1213   */\n      0x00\n        /* \"#utility.yul\":1258:1260   */\n      0x1f\n        /* \"#utility.yul\":1254:1261   */\n      not\n        /* \"#utility.yul\":1249:1251   */\n      0x1f\n        /* \"#utility.yul\":1242:1247   */\n      dup4\n        /* \"#utility.yul\":1238:1252   */\n      add\n        /* \"#utility.yul\":1234:1262   */\n      and\n        /* \"#utility.yul\":1224:1262   */\n      swap1\n      pop\n        /* \"#utility.yul\":1166:1268   */\n      swap2\n      swap1\n      pop\n      jump\t// out\n        /* \"#utility.yul\":1274:1454   */\n    tag_151:\n        /* \"#utility.yul\":1322:1399   */\n      0x4e487b7100000000000000000000000000000000000000000000000000000000\n        /* \"#utility.yul\":1319:1320   */\n      0x00\n        /* \"#utility.yul\":1312:1400   */\n      mstore\n        /* \"#utility.yul\":1419:1423   */\n      0x41\n        /* \"#utility.yul\":1416:1417   */\n      0x04\n        /* \"#utility.yul\":1409:1424   */\n      mstore\n        /* \"#utility.yul\":1443:1447   */\n      0x24\n        /* \"#utility.yul\":1440:1441   */\n      0x00\n        /* \"#utility.yul\":1433:1448   */\n      revert\n        /* \"#utility.yul\":1460:1741   */\n    tag_152:\n        /* \"#utility.yul\":1543:1570   */\n      tag_210\n        /* \"#utility.yul\":1565:1569   */\n      dup3\n        /* \"#utility.yul\":1543:1570   */\n      tag_150\n      jump\t// in\n    tag_210:\n        /* \"#utility.yul\":1535:1541   */\n      dup2\n        /* \"#utility.yul\":1531:1571   */\n      add\n        /* \"#utility.yul\":1673:1679   */\n      dup2\n        /* \"#utility.yul\":1661:1671   */\n      dup2\n        /* \"#utility.yul\":1658:1680   */\n      lt\n        /* \"#utility.yul\":1637:1655   */\n      0xffffffffffffffff\n        /* \"#utility.yul\":1625:1635   */\n      dup3\n        /* \"#utility.yul\":1622:1656   */\n      gt\n        /* \"#utility.yul\":1619:1681   */\n      or\n        /* \"#utility.yul\":1616:1704   */\n      iszero\n      tag_211\n      jumpi\n        /* \"#utility.yul\":1684:1702   */\n      tag_212\n      tag_151\n      jump\t// in\n    tag_212:\n        /* \"#utility.yul\":1616:1704   */\n    tag_211:\n        /* \"#utility.yul\":1724:1734   */\n      dup1\n        /* \"#utility.yul\":1720:1722   */\n      0x40\n        /* \"#utility.yul\":1713:1735   */\n      mstore\n        /* \"#utility.yul\":1503:1741   */\n      pop\n        /* \"#utility.yul\":1460:1741   */\n      pop\n      pop\n      jump\t// out\n        /* \"#utility.yul\":1747:1876   */\n    tag_153:\n        /* \"#utility.yul\":1781:1787   */\n      0x00\n        /* \"#utility.yul\":1808:1828   */\n      tag_214\n      tag_145\n      jump\t// in\n    tag_214:\n        /* \"#utility.yul\":1798:1828   */\n      swap1\n      pop\n        /* \"#utility.yul\":1837:1870   */\n      tag_215\n        /* \"#utility.yul\":1865:1869   */\n      dup3\n        /* \"#utility.yul\":1857:1863   */\n      dup3\n        /* \"#utility.yul\":1837:1870   */\n      tag_152\n      jump\t// in\n    tag_215:\n        /* \"#utility.yul\":1747:1876   */\n      swap2\n      swap1\n      pop\n      jump\t// out\n        /* \"#utility.yul\":1882:2190   */\n    tag_154:\n        /* \"#utility.yul\":1944:1948   */\n      0x00\n        /* \"#utility.yul\":2034:2052   */\n      0xffffffffffffffff\n        /* \"#utility.yul\":2026:2032   */\n      dup3\n        /* \"#utility.yul\":2023:2053   */\n      gt\n        /* \"#utility.yul\":2020:2076   */\n      iszero\n      tag_217\n      jumpi\n        /* \"#utility.yul\":2056:2074   */\n      tag_218\n      tag_151\n      jump\t// in\n    tag_218:\n        /* \"#utility.yul\":2020:2076   */\n    tag_217:\n        /* \"#utility.yul\":2094:2123   */\n      tag_219\n        /* \"#utility.yul\":2116:2122   */\n      dup3\n        /* \"#utility.yul\":2094:2123   */\n      tag_150\n      jump\t// in\n    tag_219:\n        /* \"#utility.yul\":2086:2123   */\n      swap1\n      pop\n        /* \"#utility.yul\":2178:2182   */\n      0x20\n        /* \"#utility.yul\":2172:2176   */\n      dup2\n        /* \"#utility.yul\":2168:2183   */\n      add\n        /* \"#utility.yul\":2160:2183   */\n      swap1\n      pop\n        /* \"#utility.yul\":1882:2190   */\n      swap2\n      swap1\n      pop\n      jump\t// out\n        /* \"#utility.yul\":2196:2342   */\n    tag_155:\n        /* \"#utility.yul\":2293:2299   */\n      dup3\n        /* \"#utility.yul\":2288:2291   */\n      dup2\n        /* \"#utility.yul\":2283:2286   */\n      dup4\n        /* \"#utility.yul\":2270:2300   */\n      calldatacopy\n        /* \"#utility.yul\":2334:2335   */\n      0x00\n        /* \"#utility.yul\":2325:2331   */\n      dup4\n        /* \"#utility.yul\":2320:2323   */\n      dup4\n        /* \"#utility.yul\":2316:2332   */\n      add\n        /* \"#utility.yul\":2309:2336   */\n      mstore\n        /* \"#utility.yul\":2196:2342   */\n      pop\n      pop\n      pop\n      jump\t// out\n        /* \"#utility.yul\":2348:2773   */\n    tag_156:\n        /* \"#utility.yul\":2426:2431   */\n      0x00\n        /* \"#utility.yul\":2451:2517   */\n      tag_222\n        /* \"#utility.yul\":2467:2516   */\n      tag_223\n        /* \"#utility.yul\":2509:2515   */\n      dup5\n        /* \"#utility.yul\":2467:2516   */\n      tag_154\n      jump\t// in\n    tag_223:\n        /* \"#utility.yul\":2451:2517   */\n      tag_153\n      jump\t// in\n    tag_222:\n        /* \"#utility.yul\":2442:2517   */\n      swap1\n      pop\n        /* \"#utility.yul\":2540:2546   */\n      dup3\n        /* \"#utility.yul\":2533:2538   */\n      dup2\n        /* \"#utility.yul\":2526:2547   */\n      mstore\n        /* \"#utility.yul\":2578:2582   */\n      0x20\n        /* \"#utility.yul\":2571:2576   */\n      dup2\n        /* \"#utility.yul\":2567:2583   */\n      add\n        /* \"#utility.yul\":2616:2619   */\n      dup5\n        /* \"#utility.yul\":2607:2613   */\n      dup5\n        /* \"#utility.yul\":2602:2605   */\n      dup5\n        /* \"#utility.yul\":2598:2614   */\n      add\n        /* \"#utility.yul\":2595:2620   */\n      gt\n        /* \"#utility.yul\":2592:2704   */\n      iszero\n      tag_224\n      jumpi\n        /* \"#utility.yul\":2623:2702   */\n      tag_225\n      tag_149\n      jump\t// in\n    tag_225:\n        /* \"#utility.yul\":2592:2704   */\n    tag_224:\n        /* \"#utility.yul\":2713:2767   */\n      tag_226\n        /* \"#utility.yul\":2760:2766   */\n      dup5\n        /* \"#utility.yul\":2755:2758   */\n      dup3\n        /* \"#utility.yul\":2750:2753   */\n      dup6\n        /* \"#utility.yul\":2713:2767   */\n      tag_155\n      jump\t// in\n    tag_226:\n        /* \"#utility.yul\":2432:2773   */\n      pop\n        /* \"#utility.yul\":2348:2773   */\n      swap4\n      swap3\n      pop\n      pop\n      pop\n      jump\t// out\n        /* \"#utility.yul\":2793:3133   */\n    tag_157:\n        /* \"#utility.yul\":2849:2854   */\n      0x00\n        /* \"#utility.yul\":2898:2901   */\n      dup3\n        /* \"#utility.yul\":2891:2895   */\n      0x1f\n        /* \"#utility.yul\":2883:2889   */\n      dup4\n        /* \"#utility.yul\":2879:2896   */\n      add\n        /* \"#utility.yul\":2875:2902   */\n      slt\n        /* \"#utility.yul\":2865:2987   */\n      tag_228\n      jumpi\n        /* \"#utility.yul\":2906:2985   */\n      tag_229\n      tag_148\n      jump\t// in\n    tag_229:\n        /* \"#utility.yul\":2865:2987   */\n    tag_228:\n        /* \"#utility.yul\":3023:3029   */\n      dup2\n        /* \"#utility.yul\":3010:3030   */\n      calldataload\n        /* \"#utility.yul\":3048:3127   */\n      tag_230\n        /* \"#utility.yul\":3123:3126   */\n      dup5\n        /* \"#utility.yul\":3115:3121   */\n      dup3\n        /* \"#utility.yul\":3108:3112   */\n      0x20\n        /* \"#utility.yul\":3100:3106   */\n      dup7\n        /* \"#utility.yul\":3096:3113   */\n      add\n        /* \"#utility.yul\":3048:3127   */\n      tag_156\n      jump\t// in\n    tag_230:\n        /* \"#utility.yul\":3039:3127   */\n      swap2\n      pop\n        /* \"#utility.yul\":2855:3133   */\n      pop\n        /* \"#utility.yul\":2793:3133   */\n      swap3\n      swap2\n      pop\n      pop\n      jump\t// out\n        /* \"#utility.yul\":3139:3648   */\n    tag_26:\n        /* \"#utility.yul\":3208:3214   */\n      0x00\n        /* \"#utility.yul\":3257:3259   */\n      0x20\n        /* \"#utility.yul\":3245:3254   */\n      dup3\n        /* \"#utility.yul\":3236:3243   */\n      dup5\n        /* \"#utility.yul\":3232:3255   */\n      sub\n        /* \"#utility.yul\":3228:3260   */\n      slt\n        /* \"#utility.yul\":3225:3344   */\n      iszero\n      tag_232\n      jumpi\n        /* \"#utility.yul\":3263:3342   */\n      tag_233\n      tag_146\n      jump\t// in\n    tag_233:\n        /* \"#utility.yul\":3225:3344   */\n    tag_232:\n        /* \"#utility.yul\":3411:3412   */\n      0x00\n        /* \"#utility.yul\":3400:3409   */\n      dup3\n        /* \"#utility.yul\":3396:3413   */\n      add\n        /* \"#utility.yul\":3383:3414   */\n      calldataload\n        /* \"#utility.yul\":3441:3459   */\n      0xffffffffffffffff\n        /* \"#utility.yul\":3433:3439   */\n      dup2\n        /* \"#utility.yul\":3430:3460   */\n      gt\n        /* \"#utility.yul\":3427:3544   */\n      iszero\n      tag_234\n      jumpi\n        /* \"#utility.yul\":3463:3542   */\n      tag_235\n      tag_147\n      jump\t// in\n    tag_235:\n        /* \"#utility.yul\":3427:3544   */\n    tag_234:\n        /* \"#utility.yul\":3568:3631   */\n      tag_236\n        /* \"#utility.yul\":3623:3630   */\n      dup5\n        /* \"#utility.yul\":3614:3620   */\n      dup3\n        /* \"#utility.yul\":3603:3612   */\n      dup6\n        /* \"#utility.yul\":3599:3621   */\n      add\n        /* \"#utility.yul\":3568:3631   */\n      tag_157\n      jump\t// in\n    tag_236:\n        /* \"#utility.yul\":3558:3631   */\n      swap2\n      pop\n        /* \"#utility.yul\":3354:3641   */\n      pop\n        /* \"#utility.yul\":3139:3648   */\n      swap3\n      swap2\n      pop\n      pop\n      jump\t// out\n        /* \"#utility.yul\":3654:3731   */\n    tag_158:\n        /* \"#utility.yul\":3691:3698   */\n      0x00\n        /* \"#utility.yul\":3720:3725   */\n      dup2\n        /* \"#utility.yul\":3709:3725   */\n      swap1\n      pop\n        /* \"#utility.yul\":3654:3731   */\n      swap2\n      swap1\n      pop\n      jump\t// out\n        /* \"#utility.yul\":3737:3855   */\n    tag_159:\n        /* \"#utility.yul\":3824:3848   */\n      tag_239\n        /* \"#utility.yul\":3842:3847   */\n      dup2\n        /* \"#utility.yul\":3824:3848   */\n      tag_158\n      jump\t// in\n    tag_239:\n        /* \"#utility.yul\":3819:3822   */\n      dup3\n        /* \"#utility.yul\":3812:3849   */\n      mstore\n        /* \"#utility.yul\":3737:3855   */\n      pop\n      pop\n      jump\t// out\n        /* \"#utility.yul\":3861:4083   */\n    tag_29:\n        /* \"#utility.yul\":3954:3958   */\n      0x00\n        /* \"#utility.yul\":3992:3994   */\n      0x20\n        /* \"#utility.yul\":3981:3990   */\n      dup3\n        /* \"#utility.yul\":3977:3995   */\n      add\n        /* \"#utility.yul\":3969:3995   */\n      swap1\n      pop\n        /* \"#utility.yul\":4005:4076   */\n      tag_241\n        /* \"#utility.yul\":4073:4074   */\n      0x00\n        /* \"#utility.yul\":4062:4071   */\n      dup4\n        /* \"#utility.yul\":4058:4075   */\n      add\n        /* \"#utility.yul\":4049:4055   */\n      dup5\n        /* \"#utility.yul\":4005:4076   */\n      tag_159\n      jump\t// in\n    tag_241:\n        /* \"#utility.yul\":3861:4083   */\n      swap3\n      swap2\n      pop\n      pop\n      jump\t// out\n        /* \"#utility.yul\":4089:4188   */\n    tag_160:\n        /* \"#utility.yul\":4141:4147   */\n      0x00\n        /* \"#utility.yul\":4175:4180   */\n      dup2\n        /* \"#utility.yul\":4169:4181   */\n      mload\n        /* \"#utility.yul\":4159:4181   */\n      swap1\n      pop\n        /* \"#utility.yul\":4089:4188   */\n      swap2\n      swap1\n      pop\n      jump\t// out\n        /* \"#utility.yul\":4194:4363   */\n    tag_161:\n        /* \"#utility.yul\":4278:4289   */\n      0x00\n        /* \"#utility.yul\":4312:4318   */\n      dup3\n        /* \"#utility.yul\":4307:4310   */\n      dup3\n        /* \"#utility.yul\":4300:4319   */\n      mstore\n        /* \"#utility.yul\":4352:4356   */\n      0x20\n        /* \"#utility.yul\":4347:4350   */\n      dup3\n        /* \"#utility.yul\":4343:4357   */\n      add\n        /* \"#utility.yul\":4328:4357   */\n      swap1\n      pop\n        /* \"#utility.yul\":4194:4363   */\n      swap3\n      swap2\n      pop\n      pop\n      jump\t// out\n        /* \"#utility.yul\":4369:4615   */\n    tag_162:\n        /* \"#utility.yul\":4450:4451   */\n      0x00\n        /* \"#utility.yul\":4460:4573   */\n    tag_245:\n        /* \"#utility.yul\":4474:4480   */\n      dup4\n        /* \"#utility.yul\":4471:4472   */\n      dup2\n        /* \"#utility.yul\":4468:4481   */\n      lt\n        /* \"#utility.yul\":4460:4573   */\n      iszero\n      tag_247\n      jumpi\n        /* \"#utility.yul\":4559:4560   */\n      dup1\n        /* \"#utility.yul\":4554:4557   */\n      dup3\n        /* \"#utility.yul\":4550:4561   */\n      add\n        /* \"#utility.yul\":4544:4562   */\n      mload\n        /* \"#utility.yul\":4540:4541   */\n      dup2\n        /* \"#utility.yul\":4535:4538   */\n      dup5\n        /* \"#utility.yul\":4531:4542   */\n      add\n        /* \"#utility.yul\":4524:4563   */\n      mstore\n        /* \"#utility.yul\":4496:4498   */\n      0x20\n        /* \"#utility.yul\":4493:4494   */\n      dup2\n        /* \"#utility.yul\":4489:4499   */\n      add\n        /* \"#utility.yul\":4484:4499   */\n      swap1\n      pop\n        /* \"#utility.yul\":4460:4573   */\n      jump(tag_245)\n    tag_247:\n        /* \"#utility.yul\":4607:4608   */\n      0x00\n        /* \"#utility.yul\":4598:4604   */\n      dup5\n        /* \"#utility.yul\":4593:4596   */\n      dup5\n        /* \"#utility.yul\":4589:4605   */\n      add\n        /* \"#utility.yul\":4582:4609   */\n      mstore\n        /* \"#utility.yul\":4431:4615   */\n      pop\n        /* \"#utility.yul\":4369:4615   */\n      pop\n      pop\n      pop\n      jump\t// out\n        /* \"#utility.yul\":4621:4998   */\n    tag_163:\n        /* \"#utility.yul\":4709:4712   */\n      0x00\n        /* \"#utility.yul\":4737:4776   */\n      tag_249\n        /* \"#utility.yul\":4770:4775   */\n      dup3\n        /* \"#utility.yul\":4737:4776   */\n      tag_160\n      jump\t// in\n    tag_249:\n        /* \"#utility.yul\":4792:4863   */\n      tag_250\n        /* \"#utility.yul\":4856:4862   */\n      dup2\n        /* \"#utility.yul\":4851:4854   */\n      dup6\n        /* \"#utility.yul\":4792:4863   */\n      tag_161\n      jump\t// in\n    tag_250:\n        /* \"#utility.yul\":4785:4863   */\n      swap4\n      pop\n        /* \"#utility.yul\":4872:4937   */\n      tag_251\n        /* \"#utility.yul\":4930:4936   */\n      dup2\n        /* \"#utility.yul\":4925:4928   */\n      dup6\n        /* \"#utility.yul\":4918:4922   */\n      0x20\n        /* \"#utility.yul\":4911:4916   */\n      dup7\n        /* \"#utility.yul\":4907:4923   */\n      add\n        /* \"#utility.yul\":4872:4937   */\n      tag_162\n      jump\t// in\n    tag_251:\n        /* \"#utility.yul\":4962:4991   */\n      tag_252\n        /* \"#utility.yul\":4984:4990   */\n      dup2\n        /* \"#utility.yul\":4962:4991   */\n      tag_150\n      jump\t// in\n    tag_252:\n        /* \"#utility.yul\":4957:4960   */\n      dup5\n        /* \"#utility.yul\":4953:4992   */\n      add\n        /* \"#utility.yul\":4946:4992   */\n      swap2\n      pop\n        /* \"#utility.yul\":4713:4998   */\n      pop\n        /* \"#utility.yul\":4621:4998   */\n      swap3\n      swap2\n      pop\n      pop\n      jump\t// out\n        /* \"#utility.yul\":5004:5094   */\n    tag_164:\n        /* \"#utility.yul\":5038:5045   */\n      0x00\n        /* \"#utility.yul\":5081:5086   */\n      dup2\n        /* \"#utility.yul\":5074:5087   */\n      iszero\n        /* \"#utility.yul\":5067:5088   */\n      iszero\n        /* \"#utility.yul\":5056:5088   */\n      swap1\n      pop\n        /* \"#utility.yul\":5004:5094   */\n      swap2\n      swap1\n      pop\n      jump\t// out\n        /* \"#utility.yul\":5100:5209   */\n    tag_165:\n        /* \"#utility.yul\":5181:5202   */\n      tag_255\n        /* \"#utility.yul\":5196:5201   */\n      dup2\n        /* \"#utility.yul\":5181:5202   */\n      tag_164\n      jump\t// in\n    tag_255:\n        /* \"#utility.yul\":5176:5179   */\n      dup3\n        /* \"#utility.yul\":5169:5203   */\n      mstore\n        /* \"#utility.yul\":5100:5209   */\n      pop\n      pop\n      jump\t// out\n        /* \"#utility.yul\":5215:5847   */\n    tag_33:\n        /* \"#utility.yul\":5406:5410   */\n      0x00\n        /* \"#utility.yul\":5444:5447   */\n      0x80\n        /* \"#utility.yul\":5433:5442   */\n      dup3\n        /* \"#utility.yul\":5429:5448   */\n      add\n        /* \"#utility.yul\":5421:5448   */\n      swap1\n      pop\n        /* \"#utility.yul\":5458:5529   */\n      tag_257\n        /* \"#utility.yul\":5526:5527   */\n      0x00\n        /* \"#utility.yul\":5515:5524   */\n      dup4\n        /* \"#utility.yul\":5511:5528   */\n      add\n        /* \"#utility.yul\":5502:5508   */\n      dup8\n        /* \"#utility.yul\":5458:5529   */\n      tag_144\n      jump\t// in\n    tag_257:\n        /* \"#utility.yul\":5576:5585   */\n      dup2\n        /* \"#utility.yul\":5570:5574   */\n      dup2\n        /* \"#utility.yul\":5566:5586   */\n      sub\n        /* \"#utility.yul\":5561:5563   */\n      0x20\n        /* \"#utility.yul\":5550:5559   */\n      dup4\n        /* \"#utility.yul\":5546:5564   */\n      add\n        /* \"#utility.yul\":5539:5587   */\n      mstore\n        /* \"#utility.yul\":5604:5682   */\n      tag_258\n        /* \"#utility.yul\":5677:5681   */\n      dup2\n        /* \"#utility.yul\":5668:5674   */\n      dup7\n        /* \"#utility.yul\":5604:5682   */\n      tag_163\n      jump\t// in\n    tag_258:\n        /* \"#utility.yul\":5596:5682   */\n      swap1\n      pop\n        /* \"#utility.yul\":5692:5764   */\n      tag_259\n        /* \"#utility.yul\":5760:5762   */\n      0x40\n        /* \"#utility.yul\":5749:5758   */\n      dup4\n        /* \"#utility.yul\":5745:5763   */\n      add\n        /* \"#utility.yul\":5736:5742   */\n      dup6\n        /* \"#utility.yul\":5692:5764   */\n      tag_159\n      jump\t// in\n    tag_259:\n        /* \"#utility.yul\":5774:5840   */\n      tag_260\n        /* \"#utility.yul\":5836:5838   */\n      0x60\n        /* \"#utility.yul\":5825:5834   */\n      dup4\n        /* \"#utility.yul\":5821:5839   */\n      add\n        /* \"#utility.yul\":5812:5818   */\n      dup5\n        /* \"#utility.yul\":5774:5840   */\n      tag_165\n      jump\t// in\n    tag_260:\n        /* \"#utility.yul\":5215:5847   */\n      swap6\n      swap5\n      pop\n      pop\n      pop\n      pop\n      pop\n      jump\t// out\n        /* \"#utility.yul\":5853:5975   */\n    tag_166:\n        /* \"#utility.yul\":5926:5950   */\n      tag_262\n        /* \"#utility.yul\":5944:5949   */\n      dup2\n        /* \"#utility.yul\":5926:5950   */\n      tag_158\n      jump\t// in\n    tag_262:\n        /* \"#utility.yul\":5919:5924   */\n      dup2\n        /* \"#utility.yul\":5916:5951   */\n      eq\n        /* \"#utility.yul\":5906:5969   */\n      tag_263\n      jumpi\n        /* \"#utility.yul\":5965:5966   */\n      0x00\n        /* \"#utility.yul\":5962:5963   */\n      dup1\n        /* \"#utility.yul\":5955:5967   */\n      revert\n        /* \"#utility.yul\":5906:5969   */\n    tag_263:\n        /* \"#utility.yul\":5853:5975   */\n      pop\n      jump\t// out\n        /* \"#utility.yul\":5981:6120   */\n    tag_167:\n        /* \"#utility.yul\":6027:6032   */\n      0x00\n        /* \"#utility.yul\":6065:6071   */\n      dup2\n        /* \"#utility.yul\":6052:6072   */\n      calldataload\n        /* \"#utility.yul\":6043:6072   */\n      swap1\n      pop\n        /* \"#utility.yul\":6081:6114   */\n      tag_265\n        /* \"#utility.yul\":6108:6113   */\n      dup2\n        /* \"#utility.yul\":6081:6114   */\n      tag_166\n      jump\t// in\n    tag_265:\n        /* \"#utility.yul\":5981:6120   */\n      swap3\n      swap2\n      pop\n      pop\n      jump\t// out\n        /* \"#utility.yul\":6126:6455   */\n    tag_36:\n        /* \"#utility.yul\":6185:6191   */\n      0x00\n        /* \"#utility.yul\":6234:6236   */\n      0x20\n        /* \"#utility.yul\":6222:6231   */\n      dup3\n        /* \"#utility.yul\":6213:6220   */\n      dup5\n        /* \"#utility.yul\":6209:6232   */\n      sub\n        /* \"#utility.yul\":6205:6237   */\n      slt\n        /* \"#utility.yul\":6202:6321   */\n      iszero\n      tag_267\n      jumpi\n        /* \"#utility.yul\":6240:6319   */\n      tag_268\n      tag_146\n      jump\t// in\n    tag_268:\n        /* \"#utility.yul\":6202:6321   */\n    tag_267:\n        /* \"#utility.yul\":6360:6361   */\n      0x00\n        /* \"#utility.yul\":6385:6438   */\n      tag_269\n        /* \"#utility.yul\":6430:6437   */\n      dup5\n        /* \"#utility.yul\":6421:6427   */\n      dup3\n        /* \"#utility.yul\":6410:6419   */\n      dup6\n        /* \"#utility.yul\":6406:6428   */\n      add\n        /* \"#utility.yul\":6385:6438   */\n      tag_167\n      jump\t// in\n    tag_269:\n        /* \"#utility.yul\":6375:6438   */\n      swap2\n      pop\n        /* \"#utility.yul\":6331:6448   */\n      pop\n        /* \"#utility.yul\":6126:6455   */\n      swap3\n      swap2\n      pop\n      pop\n      jump\t// out\n        /* \"#utility.yul\":6461:6774   */\n    tag_39:\n        /* \"#utility.yul\":6574:6578   */\n      0x00\n        /* \"#utility.yul\":6612:6614   */\n      0x20\n        /* \"#utility.yul\":6601:6610   */\n      dup3\n        /* \"#utility.yul\":6597:6615   */\n      add\n        /* \"#utility.yul\":6589:6615   */\n      swap1\n      pop\n        /* \"#utility.yul\":6661:6670   */\n      dup2\n        /* \"#utility.yul\":6655:6659   */\n      dup2\n        /* \"#utility.yul\":6651:6671   */\n      sub\n        /* \"#utility.yul\":6647:6648   */\n      0x00\n        /* \"#utility.yul\":6636:6645   */\n      dup4\n        /* \"#utility.yul\":6632:6649   */\n      add\n        /* \"#utility.yul\":6625:6672   */\n      mstore\n        /* \"#utility.yul\":6689:6767   */\n      tag_271\n        /* \"#utility.yul\":6762:6766   */\n      dup2\n        /* \"#utility.yul\":6753:6759   */\n      dup5\n        /* \"#utility.yul\":6689:6767   */\n      tag_163\n      jump\t// in\n    tag_271:\n        /* \"#utility.yul\":6681:6767   */\n      swap1\n      pop\n        /* \"#utility.yul\":6461:6774   */\n      swap3\n      swap2\n      pop\n      pop\n      jump\t// out\n        /* \"#utility.yul\":6780:6990   */\n    tag_47:\n        /* \"#utility.yul\":6867:6871   */\n      0x00\n        /* \"#utility.yul\":6905:6907   */\n      0x20\n        /* \"#utility.yul\":6894:6903   */\n      dup3\n        /* \"#utility.yul\":6890:6908   */\n      add\n        /* \"#utility.yul\":6882:6908   */\n      swap1\n      pop\n        /* \"#utility.yul\":6918:6983   */\n      tag_273\n        /* \"#utility.yul\":6980:6981   */\n      0x00\n        /* \"#utility.yul\":6969:6978   */\n      dup4\n        /* \"#utility.yul\":6965:6982   */\n      add\n        /* \"#utility.yul\":6956:6962   */\n      dup5\n        /* \"#utility.yul\":6918:6983   */\n      tag_165\n      jump\t// in\n    tag_273:\n        /* \"#utility.yul\":6780:6990   */\n      swap3\n      swap2\n      pop\n      pop\n      jump\t// out\n        /* \"#utility.yul\":6996:7118   */\n    tag_168:\n        /* \"#utility.yul\":7069:7093   */\n      tag_275\n        /* \"#utility.yul\":7087:7092   */\n      dup2\n        /* \"#utility.yul\":7069:7093   */\n      tag_143\n      jump\t// in\n    tag_275:\n        /* \"#utility.yul\":7062:7067   */\n      dup2\n        /* \"#utility.yul\":7059:7094   */\n      eq\n        /* \"#utility.yul\":7049:7112   */\n      tag_276\n      jumpi\n        /* \"#utility.yul\":7108:7109   */\n      0x00\n        /* \"#utility.yul\":7105:7106   */\n      dup1\n        /* \"#utility.yul\":7098:7110   */\n      revert\n        /* \"#utility.yul\":7049:7112   */\n    tag_276:\n        /* \"#utility.yul\":6996:7118   */\n      pop\n      jump\t// out\n        /* \"#utility.yul\":7124:7263   */\n    tag_169:\n        /* \"#utility.yul\":7170:7175   */\n      0x00\n        /* \"#utility.yul\":7208:7214   */\n      dup2\n        /* \"#utility.yul\":7195:7215   */\n      calldataload\n        /* \"#utility.yul\":7186:7215   */\n      swap1\n      pop\n        /* \"#utility.yul\":7224:7257   */\n      tag_278\n        /* \"#utility.yul\":7251:7256   */\n      dup2\n        /* \"#utility.yul\":7224:7257   */\n      tag_168\n      jump\t// in\n    tag_278:\n        /* \"#utility.yul\":7124:7263   */\n      swap3\n      swap2\n      pop\n      pop\n      jump\t// out\n        /* \"#utility.yul\":7269:7598   */\n    tag_53:\n        /* \"#utility.yul\":7328:7334   */\n      0x00\n        /* \"#utility.yul\":7377:7379   */\n      0x20\n        /* \"#utility.yul\":7365:7374   */\n      dup3\n        /* \"#utility.yul\":7356:7363   */\n      dup5\n        /* \"#utility.yul\":7352:7375   */\n      sub\n        /* \"#utility.yul\":7348:7380   */\n      slt\n        /* \"#utility.yul\":7345:7464   */\n      iszero\n      tag_280\n      jumpi\n        /* \"#utility.yul\":7383:7462   */\n      tag_281\n      tag_146\n      jump\t// in\n    tag_281:\n        /* \"#utility.yul\":7345:7464   */\n    tag_280:\n        /* \"#utility.yul\":7503:7504   */\n      0x00\n        /* \"#utility.yul\":7528:7581   */\n      tag_282\n        /* \"#utility.yul\":7573:7580   */\n      dup5\n        /* \"#utility.yul\":7564:7570   */\n      dup3\n        /* \"#utility.yul\":7553:7562   */\n      dup6\n        /* \"#utility.yul\":7549:7571   */\n      add\n        /* \"#utility.yul\":7528:7581   */\n      tag_169\n      jump\t// in\n    tag_282:\n        /* \"#utility.yul\":7518:7581   */\n      swap2\n      pop\n        /* \"#utility.yul\":7474:7591   */\n      pop\n        /* \"#utility.yul\":7269:7598   */\n      swap3\n      swap2\n      pop\n      pop\n      jump\t// out\n        /* \"#utility.yul\":7604:7728   */\n    tag_170:\n        /* \"#utility.yul\":7681:7687   */\n      0x00\n        /* \"#utility.yul\":7715:7720   */\n      dup2\n        /* \"#utility.yul\":7709:7721   */\n      mload\n        /* \"#utility.yul\":7699:7721   */\n      swap1\n      pop\n        /* \"#utility.yul\":7604:7728   */\n      swap2\n      swap1\n      pop\n      jump\t// out\n        /* \"#utility.yul\":7734:7928   */\n    tag_171:\n        /* \"#utility.yul\":7843:7854   */\n      0x00\n        /* \"#utility.yul\":7877:7883   */\n      dup3\n        /* \"#utility.yul\":7872:7875   */\n      dup3\n        /* \"#utility.yul\":7865:7884   */\n      mstore\n        /* \"#utility.yul\":7917:7921   */\n      0x20\n        /* \"#utility.yul\":7912:7915   */\n      dup3\n        /* \"#utility.yul\":7908:7922   */\n      add\n        /* \"#utility.yul\":7893:7922   */\n      swap1\n      pop\n        /* \"#utility.yul\":7734:7928   */\n      swap3\n      swap2\n      pop\n      pop\n      jump\t// out\n        /* \"#utility.yul\":7934:8076   */\n    tag_172:\n        /* \"#utility.yul\":8011:8015   */\n      0x00\n        /* \"#utility.yul\":8034:8037   */\n      dup2\n        /* \"#utility.yul\":8026:8037   */\n      swap1\n      pop\n        /* \"#utility.yul\":8064:8068   */\n      0x20\n        /* \"#utility.yul\":8059:8062   */\n      dup3\n        /* \"#utility.yul\":8055:8069   */\n      add\n        /* \"#utility.yul\":8047:8069   */\n      swap1\n      pop\n        /* \"#utility.yul\":7934:8076   */\n      swap2\n      swap1\n      pop\n      jump\t// out\n        /* \"#utility.yul\":8082:8241   */\n    tag_173:\n        /* \"#utility.yul\":8156:8167   */\n      0x00\n        /* \"#utility.yul\":8190:8196   */\n      dup3\n        /* \"#utility.yul\":8185:8188   */\n      dup3\n        /* \"#utility.yul\":8178:8197   */\n      mstore\n        /* \"#utility.yul\":8230:8234   */\n      0x20\n        /* \"#utility.yul\":8225:8228   */\n      dup3\n        /* \"#utility.yul\":8221:8235   */\n      add\n        /* \"#utility.yul\":8206:8235   */\n      swap1\n      pop\n        /* \"#utility.yul\":8082:8241   */\n      swap3\n      swap2\n      pop\n      pop\n      jump\t// out\n        /* \"#utility.yul\":8247:8604   */\n    tag_174:\n        /* \"#utility.yul\":8325:8328   */\n      0x00\n        /* \"#utility.yul\":8353:8392   */\n      tag_288\n        /* \"#utility.yul\":8386:8391   */\n      dup3\n        /* \"#utility.yul\":8353:8392   */\n      tag_160\n      jump\t// in\n    tag_288:\n        /* \"#utility.yul\":8408:8469   */\n      tag_289\n        /* \"#utility.yul\":8462:8468   */\n      dup2\n        /* \"#utility.yul\":8457:8460   */\n      dup6\n        /* \"#utility.yul\":8408:8469   */\n      tag_173\n      jump\t// in\n    tag_289:\n        /* \"#utility.yul\":8401:8469   */\n      swap4\n      pop\n        /* \"#utility.yul\":8478:8543   */\n      tag_290\n        /* \"#utility.yul\":8536:8542   */\n      dup2\n        /* \"#utility.yul\":8531:8534   */\n      dup6\n        /* \"#utility.yul\":8524:8528   */\n      0x20\n        /* \"#utility.yul\":8517:8522   */\n      dup7\n        /* \"#utility.yul\":8513:8529   */\n      add\n        /* \"#utility.yul\":8478:8543   */\n      tag_162\n      jump\t// in\n    tag_290:\n        /* \"#utility.yul\":8568:8597   */\n      tag_291\n        /* \"#utility.yul\":8590:8596   */\n      dup2\n        /* \"#utility.yul\":8568:8597   */\n      tag_150\n      jump\t// in\n    tag_291:\n        /* \"#utility.yul\":8563:8566   */\n      dup5\n        /* \"#utility.yul\":8559:8598   */\n      add\n        /* \"#utility.yul\":8552:8598   */\n      swap2\n      pop\n        /* \"#utility.yul\":8329:8604   */\n      pop\n        /* \"#utility.yul\":8247:8604   */\n      swap3\n      swap2\n      pop\n      pop\n      jump\t// out\n        /* \"#utility.yul\":8610:8806   */\n    tag_175:\n        /* \"#utility.yul\":8699:8709   */\n      0x00\n        /* \"#utility.yul\":8734:8800   */\n      tag_293\n        /* \"#utility.yul\":8796:8799   */\n      dup4\n        /* \"#utility.yul\":8788:8794   */\n      dup4\n        /* \"#utility.yul\":8734:8800   */\n      tag_174\n      jump\t// in\n    tag_293:\n        /* \"#utility.yul\":8720:8800   */\n      swap1\n      pop\n        /* \"#utility.yul\":8610:8806   */\n      swap3\n      swap2\n      pop\n      pop\n      jump\t// out\n        /* \"#utility.yul\":8812:8935   */\n    tag_176:\n        /* \"#utility.yul\":8892:8896   */\n      0x00\n        /* \"#utility.yul\":8924:8928   */\n      0x20\n        /* \"#utility.yul\":8919:8922   */\n      dup3\n        /* \"#utility.yul\":8915:8929   */\n      add\n        /* \"#utility.yul\":8907:8929   */\n      swap1\n      pop\n        /* \"#utility.yul\":8812:8935   */\n      swap2\n      swap1\n      pop\n      jump\t// out\n        /* \"#utility.yul\":8969:9960   */\n    tag_177:\n        /* \"#utility.yul\":9108:9111   */\n      0x00\n        /* \"#utility.yul\":9137:9201   */\n      tag_296\n        /* \"#utility.yul\":9195:9200   */\n      dup3\n        /* \"#utility.yul\":9137:9201   */\n      tag_170\n      jump\t// in\n    tag_296:\n        /* \"#utility.yul\":9217:9313   */\n      tag_297\n        /* \"#utility.yul\":9306:9312   */\n      dup2\n        /* \"#utility.yul\":9301:9304   */\n      dup6\n        /* \"#utility.yul\":9217:9313   */\n      tag_171\n      jump\t// in\n    tag_297:\n        /* \"#utility.yul\":9210:9313   */\n      swap4\n      pop\n        /* \"#utility.yul\":9339:9342   */\n      dup4\n        /* \"#utility.yul\":9384:9388   */\n      0x20\n        /* \"#utility.yul\":9376:9382   */\n      dup3\n        /* \"#utility.yul\":9372:9389   */\n      mul\n        /* \"#utility.yul\":9367:9370   */\n      dup6\n        /* \"#utility.yul\":9363:9390   */\n      add\n        /* \"#utility.yul\":9414:9480   */\n      tag_298\n        /* \"#utility.yul\":9474:9479   */\n      dup6\n        /* \"#utility.yul\":9414:9480   */\n      tag_172\n      jump\t// in\n    tag_298:\n        /* \"#utility.yul\":9503:9510   */\n      dup1\n        /* \"#utility.yul\":9534:9535   */\n      0x00\n        /* \"#utility.yul\":9519:9915   */\n    tag_299:\n        /* \"#utility.yul\":9544:9550   */\n      dup6\n        /* \"#utility.yul\":9541:9542   */\n      dup2\n        /* \"#utility.yul\":9538:9551   */\n      lt\n        /* \"#utility.yul\":9519:9915   */\n      iszero\n      tag_301\n      jumpi\n        /* \"#utility.yul\":9615:9624   */\n      dup5\n        /* \"#utility.yul\":9609:9613   */\n      dup5\n        /* \"#utility.yul\":9605:9625   */\n      sub\n        /* \"#utility.yul\":9600:9603   */\n      dup10\n        /* \"#utility.yul\":9593:9626   */\n      mstore\n        /* \"#utility.yul\":9666:9672   */\n      dup2\n        /* \"#utility.yul\":9660:9673   */\n      mload\n        /* \"#utility.yul\":9694:9778   */\n      tag_302\n        /* \"#utility.yul\":9773:9777   */\n      dup6\n        /* \"#utility.yul\":9758:9771   */\n      dup3\n        /* \"#utility.yul\":9694:9778   */\n      tag_175\n      jump\t// in\n    tag_302:\n        /* \"#utility.yul\":9686:9778   */\n      swap5\n      pop\n        /* \"#utility.yul\":9801:9871   */\n      tag_303\n        /* \"#utility.yul\":9864:9870   */\n      dup4\n        /* \"#utility.yul\":9801:9871   */\n      tag_176\n      jump\t// in\n    tag_303:\n        /* \"#utility.yul\":9791:9871   */\n      swap3\n      pop\n        /* \"#utility.yul\":9900:9904   */\n      0x20\n        /* \"#utility.yul\":9895:9898   */\n      dup11\n        /* \"#utility.yul\":9891:9905   */\n      add\n        /* \"#utility.yul\":9884:9905   */\n      swap10\n      pop\n        /* \"#utility.yul\":9579:9915   */\n      pop\n        /* \"#utility.yul\":9566:9567   */\n      0x01\n        /* \"#utility.yul\":9563:9564   */\n      dup2\n        /* \"#utility.yul\":9559:9568   */\n      add\n        /* \"#utility.yul\":9554:9568   */\n      swap1\n      pop\n        /* \"#utility.yul\":9519:9915   */\n      jump(tag_299)\n    tag_301:\n        /* \"#utility.yul\":9523:9537   */\n      pop\n        /* \"#utility.yul\":9931:9935   */\n      dup3\n        /* \"#utility.yul\":9924:9935   */\n      swap8\n      pop\n        /* \"#utility.yul\":9951:9954   */\n      dup8\n        /* \"#utility.yul\":9944:9954   */\n      swap6\n      pop\n        /* \"#utility.yul\":9113:9960   */\n      pop\n      pop\n      pop\n      pop\n      pop\n        /* \"#utility.yul\":8969:9960   */\n      swap3\n      swap2\n      pop\n      pop\n      jump\t// out\n        /* \"#utility.yul\":9966:10379   */\n    tag_70:\n        /* \"#utility.yul\":10129:10133   */\n      0x00\n        /* \"#utility.yul\":10167:10169   */\n      0x20\n        /* \"#utility.yul\":10156:10165   */\n      dup3\n        /* \"#utility.yul\":10152:10170   */\n      add\n        /* \"#utility.yul\":10144:10170   */\n      swap1\n      pop\n        /* \"#utility.yul\":10216:10225   */\n      dup2\n        /* \"#utility.yul\":10210:10214   */\n      dup2\n        /* \"#utility.yul\":10206:10226   */\n      sub\n        /* \"#utility.yul\":10202:10203   */\n      0x00\n        /* \"#utility.yul\":10191:10200   */\n      dup4\n        /* \"#utility.yul\":10187:10204   */\n      add\n        /* \"#utility.yul\":10180:10227   */\n      mstore\n        /* \"#utility.yul\":10244:10372   */\n      tag_305\n        /* \"#utility.yul\":10367:10371   */\n      dup2\n        /* \"#utility.yul\":10358:10364   */\n      dup5\n        /* \"#utility.yul\":10244:10372   */\n      tag_177\n      jump\t// in\n    tag_305:\n        /* \"#utility.yul\":10236:10372   */\n      swap1\n      pop\n        /* \"#utility.yul\":9966:10379   */\n      swap3\n      swap2\n      pop\n      pop\n      jump\t// out\n        /* \"#utility.yul\":10385:10565   */\n    tag_178:\n        /* \"#utility.yul\":10433:10510   */\n      0x4e487b7100000000000000000000000000000000000000000000000000000000\n        /* \"#utility.yul\":10430:10431   */\n      0x00\n        /* \"#utility.yul\":10423:10511   */\n      mstore\n        /* \"#utility.yul\":10530:10534   */\n      0x22\n        /* \"#utility.yul\":10527:10528   */\n      0x04\n        /* \"#utility.yul\":10520:10535   */\n      mstore\n        /* \"#utility.yul\":10554:10558   */\n      0x24\n        /* \"#utility.yul\":10551:10552   */\n      0x00\n        /* \"#utility.yul\":10544:10559   */\n      revert\n        /* \"#utility.yul\":10571:10891   */\n    tag_76:\n        /* \"#utility.yul\":10615:10621   */\n      0x00\n        /* \"#utility.yul\":10652:10653   */\n      0x02\n        /* \"#utility.yul\":10646:10650   */\n      dup3\n        /* \"#utility.yul\":10642:10654   */\n      div\n        /* \"#utility.yul\":10632:10654   */\n      swap1\n      pop\n        /* \"#utility.yul\":10699:10700   */\n      0x01\n        /* \"#utility.yul\":10693:10697   */\n      dup3\n        /* \"#utility.yul\":10689:10701   */\n      and\n        /* \"#utility.yul\":10720:10738   */\n      dup1\n        /* \"#utility.yul\":10710:10791   */\n      tag_308\n      jumpi\n        /* \"#utility.yul\":10776:10780   */\n      0x7f\n        /* \"#utility.yul\":10768:10774   */\n      dup3\n        /* \"#utility.yul\":10764:10781   */\n      and\n        /* \"#utility.yul\":10754:10781   */\n      swap2\n      pop\n        /* \"#utility.yul\":10710:10791   */\n    tag_308:\n        /* \"#utility.yul\":10838:10840   */\n      0x20\n        /* \"#utility.yul\":10830:10836   */\n      dup3\n        /* \"#utility.yul\":10827:10841   */\n      lt\n        /* \"#utility.yul\":10807:10825   */\n      dup2\n        /* \"#utility.yul\":10804:10842   */\n      sub\n        /* \"#utility.yul\":10801:10885   */\n      tag_309\n      jumpi\n        /* \"#utility.yul\":10857:10875   */\n      tag_310\n      tag_178\n      jump\t// in\n    tag_310:\n        /* \"#utility.yul\":10801:10885   */\n    tag_309:\n        /* \"#utility.yul\":10622:10891   */\n      pop\n        /* \"#utility.yul\":10571:10891   */\n      swap2\n      swap1\n      pop\n      jump\t// out\n        /* \"#utility.yul\":10897:11045   */\n    tag_179:\n        /* \"#utility.yul\":10999:11010   */\n      0x00\n        /* \"#utility.yul\":11036:11039   */\n      dup2\n        /* \"#utility.yul\":11021:11039   */\n      swap1\n      pop\n        /* \"#utility.yul\":10897:11045   */\n      swap3\n      swap2\n      pop\n      pop\n      jump\t// out\n        /* \"#utility.yul\":11051:11441   */\n    tag_180:\n        /* \"#utility.yul\":11157:11160   */\n      0x00\n        /* \"#utility.yul\":11185:11224   */\n      tag_313\n        /* \"#utility.yul\":11218:11223   */\n      dup3\n        /* \"#utility.yul\":11185:11224   */\n      tag_160\n      jump\t// in\n    tag_313:\n        /* \"#utility.yul\":11240:11329   */\n      tag_314\n        /* \"#utility.yul\":11322:11328   */\n      dup2\n        /* \"#utility.yul\":11317:11320   */\n      dup6\n        /* \"#utility.yul\":11240:11329   */\n      tag_179\n      jump\t// in\n    tag_314:\n        /* \"#utility.yul\":11233:11329   */\n      swap4\n      pop\n        /* \"#utility.yul\":11338:11403   */\n      tag_315\n        /* \"#utility.yul\":11396:11402   */\n      dup2\n        /* \"#utility.yul\":11391:11394   */\n      dup6\n        /* \"#utility.yul\":11384:11388   */\n      0x20\n        /* \"#utility.yul\":11377:11382   */\n      dup7\n        /* \"#utility.yul\":11373:11389   */\n      add\n        /* \"#utility.yul\":11338:11403   */\n      tag_162\n      jump\t// in\n    tag_315:\n        /* \"#utility.yul\":11428:11434   */\n      dup1\n        /* \"#utility.yul\":11423:11426   */\n      dup5\n        /* \"#utility.yul\":11419:11435   */\n      add\n        /* \"#utility.yul\":11412:11435   */\n      swap2\n      pop\n        /* \"#utility.yul\":11161:11441   */\n      pop\n        /* \"#utility.yul\":11051:11441   */\n      swap3\n      swap2\n      pop\n      pop\n      jump\t// out\n        /* \"#utility.yul\":11447:11722   */\n    tag_90:\n        /* \"#utility.yul\":11579:11582   */\n      0x00\n        /* \"#utility.yul\":11601:11696   */\n      tag_317\n        /* \"#utility.yul\":11692:11695   */\n      dup3\n        /* \"#utility.yul\":11683:11689   */\n      dup5\n        /* \"#utility.yul\":11601:11696   */\n      tag_180\n      jump\t// in\n    tag_317:\n        /* \"#utility.yul\":11594:11696   */\n      swap2\n      pop\n        /* \"#utility.yul\":11713:11716   */\n      dup2\n        /* \"#utility.yul\":11706:11716   */\n      swap1\n      pop\n        /* \"#utility.yul\":11447:11722   */\n      swap3\n      swap2\n      pop\n      pop\n      jump\t// out\n        /* \"#utility.yul\":11728:11950   */\n    tag_181:\n        /* \"#utility.yul\":11868:11902   */\n      0x4f6e6c792063726561746f722063616e2063616c6c20746869732066756e6374\n        /* \"#utility.yul\":11864:11865   */\n      0x00\n        /* \"#utility.yul\":11856:11862   */\n      dup3\n        /* \"#utility.yul\":11852:11866   */\n      add\n        /* \"#utility.yul\":11845:11903   */\n      mstore\n        /* \"#utility.yul\":11937:11942   */\n      0x696f6e0000000000000000000000000000000000000000000000000000000000\n        /* \"#utility.yul\":11932:11934   */\n      0x20\n        /* \"#utility.yul\":11924:11930   */\n      dup3\n        /* \"#utility.yul\":11920:11935   */\n      add\n        /* \"#utility.yul\":11913:11943   */\n      mstore\n        /* \"#utility.yul\":11728:11950   */\n      pop\n      jump\t// out\n        /* \"#utility.yul\":11956:12322   */\n    tag_182:\n        /* \"#utility.yul\":12098:12101   */\n      0x00\n        /* \"#utility.yul\":12119:12186   */\n      tag_320\n        /* \"#utility.yul\":12183:12185   */\n      0x23\n        /* \"#utility.yul\":12178:12181   */\n      dup4\n        /* \"#utility.yul\":12119:12186   */\n      tag_161\n      jump\t// in\n    tag_320:\n        /* \"#utility.yul\":12112:12186   */\n      swap2\n      pop\n        /* \"#utility.yul\":12195:12288   */\n      tag_321\n        /* \"#utility.yul\":12284:12287   */\n      dup3\n        /* \"#utility.yul\":12195:12288   */\n      tag_181\n      jump\t// in\n    tag_321:\n        /* \"#utility.yul\":12313:12315   */\n      0x40\n        /* \"#utility.yul\":12308:12311   */\n      dup3\n        /* \"#utility.yul\":12304:12316   */\n      add\n        /* \"#utility.yul\":12297:12316   */\n      swap1\n      pop\n        /* \"#utility.yul\":11956:12322   */\n      swap2\n      swap1\n      pop\n      jump\t// out\n        /* \"#utility.yul\":12328:12747   */\n    tag_101:\n        /* \"#utility.yul\":12494:12498   */\n      0x00\n        /* \"#utility.yul\":12532:12534   */\n      0x20\n        /* \"#utility.yul\":12521:12530   */\n      dup3\n        /* \"#utility.yul\":12517:12535   */\n      add\n        /* \"#utility.yul\":12509:12535   */\n      swap1\n      pop\n        /* \"#utility.yul\":12581:12590   */\n      dup2\n        /* \"#utility.yul\":12575:12579   */\n      dup2\n        /* \"#utility.yul\":12571:12591   */\n      sub\n        /* \"#utility.yul\":12567:12568   */\n      0x00\n        /* \"#utility.yul\":12556:12565   */\n      dup4\n        /* \"#utility.yul\":12552:12569   */\n      add\n        /* \"#utility.yul\":12545:12592   */\n      mstore\n        /* \"#utility.yul\":12609:12740   */\n      tag_323\n        /* \"#utility.yul\":12735:12739   */\n      dup2\n        /* \"#utility.yul\":12609:12740   */\n      tag_182\n      jump\t// in\n    tag_323:\n        /* \"#utility.yul\":12601:12740   */\n      swap1\n      pop\n        /* \"#utility.yul\":12328:12747   */\n      swap2\n      swap1\n      pop\n      jump\t// out\n        /* \"#utility.yul\":12753:12927   */\n    tag_183:\n        /* \"#utility.yul\":12893:12919   */\n      0x566f74696e6720697320616c726561647920636c6f7365640000000000000000\n        /* \"#utility.yul\":12889:12890   */\n      0x00\n        /* \"#utility.yul\":12881:12887   */\n      dup3\n        /* \"#utility.yul\":12877:12891   */\n      add\n        /* \"#utility.yul\":12870:12920   */\n      mstore\n        /* \"#utility.yul\":12753:12927   */\n      pop\n      jump\t// out\n        /* \"#utility.yul\":12933:13299   */\n    tag_184:\n        /* \"#utility.yul\":13075:13078   */\n      0x00\n        /* \"#utility.yul\":13096:13163   */\n      tag_326\n        /* \"#utility.yul\":13160:13162   */\n      0x18\n        /* \"#utility.yul\":13155:13158   */\n      dup4\n        /* \"#utility.yul\":13096:13163   */\n      tag_161\n      jump\t// in\n    tag_326:\n        /* \"#utility.yul\":13089:13163   */\n      swap2\n      pop\n        /* \"#utility.yul\":13172:13265   */\n      tag_327\n        /* \"#utility.yul\":13261:13264   */\n      dup3\n        /* \"#utility.yul\":13172:13265   */\n      tag_183\n      jump\t// in\n    tag_327:\n        /* \"#utility.yul\":13290:13292   */\n      0x20\n        /* \"#utility.yul\":13285:13288   */\n      dup3\n        /* \"#utility.yul\":13281:13293   */\n      add\n        /* \"#utility.yul\":13274:13293   */\n      swap1\n      pop\n        /* \"#utility.yul\":12933:13299   */\n      swap2\n      swap1\n      pop\n      jump\t// out\n        /* \"#utility.yul\":13305:13724   */\n    tag_105:\n        /* \"#utility.yul\":13471:13475   */\n      0x00\n        /* \"#utility.yul\":13509:13511   */\n      0x20\n        /* \"#utility.yul\":13498:13507   */\n      dup3\n        /* \"#utility.yul\":13494:13512   */\n      add\n        /* \"#utility.yul\":13486:13512   */\n      swap1\n      pop\n        /* \"#utility.yul\":13558:13567   */\n      dup2\n        /* \"#utility.yul\":13552:13556   */\n      dup2\n        /* \"#utility.yul\":13548:13568   */\n      sub\n        /* \"#utility.yul\":13544:13545   */\n      0x00\n        /* \"#utility.yul\":13533:13542   */\n      dup4\n        /* \"#utility.yul\":13529:13546   */\n      add\n        /* \"#utility.yul\":13522:13569   */\n      mstore\n        /* \"#utility.yul\":13586:13717   */\n      tag_329\n        /* \"#utility.yul\":13712:13716   */\n      dup2\n        /* \"#utility.yul\":13586:13717   */\n      tag_184\n      jump\t// in\n    tag_329:\n        /* \"#utility.yul\":13578:13717   */\n      swap1\n      pop\n        /* \"#utility.yul\":13305:13724   */\n      swap2\n      swap1\n      pop\n      jump\t// out\n        /* \"#utility.yul\":13730:13902   */\n    tag_185:\n        /* \"#utility.yul\":13870:13894   */\n      0x596f75206861766520616c726561647920766f74656400000000000000000000\n        /* \"#utility.yul\":13866:13867   */\n      0x00\n        /* \"#utility.yul\":13858:13864   */\n      dup3\n        /* \"#utility.yul\":13854:13868   */\n      add\n        /* \"#utility.yul\":13847:13895   */\n      mstore\n        /* \"#utility.yul\":13730:13902   */\n      pop\n      jump\t// out\n        /* \"#utility.yul\":13908:14274   */\n    tag_186:\n        /* \"#utility.yul\":14050:14053   */\n      0x00\n        /* \"#utility.yul\":14071:14138   */\n      tag_332\n        /* \"#utility.yul\":14135:14137   */\n      0x16\n        /* \"#utility.yul\":14130:14133   */\n      dup4\n        /* \"#utility.yul\":14071:14138   */\n      tag_161\n      jump\t// in\n    tag_332:\n        /* \"#utility.yul\":14064:14138   */\n      swap2\n      pop\n        /* \"#utility.yul\":14147:14240   */\n      tag_333\n        /* \"#utility.yul\":14236:14239   */\n      dup3\n        /* \"#utility.yul\":14147:14240   */\n      tag_185\n      jump\t// in\n    tag_333:\n        /* \"#utility.yul\":14265:14267   */\n      0x20\n        /* \"#utility.yul\":14260:14263   */\n      dup3\n        /* \"#utility.yul\":14256:14268   */\n      add\n        /* \"#utility.yul\":14249:14268   */\n      swap1\n      pop\n        /* \"#utility.yul\":13908:14274   */\n      swap2\n      swap1\n      pop\n      jump\t// out\n        /* \"#utility.yul\":14280:14699   */\n    tag_118:\n        /* \"#utility.yul\":14446:14450   */\n      0x00\n        /* \"#utility.yul\":14484:14486   */\n      0x20\n        /* \"#utility.yul\":14473:14482   */\n      dup3\n        /* \"#utility.yul\":14469:14487   */\n      add\n        /* \"#utility.yul\":14461:14487   */\n      swap1\n      pop\n        /* \"#utility.yul\":14533:14542   */\n      dup2\n        /* \"#utility.yul\":14527:14531   */\n      dup2\n        /* \"#utility.yul\":14523:14543   */\n      sub\n        /* \"#utility.yul\":14519:14520   */\n      0x00\n        /* \"#utility.yul\":14508:14517   */\n      dup4\n        /* \"#utility.yul\":14504:14521   */\n      add\n        /* \"#utility.yul\":14497:14544   */\n      mstore\n        /* \"#utility.yul\":14561:14692   */\n      tag_335\n        /* \"#utility.yul\":14687:14691   */\n      dup2\n        /* \"#utility.yul\":14561:14692   */\n      tag_186\n      jump\t// in\n    tag_335:\n        /* \"#utility.yul\":14553:14692   */\n      swap1\n      pop\n        /* \"#utility.yul\":14280:14699   */\n      swap2\n      swap1\n      pop\n      jump\t// out\n        /* \"#utility.yul\":14705:14871   */\n    tag_187:\n        /* \"#utility.yul\":14845:14863   */\n      0x566f74696e6720697320636c6f73656400000000000000000000000000000000\n        /* \"#utility.yul\":14841:14842   */\n      0x00\n        /* \"#utility.yul\":14833:14839   */\n      dup3\n        /* \"#utility.yul\":14829:14843   */\n      add\n        /* \"#utility.yul\":14822:14864   */\n      mstore\n        /* \"#utility.yul\":14705:14871   */\n      pop\n      jump\t// out\n        /* \"#utility.yul\":14877:15243   */\n    tag_188:\n        /* \"#utility.yul\":15019:15022   */\n      0x00\n        /* \"#utility.yul\":15040:15107   */\n      tag_338\n        /* \"#utility.yul\":15104:15106   */\n      0x10\n        /* \"#utility.yul\":15099:15102   */\n      dup4\n        /* \"#utility.yul\":15040:15107   */\n      tag_161\n      jump\t// in\n    tag_338:\n        /* \"#utility.yul\":15033:15107   */\n      swap2\n      pop\n        /* \"#utility.yul\":15116:15209   */\n      tag_339\n        /* \"#utility.yul\":15205:15208   */\n      dup3\n        /* \"#utility.yul\":15116:15209   */\n      tag_187\n      jump\t// in\n    tag_339:\n        /* \"#utility.yul\":15234:15236   */\n      0x20\n        /* \"#utility.yul\":15229:15232   */\n      dup3\n        /* \"#utility.yul\":15225:15237   */\n      add\n        /* \"#utility.yul\":15218:15237   */\n      swap1\n      pop\n        /* \"#utility.yul\":14877:15243   */\n      swap2\n      swap1\n      pop\n      jump\t// out\n        /* \"#utility.yul\":15249:15668   */\n    tag_121:\n        /* \"#utility.yul\":15415:15419   */\n      0x00\n        /* \"#utility.yul\":15453:15455   */\n      0x20\n        /* \"#utility.yul\":15442:15451   */\n      dup3\n        /* \"#utility.yul\":15438:15456   */\n      add\n        /* \"#utility.yul\":15430:15456   */\n      swap1\n      pop\n        /* \"#utility.yul\":15502:15511   */\n      dup2\n        /* \"#utility.yul\":15496:15500   */\n      dup2\n        /* \"#utility.yul\":15492:15512   */\n      sub\n        /* \"#utility.yul\":15488:15489   */\n      0x00\n        /* \"#utility.yul\":15477:15486   */\n      dup4\n        /* \"#utility.yul\":15473:15490   */\n      add\n        /* \"#utility.yul\":15466:15513   */\n      mstore\n        /* \"#utility.yul\":15530:15661   */\n      tag_341\n        /* \"#utility.yul\":15656:15660   */\n      dup2\n        /* \"#utility.yul\":15530:15661   */\n      tag_188\n      jump\t// in\n    tag_341:\n        /* \"#utility.yul\":15522:15661   */\n      swap1\n      pop\n        /* \"#utility.yul\":15249:15668   */\n      swap2\n      swap1\n      pop\n      jump\t// out\n        /* \"#utility.yul\":15674:15854   */\n    tag_128:\n        /* \"#utility.yul\":15722:15799   */\n      0x4e487b7100000000000000000000000000000000000000000000000000000000\n        /* \"#utility.yul\":15719:15720   */\n      0x00\n        /* \"#utility.yul\":15712:15800   */\n      mstore\n        /* \"#utility.yul\":15819:15823   */\n      0x32\n        /* \"#utility.yul\":15816:15817   */\n      0x04\n        /* \"#utility.yul\":15809:15824   */\n      mstore\n        /* \"#utility.yul\":15843:15847   */\n      0x24\n        /* \"#utility.yul\":15840:15841   */\n      0x00\n        /* \"#utility.yul\":15833:15848   */\n      revert\n        /* \"#utility.yul\":15860:16001   */\n    tag_189:\n        /* \"#utility.yul\":15909:15913   */\n      0x00\n        /* \"#utility.yul\":15932:15935   */\n      dup2\n        /* \"#utility.yul\":15924:15935   */\n      swap1\n      pop\n        /* \"#utility.yul\":15955:15958   */\n      dup2\n        /* \"#utility.yul\":15952:15953   */\n      0x00\n        /* \"#utility.yul\":15945:15959   */\n      mstore\n        /* \"#utility.yul\":15989:15993   */\n      0x20\n        /* \"#utility.yul\":15986:15987   */\n      0x00\n        /* \"#utility.yul\":15976:15994   */\n      keccak256\n        /* \"#utility.yul\":15968:15994   */\n      swap1\n      pop\n        /* \"#utility.yul\":15860:16001   */\n      swap2\n      swap1\n      pop\n      jump\t// out\n        /* \"#utility.yul\":16031:16905   */\n    tag_190:\n        /* \"#utility.yul\":16134:16137   */\n      0x00\n        /* \"#utility.yul\":16171:16176   */\n      dup2\n        /* \"#utility.yul\":16165:16177   */\n      sload\n        /* \"#utility.yul\":16200:16236   */\n      tag_345\n        /* \"#utility.yul\":16226:16235   */\n      dup2\n        /* \"#utility.yul\":16200:16236   */\n      tag_76\n      jump\t// in\n    tag_345:\n        /* \"#utility.yul\":16252:16341   */\n      tag_346\n        /* \"#utility.yul\":16334:16340   */\n      dup2\n        /* \"#utility.yul\":16329:16332   */\n      dup7\n        /* \"#utility.yul\":16252:16341   */\n      tag_179\n      jump\t// in\n    tag_346:\n        /* \"#utility.yul\":16245:16341   */\n      swap5\n      pop\n        /* \"#utility.yul\":16372:16373   */\n      0x01\n        /* \"#utility.yul\":16361:16370   */\n      dup3\n        /* \"#utility.yul\":16357:16374   */\n      and\n        /* \"#utility.yul\":16388:16389   */\n      0x00\n        /* \"#utility.yul\":16383:16549   */\n      dup2\n      eq\n      tag_348\n      jumpi\n        /* \"#utility.yul\":16563:16564   */\n      0x01\n        /* \"#utility.yul\":16558:16899   */\n      dup2\n      eq\n      tag_349\n      jumpi\n        /* \"#utility.yul\":16350:16899   */\n      jump(tag_347)\n        /* \"#utility.yul\":16383:16549   */\n    tag_348:\n        /* \"#utility.yul\":16467:16471   */\n      0xff\n        /* \"#utility.yul\":16463:16472   */\n      not\n        /* \"#utility.yul\":16452:16461   */\n      dup4\n        /* \"#utility.yul\":16448:16473   */\n      and\n        /* \"#utility.yul\":16443:16446   */\n      dup7\n        /* \"#utility.yul\":16436:16474   */\n      mstore\n        /* \"#utility.yul\":16529:16535   */\n      dup2\n        /* \"#utility.yul\":16522:16536   */\n      iszero\n        /* \"#utility.yul\":16515:16537   */\n      iszero\n        /* \"#utility.yul\":16507:16513   */\n      dup3\n        /* \"#utility.yul\":16503:16538   */\n      mul\n        /* \"#utility.yul\":16498:16501   */\n      dup7\n        /* \"#utility.yul\":16494:16539   */\n      add\n        /* \"#utility.yul\":16487:16539   */\n      swap4\n      pop\n        /* \"#utility.yul\":16383:16549   */\n      jump(tag_347)\n        /* \"#utility.yul\":16558:16899   */\n    tag_349:\n        /* \"#utility.yul\":16625:16663   */\n      tag_350\n        /* \"#utility.yul\":16657:16662   */\n      dup6\n        /* \"#utility.yul\":16625:16663   */\n      tag_189\n      jump\t// in\n    tag_350:\n        /* \"#utility.yul\":16685:16686   */\n      0x00\n        /* \"#utility.yul\":16699:16853   */\n    tag_351:\n        /* \"#utility.yul\":16713:16719   */\n      dup4\n        /* \"#utility.yul\":16710:16711   */\n      dup2\n        /* \"#utility.yul\":16707:16720   */\n      lt\n        /* \"#utility.yul\":16699:16853   */\n      iszero\n      tag_353\n      jumpi\n        /* \"#utility.yul\":16787:16794   */\n      dup2\n        /* \"#utility.yul\":16781:16795   */\n      sload\n        /* \"#utility.yul\":16777:16778   */\n      dup2\n        /* \"#utility.yul\":16772:16775   */\n      dup10\n        /* \"#utility.yul\":16768:16779   */\n      add\n        /* \"#utility.yul\":16761:16796   */\n      mstore\n        /* \"#utility.yul\":16837:16838   */\n      0x01\n        /* \"#utility.yul\":16828:16835   */\n      dup3\n        /* \"#utility.yul\":16824:16839   */\n      add\n        /* \"#utility.yul\":16813:16839   */\n      swap2\n      pop\n        /* \"#utility.yul\":16735:16739   */\n      0x20\n        /* \"#utility.yul\":16732:16733   */\n      dup2\n        /* \"#utility.yul\":16728:16740   */\n      add\n        /* \"#utility.yul\":16723:16740   */\n      swap1\n      pop\n        /* \"#utility.yul\":16699:16853   */\n      jump(tag_351)\n    tag_353:\n        /* \"#utility.yul\":16882:16888   */\n      dup4\n        /* \"#utility.yul\":16877:16880   */\n      dup9\n        /* \"#utility.yul\":16873:16889   */\n      add\n        /* \"#utility.yul\":16866:16889   */\n      swap6\n      pop\n        /* \"#utility.yul\":16565:16899   */\n      pop\n      pop\n        /* \"#utility.yul\":16350:16899   */\n    tag_347:\n      pop\n        /* \"#utility.yul\":16138:16905   */\n      pop\n      pop\n        /* \"#utility.yul\":16031:16905   */\n      swap3\n      swap2\n      pop\n      pop\n      jump\t// out\n        /* \"#utility.yul\":16911:17180   */\n    tag_131:\n        /* \"#utility.yul\":17040:17043   */\n      0x00\n        /* \"#utility.yul\":17062:17154   */\n      tag_355\n        /* \"#utility.yul\":17150:17153   */\n      dup3\n        /* \"#utility.yul\":17141:17147   */\n      dup5\n        /* \"#utility.yul\":17062:17154   */\n      tag_190\n      jump\t// in\n    tag_355:\n        /* \"#utility.yul\":17055:17154   */\n      swap2\n      pop\n        /* \"#utility.yul\":17171:17174   */\n      dup2\n        /* \"#utility.yul\":17164:17174   */\n      swap1\n      pop\n        /* \"#utility.yul\":16911:17180   */\n      swap3\n      swap2\n      pop\n      pop\n      jump\t// out\n        /* \"#utility.yul\":17186:17366   */\n    tag_191:\n        /* \"#utility.yul\":17234:17311   */\n      0x4e487b7100000000000000000000000000000000000000000000000000000000\n        /* \"#utility.yul\":17231:17232   */\n      0x00\n        /* \"#utility.yul\":17224:17312   */\n      mstore\n        /* \"#utility.yul\":17331:17335   */\n      0x11\n        /* \"#utility.yul\":17328:17329   */\n      0x04\n        /* \"#utility.yul\":17321:17336   */\n      mstore\n        /* \"#utility.yul\":17355:17359   */\n      0x24\n        /* \"#utility.yul\":17352:17353   */\n      0x00\n        /* \"#utility.yul\":17345:17360   */\n      revert\n        /* \"#utility.yul\":17372:17605   */\n    tag_134:\n        /* \"#utility.yul\":17411:17414   */\n      0x00\n        /* \"#utility.yul\":17434:17458   */\n      tag_358\n        /* \"#utility.yul\":17452:17457   */\n      dup3\n        /* \"#utility.yul\":17434:17458   */\n      tag_158\n      jump\t// in\n    tag_358:\n        /* \"#utility.yul\":17425:17458   */\n      swap2\n      pop\n        /* \"#utility.yul\":17480:17546   */\n      0xffffffffffffffffffffffffffffffffffffffffffffffffffffffffffffffff\n        /* \"#utility.yul\":17473:17478   */\n      dup3\n        /* \"#utility.yul\":17470:17547   */\n      sub\n        /* \"#utility.yul\":17467:17570   */\n      tag_359\n      jumpi\n        /* \"#utility.yul\":17550:17568   */\n      tag_360\n      tag_191\n      jump\t// in\n    tag_360:\n        /* \"#utility.yul\":17467:17570   */\n    tag_359:\n        /* \"#utility.yul\":17597:17598   */\n      0x01\n        /* \"#utility.yul\":17590:17595   */\n      dup3\n        /* \"#utility.yul\":17586:17599   */\n      add\n        /* \"#utility.yul\":17579:17599   */\n      swap1\n      pop\n        /* \"#utility.yul\":17372:17605   */\n      swap2\n      swap1\n      pop\n      jump\t// out\n        /* \"#utility.yul\":17611:17782   */\n    tag_192:\n        /* \"#utility.yul\":17751:17774   */\n      0x4f7074696f6e20646f6573206e6f742065786973740000000000000000000000\n        /* \"#utility.yul\":17747:17748   */\n      0x00\n        /* \"#utility.yul\":17739:17745   */\n      dup3\n        /* \"#utility.yul\":17735:17749   */\n      add\n        /* \"#utility.yul\":17728:17775   */\n      mstore\n        /* \"#utility.yul\":17611:17782   */\n      pop\n      jump\t// out\n        /* \"#utility.yul\":17788:18154   */\n    tag_193:\n        /* \"#utility.yul\":17930:17933   */\n      0x00\n        /* \"#utility.yul\":17951:18018   */\n      tag_363\n        /* \"#utility.yul\":18015:18017   */\n      0x15\n        /* \"#utility.yul\":18010:18013   */\n      dup4\n        /* \"#utility.yul\":17951:18018   */\n      tag_161\n      jump\t// in\n    tag_363:\n        /* \"#utility.yul\":17944:18018   */\n      swap2\n      pop\n        /* \"#utility.yul\":18027:18120   */\n      tag_364\n        /* \"#utility.yul\":18116:18119   */\n      dup3\n        /* \"#utility.yul\":18027:18120   */\n      tag_192\n      jump\t// in\n    tag_364:\n        /* \"#utility.yul\":18145:18147   */\n      0x20\n        /* \"#utility.yul\":18140:18143   */\n      dup3\n        /* \"#utility.yul\":18136:18148   */\n      add\n        /* \"#utility.yul\":18129:18148   */\n      swap1\n      pop\n        /* \"#utility.yul\":17788:18154   */\n      swap2\n      swap1\n      pop\n      jump\t// out\n        /* \"#utility.yul\":18160:18579   */\n    tag_137:\n        /* \"#utility.yul\":18326:18330   */\n      0x00\n        /* \"#utility.yul\":18364:18366   */\n      0x20\n        /* \"#utility.yul\":18353:18362   */\n      dup3\n        /* \"#utility.yul\":18349:18367   */\n      add\n        /* \"#utility.yul\":18341:18367   */\n      swap1\n      pop\n        /* \"#utility.yul\":18413:18422   */\n      dup2\n        /* \"#utility.yul\":18407:18411   */\n      dup2\n        /* \"#utility.yul\":18403:18423   */\n      sub\n        /* \"#utility.yul\":18399:18400   */\n      0x00\n        /* \"#utility.yul\":18388:18397   */\n      dup4\n        /* \"#utility.yul\":18384:18401   */\n      add\n        /* \"#utility.yul\":18377:18424   */\n      mstore\n        /* \"#utility.yul\":18441:18572   */\n      tag_366\n        /* \"#utility.yul\":18567:18571   */\n      dup2\n        /* \"#utility.yul\":18441:18572   */\n      tag_193\n      jump\t// in\n    tag_366:\n        /* \"#utility.yul\":18433:18572   */\n      swap1\n      pop\n        /* \"#utility.yul\":18160:18579   */\n      swap2\n      swap1\n      pop\n      jump\t// out\n        /* \"#utility.yul\":18585:18776   */\n    tag_140:\n        /* \"#utility.yul\":18625:18628   */\n      0x00\n        /* \"#utility.yul\":18644:18664   */\n      tag_368\n        /* \"#utility.yul\":18662:18663   */\n      dup3\n        /* \"#utility.yul\":18644:18664   */\n      tag_158\n      jump\t// in\n    tag_368:\n        /* \"#utility.yul\":18639:18664   */\n      swap2\n      pop\n        /* \"#utility.yul\":18678:18698   */\n      tag_369\n        /* \"#utility.yul\":18696:18697   */\n      dup4\n        /* \"#utility.yul\":18678:18698   */\n      tag_158\n      jump\t// in\n    tag_369:\n        /* \"#utility.yul\":18673:18698   */\n      swap3\n      pop\n        /* \"#utility.yul\":18721:18722   */\n      dup3\n        /* \"#utility.yul\":18718:18719   */\n      dup3\n        /* \"#utility.yul\":18714:18723   */\n      add\n        /* \"#utility.yul\":18707:18723   */\n      swap1\n      pop\n        /* \"#utility.yul\":18742:18745   */\n      dup1\n        /* \"#utility.yul\":18739:18740   */\n      dup3\n        /* \"#utility.yul\":18736:18746   */\n      gt\n        /* \"#utility.yul\":18733:18769   */\n      iszero\n      tag_370\n      jumpi\n        /* \"#utility.yul\":18749:18767   */\n      tag_371\n      tag_191\n      jump\t// in\n    tag_371:\n        /* \"#utility.yul\":18733:18769   */\n    tag_370:\n        /* \"#utility.yul\":18585:18776   */\n      swap3\n      swap2\n      pop\n      pop\n      jump\t// out\n\n    auxdata: 0xa26469706673582212209094b715df113545f534decde934a62f5c3783583ace1ad084dc4d74d164f99b64736f6c63430008110033\n}\n","bytecode":{"linkReferences":{},"object":"60806040523480156200001157600080fd5b5060405162001c3038038062001c3083398181016040528101906200003791906200048c565b826000806101000a81548173ffffffffffffffffffffffffffffffffffffffff021916908373ffffffffffffffffffffffffffffffffffffffff160217905550816001908162000088919062000771565b508060029080519060200190620000a1929190620000ab565b5050505062000858565b828054828255906000526020600020908101928215620000f8579160200282015b82811115620000f7578251829081620000e6919062000771565b5091602001919060010190620000cc565b5b5090506200010791906200010b565b5090565b5b808211156200012f576000818162000125919062000133565b506001016200010c565b5090565b508054620001419062000560565b6000825580601f1062000155575062000176565b601f01602090049060005260206000209081019062000175919062000179565b5b50565b5b80821115620001945760008160009055506001016200017a565b5090565b6000604051905090565b600080fd5b600080fd5b600073ffffffffffffffffffffffffffffffffffffffff82169050919050565b6000620001d982620001ac565b9050919050565b620001eb81620001cc565b8114620001f757600080fd5b50565b6000815190506200020b81620001e0565b92915050565b600080fd5b600080fd5b6000601f19601f8301169050919050565b7f4e487b7100000000000000000000000000000000000000000000000000000000600052604160045260246000fd5b62000266826200021b565b810181811067ffffffffffffffff821117156200028857620002876200022c565b5b80604052505050565b60006200029d62000198565b9050620002ab82826200025b565b919050565b600067ffffffffffffffff821115620002ce57620002cd6200022c565b5b620002d9826200021b565b9050602081019050919050565b60005b8381101562000306578082015181840152602081019050620002e9565b60008484015250505050565b6000620003296200032384620002b0565b62000291565b90508281526020810184848401111562000348576200034762000216565b5b62000355848285620002e6565b509392505050565b600082601f83011262000375576200037462000211565b5b81516200038784826020860162000312565b91505092915050565b600067ffffffffffffffff821115620003ae57620003ad6200022c565b5b602082029050602081019050919050565b600080fd5b6000620003db620003d58462000390565b62000291565b90508083825260208201905060208402830185811115620004015762000400620003bf565b5b835b818110156200044f57805167ffffffffffffffff8111156200042a576200042962000211565b5b8086016200043989826200035d565b8552602085019450505060208101905062000403565b5050509392505050565b600082601f83011262000471576200047062000211565b5b815162000483848260208601620003c4565b91505092915050565b600080600060608486031215620004a857620004a7620001a2565b5b6000620004b886828701620001fa565b935050602084015167ffffffffffffffff811115620004dc57620004db620001a7565b5b620004ea868287016200035d565b925050604084015167ffffffffffffffff8111156200050e576200050d620001a7565b5b6200051c8682870162000459565b9150509250925092565b600081519050919050565b7f4e487b7100000000000000000000000000000000000000000000000000000000600052602260045260246000fd5b600060028204905060018216806200057957607f821691505b6020821081036200058f576200058e62000531565b5b50919050565b60008190508160005260206000209050919050565b60006020601f8301049050919050565b600082821b905092915050565b600060088302620005f97fffffffffffffffffffffffffffffffffffffffffffffffffffffffffffffffff82620005ba565b620006058683620005ba565b95508019841693508086168417925050509392505050565b6000819050919050565b6000819050919050565b6000620006526200064c62000646846200061d565b62000627565b6200061d565b9050919050565b6000819050919050565b6200066e8362000631565b620006866200067d8262000659565b848454620005c7565b825550505050565b600090565b6200069d6200068e565b620006aa81848462000663565b505050565b5b81811015620006d257620006c660008262000693565b600181019050620006b0565b5050565b601f8211156200072157620006eb8162000595565b620006f684620005aa565b8101602085101562000706578190505b6200071e6200071585620005aa565b830182620006af565b50505b505050565b600082821c905092915050565b6000620007466000198460080262000726565b1980831691505092915050565b600062000761838362000733565b9150826002028217905092915050565b6200077c8262000526565b67ffffffffffffffff8111156200079857620007976200022c565b5b620007a4825462000560565b620007b1828285620006d6565b600060209050601f831160018114620007e95760008415620007d4578287015190505b620007e0858262000753565b86555062000850565b601f198416620007f98662000595565b60005b828110156200082357848901518255600182019150602085019450602081019050620007fc565b868310156200084357848901516200083f601f89168262000733565b8355505b6001600288020188555050505b505050505050565b6113c880620008686000396000f3fe608060405234801561001057600080fd5b50600436106100ea5760003560e01c8063a3ec138d1161008c578063c0f2a77711610066578063c0f2a77714610266578063c631b29214610284578063cc2ee1961461028e578063fc36e15b146102ac576100ea565b8063a3ec138d146101fa578063a4d4334a1461022a578063bf63a57714610248576100ea565b8063409e2205116100c8578063409e22051461015e57806357c9d7381461018e578063597e1fb5146101be57806398c07938146101dc576100ea565b806302d05d3f146100ef57806319ad7cd21461010d5780634051ddac1461013d575b600080fd5b6100f76102c8565b6040516101049190610a1f565b60405180910390f35b61012760048036038101906101229190610b94565b6102ec565b6040516101349190610bf6565b60405180910390f35b61014561031a565b6040516101559493929190610cab565b60405180910390f35b61017860048036038101906101739190610d23565b6103f1565b6040516101859190610d50565b60405180910390f35b6101a860048036038101906101a39190610b94565b61049d565b6040516101b59190610bf6565b60405180910390f35b6101c66104c5565b6040516101d39190610d72565b60405180910390f35b6101e46104d8565b6040516101f19190610bf6565b60405180910390f35b610214600480360381019061020f9190610db9565b6104de565b6040516102219190610d72565b60405180910390f35b6102326104fe565b60405161023f9190610bf6565b60405180910390f35b61025061050b565b60405161025d9190610d50565b60405180910390f35b61026e610599565b60405161027b9190610bf6565b60405180910390f35b61028c6105a3565b005b61029661069e565b6040516102a39190610ef2565b60405180910390f35b6102c660048036038101906102c19190610b94565b610777565b005b60008054906101000a900473ffffffffffffffffffffffffffffffffffffffff1681565b6003818051602081018201805184825260208301602085012081835280955050505050506000915090505481565b6000606060008060008054906101000a900473ffffffffffffffffffffffffffffffffffffffff166001600554600660009054906101000a900460ff1682805461036390610f43565b80601f016020809104026020016040519081016040528092919081815260200182805461038f90610f43565b80156103dc5780601f106103b1576101008083540402835291602001916103dc565b820191906000526020600020905b8154815290600101906020018083116103bf57829003601f168201915b50505050509250935093509350935090919293565b6002818154811061040157600080fd5b90600052602060002001600091509050805461041c90610f43565b80601f016020809104026020016040519081016040528092919081815260200182805461044890610f43565b80156104955780601f1061046a57610100808354040283529160200191610495565b820191906000526020600020905b81548152906001019060200180831161047857829003601f168201915b505050505081565b60006003826040516104af9190610fb0565b9081526020016040518091039020549050919050565b600660009054906101000a900460ff1681565b60055481565b60046020528060005260406000206000915054906101000a900460ff1681565b6000600280549050905090565b6001805461051890610f43565b80601f016020809104026020016040519081016040528092919081815260200182805461054490610f43565b80156105915780601f1061056657610100808354040283529160200191610591565b820191906000526020600020905b81548152906001019060200180831161057457829003601f168201915b505050505081565b6000600554905090565b60008054906101000a900473ffffffffffffffffffffffffffffffffffffffff1673ffffffffffffffffffffffffffffffffffffffff163373ffffffffffffffffffffffffffffffffffffffff1614610631576040517f08c379a000000000000000000000000000000000000000000000000000000000815260040161062890611039565b60405180910390fd5b600660009054906101000a900460ff1615610681576040517f08c379a0000000000000000000000000000000000000000000000000000000008152600401610678906110a5565b60405180910390fd5b6001600660006101000a81548160ff021916908315150217905550565b60606002805480602002602001604051908101604052809291908181526020016000905b8282101561076e5783829060005260206000200180546106e190610f43565b80601f016020809104026020016040519081016040528092919081815260200182805461070d90610f43565b801561075a5780601f1061072f5761010080835404028352916020019161075a565b820191906000526020600020905b81548152906001019060200180831161073d57829003601f168201915b5050505050815260200190600101906106c2565b50505050905090565b600460003373ffffffffffffffffffffffffffffffffffffffff1673ffffffffffffffffffffffffffffffffffffffff16815260200190815260200160002060009054906101000a900460ff1615610804576040517f08c379a00000000000000000000000000000000000000000000000000000000081526004016107fb90611111565b60405180910390fd5b600660009054906101000a900460ff1615610854576040517f08c379a000000000000000000000000000000000000000000000000000000000815260040161084b9061117d565b60405180910390fd5b6000805b6002805490508110156108f157826040516020016108769190610fb0565b60405160208183030381529060405280519060200120600282815481106108a05761089f61119d565b5b906000526020600020016040516020016108ba9190611264565b60405160208183030381529060405280519060200120036108de57600191506108f1565b80806108e9906112aa565b915050610858565b5080610932576040517f08c379a00000000000000000000000000000000000000000000000000000000081526004016109299061133e565b60405180910390fd5b6001600460003373ffffffffffffffffffffffffffffffffffffffff1673ffffffffffffffffffffffffffffffffffffffff16815260200190815260200160002060006101000a81548160ff021916908315150217905550600160038360405161099c9190610fb0565b908152602001604051809103902060008282546109b9919061135e565b925050819055506001600560008282546109d3919061135e565b925050819055505050565b600073ffffffffffffffffffffffffffffffffffffffff82169050919050565b6000610a09826109de565b9050919050565b610a19816109fe565b82525050565b6000602082019050610a346000830184610a10565b92915050565b6000604051905090565b600080fd5b600080fd5b600080fd5b600080fd5b6000601f19601f8301169050919050565b7f4e487b7100000000000000000000000000000000000000000000000000000000600052604160045260246000fd5b610aa182610a58565b810181811067ffffffffffffffff82111715610ac057610abf610a69565b5b80604052505050565b6000610ad3610a3a565b9050610adf8282610a98565b919050565b600067ffffffffffffffff821115610aff57610afe610a69565b5b610b0882610a58565b9050602081019050919050565b82818337600083830152505050565b6000610b37610b3284610ae4565b610ac9565b905082815260208101848484011115610b5357610b52610a53565b5b610b5e848285610b15565b509392505050565b600082601f830112610b7b57610b7a610a4e565b5b8135610b8b848260208601610b24565b91505092915050565b600060208284031215610baa57610ba9610a44565b5b600082013567ffffffffffffffff811115610bc857610bc7610a49565b5b610bd484828501610b66565b91505092915050565b6000819050919050565b610bf081610bdd565b82525050565b6000602082019050610c0b6000830184610be7565b92915050565b600081519050919050565b600082825260208201905092915050565b60005b83811015610c4b578082015181840152602081019050610c30565b60008484015250505050565b6000610c6282610c11565b610c6c8185610c1c565b9350610c7c818560208601610c2d565b610c8581610a58565b840191505092915050565b60008115159050919050565b610ca581610c90565b82525050565b6000608082019050610cc06000830187610a10565b8181036020830152610cd28186610c57565b9050610ce16040830185610be7565b610cee6060830184610c9c565b95945050505050565b610d0081610bdd565b8114610d0b57600080fd5b50565b600081359050610d1d81610cf7565b92915050565b600060208284031215610d3957610d38610a44565b5b6000610d4784828501610d0e565b91505092915050565b60006020820190508181036000830152610d6a8184610c57565b905092915050565b6000602082019050610d876000830184610c9c565b92915050565b610d96816109fe565b8114610da157600080fd5b50565b600081359050610db381610d8d565b92915050565b600060208284031215610dcf57610dce610a44565b5b6000610ddd84828501610da4565b91505092915050565b600081519050919050565b600082825260208201905092915050565b6000819050602082019050919050565b600082825260208201905092915050565b6000610e2e82610c11565b610e388185610e12565b9350610e48818560208601610c2d565b610e5181610a58565b840191505092915050565b6000610e688383610e23565b905092915050565b6000602082019050919050565b6000610e8882610de6565b610e928185610df1565b935083602082028501610ea485610e02565b8060005b85811015610ee05784840389528151610ec18582610e5c565b9450610ecc83610e70565b925060208a01995050600181019050610ea8565b50829750879550505050505092915050565b60006020820190508181036000830152610f0c8184610e7d565b905092915050565b7f4e487b7100000000000000000000000000000000000000000000000000000000600052602260045260246000fd5b60006002820490506001821680610f5b57607f821691505b602082108103610f6e57610f6d610f14565b5b50919050565b600081905092915050565b6000610f8a82610c11565b610f948185610f74565b9350610fa4818560208601610c2d565b80840191505092915050565b6000610fbc8284610f7f565b915081905092915050565b7f4f6e6c792063726561746f722063616e2063616c6c20746869732066756e637460008201527f696f6e0000000000000000000000000000000000000000000000000000000000602082015250565b6000611023602383610c1c565b915061102e82610fc7565b604082019050919050565b6000602082019050818103600083015261105281611016565b9050919050565b7f566f74696e6720697320616c726561647920636c6f7365640000000000000000600082015250565b600061108f601883610c1c565b915061109a82611059565b602082019050919050565b600060208201905081810360008301526110be81611082565b9050919050565b7f596f75206861766520616c726561647920766f74656400000000000000000000600082015250565b60006110fb601683610c1c565b9150611106826110c5565b602082019050919050565b6000602082019050818103600083015261112a816110ee565b9050919050565b7f566f74696e6720697320636c6f73656400000000000000000000000000000000600082015250565b6000611167601083610c1c565b915061117282611131565b602082019050919050565b600060208201905081810360008301526111968161115a565b9050919050565b7f4e487b7100000000000000000000000000000000000000000000000000000000600052603260045260246000fd5b60008190508160005260206000209050919050565b600081546111ee81610f43565b6111f88186610f74565b9450600182166000811461121357600181146112285761125b565b60ff198316865281151582028601935061125b565b611231856111cc565b60005b8381101561125357815481890152600182019150602081019050611234565b838801955050505b50505092915050565b600061127082846111e1565b915081905092915050565b7f4e487b7100000000000000000000000000000000000000000000000000000000600052601160045260246000fd5b60006112b582610bdd565b91507fffffffffffffffffffffffffffffffffffffffffffffffffffffffffffffffff82036112e7576112e661127b565b5b600182019050919050565b7f4f7074696f6e20646f6573206e6f742065786973740000000000000000000000600082015250565b6000611328601583610c1c565b9150611333826112f2565b602082019050919050565b600060208201905081810360008301526113578161131b565b9050919050565b600061136982610bdd565b915061137483610bdd565b925082820190508082111561138c5761138b61127b565b5b9291505056fea26469706673582212209094b715df113545f534decde934a62f5c3783583ace1ad084dc4d74d164f99b64736f6c63430008110033","opcodes":"PUSH1 0x80 PUSH1 0x40 MSTORE CALLVALUE DUP1 ISZERO PUSH3 0x11 JUMPI PUSH1 0x0 DUP1 REVERT JUMPDEST POP PUSH1 0x40 MLOAD PUSH3 0x1C30 CODESIZE SUB DUP1 PUSH3 0x1C30 DUP4 CODECOPY DUP2 DUP2 ADD PUSH1 0x40 MSTORE DUP2 ADD SWAP1 PUSH3 0x37 SWAP2 SWAP1 PUSH3 0x48C JUMP JUMPDEST DUP3 PUSH1 0x0 DUP1 PUSH2 0x100 EXP DUP2 SLOAD DUP2 PUSH20 0xFFFFFFFFFFFFFFFFFFFFFFFFFFFFFFFFFFFFFFFF MUL NOT AND SWAP1 DUP4 PUSH20 0xFFFFFFFFFFFFFFFFFFFFFFFFFFFFFFFFFFFFFFFF AND MUL OR SWAP1 SSTORE POP DUP2 PUSH1 0x1 SWAP1 DUP2 PUSH3 0x88 SWAP2 SWAP1 PUSH3 0x771 JUMP JUMPDEST POP DUP1 PUSH1 0x2 SWAP1 DUP1 MLOAD SWAP1 PUSH1 0x20 ADD SWAP1 PUSH3 0xA1 SWAP3 SWAP2 SWAP1 PUSH3 0xAB JUMP JUMPDEST POP POP POP POP PUSH3 0x858 JUMP JUMPDEST DUP3 DUP1 SLOAD DUP3 DUP3 SSTORE SWAP1 PUSH1 0x0 MSTORE PUSH1 0x20 PUSH1 0x0 KECCAK256 SWAP1 DUP2 ADD SWAP3 DUP3 ISZERO PUSH3 0xF8 JUMPI SWAP2 PUSH1 0x20 MUL DUP3 ADD JUMPDEST DUP3 DUP2 GT ISZERO PUSH3 0xF7 JUMPI DUP3 MLOAD DUP3 SWAP1 DUP2 PUSH3 0xE6 SWAP2 SWAP1 PUSH3 0x771 JUMP JUMPDEST POP SWAP2 PUSH1 0x20 ADD SWAP2 SWAP1 PUSH1 0x1 ADD SWAP1 PUSH3 0xCC JUMP JUMPDEST JUMPDEST POP SWAP1 POP PUSH3 0x107 SWAP2 SWAP1 PUSH3 0x10B JUMP JUMPDEST POP SWAP1 JUMP JUMPDEST JUMPDEST DUP1 DUP3 GT ISZERO PUSH3 0x12F JUMPI PUSH1 0x0 DUP2 DUP2 PUSH3 0x125 SWAP2 SWAP1 PUSH3 0x133 JUMP JUMPDEST POP PUSH1 0x1 ADD PUSH3 0x10C JUMP JUMPDEST POP SWAP1 JUMP JUMPDEST POP DUP1 SLOAD PUSH3 0x141 SWAP1 PUSH3 0x560 JUMP JUMPDEST PUSH1 0x0 DUP3 SSTORE DUP1 PUSH1 0x1F LT PUSH3 0x155 JUMPI POP PUSH3 0x176 JUMP JUMPDEST PUSH1 0x1F ADD PUSH1 0x20 SWAP1 DIV SWAP1 PUSH1 0x0 MSTORE PUSH1 0x20 PUSH1 0x0 KECCAK256 SWAP1 DUP2 ADD SWAP1 PUSH3 0x175 SWAP2 SWAP1 PUSH3 0x179 JUMP JUMPDEST JUMPDEST POP JUMP JUMPDEST JUMPDEST DUP1 DUP3 GT ISZERO PUSH3 0x194 JUMPI PUSH1 0x0 DUP2 PUSH1 0x0 SWAP1 SSTORE POP PUSH1 0x1 ADD PUSH3 0x17A JUMP JUMPDEST POP SWAP1 JUMP JUMPDEST PUSH1 0x0 PUSH1 0x40 MLOAD SWAP1 POP SWAP1 JUMP JUMPDEST PUSH1 0x0 DUP1 REVERT JUMPDEST PUSH1 0x0 DUP1 REVERT JUMPDEST PUSH1 0x0 PUSH20 0xFFFFFFFFFFFFFFFFFFFFFFFFFFFFFFFFFFFFFFFF DUP3 AND SWAP1 POP SWAP2 SWAP1 POP JUMP JUMPDEST PUSH1 0x0 PUSH3 0x1D9 DUP3 PUSH3 0x1AC JUMP JUMPDEST SWAP1 POP SWAP2 SWAP1 POP JUMP JUMPDEST PUSH3 0x1EB DUP2 PUSH3 0x1CC JUMP JUMPDEST DUP2 EQ PUSH3 0x1F7 JUMPI PUSH1 0x0 DUP1 REVERT JUMPDEST POP JUMP JUMPDEST PUSH1 0x0 DUP2 MLOAD SWAP1 POP PUSH3 0x20B DUP2 PUSH3 0x1E0 JUMP JUMPDEST SWAP3 SWAP2 POP POP JUMP JUMPDEST PUSH1 0x0 DUP1 REVERT JUMPDEST PUSH1 0x0 DUP1 REVERT JUMPDEST PUSH1 0x0 PUSH1 0x1F NOT PUSH1 0x1F DUP4 ADD AND SWAP1 POP SWAP2 SWAP1 POP JUMP JUMPDEST PUSH32 0x4E487B7100000000000000000000000000000000000000000000000000000000 PUSH1 0x0 MSTORE PUSH1 0x41 PUSH1 0x4 MSTORE PUSH1 0x24 PUSH1 0x0 REVERT JUMPDEST PUSH3 0x266 DUP3 PUSH3 0x21B JUMP JUMPDEST DUP2 ADD DUP2 DUP2 LT PUSH8 0xFFFFFFFFFFFFFFFF DUP3 GT OR ISZERO PUSH3 0x288 JUMPI PUSH3 0x287 PUSH3 0x22C JUMP JUMPDEST JUMPDEST DUP1 PUSH1 0x40 MSTORE POP POP POP JUMP JUMPDEST PUSH1 0x0 PUSH3 0x29D PUSH3 0x198 JUMP JUMPDEST SWAP1 POP PUSH3 0x2AB DUP3 DUP3 PUSH3 0x25B JUMP JUMPDEST SWAP2 SWAP1 POP JUMP JUMPDEST PUSH1 0x0 PUSH8 0xFFFFFFFFFFFFFFFF DUP3 GT ISZERO PUSH3 0x2CE JUMPI PUSH3 0x2CD PUSH3 0x22C JUMP JUMPDEST JUMPDEST PUSH3 0x2D9 DUP3 PUSH3 0x21B JUMP JUMPDEST SWAP1 POP PUSH1 0x20 DUP2 ADD SWAP1 POP SWAP2 SWAP1 POP JUMP JUMPDEST PUSH1 0x0 JUMPDEST DUP4 DUP2 LT ISZERO PUSH3 0x306 JUMPI DUP1 DUP3 ADD MLOAD DUP2 DUP5 ADD MSTORE PUSH1 0x20 DUP2 ADD SWAP1 POP PUSH3 0x2E9 JUMP JUMPDEST PUSH1 0x0 DUP5 DUP5 ADD MSTORE POP POP POP POP JUMP JUMPDEST PUSH1 0x0 PUSH3 0x329 PUSH3 0x323 DUP5 PUSH3 0x2B0 JUMP JUMPDEST PUSH3 0x291 JUMP JUMPDEST SWAP1 POP DUP3 DUP2 MSTORE PUSH1 0x20 DUP2 ADD DUP5 DUP5 DUP5 ADD GT ISZERO PUSH3 0x348 JUMPI PUSH3 0x347 PUSH3 0x216 JUMP JUMPDEST JUMPDEST PUSH3 0x355 DUP5 DUP3 DUP6 PUSH3 0x2E6 JUMP JUMPDEST POP SWAP4 SWAP3 POP POP POP JUMP JUMPDEST PUSH1 0x0 DUP3 PUSH1 0x1F DUP4 ADD SLT PUSH3 0x375 JUMPI PUSH3 0x374 PUSH3 0x211 JUMP JUMPDEST JUMPDEST DUP2 MLOAD PUSH3 0x387 DUP5 DUP3 PUSH1 0x20 DUP7 ADD PUSH3 0x312 JUMP JUMPDEST SWAP2 POP POP SWAP3 SWAP2 POP POP JUMP JUMPDEST PUSH1 0x0 PUSH8 0xFFFFFFFFFFFFFFFF DUP3 GT ISZERO PUSH3 0x3AE JUMPI PUSH3 0x3AD PUSH3 0x22C JUMP JUMPDEST JUMPDEST PUSH1 0x20 DUP3 MUL SWAP1 POP PUSH1 0x20 DUP2 ADD SWAP1 POP SWAP2 SWAP1 POP JUMP JUMPDEST PUSH1 0x0 DUP1 REVERT JUMPDEST PUSH1 0x0 PUSH3 0x3DB PUSH3 0x3D5 DUP5 PUSH3 0x390 JUMP JUMPDEST PUSH3 0x291 JUMP JUMPDEST SWAP1 POP DUP1 DUP4 DUP3 MSTORE PUSH1 0x20 DUP3 ADD SWAP1 POP PUSH1 0x20 DUP5 MUL DUP4 ADD DUP6 DUP2 GT ISZERO PUSH3 0x401 JUMPI PUSH3 0x400 PUSH3 0x3BF JUMP JUMPDEST JUMPDEST DUP4 JUMPDEST DUP2 DUP2 LT ISZERO PUSH3 0x44F JUMPI DUP1 MLOAD PUSH8 0xFFFFFFFFFFFFFFFF DUP2 GT ISZERO PUSH3 0x42A JUMPI PUSH3 0x429 PUSH3 0x211 JUMP JUMPDEST JUMPDEST DUP1 DUP7 ADD PUSH3 0x439 DUP10 DUP3 PUSH3 0x35D JUMP JUMPDEST DUP6 MSTORE PUSH1 0x20 DUP6 ADD SWAP5 POP POP POP PUSH1 0x20 DUP2 ADD SWAP1 POP PUSH3 0x403 JUMP JUMPDEST POP POP POP SWAP4 SWAP3 POP POP POP JUMP JUMPDEST PUSH1 0x0 DUP3 PUSH1 0x1F DUP4 ADD SLT PUSH3 0x471 JUMPI PUSH3 0x470 PUSH3 0x211 JUMP JUMPDEST JUMPDEST DUP2 MLOAD PUSH3 0x483 DUP5 DUP3 PUSH1 0x20 DUP7 ADD PUSH3 0x3C4 JUMP JUMPDEST SWAP2 POP POP SWAP3 SWAP2 POP POP JUMP JUMPDEST PUSH1 0x0 DUP1 PUSH1 0x0 PUSH1 0x60 DUP5 DUP7 SUB SLT ISZERO PUSH3 0x4A8 JUMPI PUSH3 0x4A7 PUSH3 0x1A2 JUMP JUMPDEST JUMPDEST PUSH1 0x0 PUSH3 0x4B8 DUP7 DUP3 DUP8 ADD PUSH3 0x1FA JUMP JUMPDEST SWAP4 POP POP PUSH1 0x20 DUP5 ADD MLOAD PUSH8 0xFFFFFFFFFFFFFFFF DUP2 GT ISZERO PUSH3 0x4DC JUMPI PUSH3 0x4DB PUSH3 0x1A7 JUMP JUMPDEST JUMPDEST PUSH3 0x4EA DUP7 DUP3 DUP8 ADD PUSH3 0x35D JUMP JUMPDEST SWAP3 POP POP PUSH1 0x40 DUP5 ADD MLOAD PUSH8 0xFFFFFFFFFFFFFFFF DUP2 GT ISZERO PUSH3 0x50E JUMPI PUSH3 0x50D PUSH3 0x1A7 JUMP JUMPDEST JUMPDEST PUSH3 0x51C DUP7 DUP3 DUP8 ADD PUSH3 0x459 JUMP JUMPDEST SWAP2 POP POP SWAP3 POP SWAP3 POP SWAP3 JUMP JUMPDEST PUSH1 0x0 DUP2 MLOAD SWAP1 POP SWAP2 SWAP1 POP JUMP JUMPDEST PUSH32 0x4E487B7100000000000000000000000000000000000000000000000000000000 PUSH1 0x0 MSTORE PUSH1 0x22 PUSH1 0x4 MSTORE PUSH1 0x24 PUSH1 0x0 REVERT JUMPDEST PUSH1 0x0 PUSH1 0x2 DUP3 DIV SWAP1 POP PUSH1 0x1 DUP3 AND DUP1 PUSH3 0x579 JUMPI PUSH1 0x7F DUP3 AND SWAP2 POP JUMPDEST PUSH1 0x20 DUP3 LT DUP2 SUB PUSH3 0x58F JUMPI PUSH3 0x58E PUSH3 0x531 JUMP JUMPDEST JUMPDEST POP SWAP2 SWAP1 POP JUMP JUMPDEST PUSH1 0x0 DUP2 SWAP1 POP DUP2 PUSH1 0x0 MSTORE PUSH1 0x20 PUSH1 0x0 KECCAK256 SWAP1 POP SWAP2 SWAP1 POP JUMP JUMPDEST PUSH1 0x0 PUSH1 0x20 PUSH1 0x1F DUP4 ADD DIV SWAP1 POP SWAP2 SWAP1 POP JUMP JUMPDEST PUSH1 0x0 DUP3 DUP3 SHL SWAP1 POP SWAP3 SWAP2 POP POP JUMP JUMPDEST PUSH1 0x0 PUSH1 0x8 DUP4 MUL PUSH3 0x5F9 PUSH32 0xFFFFFFFFFFFFFFFFFFFFFFFFFFFFFFFFFFFFFFFFFFFFFFFFFFFFFFFFFFFFFFFF DUP3 PUSH3 0x5BA JUMP JUMPDEST PUSH3 0x605 DUP7 DUP4 PUSH3 0x5BA JUMP JUMPDEST SWAP6 POP DUP1 NOT DUP5 AND SWAP4 POP DUP1 DUP7 AND DUP5 OR SWAP3 POP POP POP SWAP4 SWAP3 POP POP POP JUMP JUMPDEST PUSH1 0x0 DUP2 SWAP1 POP SWAP2 SWAP1 POP JUMP JUMPDEST PUSH1 0x0 DUP2 SWAP1 POP SWAP2 SWAP1 POP JUMP JUMPDEST PUSH1 0x0 PUSH3 0x652 PUSH3 0x64C PUSH3 0x646 DUP5 PUSH3 0x61D JUMP JUMPDEST PUSH3 0x627 JUMP JUMPDEST PUSH3 0x61D JUMP JUMPDEST SWAP1 POP SWAP2 SWAP1 POP JUMP JUMPDEST PUSH1 0x0 DUP2 SWAP1 POP SWAP2 SWAP1 POP JUMP JUMPDEST PUSH3 0x66E DUP4 PUSH3 0x631 JUMP JUMPDEST PUSH3 0x686 PUSH3 0x67D DUP3 PUSH3 0x659 JUMP JUMPDEST DUP5 DUP5 SLOAD PUSH3 0x5C7 JUMP JUMPDEST DUP3 SSTORE POP POP POP POP JUMP JUMPDEST PUSH1 0x0 SWAP1 JUMP JUMPDEST PUSH3 0x69D PUSH3 0x68E JUMP JUMPDEST PUSH3 0x6AA DUP2 DUP5 DUP5 PUSH3 0x663 JUMP JUMPDEST POP POP POP JUMP JUMPDEST JUMPDEST DUP2 DUP2 LT ISZERO PUSH3 0x6D2 JUMPI PUSH3 0x6C6 PUSH1 0x0 DUP3 PUSH3 0x693 JUMP JUMPDEST PUSH1 0x1 DUP2 ADD SWAP1 POP PUSH3 0x6B0 JUMP JUMPDEST POP POP JUMP JUMPDEST PUSH1 0x1F DUP3 GT ISZERO PUSH3 0x721 JUMPI PUSH3 0x6EB DUP2 PUSH3 0x595 JUMP JUMPDEST PUSH3 0x6F6 DUP5 PUSH3 0x5AA JUMP JUMPDEST DUP2 ADD PUSH1 0x20 DUP6 LT ISZERO PUSH3 0x706 JUMPI DUP2 SWAP1 POP JUMPDEST PUSH3 0x71E PUSH3 0x715 DUP6 PUSH3 0x5AA JUMP JUMPDEST DUP4 ADD DUP3 PUSH3 0x6AF JUMP JUMPDEST POP POP JUMPDEST POP POP POP JUMP JUMPDEST PUSH1 0x0 DUP3 DUP3 SHR SWAP1 POP SWAP3 SWAP2 POP POP JUMP JUMPDEST PUSH1 0x0 PUSH3 0x746 PUSH1 0x0 NOT DUP5 PUSH1 0x8 MUL PUSH3 0x726 JUMP JUMPDEST NOT DUP1 DUP4 AND SWAP2 POP POP SWAP3 SWAP2 POP POP JUMP JUMPDEST PUSH1 0x0 PUSH3 0x761 DUP4 DUP4 PUSH3 0x733 JUMP JUMPDEST SWAP2 POP DUP3 PUSH1 0x2 MUL DUP3 OR SWAP1 POP SWAP3 SWAP2 POP POP JUMP JUMPDEST PUSH3 0x77C DUP3 PUSH3 0x526 JUMP JUMPDEST PUSH8 0xFFFFFFFFFFFFFFFF DUP2 GT ISZERO PUSH3 0x798 JUMPI PUSH3 0x797 PUSH3 0x22C JUMP JUMPDEST JUMPDEST PUSH3 0x7A4 DUP3 SLOAD PUSH3 0x560 JUMP JUMPDEST PUSH3 0x7B1 DUP3 DUP3 DUP6 PUSH3 0x6D6 JUMP JUMPDEST PUSH1 0x0 PUSH1 0x20 SWAP1 POP PUSH1 0x1F DUP4 GT PUSH1 0x1 DUP2 EQ PUSH3 0x7E9 JUMPI PUSH1 0x0 DUP5 ISZERO PUSH3 0x7D4 JUMPI DUP3 DUP8 ADD MLOAD SWAP1 POP JUMPDEST PUSH3 0x7E0 DUP6 DUP3 PUSH3 0x753 JUMP JUMPDEST DUP7 SSTORE POP PUSH3 0x850 JUMP JUMPDEST PUSH1 0x1F NOT DUP5 AND PUSH3 0x7F9 DUP7 PUSH3 0x595 JUMP JUMPDEST PUSH1 0x0 JUMPDEST DUP3 DUP2 LT ISZERO PUSH3 0x823 JUMPI DUP5 DUP10 ADD MLOAD DUP3 SSTORE PUSH1 0x1 DUP3 ADD SWAP2 POP PUSH1 0x20 DUP6 ADD SWAP5 POP PUSH1 0x20 DUP2 ADD SWAP1 POP PUSH3 0x7FC JUMP JUMPDEST DUP7 DUP4 LT ISZERO PUSH3 0x843 JUMPI DUP5 DUP10 ADD MLOAD PUSH3 0x83F PUSH1 0x1F DUP10 AND DUP3 PUSH3 0x733 JUMP JUMPDEST DUP4 SSTORE POP JUMPDEST PUSH1 0x1 PUSH1 0x2 DUP9 MUL ADD DUP9 SSTORE POP POP POP JUMPDEST POP POP POP POP POP POP JUMP JUMPDEST PUSH2 0x13C8 DUP1 PUSH3 0x868 PUSH1 0x0 CODECOPY PUSH1 0x0 RETURN INVALID PUSH1 0x80 PUSH1 0x40 MSTORE CALLVALUE DUP1 ISZERO PUSH2 0x10 JUMPI PUSH1 0x0 DUP1 REVERT JUMPDEST POP PUSH1 0x4 CALLDATASIZE LT PUSH2 0xEA JUMPI PUSH1 0x0 CALLDATALOAD PUSH1 0xE0 SHR DUP1 PUSH4 0xA3EC138D GT PUSH2 0x8C JUMPI DUP1 PUSH4 0xC0F2A777 GT PUSH2 0x66 JUMPI DUP1 PUSH4 0xC0F2A777 EQ PUSH2 0x266 JUMPI DUP1 PUSH4 0xC631B292 EQ PUSH2 0x284 JUMPI DUP1 PUSH4 0xCC2EE196 EQ PUSH2 0x28E JUMPI DUP1 PUSH4 0xFC36E15B EQ PUSH2 0x2AC JUMPI PUSH2 0xEA JUMP JUMPDEST DUP1 PUSH4 0xA3EC138D EQ PUSH2 0x1FA JUMPI DUP1 PUSH4 0xA4D4334A EQ PUSH2 0x22A JUMPI DUP1 PUSH4 0xBF63A577 EQ PUSH2 0x248 JUMPI PUSH2 0xEA JUMP JUMPDEST DUP1 PUSH4 0x409E2205 GT PUSH2 0xC8 JUMPI DUP1 PUSH4 0x409E2205 EQ PUSH2 0x15E JUMPI DUP1 PUSH4 0x57C9D738 EQ PUSH2 0x18E JUMPI DUP1 PUSH4 0x597E1FB5 EQ PUSH2 0x1BE JUMPI DUP1 PUSH4 0x98C07938 EQ PUSH2 0x1DC JUMPI PUSH2 0xEA JUMP JUMPDEST DUP1 PUSH4 0x2D05D3F EQ PUSH2 0xEF JUMPI DUP1 PUSH4 0x19AD7CD2 EQ PUSH2 0x10D JUMPI DUP1 PUSH4 0x4051DDAC EQ PUSH2 0x13D JUMPI JUMPDEST PUSH1 0x0 DUP1 REVERT JUMPDEST PUSH2 0xF7 PUSH2 0x2C8 JUMP JUMPDEST PUSH1 0x40 MLOAD PUSH2 0x104 SWAP2 SWAP1 PUSH2 0xA1F JUMP JUMPDEST PUSH1 0x40 MLOAD DUP1 SWAP2 SUB SWAP1 RETURN JUMPDEST PUSH2 0x127 PUSH1 0x4 DUP1 CALLDATASIZE SUB DUP2 ADD SWAP1 PUSH2 0x122 SWAP2 SWAP1 PUSH2 0xB94 JUMP JUMPDEST PUSH2 0x2EC JUMP JUMPDEST PUSH1 0x40 MLOAD PUSH2 0x134 SWAP2 SWAP1 PUSH2 0xBF6 JUMP JUMPDEST PUSH1 0x40 MLOAD DUP1 SWAP2 SUB SWAP1 RETURN JUMPDEST PUSH2 0x145 PUSH2 0x31A JUMP JUMPDEST PUSH1 0x40 MLOAD PUSH2 0x155 SWAP5 SWAP4 SWAP3 SWAP2 SWAP1 PUSH2 0xCAB JUMP JUMPDEST PUSH1 0x40 MLOAD DUP1 SWAP2 SUB SWAP1 RETURN JUMPDEST PUSH2 0x178 PUSH1 0x4 DUP1 CALLDATASIZE SUB DUP2 ADD SWAP1 PUSH2 0x173 SWAP2 SWAP1 PUSH2 0xD23 JUMP JUMPDEST PUSH2 0x3F1 JUMP JUMPDEST PUSH1 0x40 MLOAD PUSH2 0x185 SWAP2 SWAP1 PUSH2 0xD50 JUMP JUMPDEST PUSH1 0x40 MLOAD DUP1 SWAP2 SUB SWAP1 RETURN JUMPDEST PUSH2 0x1A8 PUSH1 0x4 DUP1 CALLDATASIZE SUB DUP2 ADD SWAP1 PUSH2 0x1A3 SWAP2 SWAP1 PUSH2 0xB94 JUMP JUMPDEST PUSH2 0x49D JUMP JUMPDEST PUSH1 0x40 MLOAD PUSH2 0x1B5 SWAP2 SWAP1 PUSH2 0xBF6 JUMP JUMPDEST PUSH1 0x40 MLOAD DUP1 SWAP2 SUB SWAP1 RETURN JUMPDEST PUSH2 0x1C6 PUSH2 0x4C5 JUMP JUMPDEST PUSH1 0x40 MLOAD PUSH2 0x1D3 SWAP2 SWAP1 PUSH2 0xD72 JUMP JUMPDEST PUSH1 0x40 MLOAD DUP1 SWAP2 SUB SWAP1 RETURN JUMPDEST PUSH2 0x1E4 PUSH2 0x4D8 JUMP JUMPDEST PUSH1 0x40 MLOAD PUSH2 0x1F1 SWAP2 SWAP1 PUSH2 0xBF6 JUMP JUMPDEST PUSH1 0x40 MLOAD DUP1 SWAP2 SUB SWAP1 RETURN JUMPDEST PUSH2 0x214 PUSH1 0x4 DUP1 CALLDATASIZE SUB DUP2 ADD SWAP1 PUSH2 0x20F SWAP2 SWAP1 PUSH2 0xDB9 JUMP JUMPDEST PUSH2 0x4DE JUMP JUMPDEST PUSH1 0x40 MLOAD PUSH2 0x221 SWAP2 SWAP1 PUSH2 0xD72 JUMP JUMPDEST PUSH1 0x40 MLOAD DUP1 SWAP2 SUB SWAP1 RETURN JUMPDEST PUSH2 0x232 PUSH2 0x4FE JUMP JUMPDEST PUSH1 0x40 MLOAD PUSH2 0x23F SWAP2 SWAP1 PUSH2 0xBF6 JUMP JUMPDEST PUSH1 0x40 MLOAD DUP1 SWAP2 SUB SWAP1 RETURN JUMPDEST PUSH2 0x250 PUSH2 0x50B JUMP JUMPDEST PUSH1 0x40 MLOAD PUSH2 0x25D SWAP2 SWAP1 PUSH2 0xD50 JUMP JUMPDEST PUSH1 0x40 MLOAD DUP1 SWAP2 SUB SWAP1 RETURN JUMPDEST PUSH2 0x26E PUSH2 0x599 JUMP JUMPDEST PUSH1 0x40 MLOAD PUSH2 0x27B SWAP2 SWAP1 PUSH2 0xBF6 JUMP JUMPDEST PUSH1 0x40 MLOAD DUP1 SWAP2 SUB SWAP1 RETURN JUMPDEST PUSH2 0x28C PUSH2 0x5A3 JUMP JUMPDEST STOP JUMPDEST PUSH2 0x296 PUSH2 0x69E JUMP JUMPDEST PUSH1 0x40 MLOAD PUSH2 0x2A3 SWAP2 SWAP1 PUSH2 0xEF2 JUMP JUMPDEST PUSH1 0x40 MLOAD DUP1 SWAP2 SUB SWAP1 RETURN JUMPDEST PUSH2 0x2C6 PUSH1 0x4 DUP1 CALLDATASIZE SUB DUP2 ADD SWAP1 PUSH2 0x2C1 SWAP2 SWAP1 PUSH2 0xB94 JUMP JUMPDEST PUSH2 0x777 JUMP JUMPDEST STOP JUMPDEST PUSH1 0x0 DUP1 SLOAD SWAP1 PUSH2 0x100 EXP SWAP1 DIV PUSH20 0xFFFFFFFFFFFFFFFFFFFFFFFFFFFFFFFFFFFFFFFF AND DUP2 JUMP JUMPDEST PUSH1 0x3 DUP2 DUP1 MLOAD PUSH1 0x20 DUP2 ADD DUP3 ADD DUP1 MLOAD DUP5 DUP3 MSTORE PUSH1 0x20 DUP4 ADD PUSH1 0x20 DUP6 ADD KECCAK256 DUP2 DUP4 MSTORE DUP1 SWAP6 POP POP POP POP POP POP PUSH1 0x0 SWAP2 POP SWAP1 POP SLOAD DUP2 JUMP JUMPDEST PUSH1 0x0 PUSH1 0x60 PUSH1 0x0 DUP1 PUSH1 0x0 DUP1 SLOAD SWAP1 PUSH2 0x100 EXP SWAP1 DIV PUSH20 0xFFFFFFFFFFFFFFFFFFFFFFFFFFFFFFFFFFFFFFFF AND PUSH1 0x1 PUSH1 0x5 SLOAD PUSH1 0x6 PUSH1 0x0 SWAP1 SLOAD SWAP1 PUSH2 0x100 EXP SWAP1 DIV PUSH1 0xFF AND DUP3 DUP1 SLOAD PUSH2 0x363 SWAP1 PUSH2 0xF43 JUMP JUMPDEST DUP1 PUSH1 0x1F ADD PUSH1 0x20 DUP1 SWAP2 DIV MUL PUSH1 0x20 ADD PUSH1 0x40 MLOAD SWAP1 DUP2 ADD PUSH1 0x40 MSTORE DUP1 SWAP3 SWAP2 SWAP1 DUP2 DUP2 MSTORE PUSH1 0x20 ADD DUP3 DUP1 SLOAD PUSH2 0x38F SWAP1 PUSH2 0xF43 JUMP JUMPDEST DUP1 ISZERO PUSH2 0x3DC JUMPI DUP1 PUSH1 0x1F LT PUSH2 0x3B1 JUMPI PUSH2 0x100 DUP1 DUP4 SLOAD DIV MUL DUP4 MSTORE SWAP2 PUSH1 0x20 ADD SWAP2 PUSH2 0x3DC JUMP JUMPDEST DUP3 ADD SWAP2 SWAP1 PUSH1 0x0 MSTORE PUSH1 0x20 PUSH1 0x0 KECCAK256 SWAP1 JUMPDEST DUP2 SLOAD DUP2 MSTORE SWAP1 PUSH1 0x1 ADD SWAP1 PUSH1 0x20 ADD DUP1 DUP4 GT PUSH2 0x3BF JUMPI DUP3 SWAP1 SUB PUSH1 0x1F AND DUP3 ADD SWAP2 JUMPDEST POP POP POP POP POP SWAP3 POP SWAP4 POP SWAP4 POP SWAP4 POP SWAP4 POP SWAP1 SWAP2 SWAP3 SWAP4 JUMP JUMPDEST PUSH1 0x2 DUP2 DUP2 SLOAD DUP2 LT PUSH2 0x401 JUMPI PUSH1 0x0 DUP1 REVERT JUMPDEST SWAP1 PUSH1 0x0 MSTORE PUSH1 0x20 PUSH1 0x0 KECCAK256 ADD PUSH1 0x0 SWAP2 POP SWAP1 POP DUP1 SLOAD PUSH2 0x41C SWAP1 PUSH2 0xF43 JUMP JUMPDEST DUP1 PUSH1 0x1F ADD PUSH1 0x20 DUP1 SWAP2 DIV MUL PUSH1 0x20 ADD PUSH1 0x40 MLOAD SWAP1 DUP2 ADD PUSH1 0x40 MSTORE DUP1 SWAP3 SWAP2 SWAP1 DUP2 DUP2 MSTORE PUSH1 0x20 ADD DUP3 DUP1 SLOAD PUSH2 0x448 SWAP1 PUSH2 0xF43 JUMP JUMPDEST DUP1 ISZERO PUSH2 0x495 JUMPI DUP1 PUSH1 0x1F LT PUSH2 0x46A JUMPI PUSH2 0x100 DUP1 DUP4 SLOAD DIV MUL DUP4 MSTORE SWAP2 PUSH1 0x20 ADD SWAP2 PUSH2 0x495 JUMP JUMPDEST DUP3 ADD SWAP2 SWAP1 PUSH1 0x0 MSTORE PUSH1 0x20 PUSH1 0x0 KECCAK256 SWAP1 JUMPDEST DUP2 SLOAD DUP2 MSTORE SWAP1 PUSH1 0x1 ADD SWAP1 PUSH1 0x20 ADD DUP1 DUP4 GT PUSH2 0x478 JUMPI DUP3 SWAP1 SUB PUSH1 0x1F AND DUP3 ADD SWAP2 JUMPDEST POP POP POP POP POP DUP2 JUMP JUMPDEST PUSH1 0x0 PUSH1 0x3 DUP3 PUSH1 0x40 MLOAD PUSH2 0x4AF SWAP2 SWAP1 PUSH2 0xFB0 JUMP JUMPDEST SWAP1 DUP2 MSTORE PUSH1 0x20 ADD PUSH1 0x40 MLOAD DUP1 SWAP2 SUB SWAP1 KECCAK256 SLOAD SWAP1 POP SWAP2 SWAP1 POP JUMP JUMPDEST PUSH1 0x6 PUSH1 0x0 SWAP1 SLOAD SWAP1 PUSH2 0x100 EXP SWAP1 DIV PUSH1 0xFF AND DUP2 JUMP JUMPDEST PUSH1 0x5 SLOAD DUP2 JUMP JUMPDEST PUSH1 0x4 PUSH1 0x20 MSTORE DUP1 PUSH1 0x0 MSTORE PUSH1 0x40 PUSH1 0x0 KECCAK256 PUSH1 0x0 SWAP2 POP SLOAD SWAP1 PUSH2 0x100 EXP SWAP1 DIV PUSH1 0xFF AND DUP2 JUMP JUMPDEST PUSH1 0x0 PUSH1 0x2 DUP1 SLOAD SWAP1 POP SWAP1 POP SWAP1 JUMP JUMPDEST PUSH1 0x1 DUP1 SLOAD PUSH2 0x518 SWAP1 PUSH2 0xF43 JUMP JUMPDEST DUP1 PUSH1 0x1F ADD PUSH1 0x20 DUP1 SWAP2 DIV MUL PUSH1 0x20 ADD PUSH1 0x40 MLOAD SWAP1 DUP2 ADD PUSH1 0x40 MSTORE DUP1 SWAP3 SWAP2 SWAP1 DUP2 DUP2 MSTORE PUSH1 0x20 ADD DUP3 DUP1 SLOAD PUSH2 0x544 SWAP1 PUSH2 0xF43 JUMP JUMPDEST DUP1 ISZERO PUSH2 0x591 JUMPI DUP1 PUSH1 0x1F LT PUSH2 0x566 JUMPI PUSH2 0x100 DUP1 DUP4 SLOAD DIV MUL DUP4 MSTORE SWAP2 PUSH1 0x20 ADD SWAP2 PUSH2 0x591 JUMP JUMPDEST DUP3 ADD SWAP2 SWAP1 PUSH1 0x0 MSTORE PUSH1 0x20 PUSH1 0x0 KECCAK256 SWAP1 JUMPDEST DUP2 SLOAD DUP2 MSTORE SWAP1 PUSH1 0x1 ADD SWAP1 PUSH1 0x20 ADD DUP1 DUP4 GT PUSH2 0x574 JUMPI DUP3 SWAP1 SUB PUSH1 0x1F AND DUP3 ADD SWAP2 JUMPDEST POP POP POP POP POP DUP2 JUMP JUMPDEST PUSH1 0x0 PUSH1 0x5 SLOAD SWAP1 POP SWAP1 JUMP JUMPDEST PUSH1 0x0 DUP1 SLOAD SWAP1 PUSH2 0x100 EXP SWAP1 DIV PUSH20 0xFFFFFFFFFFFFFFFFFFFFFFFFFFFFFFFFFFFFFFFF AND PUSH20 0xFFFFFFFFFFFFFFFFFFFFFFFFFFFFFFFFFFFFFFFF AND CALLER PUSH20 0xFFFFFFFFFFFFFFFFFFFFFFFFFFFFFFFFFFFFFFFF AND EQ PUSH2 0x631 JUMPI PUSH1 0x40 MLOAD PUSH32 0x8C379A000000000000000000000000000000000000000000000000000000000 DUP2 MSTORE PUSH1 0x4 ADD PUSH2 0x628 SWAP1 PUSH2 0x1039 JUMP JUMPDEST PUSH1 0x40 MLOAD DUP1 SWAP2 SUB SWAP1 REVERT JUMPDEST PUSH1 0x6 PUSH1 0x0 SWAP1 SLOAD SWAP1 PUSH2 0x100 EXP SWAP1 DIV PUSH1 0xFF AND ISZERO PUSH2 0x681 JUMPI PUSH1 0x40 MLOAD PUSH32 0x8C379A000000000000000000000000000000000000000000000000000000000 DUP2 MSTORE PUSH1 0x4 ADD PUSH2 0x678 SWAP1 PUSH2 0x10A5 JUMP JUMPDEST PUSH1 0x40 MLOAD DUP1 SWAP2 SUB SWAP1 REVERT JUMPDEST PUSH1 0x1 PUSH1 0x6 PUSH1 0x0 PUSH2 0x100 EXP DUP2 SLOAD DUP2 PUSH1 0xFF MUL NOT AND SWAP1 DUP4 ISZERO ISZERO MUL OR SWAP1 SSTORE POP JUMP JUMPDEST PUSH1 0x60 PUSH1 0x2 DUP1 SLOAD DUP1 PUSH1 0x20 MUL PUSH1 0x20 ADD PUSH1 0x40 MLOAD SWAP1 DUP2 ADD PUSH1 0x40 MSTORE DUP1 SWAP3 SWAP2 SWAP1 DUP2 DUP2 MSTORE PUSH1 0x20 ADD PUSH1 0x0 SWAP1 JUMPDEST DUP3 DUP3 LT ISZERO PUSH2 0x76E JUMPI DUP4 DUP3 SWAP1 PUSH1 0x0 MSTORE PUSH1 0x20 PUSH1 0x0 KECCAK256 ADD DUP1 SLOAD PUSH2 0x6E1 SWAP1 PUSH2 0xF43 JUMP JUMPDEST DUP1 PUSH1 0x1F ADD PUSH1 0x20 DUP1 SWAP2 DIV MUL PUSH1 0x20 ADD PUSH1 0x40 MLOAD SWAP1 DUP2 ADD PUSH1 0x40 MSTORE DUP1 SWAP3 SWAP2 SWAP1 DUP2 DUP2 MSTORE PUSH1 0x20 ADD DUP3 DUP1 SLOAD PUSH2 0x70D SWAP1 PUSH2 0xF43 JUMP JUMPDEST DUP1 ISZERO PUSH2 0x75A JUMPI DUP1 PUSH1 0x1F LT PUSH2 0x72F JUMPI PUSH2 0x100 DUP1 DUP4 SLOAD DIV MUL DUP4 MSTORE SWAP2 PUSH1 0x20 ADD SWAP2 PUSH2 0x75A JUMP JUMPDEST DUP3 ADD SWAP2 SWAP1 PUSH1 0x0 MSTORE PUSH1 0x20 PUSH1 0x0 KECCAK256 SWAP1 JUMPDEST DUP2 SLOAD DUP2 MSTORE SWAP1 PUSH1 0x1 ADD SWAP1 PUSH1 0x20 ADD DUP1 DUP4 GT PUSH2 0x73D JUMPI DUP3 SWAP1 SUB PUSH1 0x1F AND DUP3 ADD SWAP2 JUMPDEST POP POP POP POP POP DUP2 MSTORE PUSH1 0x20 ADD SWAP1 PUSH1 0x1 ADD SWAP1 PUSH2 0x6C2 JUMP JUMPDEST POP POP POP POP SWAP1 POP SWAP1 JUMP JUMPDEST PUSH1 0x4 PUSH1 0x0 CALLER PUSH20 0xFFFFFFFFFFFFFFFFFFFFFFFFFFFFFFFFFFFFFFFF AND PUSH20 0xFFFFFFFFFFFFFFFFFFFFFFFFFFFFFFFFFFFFFFFF AND DUP2 MSTORE PUSH1 0x20 ADD SWAP1 DUP2 MSTORE PUSH1 0x20 ADD PUSH1 0x0 KECCAK256 PUSH1 0x0 SWAP1 SLOAD SWAP1 PUSH2 0x100 EXP SWAP1 DIV PUSH1 0xFF AND ISZERO PUSH2 0x804 JUMPI PUSH1 0x40 MLOAD PUSH32 0x8C379A000000000000000000000000000000000000000000000000000000000 DUP2 MSTORE PUSH1 0x4 ADD PUSH2 0x7FB SWAP1 PUSH2 0x1111 JUMP JUMPDEST PUSH1 0x40 MLOAD DUP1 SWAP2 SUB SWAP1 REVERT JUMPDEST PUSH1 0x6 PUSH1 0x0 SWAP1 SLOAD SWAP1 PUSH2 0x100 EXP SWAP1 DIV PUSH1 0xFF AND ISZERO PUSH2 0x854 JUMPI PUSH1 0x40 MLOAD PUSH32 0x8C379A000000000000000000000000000000000000000000000000000000000 DUP2 MSTORE PUSH1 0x4 ADD PUSH2 0x84B SWAP1 PUSH2 0x117D JUMP JUMPDEST PUSH1 0x40 MLOAD DUP1 SWAP2 SUB SWAP1 REVERT JUMPDEST PUSH1 0x0 DUP1 JUMPDEST PUSH1 0x2 DUP1 SLOAD SWAP1 POP DUP2 LT ISZERO PUSH2 0x8F1 JUMPI DUP3 PUSH1 0x40 MLOAD PUSH1 0x20 ADD PUSH2 0x876 SWAP2 SWAP1 PUSH2 0xFB0 JUMP JUMPDEST PUSH1 0x40 MLOAD PUSH1 0x20 DUP2 DUP4 SUB SUB DUP2 MSTORE SWAP1 PUSH1 0x40 MSTORE DUP1 MLOAD SWAP1 PUSH1 0x20 ADD KECCAK256 PUSH1 0x2 DUP3 DUP2 SLOAD DUP2 LT PUSH2 0x8A0 JUMPI PUSH2 0x89F PUSH2 0x119D JUMP JUMPDEST JUMPDEST SWAP1 PUSH1 0x0 MSTORE PUSH1 0x20 PUSH1 0x0 KECCAK256 ADD PUSH1 0x40 MLOAD PUSH1 0x20 ADD PUSH2 0x8BA SWAP2 SWAP1 PUSH2 0x1264 JUMP JUMPDEST PUSH1 0x40 MLOAD PUSH1 0x20 DUP2 DUP4 SUB SUB DUP2 MSTORE SWAP1 PUSH1 0x40 MSTORE DUP1 MLOAD SWAP1 PUSH1 0x20 ADD KECCAK256 SUB PUSH2 0x8DE JUMPI PUSH1 0x1 SWAP2 POP PUSH2 0x8F1 JUMP JUMPDEST DUP1 DUP1 PUSH2 0x8E9 SWAP1 PUSH2 0x12AA JUMP JUMPDEST SWAP2 POP POP PUSH2 0x858 JUMP JUMPDEST POP DUP1 PUSH2 0x932 JUMPI PUSH1 0x40 MLOAD PUSH32 0x8C379A000000000000000000000000000000000000000000000000000000000 DUP2 MSTORE PUSH1 0x4 ADD PUSH2 0x929 SWAP1 PUSH2 0x133E JUMP JUMPDEST PUSH1 0x40 MLOAD DUP1 SWAP2 SUB SWAP1 REVERT JUMPDEST PUSH1 0x1 PUSH1 0x4 PUSH1 0x0 CALLER PUSH20 0xFFFFFFFFFFFFFFFFFFFFFFFFFFFFFFFFFFFFFFFF AND PUSH20 0xFFFFFFFFFFFFFFFFFFFFFFFFFFFFFFFFFFFFFFFF AND DUP2 MSTORE PUSH1 0x20 ADD SWAP1 DUP2 MSTORE PUSH1 0x20 ADD PUSH1 0x0 KECCAK256 PUSH1 0x0 PUSH2 0x100 EXP DUP2 SLOAD DUP2 PUSH1 0xFF MUL NOT AND SWAP1 DUP4 ISZERO ISZERO MUL OR SWAP1 SSTORE POP PUSH1 0x1 PUSH1 0x3 DUP4 PUSH1 0x40 MLOAD PUSH2 0x99C SWAP2 SWAP1 PUSH2 0xFB0 JUMP JUMPDEST SWAP1 DUP2 MSTORE PUSH1 0x20 ADD PUSH1 0x40 MLOAD DUP1 SWAP2 SUB SWAP1 KECCAK256 PUSH1 0x0 DUP3 DUP3 SLOAD PUSH2 0x9B9 SWAP2 SWAP1 PUSH2 0x135E JUMP JUMPDEST SWAP3 POP POP DUP2 SWAP1 SSTORE POP PUSH1 0x1 PUSH1 0x5 PUSH1 0x0 DUP3 DUP3 SLOAD PUSH2 0x9D3 SWAP2 SWAP1 PUSH2 0x135E JUMP JUMPDEST SWAP3 POP POP DUP2 SWAP1 SSTORE POP POP POP JUMP JUMPDEST PUSH1 0x0 PUSH20 0xFFFFFFFFFFFFFFFFFFFFFFFFFFFFFFFFFFFFFFFF DUP3 AND SWAP1 POP SWAP2 SWAP1 POP JUMP JUMPDEST PUSH1 0x0 PUSH2 0xA09 DUP3 PUSH2 0x9DE JUMP JUMPDEST SWAP1 POP SWAP2 SWAP1 POP JUMP JUMPDEST PUSH2 0xA19 DUP2 PUSH2 0x9FE JUMP JUMPDEST DUP3 MSTORE POP POP JUMP JUMPDEST PUSH1 0x0 PUSH1 0x20 DUP3 ADD SWAP1 POP PUSH2 0xA34 PUSH1 0x0 DUP4 ADD DUP5 PUSH2 0xA10 JUMP JUMPDEST SWAP3 SWAP2 POP POP JUMP JUMPDEST PUSH1 0x0 PUSH1 0x40 MLOAD SWAP1 POP SWAP1 JUMP JUMPDEST PUSH1 0x0 DUP1 REVERT JUMPDEST PUSH1 0x0 DUP1 REVERT JUMPDEST PUSH1 0x0 DUP1 REVERT JUMPDEST PUSH1 0x0 DUP1 REVERT JUMPDEST PUSH1 0x0 PUSH1 0x1F NOT PUSH1 0x1F DUP4 ADD AND SWAP1 POP SWAP2 SWAP1 POP JUMP JUMPDEST PUSH32 0x4E487B7100000000000000000000000000000000000000000000000000000000 PUSH1 0x0 MSTORE PUSH1 0x41 PUSH1 0x4 MSTORE PUSH1 0x24 PUSH1 0x0 REVERT JUMPDEST PUSH2 0xAA1 DUP3 PUSH2 0xA58 JUMP JUMPDEST DUP2 ADD DUP2 DUP2 LT PUSH8 0xFFFFFFFFFFFFFFFF DUP3 GT OR ISZERO PUSH2 0xAC0 JUMPI PUSH2 0xABF PUSH2 0xA69 JUMP JUMPDEST JUMPDEST DUP1 PUSH1 0x40 MSTORE POP POP POP JUMP JUMPDEST PUSH1 0x0 PUSH2 0xAD3 PUSH2 0xA3A JUMP JUMPDEST SWAP1 POP PUSH2 0xADF DUP3 DUP3 PUSH2 0xA98 JUMP JUMPDEST SWAP2 SWAP1 POP JUMP JUMPDEST PUSH1 0x0 PUSH8 0xFFFFFFFFFFFFFFFF DUP3 GT ISZERO PUSH2 0xAFF JUMPI PUSH2 0xAFE PUSH2 0xA69 JUMP JUMPDEST JUMPDEST PUSH2 0xB08 DUP3 PUSH2 0xA58 JUMP JUMPDEST SWAP1 POP PUSH1 0x20 DUP2 ADD SWAP1 POP SWAP2 SWAP1 POP JUMP JUMPDEST DUP3 DUP2 DUP4 CALLDATACOPY PUSH1 0x0 DUP4 DUP4 ADD MSTORE POP POP POP JUMP JUMPDEST PUSH1 0x0 PUSH2 0xB37 PUSH2 0xB32 DUP5 PUSH2 0xAE4 JUMP JUMPDEST PUSH2 0xAC9 JUMP JUMPDEST SWAP1 POP DUP3 DUP2 MSTORE PUSH1 0x20 DUP2 ADD DUP5 DUP5 DUP5 ADD GT ISZERO PUSH2 0xB53 JUMPI PUSH2 0xB52 PUSH2 0xA53 JUMP JUMPDEST JUMPDEST PUSH2 0xB5E DUP5 DUP3 DUP6 PUSH2 0xB15 JUMP JUMPDEST POP SWAP4 SWAP3 POP POP POP JUMP JUMPDEST PUSH1 0x0 DUP3 PUSH1 0x1F DUP4 ADD SLT PUSH2 0xB7B JUMPI PUSH2 0xB7A PUSH2 0xA4E JUMP JUMPDEST JUMPDEST DUP2 CALLDATALOAD PUSH2 0xB8B DUP5 DUP3 PUSH1 0x20 DUP7 ADD PUSH2 0xB24 JUMP JUMPDEST SWAP2 POP POP SWAP3 SWAP2 POP POP JUMP JUMPDEST PUSH1 0x0 PUSH1 0x20 DUP3 DUP5 SUB SLT ISZERO PUSH2 0xBAA JUMPI PUSH2 0xBA9 PUSH2 0xA44 JUMP JUMPDEST JUMPDEST PUSH1 0x0 DUP3 ADD CALLDATALOAD PUSH8 0xFFFFFFFFFFFFFFFF DUP2 GT ISZERO PUSH2 0xBC8 JUMPI PUSH2 0xBC7 PUSH2 0xA49 JUMP JUMPDEST JUMPDEST PUSH2 0xBD4 DUP5 DUP3 DUP6 ADD PUSH2 0xB66 JUMP JUMPDEST SWAP2 POP POP SWAP3 SWAP2 POP POP JUMP JUMPDEST PUSH1 0x0 DUP2 SWAP1 POP SWAP2 SWAP1 POP JUMP JUMPDEST PUSH2 0xBF0 DUP2 PUSH2 0xBDD JUMP JUMPDEST DUP3 MSTORE POP POP JUMP JUMPDEST PUSH1 0x0 PUSH1 0x20 DUP3 ADD SWAP1 POP PUSH2 0xC0B PUSH1 0x0 DUP4 ADD DUP5 PUSH2 0xBE7 JUMP JUMPDEST SWAP3 SWAP2 POP POP JUMP JUMPDEST PUSH1 0x0 DUP2 MLOAD SWAP1 POP SWAP2 SWAP1 POP JUMP JUMPDEST PUSH1 0x0 DUP3 DUP3 MSTORE PUSH1 0x20 DUP3 ADD SWAP1 POP SWAP3 SWAP2 POP POP JUMP JUMPDEST PUSH1 0x0 JUMPDEST DUP4 DUP2 LT ISZERO PUSH2 0xC4B JUMPI DUP1 DUP3 ADD MLOAD DUP2 DUP5 ADD MSTORE PUSH1 0x20 DUP2 ADD SWAP1 POP PUSH2 0xC30 JUMP JUMPDEST PUSH1 0x0 DUP5 DUP5 ADD MSTORE POP POP POP POP JUMP JUMPDEST PUSH1 0x0 PUSH2 0xC62 DUP3 PUSH2 0xC11 JUMP JUMPDEST PUSH2 0xC6C DUP2 DUP6 PUSH2 0xC1C JUMP JUMPDEST SWAP4 POP PUSH2 0xC7C DUP2 DUP6 PUSH1 0x20 DUP7 ADD PUSH2 0xC2D JUMP JUMPDEST PUSH2 0xC85 DUP2 PUSH2 0xA58 JUMP JUMPDEST DUP5 ADD SWAP2 POP POP SWAP3 SWAP2 POP POP JUMP JUMPDEST PUSH1 0x0 DUP2 ISZERO ISZERO SWAP1 POP SWAP2 SWAP1 POP JUMP JUMPDEST PUSH2 0xCA5 DUP2 PUSH2 0xC90 JUMP JUMPDEST DUP3 MSTORE POP POP JUMP JUMPDEST PUSH1 0x0 PUSH1 0x80 DUP3 ADD SWAP1 POP PUSH2 0xCC0 PUSH1 0x0 DUP4 ADD DUP8 PUSH2 0xA10 JUMP JUMPDEST DUP2 DUP2 SUB PUSH1 0x20 DUP4 ADD MSTORE PUSH2 0xCD2 DUP2 DUP7 PUSH2 0xC57 JUMP JUMPDEST SWAP1 POP PUSH2 0xCE1 PUSH1 0x40 DUP4 ADD DUP6 PUSH2 0xBE7 JUMP JUMPDEST PUSH2 0xCEE PUSH1 0x60 DUP4 ADD DUP5 PUSH2 0xC9C JUMP JUMPDEST SWAP6 SWAP5 POP POP POP POP POP JUMP JUMPDEST PUSH2 0xD00 DUP2 PUSH2 0xBDD JUMP JUMPDEST DUP2 EQ PUSH2 0xD0B JUMPI PUSH1 0x0 DUP1 REVERT JUMPDEST POP JUMP JUMPDEST PUSH1 0x0 DUP2 CALLDATALOAD SWAP1 POP PUSH2 0xD1D DUP2 PUSH2 0xCF7 JUMP JUMPDEST SWAP3 SWAP2 POP POP JUMP JUMPDEST PUSH1 0x0 PUSH1 0x20 DUP3 DUP5 SUB SLT ISZERO PUSH2 0xD39 JUMPI PUSH2 0xD38 PUSH2 0xA44 JUMP JUMPDEST JUMPDEST PUSH1 0x0 PUSH2 0xD47 DUP5 DUP3 DUP6 ADD PUSH2 0xD0E JUMP JUMPDEST SWAP2 POP POP SWAP3 SWAP2 POP POP JUMP JUMPDEST PUSH1 0x0 PUSH1 0x20 DUP3 ADD SWAP1 POP DUP2 DUP2 SUB PUSH1 0x0 DUP4 ADD MSTORE PUSH2 0xD6A DUP2 DUP5 PUSH2 0xC57 JUMP JUMPDEST SWAP1 POP SWAP3 SWAP2 POP POP JUMP JUMPDEST PUSH1 0x0 PUSH1 0x20 DUP3 ADD SWAP1 POP PUSH2 0xD87 PUSH1 0x0 DUP4 ADD DUP5 PUSH2 0xC9C JUMP JUMPDEST SWAP3 SWAP2 POP POP JUMP JUMPDEST PUSH2 0xD96 DUP2 PUSH2 0x9FE JUMP JUMPDEST DUP2 EQ PUSH2 0xDA1 JUMPI PUSH1 0x0 DUP1 REVERT JUMPDEST POP JUMP JUMPDEST PUSH1 0x0 DUP2 CALLDATALOAD SWAP1 POP PUSH2 0xDB3 DUP2 PUSH2 0xD8D JUMP JUMPDEST SWAP3 SWAP2 POP POP JUMP JUMPDEST PUSH1 0x0 PUSH1 0x20 DUP3 DUP5 SUB SLT ISZERO PUSH2 0xDCF JUMPI PUSH2 0xDCE PUSH2 0xA44 JUMP JUMPDEST JUMPDEST PUSH1 0x0 PUSH2 0xDDD DUP5 DUP3 DUP6 ADD PUSH2 0xDA4 JUMP JUMPDEST SWAP2 POP POP SWAP3 SWAP2 POP POP JUMP JUMPDEST PUSH1 0x0 DUP2 MLOAD SWAP1 POP SWAP2 SWAP1 POP JUMP JUMPDEST PUSH1 0x0 DUP3 DUP3 MSTORE PUSH1 0x20 DUP3 ADD SWAP1 POP SWAP3 SWAP2 POP POP JUMP JUMPDEST PUSH1 0x0 DUP2 SWAP1 POP PUSH1 0x20 DUP3 ADD SWAP1 POP SWAP2 SWAP1 POP JUMP JUMPDEST PUSH1 0x0 DUP3 DUP3 MSTORE PUSH1 0x20 DUP3 ADD SWAP1 POP SWAP3 SWAP2 POP POP JUMP JUMPDEST PUSH1 0x0 PUSH2 0xE2E DUP3 PUSH2 0xC11 JUMP JUMPDEST PUSH2 0xE38 DUP2 DUP6 PUSH2 0xE12 JUMP JUMPDEST SWAP4 POP PUSH2 0xE48 DUP2 DUP6 PUSH1 0x20 DUP7 ADD PUSH2 0xC2D JUMP JUMPDEST PUSH2 0xE51 DUP2 PUSH2 0xA58 JUMP JUMPDEST DUP5 ADD SWAP2 POP POP SWAP3 SWAP2 POP POP JUMP JUMPDEST PUSH1 0x0 PUSH2 0xE68 DUP4 DUP4 PUSH2 0xE23 JUMP JUMPDEST SWAP1 POP SWAP3 SWAP2 POP POP JUMP JUMPDEST PUSH1 0x0 PUSH1 0x20 DUP3 ADD SWAP1 POP SWAP2 SWAP1 POP JUMP JUMPDEST PUSH1 0x0 PUSH2 0xE88 DUP3 PUSH2 0xDE6 JUMP JUMPDEST PUSH2 0xE92 DUP2 DUP6 PUSH2 0xDF1 JUMP JUMPDEST SWAP4 POP DUP4 PUSH1 0x20 DUP3 MUL DUP6 ADD PUSH2 0xEA4 DUP6 PUSH2 0xE02 JUMP JUMPDEST DUP1 PUSH1 0x0 JUMPDEST DUP6 DUP2 LT ISZERO PUSH2 0xEE0 JUMPI DUP5 DUP5 SUB DUP10 MSTORE DUP2 MLOAD PUSH2 0xEC1 DUP6 DUP3 PUSH2 0xE5C JUMP JUMPDEST SWAP5 POP PUSH2 0xECC DUP4 PUSH2 0xE70 JUMP JUMPDEST SWAP3 POP PUSH1 0x20 DUP11 ADD SWAP10 POP POP PUSH1 0x1 DUP2 ADD SWAP1 POP PUSH2 0xEA8 JUMP JUMPDEST POP DUP3 SWAP8 POP DUP8 SWAP6 POP POP POP POP POP POP SWAP3 SWAP2 POP POP JUMP JUMPDEST PUSH1 0x0 PUSH1 0x20 DUP3 ADD SWAP1 POP DUP2 DUP2 SUB PUSH1 0x0 DUP4 ADD MSTORE PUSH2 0xF0C DUP2 DUP5 PUSH2 0xE7D JUMP JUMPDEST SWAP1 POP SWAP3 SWAP2 POP POP JUMP JUMPDEST PUSH32 0x4E487B7100000000000000000000000000000000000000000000000000000000 PUSH1 0x0 MSTORE PUSH1 0x22 PUSH1 0x4 MSTORE PUSH1 0x24 PUSH1 0x0 REVERT JUMPDEST PUSH1 0x0 PUSH1 0x2 DUP3 DIV SWAP1 POP PUSH1 0x1 DUP3 AND DUP1 PUSH2 0xF5B JUMPI PUSH1 0x7F DUP3 AND SWAP2 POP JUMPDEST PUSH1 0x20 DUP3 LT DUP2 SUB PUSH2 0xF6E JUMPI PUSH2 0xF6D PUSH2 0xF14 JUMP JUMPDEST JUMPDEST POP SWAP2 SWAP1 POP JUMP JUMPDEST PUSH1 0x0 DUP2 SWAP1 POP SWAP3 SWAP2 POP POP JUMP JUMPDEST PUSH1 0x0 PUSH2 0xF8A DUP3 PUSH2 0xC11 JUMP JUMPDEST PUSH2 0xF94 DUP2 DUP6 PUSH2 0xF74 JUMP JUMPDEST SWAP4 POP PUSH2 0xFA4 DUP2 DUP6 PUSH1 0x20 DUP7 ADD PUSH2 0xC2D JUMP JUMPDEST DUP1 DUP5 ADD SWAP2 POP POP SWAP3 SWAP2 POP POP JUMP JUMPDEST PUSH1 0x0 PUSH2 0xFBC DUP3 DUP5 PUSH2 0xF7F JUMP JUMPDEST SWAP2 POP DUP2 SWAP1 POP SWAP3 SWAP2 POP POP JUMP JUMPDEST PUSH32 0x4F6E6C792063726561746F722063616E2063616C6C20746869732066756E6374 PUSH1 0x0 DUP3 ADD MSTORE PUSH32 0x696F6E0000000000000000000000000000000000000000000000000000000000 PUSH1 0x20 DUP3 ADD MSTORE POP JUMP JUMPDEST PUSH1 0x0 PUSH2 0x1023 PUSH1 0x23 DUP4 PUSH2 0xC1C JUMP JUMPDEST SWAP2 POP PUSH2 0x102E DUP3 PUSH2 0xFC7 JUMP JUMPDEST PUSH1 0x40 DUP3 ADD SWAP1 POP SWAP2 SWAP1 POP JUMP JUMPDEST PUSH1 0x0 PUSH1 0x20 DUP3 ADD SWAP1 POP DUP2 DUP2 SUB PUSH1 0x0 DUP4 ADD MSTORE PUSH2 0x1052 DUP2 PUSH2 0x1016 JUMP JUMPDEST SWAP1 POP SWAP2 SWAP1 POP JUMP JUMPDEST PUSH32 0x566F74696E6720697320616C726561647920636C6F7365640000000000000000 PUSH1 0x0 DUP3 ADD MSTORE POP JUMP JUMPDEST PUSH1 0x0 PUSH2 0x108F PUSH1 0x18 DUP4 PUSH2 0xC1C JUMP JUMPDEST SWAP2 POP PUSH2 0x109A DUP3 PUSH2 0x1059 JUMP JUMPDEST PUSH1 0x20 DUP3 ADD SWAP1 POP SWAP2 SWAP1 POP JUMP JUMPDEST PUSH1 0x0 PUSH1 0x20 DUP3 ADD SWAP1 POP DUP2 DUP2 SUB PUSH1 0x0 DUP4 ADD MSTORE PUSH2 0x10BE DUP2 PUSH2 0x1082 JUMP JUMPDEST SWAP1 POP SWAP2 SWAP1 POP JUMP JUMPDEST PUSH32 0x596F75206861766520616C726561647920766F74656400000000000000000000 PUSH1 0x0 DUP3 ADD MSTORE POP JUMP JUMPDEST PUSH1 0x0 PUSH2 0x10FB PUSH1 0x16 DUP4 PUSH2 0xC1C JUMP JUMPDEST SWAP2 POP PUSH2 0x1106 DUP3 PUSH2 0x10C5 JUMP JUMPDEST PUSH1 0x20 DUP3 ADD SWAP1 POP SWAP2 SWAP1 POP JUMP JUMPDEST PUSH1 0x0 PUSH1 0x20 DUP3 ADD SWAP1 POP DUP2 DUP2 SUB PUSH1 0x0 DUP4 ADD MSTORE PUSH2 0x112A DUP2 PUSH2 0x10EE JUMP JUMPDEST SWAP1 POP SWAP2 SWAP1 POP JUMP JUMPDEST PUSH32 0x566F74696E6720697320636C6F73656400000000000000000000000000000000 PUSH1 0x0 DUP3 ADD MSTORE POP JUMP JUMPDEST PUSH1 0x0 PUSH2 0x1167 PUSH1 0x10 DUP4 PUSH2 0xC1C JUMP JUMPDEST SWAP2 POP PUSH2 0x1172 DUP3 PUSH2 0x1131 JUMP JUMPDEST PUSH1 0x20 DUP3 ADD SWAP1 POP SWAP2 SWAP1 POP JUMP JUMPDEST PUSH1 0x0 PUSH1 0x20 DUP3 ADD SWAP1 POP DUP2 DUP2 SUB PUSH1 0x0 DUP4 ADD MSTORE PUSH2 0x1196 DUP2 PUSH2 0x115A JUMP JUMPDEST SWAP1 POP SWAP2 SWAP1 POP JUMP JUMPDEST PUSH32 0x4E487B7100000000000000000000000000000000000000000000000000000000 PUSH1 0x0 MSTORE PUSH1 0x32 PUSH1 0x4 MSTORE PUSH1 0x24 PUSH1 0x0 REVERT JUMPDEST PUSH1 0x0 DUP2 SWAP1 POP DUP2 PUSH1 0x0 MSTORE PUSH1 0x20 PUSH1 0x0 KECCAK256 SWAP1 POP SWAP2 SWAP1 POP JUMP JUMPDEST PUSH1 0x0 DUP2 SLOAD PUSH2 0x11EE DUP2 PUSH2 0xF43 JUMP JUMPDEST PUSH2 0x11F8 DUP2 DUP7 PUSH2 0xF74 JUMP JUMPDEST SWAP5 POP PUSH1 0x1 DUP3 AND PUSH1 0x0 DUP2 EQ PUSH2 0x1213 JUMPI PUSH1 0x1 DUP2 EQ PUSH2 0x1228 JUMPI PUSH2 0x125B JUMP JUMPDEST PUSH1 0xFF NOT DUP4 AND DUP7 MSTORE DUP2 ISZERO ISZERO DUP3 MUL DUP7 ADD SWAP4 POP PUSH2 0x125B JUMP JUMPDEST PUSH2 0x1231 DUP6 PUSH2 0x11CC JUMP JUMPDEST PUSH1 0x0 JUMPDEST DUP4 DUP2 LT ISZERO PUSH2 0x1253 JUMPI DUP2 SLOAD DUP2 DUP10 ADD MSTORE PUSH1 0x1 DUP3 ADD SWAP2 POP PUSH1 0x20 DUP2 ADD SWAP1 POP PUSH2 0x1234 JUMP JUMPDEST DUP4 DUP9 ADD SWAP6 POP POP POP JUMPDEST POP POP POP SWAP3 SWAP2 POP POP JUMP JUMPDEST PUSH1 0x0 PUSH2 0x1270 DUP3 DUP5 PUSH2 0x11E1 JUMP JUMPDEST SWAP2 POP DUP2 SWAP1 POP SWAP3 SWAP2 POP POP JUMP JUMPDEST PUSH32 0x4E487B7100000000000000000000000000000000000000000000000000000000 PUSH1 0x0 MSTORE PUSH1 0x11 PUSH1 0x4 MSTORE PUSH1 0x24 PUSH1 0x0 REVERT JUMPDEST PUSH1 0x0 PUSH2 0x12B5 DUP3 PUSH2 0xBDD JUMP JUMPDEST SWAP2 POP PUSH32 0xFFFFFFFFFFFFFFFFFFFFFFFFFFFFFFFFFFFFFFFFFFFFFFFFFFFFFFFFFFFFFFFF DUP3 SUB PUSH2 0x12E7 JUMPI PUSH2 0x12E6 PUSH2 0x127B JUMP JUMPDEST JUMPDEST PUSH1 0x1 DUP3 ADD SWAP1 POP SWAP2 SWAP1 POP JUMP JUMPDEST PUSH32 0x4F7074696F6E20646F6573206E6F742065786973740000000000000000000000 PUSH1 0x0 DUP3 ADD MSTORE POP JUMP JUMPDEST PUSH1 0x0 PUSH2 0x1328 PUSH1 0x15 DUP4 PUSH2 0xC1C JUMP JUMPDEST SWAP2 POP PUSH2 0x1333 DUP3 PUSH2 0x12F2 JUMP JUMPDEST PUSH1 0x20 DUP3 ADD SWAP1 POP SWAP2 SWAP1 POP JUMP JUMPDEST PUSH1 0x0 PUSH1 0x20 DUP3 ADD SWAP1 POP DUP2 DUP2 SUB PUSH1 0x0 DUP4 ADD MSTORE PUSH2 0x1357 DUP2 PUSH2 0x131B JUMP JUMPDEST SWAP1 POP SWAP2 SWAP1 POP JUMP JUMPDEST PUSH1 0x0 PUSH2 0x1369 DUP3 PUSH2 0xBDD JUMP JUMPDEST SWAP2 POP PUSH2 0x1374 DUP4 PUSH2 0xBDD JUMP JUMPDEST SWAP3 POP DUP3 DUP3 ADD SWAP1 POP DUP1 DUP3 GT ISZERO PUSH2 0x138C JUMPI PUSH2 0x138B PUSH2 0x127B JUMP JUMPDEST JUMPDEST SWAP3 SWAP2 POP POP JUMP INVALID LOG2 PUSH5 0x6970667358 0x22 SLT KECCAK256 SWAP1 SWAP5 0xB7 ISZERO 0xDF GT CALLDATALOAD GASLIMIT CREATE2 CALLVALUE 0xDE 0xCD 0xE9 CALLVALUE 0xA6 0x2F 0x5C CALLDATACOPY DUP4 PC GASPRICE 0xCE BYTE 0xD0 DUP5 0xDC 0x4D PUSH21 0xD164F99B64736F6C63430008110033000000000000 "},"gasEstimates":{"creation":{"codeDepositCost":"1012800","executionCost":"infinite","totalCost":"infinite"},"external":{"closeVoting()":"28778","closed()":"2538","creator()":"2535","getOptionVotes(string)":"infinite","getOptions()":"infinite","getOptionsCount()":"2490","getSummary()":"infinite","getVotersCount()":"2459","options(uint256)":"infinite","optionsVotes(string)":"infinite","topic()":"infinite","vote(string)":"infinite","voters(address)":"2868","votersCount()":"2518"}},"methodIdentifiers":{"closeVoting()":"c631b292","closed()":"597e1fb5","creator()":"02d05d3f","getOptionVotes(string)":"57c9d738","getOptions()":"cc2ee196","getOptionsCount()":"a4d4334a","getSummary()":"4051ddac","getVotersCount()":"c0f2a777","options(uint256)":"409e2205","optionsVotes(string)":"19ad7cd2","topic()":"bf63a577","vote(string)":"fc36e15b","voters(address)":"a3ec138d","votersCount()":"98c07938"}},"storageLayout":{"storage":[{"astId":70,"contract":"Voting.sol:Voting","label":"creator","offset":0,"slot":"0","type":"t_address"},{"astId":72,"contract":"Voting.sol:Voting","label":"topic","offset":0,"slot":"1","type":"t_string_storage"},{"astId":75,"contract":"Voting.sol:Voting","label":"options","offset":0,"slot":"2","type":"t_array(t_string_storage)dyn_storage"},{"astId":79,"contract":"Voting.sol:Voting","label":"optionsVotes","offset":0,"slot":"3","type":"t_mapping(t_string_memory_ptr,t_uint256)"},{"astId":83,"contract":"Voting.sol:Voting","label":"voters","offset":0,"slot":"4","type":"t_mapping(t_address,t_bool)"},{"astId":85,"contract":"Voting.sol:Voting","label":"votersCount","offset":0,"slot":"5","type":"t_uint256"},{"astId":87,"contract":"Voting.sol:Voting","label":"closed","offset":0,"slot":"6","type":"t_bool"}],"types":{"t_address":{"encoding":"inplace","label":"address","numberOfBytes":"20"},"t_array(t_string_storage)dyn_storage":{"base":"t_string_storage","encoding":"dynamic_array","label":"string[]","numberOfBytes":"32"},"t_bool":{"encoding":"inplace","label":"bool","numberOfBytes":"1"},"t_mapping(t_address,t_bool)":{"encoding":"mapping","key":"t_address","label":"mapping(address => bool)","numberOfBytes":"32","value":"t_bool"},"t_mapping(t_string_memory_ptr,t_uint256)":{"encoding":"mapping","key":"t_string_memory_ptr","label":"mapping(string => uint256)","numberOfBytes":"32","value":"t_uint256"},"t_string_memory_ptr":{"encoding":"bytes","label":"string","numberOfBytes":"32"},"t_string_storage":{"encoding":"bytes","label":"string","numberOfBytes":"32"},"t_uint256":{"encoding":"inplace","label":"uint256","numberOfBytes":"32"}}},"userdoc":{"kind":"user","methods":{},"version":1}}