{"abi":[{"inputs":[{"internalType":"address","name":"_factoryAddress","type":"address"},{"internalType":"address","name":"_creator","type":"address"},{"internalType":"string","name":"_topic","type":"string"},{"internalType":"string[]","name":"_options","type":"string[]"},{"internalType":"enum Audience","name":"_audience","type":"uint8"}],"stateMutability":"nonpayable","type":"constructor"},{"inputs":[],"name":"audience","outputs":[{"internalType":"enum Audience","name":"","type":"uint8"}],"stateMutability":"view","type":"function"},{"inputs":[],"name":"closeVoting","outputs":[],"stateMutability":"nonpayable","type":"function"},{"inputs":[],"name":"closed","outputs":[{"internalType":"bool","name":"","type":"bool"}],"stateMutability":"view","type":"function"},{"inputs":[],"name":"creator","outputs":[{"internalType":"address","name":"","type":"address"}],"stateMutability":"view","type":"function"},{"inputs":[],"name":"getAudienceToString","outputs":[{"internalType":"string","name":"","type":"string"}],"stateMutability":"view","type":"function"},{"inputs":[{"internalType":"string","name":"option","type":"string"}],"name":"getOptionVotes","outputs":[{"internalType":"uint256","name":"","type":"uint256"}],"stateMutability":"view","type":"function"},{"inputs":[],"name":"getOptions","outputs":[{"internalType":"string[]","name":"","type":"string[]"}],"stateMutability":"view","type":"function"},{"inputs":[],"name":"getOptionsCount","outputs":[{"internalType":"uint256","name":"","type":"uint256"}],"stateMutability":"view","type":"function"},{"inputs":[],"name":"getSummary","outputs":[{"internalType":"address","name":"","type":"address"},{"internalType":"string","name":"","type":"string"},{"internalType":"uint256","name":"","type":"uint256"},{"internalType":"bool","name":"","type":"bool"},{"internalType":"string","name":"","type":"string"}],"stateMutability":"view","type":"function"},{"inputs":[],"name":"getVotersCount","outputs":[{"internalType":"uint256","name":"","type":"uint256"}],"stateMutability":"view","type":"function"},{"inputs":[{"internalType":"uint256","name":"","type":"uint256"}],"name":"options","outputs":[{"internalType":"string","name":"","type":"string"}],"stateMutability":"view","type":"function"},{"inputs":[{"internalType":"string","name":"","type":"string"}],"name":"optionsVotes","outputs":[{"internalType":"uint256","name":"","type":"uint256"}],"stateMutability":"view","type":"function"},{"inputs":[],"name":"topic","outputs":[{"internalType":"string","name":"","type":"string"}],"stateMutability":"view","type":"function"},{"inputs":[{"internalType":"string","name":"option","type":"string"}],"name":"vote","outputs":[],"stateMutability":"nonpayable","type":"function"},{"inputs":[{"internalType":"address","name":"","type":"address"}],"name":"voters","outputs":[{"internalType":"bool","name":"","type":"bool"}],"stateMutability":"view","type":"function"},{"inputs":[],"name":"votersCount","outputs":[{"internalType":"uint256","name":"","type":"uint256"}],"stateMutability":"view","type":"function"}],"devdoc":{"kind":"dev","methods":{},"version":1},"evm":{"assembly":"    /* \"Voting.sol\":2617:5755  contract Voting {... */\n  mstore(0x40, 0x80)\n    /* \"Voting.sol\":3653:3992  constructor (address _factoryAddress, address _creator, string memory _topic, string[] memory _options, Audience _audience) {... */\n  callvalue\n  dup1\n  iszero\n  tag_1\n  jumpi\n  0x00\n  dup1\n  revert\ntag_1:\n  pop\n  mload(0x40)\n  sub(codesize, bytecodeSize)\n  dup1\n  bytecodeSize\n  dup4\n  codecopy\n  dup2\n  dup2\n  add\n  0x40\n  mstore\n  dup2\n  add\n  swap1\n  tag_2\n  swap2\n  swap1\n  tag_3\n  jump\t// in\ntag_2:\n    /* \"Voting.sol\":3798:3806  _creator */\n  dup4\n    /* \"Voting.sol\":3788:3795  creator */\n  0x00\n  dup1\n    /* \"Voting.sol\":3788:3806  creator = _creator */\n  0x0100\n  exp\n  dup2\n  sload\n  dup2\n  0xffffffffffffffffffffffffffffffffffffffff\n  mul\n  not\n  and\n  swap1\n  dup4\n  0xffffffffffffffffffffffffffffffffffffffff\n  and\n  mul\n  or\n  swap1\n  sstore\n  pop\n    /* \"Voting.sol\":3834:3849  _factoryAddress */\n  dup5\n    /* \"Voting.sol\":3817:3831  factoryAddress */\n  0x01\n  0x00\n    /* \"Voting.sol\":3817:3849  factoryAddress = _factoryAddress */\n  0x0100\n  exp\n  dup2\n  sload\n  dup2\n  0xffffffffffffffffffffffffffffffffffffffff\n  mul\n  not\n  and\n  swap1\n  dup4\n  0xffffffffffffffffffffffffffffffffffffffff\n  and\n  mul\n  or\n  swap1\n  sstore\n  pop\n    /* \"Voting.sol\":3884:3898  factoryAddress */\n  0x01\n  0x00\n  swap1\n  sload\n  swap1\n  0x0100\n  exp\n  swap1\n  div\n  0xffffffffffffffffffffffffffffffffffffffff\n  and\n    /* \"Voting.sol\":3860:3867  factory */\n  0x02\n  0x00\n    /* \"Voting.sol\":3860:3899  factory = VotingFactory(factoryAddress) */\n  0x0100\n  exp\n  dup2\n  sload\n  dup2\n  0xffffffffffffffffffffffffffffffffffffffff\n  mul\n  not\n  and\n  swap1\n  dup4\n  0xffffffffffffffffffffffffffffffffffffffff\n  and\n  mul\n  or\n  swap1\n  sstore\n  pop\n    /* \"Voting.sol\":3918:3924  _topic */\n  dup3\n    /* \"Voting.sol\":3910:3915  topic */\n  0x03\n    /* \"Voting.sol\":3910:3924  topic = _topic */\n  swap1\n  dup2\n  tag_6\n  swap2\n  swap1\n  tag_7\n  jump\t// in\ntag_6:\n  pop\n    /* \"Voting.sol\":3945:3953  _options */\n  dup2\n    /* \"Voting.sol\":3935:3942  options */\n  0x04\n    /* \"Voting.sol\":3935:3953  options = _options */\n  swap1\n  dup1\n  mload\n  swap1\n  0x20\n  add\n  swap1\n  tag_8\n  swap3\n  swap2\n  swap1\n  tag_9\n  jump\t// in\ntag_8:\n  pop\n    /* \"Voting.sol\":3975:3984  _audience */\n  dup1\n    /* \"Voting.sol\":3964:3972  audience */\n  0x08\n  0x01\n    /* \"Voting.sol\":3964:3984  audience = _audience */\n  0x0100\n  exp\n  dup2\n  sload\n  dup2\n  0xff\n  mul\n  not\n  and\n  swap1\n  dup4\n  0x02\n  dup2\n  gt\n  iszero\n  tag_10\n  jumpi\n  tag_11\n  tag_12\n  jump\t// in\ntag_11:\ntag_10:\n  mul\n  or\n  swap1\n  sstore\n  pop\n    /* \"Voting.sol\":3653:3992  constructor (address _factoryAddress, address _creator, string memory _topic, string[] memory _options, Audience _audience) {... */\n  pop\n  pop\n  pop\n  pop\n  pop\n    /* \"Voting.sol\":2617:5755  contract Voting {... */\n  jump(tag_13)\ntag_9:\n  dup3\n  dup1\n  sload\n  dup3\n  dup3\n  sstore\n  swap1\n  0x00\n  mstore\n  keccak256(0x00, 0x20)\n  swap1\n  dup2\n  add\n  swap3\n  dup3\n  iszero\n  tag_14\n  jumpi\n  swap2\n  0x20\n  mul\n  dup3\n  add\ntag_15:\n  dup3\n  dup2\n  gt\n  iszero\n  tag_16\n  jumpi\n  dup3\n  mload\n  dup3\n  swap1\n  dup2\n  tag_17\n  swap2\n  swap1\n  tag_7\n  jump\t// in\ntag_17:\n  pop\n  swap2\n  0x20\n  add\n  swap2\n  swap1\n  0x01\n  add\n  swap1\n  jump(tag_15)\ntag_16:\ntag_14:\n  pop\n  swap1\n  pop\n  tag_18\n  swap2\n  swap1\n  tag_19\n  jump\t// in\ntag_18:\n  pop\n  swap1\n  jump\t// out\ntag_19:\ntag_20:\n  dup1\n  dup3\n  gt\n  iszero\n  tag_21\n  jumpi\n  0x00\n  dup2\n  dup2\n  tag_22\n  swap2\n  swap1\n  tag_23\n  jump\t// in\ntag_22:\n  pop\n  0x01\n  add\n  jump(tag_20)\ntag_21:\n  pop\n  swap1\n  jump\t// out\ntag_23:\n  pop\n  dup1\n  sload\n  tag_24\n  swap1\n  tag_25\n  jump\t// in\ntag_24:\n  0x00\n  dup3\n  sstore\n  dup1\n  0x1f\n  lt\n  tag_27\n  jumpi\n  pop\n  jump(tag_26)\ntag_27:\n  0x1f\n  add\n  0x20\n  swap1\n  div\n  swap1\n  0x00\n  mstore\n  keccak256(0x00, 0x20)\n  swap1\n  dup2\n  add\n  swap1\n  tag_28\n  swap2\n  swap1\n  tag_29\n  jump\t// in\ntag_28:\ntag_26:\n  pop\n  jump\t// out\ntag_29:\ntag_30:\n  dup1\n  dup3\n  gt\n  iszero\n  tag_31\n  jumpi\n  0x00\n  dup2\n  0x00\n  swap1\n  sstore\n  pop\n  0x01\n  add\n  jump(tag_30)\ntag_31:\n  pop\n  swap1\n  jump\t// out\n    /* \"#utility.yul\":7:82   */\ntag_32:\n    /* \"#utility.yul\":40:46   */\n  0x00\n    /* \"#utility.yul\":73:75   */\n  0x40\n    /* \"#utility.yul\":67:76   */\n  mload\n    /* \"#utility.yul\":57:76   */\n  swap1\n  pop\n    /* \"#utility.yul\":7:82   */\n  swap1\n  jump\t// out\n    /* \"#utility.yul\":88:205   */\ntag_33:\n    /* \"#utility.yul\":197:198   */\n  0x00\n    /* \"#utility.yul\":194:195   */\n  dup1\n    /* \"#utility.yul\":187:199   */\n  revert\n    /* \"#utility.yul\":211:328   */\ntag_34:\n    /* \"#utility.yul\":320:321   */\n  0x00\n    /* \"#utility.yul\":317:318   */\n  dup1\n    /* \"#utility.yul\":310:322   */\n  revert\n    /* \"#utility.yul\":334:460   */\ntag_35:\n    /* \"#utility.yul\":371:378   */\n  0x00\n    /* \"#utility.yul\":411:453   */\n  0xffffffffffffffffffffffffffffffffffffffff\n    /* \"#utility.yul\":404:409   */\n  dup3\n    /* \"#utility.yul\":400:454   */\n  and\n    /* \"#utility.yul\":389:454   */\n  swap1\n  pop\n    /* \"#utility.yul\":334:460   */\n  swap2\n  swap1\n  pop\n  jump\t// out\n    /* \"#utility.yul\":466:562   */\ntag_36:\n    /* \"#utility.yul\":503:510   */\n  0x00\n    /* \"#utility.yul\":532:556   */\n  tag_79\n    /* \"#utility.yul\":550:555   */\n  dup3\n    /* \"#utility.yul\":532:556   */\n  tag_35\n  jump\t// in\ntag_79:\n    /* \"#utility.yul\":521:556   */\n  swap1\n  pop\n    /* \"#utility.yul\":466:562   */\n  swap2\n  swap1\n  pop\n  jump\t// out\n    /* \"#utility.yul\":568:690   */\ntag_37:\n    /* \"#utility.yul\":641:665   */\n  tag_81\n    /* \"#utility.yul\":659:664   */\n  dup2\n    /* \"#utility.yul\":641:665   */\n  tag_36\n  jump\t// in\ntag_81:\n    /* \"#utility.yul\":634:639   */\n  dup2\n    /* \"#utility.yul\":631:666   */\n  eq\n    /* \"#utility.yul\":621:684   */\n  tag_82\n  jumpi\n    /* \"#utility.yul\":680:681   */\n  0x00\n    /* \"#utility.yul\":677:678   */\n  dup1\n    /* \"#utility.yul\":670:682   */\n  revert\n    /* \"#utility.yul\":621:684   */\ntag_82:\n    /* \"#utility.yul\":568:690   */\n  pop\n  jump\t// out\n    /* \"#utility.yul\":696:839   */\ntag_38:\n    /* \"#utility.yul\":753:758   */\n  0x00\n    /* \"#utility.yul\":784:790   */\n  dup2\n    /* \"#utility.yul\":778:791   */\n  mload\n    /* \"#utility.yul\":769:791   */\n  swap1\n  pop\n    /* \"#utility.yul\":800:833   */\n  tag_84\n    /* \"#utility.yul\":827:832   */\n  dup2\n    /* \"#utility.yul\":800:833   */\n  tag_37\n  jump\t// in\ntag_84:\n    /* \"#utility.yul\":696:839   */\n  swap3\n  swap2\n  pop\n  pop\n  jump\t// out\n    /* \"#utility.yul\":845:962   */\ntag_39:\n    /* \"#utility.yul\":954:955   */\n  0x00\n    /* \"#utility.yul\":951:952   */\n  dup1\n    /* \"#utility.yul\":944:956   */\n  revert\n    /* \"#utility.yul\":968:1085   */\ntag_40:\n    /* \"#utility.yul\":1077:1078   */\n  0x00\n    /* \"#utility.yul\":1074:1075   */\n  dup1\n    /* \"#utility.yul\":1067:1079   */\n  revert\n    /* \"#utility.yul\":1091:1193   */\ntag_41:\n    /* \"#utility.yul\":1132:1138   */\n  0x00\n    /* \"#utility.yul\":1183:1185   */\n  0x1f\n    /* \"#utility.yul\":1179:1186   */\n  not\n    /* \"#utility.yul\":1174:1176   */\n  0x1f\n    /* \"#utility.yul\":1167:1172   */\n  dup4\n    /* \"#utility.yul\":1163:1177   */\n  add\n    /* \"#utility.yul\":1159:1187   */\n  and\n    /* \"#utility.yul\":1149:1187   */\n  swap1\n  pop\n    /* \"#utility.yul\":1091:1193   */\n  swap2\n  swap1\n  pop\n  jump\t// out\n    /* \"#utility.yul\":1199:1379   */\ntag_42:\n    /* \"#utility.yul\":1247:1324   */\n  0x4e487b7100000000000000000000000000000000000000000000000000000000\n    /* \"#utility.yul\":1244:1245   */\n  0x00\n    /* \"#utility.yul\":1237:1325   */\n  mstore\n    /* \"#utility.yul\":1344:1348   */\n  0x41\n    /* \"#utility.yul\":1341:1342   */\n  0x04\n    /* \"#utility.yul\":1334:1349   */\n  mstore\n    /* \"#utility.yul\":1368:1372   */\n  0x24\n    /* \"#utility.yul\":1365:1366   */\n  0x00\n    /* \"#utility.yul\":1358:1373   */\n  revert\n    /* \"#utility.yul\":1385:1666   */\ntag_43:\n    /* \"#utility.yul\":1468:1495   */\n  tag_90\n    /* \"#utility.yul\":1490:1494   */\n  dup3\n    /* \"#utility.yul\":1468:1495   */\n  tag_41\n  jump\t// in\ntag_90:\n    /* \"#utility.yul\":1460:1466   */\n  dup2\n    /* \"#utility.yul\":1456:1496   */\n  add\n    /* \"#utility.yul\":1598:1604   */\n  dup2\n    /* \"#utility.yul\":1586:1596   */\n  dup2\n    /* \"#utility.yul\":1583:1605   */\n  lt\n    /* \"#utility.yul\":1562:1580   */\n  0xffffffffffffffff\n    /* \"#utility.yul\":1550:1560   */\n  dup3\n    /* \"#utility.yul\":1547:1581   */\n  gt\n    /* \"#utility.yul\":1544:1606   */\n  or\n    /* \"#utility.yul\":1541:1629   */\n  iszero\n  tag_91\n  jumpi\n    /* \"#utility.yul\":1609:1627   */\n  tag_92\n  tag_42\n  jump\t// in\ntag_92:\n    /* \"#utility.yul\":1541:1629   */\ntag_91:\n    /* \"#utility.yul\":1649:1659   */\n  dup1\n    /* \"#utility.yul\":1645:1647   */\n  0x40\n    /* \"#utility.yul\":1638:1660   */\n  mstore\n    /* \"#utility.yul\":1428:1666   */\n  pop\n    /* \"#utility.yul\":1385:1666   */\n  pop\n  pop\n  jump\t// out\n    /* \"#utility.yul\":1672:1801   */\ntag_44:\n    /* \"#utility.yul\":1706:1712   */\n  0x00\n    /* \"#utility.yul\":1733:1753   */\n  tag_94\n  tag_32\n  jump\t// in\ntag_94:\n    /* \"#utility.yul\":1723:1753   */\n  swap1\n  pop\n    /* \"#utility.yul\":1762:1795   */\n  tag_95\n    /* \"#utility.yul\":1790:1794   */\n  dup3\n    /* \"#utility.yul\":1782:1788   */\n  dup3\n    /* \"#utility.yul\":1762:1795   */\n  tag_43\n  jump\t// in\ntag_95:\n    /* \"#utility.yul\":1672:1801   */\n  swap2\n  swap1\n  pop\n  jump\t// out\n    /* \"#utility.yul\":1807:2115   */\ntag_45:\n    /* \"#utility.yul\":1869:1873   */\n  0x00\n    /* \"#utility.yul\":1959:1977   */\n  0xffffffffffffffff\n    /* \"#utility.yul\":1951:1957   */\n  dup3\n    /* \"#utility.yul\":1948:1978   */\n  gt\n    /* \"#utility.yul\":1945:2001   */\n  iszero\n  tag_97\n  jumpi\n    /* \"#utility.yul\":1981:1999   */\n  tag_98\n  tag_42\n  jump\t// in\ntag_98:\n    /* \"#utility.yul\":1945:2001   */\ntag_97:\n    /* \"#utility.yul\":2019:2048   */\n  tag_99\n    /* \"#utility.yul\":2041:2047   */\n  dup3\n    /* \"#utility.yul\":2019:2048   */\n  tag_41\n  jump\t// in\ntag_99:\n    /* \"#utility.yul\":2011:2048   */\n  swap1\n  pop\n    /* \"#utility.yul\":2103:2107   */\n  0x20\n    /* \"#utility.yul\":2097:2101   */\n  dup2\n    /* \"#utility.yul\":2093:2108   */\n  add\n    /* \"#utility.yul\":2085:2108   */\n  swap1\n  pop\n    /* \"#utility.yul\":1807:2115   */\n  swap2\n  swap1\n  pop\n  jump\t// out\n    /* \"#utility.yul\":2121:2367   */\ntag_46:\n    /* \"#utility.yul\":2202:2203   */\n  0x00\n    /* \"#utility.yul\":2212:2325   */\ntag_101:\n    /* \"#utility.yul\":2226:2232   */\n  dup4\n    /* \"#utility.yul\":2223:2224   */\n  dup2\n    /* \"#utility.yul\":2220:2233   */\n  lt\n    /* \"#utility.yul\":2212:2325   */\n  iszero\n  tag_103\n  jumpi\n    /* \"#utility.yul\":2311:2312   */\n  dup1\n    /* \"#utility.yul\":2306:2309   */\n  dup3\n    /* \"#utility.yul\":2302:2313   */\n  add\n    /* \"#utility.yul\":2296:2314   */\n  mload\n    /* \"#utility.yul\":2292:2293   */\n  dup2\n    /* \"#utility.yul\":2287:2290   */\n  dup5\n    /* \"#utility.yul\":2283:2294   */\n  add\n    /* \"#utility.yul\":2276:2315   */\n  mstore\n    /* \"#utility.yul\":2248:2250   */\n  0x20\n    /* \"#utility.yul\":2245:2246   */\n  dup2\n    /* \"#utility.yul\":2241:2251   */\n  add\n    /* \"#utility.yul\":2236:2251   */\n  swap1\n  pop\n    /* \"#utility.yul\":2212:2325   */\n  jump(tag_101)\ntag_103:\n    /* \"#utility.yul\":2359:2360   */\n  0x00\n    /* \"#utility.yul\":2350:2356   */\n  dup5\n    /* \"#utility.yul\":2345:2348   */\n  dup5\n    /* \"#utility.yul\":2341:2357   */\n  add\n    /* \"#utility.yul\":2334:2361   */\n  mstore\n    /* \"#utility.yul\":2183:2367   */\n  pop\n    /* \"#utility.yul\":2121:2367   */\n  pop\n  pop\n  pop\n  jump\t// out\n    /* \"#utility.yul\":2373:2807   */\ntag_47:\n    /* \"#utility.yul\":2462:2467   */\n  0x00\n    /* \"#utility.yul\":2487:2553   */\n  tag_105\n    /* \"#utility.yul\":2503:2552   */\n  tag_106\n    /* \"#utility.yul\":2545:2551   */\n  dup5\n    /* \"#utility.yul\":2503:2552   */\n  tag_45\n  jump\t// in\ntag_106:\n    /* \"#utility.yul\":2487:2553   */\n  tag_44\n  jump\t// in\ntag_105:\n    /* \"#utility.yul\":2478:2553   */\n  swap1\n  pop\n    /* \"#utility.yul\":2576:2582   */\n  dup3\n    /* \"#utility.yul\":2569:2574   */\n  dup2\n    /* \"#utility.yul\":2562:2583   */\n  mstore\n    /* \"#utility.yul\":2614:2618   */\n  0x20\n    /* \"#utility.yul\":2607:2612   */\n  dup2\n    /* \"#utility.yul\":2603:2619   */\n  add\n    /* \"#utility.yul\":2652:2655   */\n  dup5\n    /* \"#utility.yul\":2643:2649   */\n  dup5\n    /* \"#utility.yul\":2638:2641   */\n  dup5\n    /* \"#utility.yul\":2634:2650   */\n  add\n    /* \"#utility.yul\":2631:2656   */\n  gt\n    /* \"#utility.yul\":2628:2740   */\n  iszero\n  tag_107\n  jumpi\n    /* \"#utility.yul\":2659:2738   */\n  tag_108\n  tag_40\n  jump\t// in\ntag_108:\n    /* \"#utility.yul\":2628:2740   */\ntag_107:\n    /* \"#utility.yul\":2749:2801   */\n  tag_109\n    /* \"#utility.yul\":2794:2800   */\n  dup5\n    /* \"#utility.yul\":2789:2792   */\n  dup3\n    /* \"#utility.yul\":2784:2787   */\n  dup6\n    /* \"#utility.yul\":2749:2801   */\n  tag_46\n  jump\t// in\ntag_109:\n    /* \"#utility.yul\":2468:2807   */\n  pop\n    /* \"#utility.yul\":2373:2807   */\n  swap4\n  swap3\n  pop\n  pop\n  pop\n  jump\t// out\n    /* \"#utility.yul\":2827:3182   */\ntag_48:\n    /* \"#utility.yul\":2894:2899   */\n  0x00\n    /* \"#utility.yul\":2943:2946   */\n  dup3\n    /* \"#utility.yul\":2936:2940   */\n  0x1f\n    /* \"#utility.yul\":2928:2934   */\n  dup4\n    /* \"#utility.yul\":2924:2941   */\n  add\n    /* \"#utility.yul\":2920:2947   */\n  slt\n    /* \"#utility.yul\":2910:3032   */\n  tag_111\n  jumpi\n    /* \"#utility.yul\":2951:3030   */\n  tag_112\n  tag_39\n  jump\t// in\ntag_112:\n    /* \"#utility.yul\":2910:3032   */\ntag_111:\n    /* \"#utility.yul\":3061:3067   */\n  dup2\n    /* \"#utility.yul\":3055:3068   */\n  mload\n    /* \"#utility.yul\":3086:3176   */\n  tag_113\n    /* \"#utility.yul\":3172:3175   */\n  dup5\n    /* \"#utility.yul\":3164:3170   */\n  dup3\n    /* \"#utility.yul\":3157:3161   */\n  0x20\n    /* \"#utility.yul\":3149:3155   */\n  dup7\n    /* \"#utility.yul\":3145:3162   */\n  add\n    /* \"#utility.yul\":3086:3176   */\n  tag_47\n  jump\t// in\ntag_113:\n    /* \"#utility.yul\":3077:3176   */\n  swap2\n  pop\n    /* \"#utility.yul\":2900:3182   */\n  pop\n    /* \"#utility.yul\":2827:3182   */\n  swap3\n  swap2\n  pop\n  pop\n  jump\t// out\n    /* \"#utility.yul\":3188:3509   */\ntag_49:\n    /* \"#utility.yul\":3275:3279   */\n  0x00\n    /* \"#utility.yul\":3365:3383   */\n  0xffffffffffffffff\n    /* \"#utility.yul\":3357:3363   */\n  dup3\n    /* \"#utility.yul\":3354:3384   */\n  gt\n    /* \"#utility.yul\":3351:3407   */\n  iszero\n  tag_115\n  jumpi\n    /* \"#utility.yul\":3387:3405   */\n  tag_116\n  tag_42\n  jump\t// in\ntag_116:\n    /* \"#utility.yul\":3351:3407   */\ntag_115:\n    /* \"#utility.yul\":3437:3441   */\n  0x20\n    /* \"#utility.yul\":3429:3435   */\n  dup3\n    /* \"#utility.yul\":3425:3442   */\n  mul\n    /* \"#utility.yul\":3417:3442   */\n  swap1\n  pop\n    /* \"#utility.yul\":3497:3501   */\n  0x20\n    /* \"#utility.yul\":3491:3495   */\n  dup2\n    /* \"#utility.yul\":3487:3502   */\n  add\n    /* \"#utility.yul\":3479:3502   */\n  swap1\n  pop\n    /* \"#utility.yul\":3188:3509   */\n  swap2\n  swap1\n  pop\n  jump\t// out\n    /* \"#utility.yul\":3515:3632   */\ntag_50:\n    /* \"#utility.yul\":3624:3625   */\n  0x00\n    /* \"#utility.yul\":3621:3622   */\n  dup1\n    /* \"#utility.yul\":3614:3626   */\n  revert\n    /* \"#utility.yul\":3654:4614   */\ntag_51:\n    /* \"#utility.yul\":3771:3776   */\n  0x00\n    /* \"#utility.yul\":3796:3887   */\n  tag_119\n    /* \"#utility.yul\":3812:3886   */\n  tag_120\n    /* \"#utility.yul\":3879:3885   */\n  dup5\n    /* \"#utility.yul\":3812:3886   */\n  tag_49\n  jump\t// in\ntag_120:\n    /* \"#utility.yul\":3796:3887   */\n  tag_44\n  jump\t// in\ntag_119:\n    /* \"#utility.yul\":3787:3887   */\n  swap1\n  pop\n    /* \"#utility.yul\":3907:3912   */\n  dup1\n    /* \"#utility.yul\":3936:3942   */\n  dup4\n    /* \"#utility.yul\":3929:3934   */\n  dup3\n    /* \"#utility.yul\":3922:3943   */\n  mstore\n    /* \"#utility.yul\":3970:3974   */\n  0x20\n    /* \"#utility.yul\":3963:3968   */\n  dup3\n    /* \"#utility.yul\":3959:3975   */\n  add\n    /* \"#utility.yul\":3952:3975   */\n  swap1\n  pop\n    /* \"#utility.yul\":4023:4027   */\n  0x20\n    /* \"#utility.yul\":4015:4021   */\n  dup5\n    /* \"#utility.yul\":4011:4028   */\n  mul\n    /* \"#utility.yul\":4003:4009   */\n  dup4\n    /* \"#utility.yul\":3999:4029   */\n  add\n    /* \"#utility.yul\":4052:4055   */\n  dup6\n    /* \"#utility.yul\":4044:4050   */\n  dup2\n    /* \"#utility.yul\":4041:4056   */\n  gt\n    /* \"#utility.yul\":4038:4160   */\n  iszero\n  tag_121\n  jumpi\n    /* \"#utility.yul\":4071:4150   */\n  tag_122\n  tag_50\n  jump\t// in\ntag_122:\n    /* \"#utility.yul\":4038:4160   */\ntag_121:\n    /* \"#utility.yul\":4186:4192   */\n  dup4\n    /* \"#utility.yul\":4169:4608   */\ntag_123:\n    /* \"#utility.yul\":4203:4209   */\n  dup2\n    /* \"#utility.yul\":4198:4201   */\n  dup2\n    /* \"#utility.yul\":4195:4210   */\n  lt\n    /* \"#utility.yul\":4169:4608   */\n  iszero\n  tag_125\n  jumpi\n    /* \"#utility.yul\":4285:4288   */\n  dup1\n    /* \"#utility.yul\":4279:4289   */\n  mload\n    /* \"#utility.yul\":4321:4339   */\n  0xffffffffffffffff\n    /* \"#utility.yul\":4308:4319   */\n  dup2\n    /* \"#utility.yul\":4305:4340   */\n  gt\n    /* \"#utility.yul\":4302:4424   */\n  iszero\n  tag_126\n  jumpi\n    /* \"#utility.yul\":4343:4422   */\n  tag_127\n  tag_39\n  jump\t// in\ntag_127:\n    /* \"#utility.yul\":4302:4424   */\ntag_126:\n    /* \"#utility.yul\":4467:4478   */\n  dup1\n    /* \"#utility.yul\":4459:4465   */\n  dup7\n    /* \"#utility.yul\":4455:4479   */\n  add\n    /* \"#utility.yul\":4505:4563   */\n  tag_128\n    /* \"#utility.yul\":4559:4562   */\n  dup10\n    /* \"#utility.yul\":4547:4557   */\n  dup3\n    /* \"#utility.yul\":4505:4563   */\n  tag_48\n  jump\t// in\ntag_128:\n    /* \"#utility.yul\":4500:4503   */\n  dup6\n    /* \"#utility.yul\":4493:4564   */\n  mstore\n    /* \"#utility.yul\":4593:4597   */\n  0x20\n    /* \"#utility.yul\":4588:4591   */\n  dup6\n    /* \"#utility.yul\":4584:4598   */\n  add\n    /* \"#utility.yul\":4577:4598   */\n  swap5\n  pop\n    /* \"#utility.yul\":4245:4608   */\n  pop\n  pop\n    /* \"#utility.yul\":4229:4233   */\n  0x20\n    /* \"#utility.yul\":4224:4227   */\n  dup2\n    /* \"#utility.yul\":4220:4234   */\n  add\n    /* \"#utility.yul\":4213:4234   */\n  swap1\n  pop\n    /* \"#utility.yul\":4169:4608   */\n  jump(tag_123)\ntag_125:\n    /* \"#utility.yul\":4173:4194   */\n  pop\n    /* \"#utility.yul\":3777:4614   */\n  pop\n  pop\n    /* \"#utility.yul\":3654:4614   */\n  swap4\n  swap3\n  pop\n  pop\n  pop\n  jump\t// out\n    /* \"#utility.yul\":4636:5041   */\ntag_52:\n    /* \"#utility.yul\":4728:4733   */\n  0x00\n    /* \"#utility.yul\":4777:4780   */\n  dup3\n    /* \"#utility.yul\":4770:4774   */\n  0x1f\n    /* \"#utility.yul\":4762:4768   */\n  dup4\n    /* \"#utility.yul\":4758:4775   */\n  add\n    /* \"#utility.yul\":4754:4781   */\n  slt\n    /* \"#utility.yul\":4744:4866   */\n  tag_130\n  jumpi\n    /* \"#utility.yul\":4785:4864   */\n  tag_131\n  tag_39\n  jump\t// in\ntag_131:\n    /* \"#utility.yul\":4744:4866   */\ntag_130:\n    /* \"#utility.yul\":4895:4901   */\n  dup2\n    /* \"#utility.yul\":4889:4902   */\n  mload\n    /* \"#utility.yul\":4920:5035   */\n  tag_132\n    /* \"#utility.yul\":5031:5034   */\n  dup5\n    /* \"#utility.yul\":5023:5029   */\n  dup3\n    /* \"#utility.yul\":5016:5020   */\n  0x20\n    /* \"#utility.yul\":5008:5014   */\n  dup7\n    /* \"#utility.yul\":5004:5021   */\n  add\n    /* \"#utility.yul\":4920:5035   */\n  tag_51\n  jump\t// in\ntag_132:\n    /* \"#utility.yul\":4911:5035   */\n  swap2\n  pop\n    /* \"#utility.yul\":4734:5041   */\n  pop\n    /* \"#utility.yul\":4636:5041   */\n  swap3\n  swap2\n  pop\n  pop\n  jump\t// out\n    /* \"#utility.yul\":5047:5156   */\ntag_53:\n    /* \"#utility.yul\":5130:5131   */\n  0x03\n    /* \"#utility.yul\":5123:5128   */\n  dup2\n    /* \"#utility.yul\":5120:5132   */\n  lt\n    /* \"#utility.yul\":5110:5150   */\n  tag_134\n  jumpi\n    /* \"#utility.yul\":5146:5147   */\n  0x00\n    /* \"#utility.yul\":5143:5144   */\n  dup1\n    /* \"#utility.yul\":5136:5148   */\n  revert\n    /* \"#utility.yul\":5110:5150   */\ntag_134:\n    /* \"#utility.yul\":5047:5156   */\n  pop\n  jump\t// out\n    /* \"#utility.yul\":5162:5325   */\ntag_54:\n    /* \"#utility.yul\":5229:5234   */\n  0x00\n    /* \"#utility.yul\":5260:5266   */\n  dup2\n    /* \"#utility.yul\":5254:5267   */\n  mload\n    /* \"#utility.yul\":5245:5267   */\n  swap1\n  pop\n    /* \"#utility.yul\":5276:5319   */\n  tag_136\n    /* \"#utility.yul\":5313:5318   */\n  dup2\n    /* \"#utility.yul\":5276:5319   */\n  tag_53\n  jump\t// in\ntag_136:\n    /* \"#utility.yul\":5162:5325   */\n  swap3\n  swap2\n  pop\n  pop\n  jump\t// out\n    /* \"#utility.yul\":5331:6724   */\ntag_3:\n    /* \"#utility.yul\":5492:5498   */\n  0x00\n    /* \"#utility.yul\":5500:5506   */\n  dup1\n    /* \"#utility.yul\":5508:5514   */\n  0x00\n    /* \"#utility.yul\":5516:5522   */\n  dup1\n    /* \"#utility.yul\":5524:5530   */\n  0x00\n    /* \"#utility.yul\":5573:5576   */\n  0xa0\n    /* \"#utility.yul\":5561:5570   */\n  dup7\n    /* \"#utility.yul\":5552:5559   */\n  dup9\n    /* \"#utility.yul\":5548:5571   */\n  sub\n    /* \"#utility.yul\":5544:5577   */\n  slt\n    /* \"#utility.yul\":5541:5661   */\n  iszero\n  tag_138\n  jumpi\n    /* \"#utility.yul\":5580:5659   */\n  tag_139\n  tag_33\n  jump\t// in\ntag_139:\n    /* \"#utility.yul\":5541:5661   */\ntag_138:\n    /* \"#utility.yul\":5700:5701   */\n  0x00\n    /* \"#utility.yul\":5725:5789   */\n  tag_140\n    /* \"#utility.yul\":5781:5788   */\n  dup9\n    /* \"#utility.yul\":5772:5778   */\n  dup3\n    /* \"#utility.yul\":5761:5770   */\n  dup10\n    /* \"#utility.yul\":5757:5779   */\n  add\n    /* \"#utility.yul\":5725:5789   */\n  tag_38\n  jump\t// in\ntag_140:\n    /* \"#utility.yul\":5715:5789   */\n  swap6\n  pop\n    /* \"#utility.yul\":5671:5799   */\n  pop\n    /* \"#utility.yul\":5838:5840   */\n  0x20\n    /* \"#utility.yul\":5864:5928   */\n  tag_141\n    /* \"#utility.yul\":5920:5927   */\n  dup9\n    /* \"#utility.yul\":5911:5917   */\n  dup3\n    /* \"#utility.yul\":5900:5909   */\n  dup10\n    /* \"#utility.yul\":5896:5918   */\n  add\n    /* \"#utility.yul\":5864:5928   */\n  tag_38\n  jump\t// in\ntag_141:\n    /* \"#utility.yul\":5854:5928   */\n  swap5\n  pop\n    /* \"#utility.yul\":5809:5938   */\n  pop\n    /* \"#utility.yul\":5998:6000   */\n  0x40\n    /* \"#utility.yul\":5987:5996   */\n  dup7\n    /* \"#utility.yul\":5983:6001   */\n  add\n    /* \"#utility.yul\":5977:6002   */\n  mload\n    /* \"#utility.yul\":6029:6047   */\n  0xffffffffffffffff\n    /* \"#utility.yul\":6021:6027   */\n  dup2\n    /* \"#utility.yul\":6018:6048   */\n  gt\n    /* \"#utility.yul\":6015:6132   */\n  iszero\n  tag_142\n  jumpi\n    /* \"#utility.yul\":6051:6130   */\n  tag_143\n  tag_34\n  jump\t// in\ntag_143:\n    /* \"#utility.yul\":6015:6132   */\ntag_142:\n    /* \"#utility.yul\":6156:6230   */\n  tag_144\n    /* \"#utility.yul\":6222:6229   */\n  dup9\n    /* \"#utility.yul\":6213:6219   */\n  dup3\n    /* \"#utility.yul\":6202:6211   */\n  dup10\n    /* \"#utility.yul\":6198:6220   */\n  add\n    /* \"#utility.yul\":6156:6230   */\n  tag_48\n  jump\t// in\ntag_144:\n    /* \"#utility.yul\":6146:6230   */\n  swap4\n  pop\n    /* \"#utility.yul\":5948:6240   */\n  pop\n    /* \"#utility.yul\":6300:6302   */\n  0x60\n    /* \"#utility.yul\":6289:6298   */\n  dup7\n    /* \"#utility.yul\":6285:6303   */\n  add\n    /* \"#utility.yul\":6279:6304   */\n  mload\n    /* \"#utility.yul\":6331:6349   */\n  0xffffffffffffffff\n    /* \"#utility.yul\":6323:6329   */\n  dup2\n    /* \"#utility.yul\":6320:6350   */\n  gt\n    /* \"#utility.yul\":6317:6434   */\n  iszero\n  tag_145\n  jumpi\n    /* \"#utility.yul\":6353:6432   */\n  tag_146\n  tag_34\n  jump\t// in\ntag_146:\n    /* \"#utility.yul\":6317:6434   */\ntag_145:\n    /* \"#utility.yul\":6458:6557   */\n  tag_147\n    /* \"#utility.yul\":6549:6556   */\n  dup9\n    /* \"#utility.yul\":6540:6546   */\n  dup3\n    /* \"#utility.yul\":6529:6538   */\n  dup10\n    /* \"#utility.yul\":6525:6547   */\n  add\n    /* \"#utility.yul\":6458:6557   */\n  tag_52\n  jump\t// in\ntag_147:\n    /* \"#utility.yul\":6448:6557   */\n  swap3\n  pop\n    /* \"#utility.yul\":6250:6567   */\n  pop\n    /* \"#utility.yul\":6606:6609   */\n  0x80\n    /* \"#utility.yul\":6633:6707   */\n  tag_148\n    /* \"#utility.yul\":6699:6706   */\n  dup9\n    /* \"#utility.yul\":6690:6696   */\n  dup3\n    /* \"#utility.yul\":6679:6688   */\n  dup10\n    /* \"#utility.yul\":6675:6697   */\n  add\n    /* \"#utility.yul\":6633:6707   */\n  tag_54\n  jump\t// in\ntag_148:\n    /* \"#utility.yul\":6623:6707   */\n  swap2\n  pop\n    /* \"#utility.yul\":6577:6717   */\n  pop\n    /* \"#utility.yul\":5331:6724   */\n  swap3\n  swap6\n  pop\n  swap3\n  swap6\n  swap1\n  swap4\n  pop\n  jump\t// out\n    /* \"#utility.yul\":6730:6829   */\ntag_55:\n    /* \"#utility.yul\":6782:6788   */\n  0x00\n    /* \"#utility.yul\":6816:6821   */\n  dup2\n    /* \"#utility.yul\":6810:6822   */\n  mload\n    /* \"#utility.yul\":6800:6822   */\n  swap1\n  pop\n    /* \"#utility.yul\":6730:6829   */\n  swap2\n  swap1\n  pop\n  jump\t// out\n    /* \"#utility.yul\":6835:7015   */\ntag_56:\n    /* \"#utility.yul\":6883:6960   */\n  0x4e487b7100000000000000000000000000000000000000000000000000000000\n    /* \"#utility.yul\":6880:6881   */\n  0x00\n    /* \"#utility.yul\":6873:6961   */\n  mstore\n    /* \"#utility.yul\":6980:6984   */\n  0x22\n    /* \"#utility.yul\":6977:6978   */\n  0x04\n    /* \"#utility.yul\":6970:6985   */\n  mstore\n    /* \"#utility.yul\":7004:7008   */\n  0x24\n    /* \"#utility.yul\":7001:7002   */\n  0x00\n    /* \"#utility.yul\":6994:7009   */\n  revert\n    /* \"#utility.yul\":7021:7341   */\ntag_25:\n    /* \"#utility.yul\":7065:7071   */\n  0x00\n    /* \"#utility.yul\":7102:7103   */\n  0x02\n    /* \"#utility.yul\":7096:7100   */\n  dup3\n    /* \"#utility.yul\":7092:7104   */\n  div\n    /* \"#utility.yul\":7082:7104   */\n  swap1\n  pop\n    /* \"#utility.yul\":7149:7150   */\n  0x01\n    /* \"#utility.yul\":7143:7147   */\n  dup3\n    /* \"#utility.yul\":7139:7151   */\n  and\n    /* \"#utility.yul\":7170:7188   */\n  dup1\n    /* \"#utility.yul\":7160:7241   */\n  tag_152\n  jumpi\n    /* \"#utility.yul\":7226:7230   */\n  0x7f\n    /* \"#utility.yul\":7218:7224   */\n  dup3\n    /* \"#utility.yul\":7214:7231   */\n  and\n    /* \"#utility.yul\":7204:7231   */\n  swap2\n  pop\n    /* \"#utility.yul\":7160:7241   */\ntag_152:\n    /* \"#utility.yul\":7288:7290   */\n  0x20\n    /* \"#utility.yul\":7280:7286   */\n  dup3\n    /* \"#utility.yul\":7277:7291   */\n  lt\n    /* \"#utility.yul\":7257:7275   */\n  dup2\n    /* \"#utility.yul\":7254:7292   */\n  sub\n    /* \"#utility.yul\":7251:7335   */\n  tag_153\n  jumpi\n    /* \"#utility.yul\":7307:7325   */\n  tag_154\n  tag_56\n  jump\t// in\ntag_154:\n    /* \"#utility.yul\":7251:7335   */\ntag_153:\n    /* \"#utility.yul\":7072:7341   */\n  pop\n    /* \"#utility.yul\":7021:7341   */\n  swap2\n  swap1\n  pop\n  jump\t// out\n    /* \"#utility.yul\":7347:7488   */\ntag_57:\n    /* \"#utility.yul\":7396:7400   */\n  0x00\n    /* \"#utility.yul\":7419:7422   */\n  dup2\n    /* \"#utility.yul\":7411:7422   */\n  swap1\n  pop\n    /* \"#utility.yul\":7442:7445   */\n  dup2\n    /* \"#utility.yul\":7439:7440   */\n  0x00\n    /* \"#utility.yul\":7432:7446   */\n  mstore\n    /* \"#utility.yul\":7476:7480   */\n  0x20\n    /* \"#utility.yul\":7473:7474   */\n  0x00\n    /* \"#utility.yul\":7463:7481   */\n  keccak256\n    /* \"#utility.yul\":7455:7481   */\n  swap1\n  pop\n    /* \"#utility.yul\":7347:7488   */\n  swap2\n  swap1\n  pop\n  jump\t// out\n    /* \"#utility.yul\":7494:7587   */\ntag_58:\n    /* \"#utility.yul\":7531:7537   */\n  0x00\n    /* \"#utility.yul\":7578:7580   */\n  0x20\n    /* \"#utility.yul\":7573:7575   */\n  0x1f\n    /* \"#utility.yul\":7566:7571   */\n  dup4\n    /* \"#utility.yul\":7562:7576   */\n  add\n    /* \"#utility.yul\":7558:7581   */\n  div\n    /* \"#utility.yul\":7548:7581   */\n  swap1\n  pop\n    /* \"#utility.yul\":7494:7587   */\n  swap2\n  swap1\n  pop\n  jump\t// out\n    /* \"#utility.yul\":7593:7700   */\ntag_59:\n    /* \"#utility.yul\":7637:7645   */\n  0x00\n    /* \"#utility.yul\":7687:7692   */\n  dup3\n    /* \"#utility.yul\":7681:7685   */\n  dup3\n    /* \"#utility.yul\":7677:7693   */\n  shl\n    /* \"#utility.yul\":7656:7693   */\n  swap1\n  pop\n    /* \"#utility.yul\":7593:7700   */\n  swap3\n  swap2\n  pop\n  pop\n  jump\t// out\n    /* \"#utility.yul\":7706:8099   */\ntag_60:\n    /* \"#utility.yul\":7775:7781   */\n  0x00\n    /* \"#utility.yul\":7825:7826   */\n  0x08\n    /* \"#utility.yul\":7813:7823   */\n  dup4\n    /* \"#utility.yul\":7809:7827   */\n  mul\n    /* \"#utility.yul\":7848:7945   */\n  tag_159\n    /* \"#utility.yul\":7878:7944   */\n  0xffffffffffffffffffffffffffffffffffffffffffffffffffffffffffffffff\n    /* \"#utility.yul\":7867:7876   */\n  dup3\n    /* \"#utility.yul\":7848:7945   */\n  tag_59\n  jump\t// in\ntag_159:\n    /* \"#utility.yul\":7966:8005   */\n  tag_160\n    /* \"#utility.yul\":7996:8004   */\n  dup7\n    /* \"#utility.yul\":7985:7994   */\n  dup4\n    /* \"#utility.yul\":7966:8005   */\n  tag_59\n  jump\t// in\ntag_160:\n    /* \"#utility.yul\":7954:8005   */\n  swap6\n  pop\n    /* \"#utility.yul\":8038:8042   */\n  dup1\n    /* \"#utility.yul\":8034:8043   */\n  not\n    /* \"#utility.yul\":8027:8032   */\n  dup5\n    /* \"#utility.yul\":8023:8044   */\n  and\n    /* \"#utility.yul\":8014:8044   */\n  swap4\n  pop\n    /* \"#utility.yul\":8087:8091   */\n  dup1\n    /* \"#utility.yul\":8077:8085   */\n  dup7\n    /* \"#utility.yul\":8073:8092   */\n  and\n    /* \"#utility.yul\":8066:8071   */\n  dup5\n    /* \"#utility.yul\":8063:8093   */\n  or\n    /* \"#utility.yul\":8053:8093   */\n  swap3\n  pop\n    /* \"#utility.yul\":7782:8099   */\n  pop\n  pop\n    /* \"#utility.yul\":7706:8099   */\n  swap4\n  swap3\n  pop\n  pop\n  pop\n  jump\t// out\n    /* \"#utility.yul\":8105:8182   */\ntag_61:\n    /* \"#utility.yul\":8142:8149   */\n  0x00\n    /* \"#utility.yul\":8171:8176   */\n  dup2\n    /* \"#utility.yul\":8160:8176   */\n  swap1\n  pop\n    /* \"#utility.yul\":8105:8182   */\n  swap2\n  swap1\n  pop\n  jump\t// out\n    /* \"#utility.yul\":8188:8248   */\ntag_62:\n    /* \"#utility.yul\":8216:8219   */\n  0x00\n    /* \"#utility.yul\":8237:8242   */\n  dup2\n    /* \"#utility.yul\":8230:8242   */\n  swap1\n  pop\n    /* \"#utility.yul\":8188:8248   */\n  swap2\n  swap1\n  pop\n  jump\t// out\n    /* \"#utility.yul\":8254:8396   */\ntag_63:\n    /* \"#utility.yul\":8304:8313   */\n  0x00\n    /* \"#utility.yul\":8337:8390   */\n  tag_164\n    /* \"#utility.yul\":8355:8389   */\n  tag_165\n    /* \"#utility.yul\":8364:8388   */\n  tag_166\n    /* \"#utility.yul\":8382:8387   */\n  dup5\n    /* \"#utility.yul\":8364:8388   */\n  tag_61\n  jump\t// in\ntag_166:\n    /* \"#utility.yul\":8355:8389   */\n  tag_62\n  jump\t// in\ntag_165:\n    /* \"#utility.yul\":8337:8390   */\n  tag_61\n  jump\t// in\ntag_164:\n    /* \"#utility.yul\":8324:8390   */\n  swap1\n  pop\n    /* \"#utility.yul\":8254:8396   */\n  swap2\n  swap1\n  pop\n  jump\t// out\n    /* \"#utility.yul\":8402:8477   */\ntag_64:\n    /* \"#utility.yul\":8445:8448   */\n  0x00\n    /* \"#utility.yul\":8466:8471   */\n  dup2\n    /* \"#utility.yul\":8459:8471   */\n  swap1\n  pop\n    /* \"#utility.yul\":8402:8477   */\n  swap2\n  swap1\n  pop\n  jump\t// out\n    /* \"#utility.yul\":8483:8752   */\ntag_65:\n    /* \"#utility.yul\":8593:8632   */\n  tag_169\n    /* \"#utility.yul\":8624:8631   */\n  dup4\n    /* \"#utility.yul\":8593:8632   */\n  tag_63\n  jump\t// in\ntag_169:\n    /* \"#utility.yul\":8654:8745   */\n  tag_170\n    /* \"#utility.yul\":8703:8744   */\n  tag_171\n    /* \"#utility.yul\":8727:8743   */\n  dup3\n    /* \"#utility.yul\":8703:8744   */\n  tag_64\n  jump\t// in\ntag_171:\n    /* \"#utility.yul\":8695:8701   */\n  dup5\n    /* \"#utility.yul\":8688:8692   */\n  dup5\n    /* \"#utility.yul\":8682:8693   */\n  sload\n    /* \"#utility.yul\":8654:8745   */\n  tag_60\n  jump\t// in\ntag_170:\n    /* \"#utility.yul\":8648:8652   */\n  dup3\n    /* \"#utility.yul\":8641:8746   */\n  sstore\n    /* \"#utility.yul\":8559:8752   */\n  pop\n    /* \"#utility.yul\":8483:8752   */\n  pop\n  pop\n  pop\n  jump\t// out\n    /* \"#utility.yul\":8758:8831   */\ntag_66:\n    /* \"#utility.yul\":8803:8806   */\n  0x00\n    /* \"#utility.yul\":8758:8831   */\n  swap1\n  jump\t// out\n    /* \"#utility.yul\":8837:9026   */\ntag_67:\n    /* \"#utility.yul\":8914:8946   */\n  tag_174\n  tag_66\n  jump\t// in\ntag_174:\n    /* \"#utility.yul\":8955:9020   */\n  tag_175\n    /* \"#utility.yul\":9013:9019   */\n  dup2\n    /* \"#utility.yul\":9005:9011   */\n  dup5\n    /* \"#utility.yul\":8999:9003   */\n  dup5\n    /* \"#utility.yul\":8955:9020   */\n  tag_65\n  jump\t// in\ntag_175:\n    /* \"#utility.yul\":8890:9026   */\n  pop\n    /* \"#utility.yul\":8837:9026   */\n  pop\n  pop\n  jump\t// out\n    /* \"#utility.yul\":9032:9218   */\ntag_68:\n    /* \"#utility.yul\":9092:9212   */\ntag_177:\n    /* \"#utility.yul\":9109:9112   */\n  dup2\n    /* \"#utility.yul\":9102:9107   */\n  dup2\n    /* \"#utility.yul\":9099:9113   */\n  lt\n    /* \"#utility.yul\":9092:9212   */\n  iszero\n  tag_179\n  jumpi\n    /* \"#utility.yul\":9163:9202   */\n  tag_180\n    /* \"#utility.yul\":9200:9201   */\n  0x00\n    /* \"#utility.yul\":9193:9198   */\n  dup3\n    /* \"#utility.yul\":9163:9202   */\n  tag_67\n  jump\t// in\ntag_180:\n    /* \"#utility.yul\":9136:9137   */\n  0x01\n    /* \"#utility.yul\":9129:9134   */\n  dup2\n    /* \"#utility.yul\":9125:9138   */\n  add\n    /* \"#utility.yul\":9116:9138   */\n  swap1\n  pop\n    /* \"#utility.yul\":9092:9212   */\n  jump(tag_177)\ntag_179:\n    /* \"#utility.yul\":9032:9218   */\n  pop\n  pop\n  jump\t// out\n    /* \"#utility.yul\":9224:9767   */\ntag_69:\n    /* \"#utility.yul\":9325:9327   */\n  0x1f\n    /* \"#utility.yul\":9320:9323   */\n  dup3\n    /* \"#utility.yul\":9317:9328   */\n  gt\n    /* \"#utility.yul\":9314:9760   */\n  iszero\n  tag_182\n  jumpi\n    /* \"#utility.yul\":9359:9397   */\n  tag_183\n    /* \"#utility.yul\":9391:9396   */\n  dup2\n    /* \"#utility.yul\":9359:9397   */\n  tag_57\n  jump\t// in\ntag_183:\n    /* \"#utility.yul\":9443:9472   */\n  tag_184\n    /* \"#utility.yul\":9461:9471   */\n  dup5\n    /* \"#utility.yul\":9443:9472   */\n  tag_58\n  jump\t// in\ntag_184:\n    /* \"#utility.yul\":9433:9441   */\n  dup2\n    /* \"#utility.yul\":9429:9473   */\n  add\n    /* \"#utility.yul\":9626:9628   */\n  0x20\n    /* \"#utility.yul\":9614:9624   */\n  dup6\n    /* \"#utility.yul\":9611:9629   */\n  lt\n    /* \"#utility.yul\":9608:9657   */\n  iszero\n  tag_185\n  jumpi\n    /* \"#utility.yul\":9647:9655   */\n  dup2\n    /* \"#utility.yul\":9632:9655   */\n  swap1\n  pop\n    /* \"#utility.yul\":9608:9657   */\ntag_185:\n    /* \"#utility.yul\":9670:9750   */\n  tag_186\n    /* \"#utility.yul\":9726:9748   */\n  tag_187\n    /* \"#utility.yul\":9744:9747   */\n  dup6\n    /* \"#utility.yul\":9726:9748   */\n  tag_58\n  jump\t// in\ntag_187:\n    /* \"#utility.yul\":9716:9724   */\n  dup4\n    /* \"#utility.yul\":9712:9749   */\n  add\n    /* \"#utility.yul\":9699:9710   */\n  dup3\n    /* \"#utility.yul\":9670:9750   */\n  tag_68\n  jump\t// in\ntag_186:\n    /* \"#utility.yul\":9329:9760   */\n  pop\n  pop\n    /* \"#utility.yul\":9314:9760   */\ntag_182:\n    /* \"#utility.yul\":9224:9767   */\n  pop\n  pop\n  pop\n  jump\t// out\n    /* \"#utility.yul\":9773:9890   */\ntag_70:\n    /* \"#utility.yul\":9827:9835   */\n  0x00\n    /* \"#utility.yul\":9877:9882   */\n  dup3\n    /* \"#utility.yul\":9871:9875   */\n  dup3\n    /* \"#utility.yul\":9867:9883   */\n  shr\n    /* \"#utility.yul\":9846:9883   */\n  swap1\n  pop\n    /* \"#utility.yul\":9773:9890   */\n  swap3\n  swap2\n  pop\n  pop\n  jump\t// out\n    /* \"#utility.yul\":9896:10065   */\ntag_71:\n    /* \"#utility.yul\":9940:9946   */\n  0x00\n    /* \"#utility.yul\":9973:10024   */\n  tag_190\n    /* \"#utility.yul\":10021:10022   */\n  0x00\n    /* \"#utility.yul\":10017:10023   */\n  not\n    /* \"#utility.yul\":10009:10014   */\n  dup5\n    /* \"#utility.yul\":10006:10007   */\n  0x08\n    /* \"#utility.yul\":10002:10015   */\n  mul\n    /* \"#utility.yul\":9973:10024   */\n  tag_70\n  jump\t// in\ntag_190:\n    /* \"#utility.yul\":9969:10025   */\n  not\n    /* \"#utility.yul\":10054:10058   */\n  dup1\n    /* \"#utility.yul\":10048:10052   */\n  dup4\n    /* \"#utility.yul\":10044:10059   */\n  and\n    /* \"#utility.yul\":10034:10059   */\n  swap2\n  pop\n    /* \"#utility.yul\":9947:10065   */\n  pop\n    /* \"#utility.yul\":9896:10065   */\n  swap3\n  swap2\n  pop\n  pop\n  jump\t// out\n    /* \"#utility.yul\":10070:10365   */\ntag_72:\n    /* \"#utility.yul\":10146:10150   */\n  0x00\n    /* \"#utility.yul\":10292:10321   */\n  tag_192\n    /* \"#utility.yul\":10317:10320   */\n  dup4\n    /* \"#utility.yul\":10311:10315   */\n  dup4\n    /* \"#utility.yul\":10292:10321   */\n  tag_71\n  jump\t// in\ntag_192:\n    /* \"#utility.yul\":10284:10321   */\n  swap2\n  pop\n    /* \"#utility.yul\":10354:10357   */\n  dup3\n    /* \"#utility.yul\":10351:10352   */\n  0x02\n    /* \"#utility.yul\":10347:10358   */\n  mul\n    /* \"#utility.yul\":10341:10345   */\n  dup3\n    /* \"#utility.yul\":10338:10359   */\n  or\n    /* \"#utility.yul\":10330:10359   */\n  swap1\n  pop\n    /* \"#utility.yul\":10070:10365   */\n  swap3\n  swap2\n  pop\n  pop\n  jump\t// out\n    /* \"#utility.yul\":10370:11765   */\ntag_7:\n    /* \"#utility.yul\":10487:10524   */\n  tag_194\n    /* \"#utility.yul\":10520:10523   */\n  dup3\n    /* \"#utility.yul\":10487:10524   */\n  tag_55\n  jump\t// in\ntag_194:\n    /* \"#utility.yul\":10589:10607   */\n  0xffffffffffffffff\n    /* \"#utility.yul\":10581:10587   */\n  dup2\n    /* \"#utility.yul\":10578:10608   */\n  gt\n    /* \"#utility.yul\":10575:10631   */\n  iszero\n  tag_195\n  jumpi\n    /* \"#utility.yul\":10611:10629   */\n  tag_196\n  tag_42\n  jump\t// in\ntag_196:\n    /* \"#utility.yul\":10575:10631   */\ntag_195:\n    /* \"#utility.yul\":10655:10693   */\n  tag_197\n    /* \"#utility.yul\":10687:10691   */\n  dup3\n    /* \"#utility.yul\":10681:10692   */\n  sload\n    /* \"#utility.yul\":10655:10693   */\n  tag_25\n  jump\t// in\ntag_197:\n    /* \"#utility.yul\":10740:10807   */\n  tag_198\n    /* \"#utility.yul\":10800:10806   */\n  dup3\n    /* \"#utility.yul\":10792:10798   */\n  dup3\n    /* \"#utility.yul\":10786:10790   */\n  dup6\n    /* \"#utility.yul\":10740:10807   */\n  tag_69\n  jump\t// in\ntag_198:\n    /* \"#utility.yul\":10834:10835   */\n  0x00\n    /* \"#utility.yul\":10858:10862   */\n  0x20\n    /* \"#utility.yul\":10845:10862   */\n  swap1\n  pop\n    /* \"#utility.yul\":10890:10892   */\n  0x1f\n    /* \"#utility.yul\":10882:10888   */\n  dup4\n    /* \"#utility.yul\":10879:10893   */\n  gt\n    /* \"#utility.yul\":10907:10908   */\n  0x01\n    /* \"#utility.yul\":10902:11520   */\n  dup2\n  eq\n  tag_200\n  jumpi\n    /* \"#utility.yul\":11564:11565   */\n  0x00\n    /* \"#utility.yul\":11581:11587   */\n  dup5\n    /* \"#utility.yul\":11578:11655   */\n  iszero\n  tag_201\n  jumpi\n    /* \"#utility.yul\":11630:11639   */\n  dup3\n    /* \"#utility.yul\":11625:11628   */\n  dup8\n    /* \"#utility.yul\":11621:11640   */\n  add\n    /* \"#utility.yul\":11615:11641   */\n  mload\n    /* \"#utility.yul\":11606:11641   */\n  swap1\n  pop\n    /* \"#utility.yul\":11578:11655   */\ntag_201:\n    /* \"#utility.yul\":11681:11748   */\n  tag_202\n    /* \"#utility.yul\":11741:11747   */\n  dup6\n    /* \"#utility.yul\":11734:11739   */\n  dup3\n    /* \"#utility.yul\":11681:11748   */\n  tag_72\n  jump\t// in\ntag_202:\n    /* \"#utility.yul\":11675:11679   */\n  dup7\n    /* \"#utility.yul\":11668:11749   */\n  sstore\n    /* \"#utility.yul\":11537:11759   */\n  pop\n    /* \"#utility.yul\":10872:11759   */\n  jump(tag_199)\n    /* \"#utility.yul\":10902:11520   */\ntag_200:\n    /* \"#utility.yul\":10954:10958   */\n  0x1f\n    /* \"#utility.yul\":10950:10959   */\n  not\n    /* \"#utility.yul\":10942:10948   */\n  dup5\n    /* \"#utility.yul\":10938:10960   */\n  and\n    /* \"#utility.yul\":10988:11025   */\n  tag_203\n    /* \"#utility.yul\":11020:11024   */\n  dup7\n    /* \"#utility.yul\":10988:11025   */\n  tag_57\n  jump\t// in\ntag_203:\n    /* \"#utility.yul\":11047:11048   */\n  0x00\n    /* \"#utility.yul\":11061:11269   */\ntag_204:\n    /* \"#utility.yul\":11075:11082   */\n  dup3\n    /* \"#utility.yul\":11072:11073   */\n  dup2\n    /* \"#utility.yul\":11069:11083   */\n  lt\n    /* \"#utility.yul\":11061:11269   */\n  iszero\n  tag_206\n  jumpi\n    /* \"#utility.yul\":11154:11163   */\n  dup5\n    /* \"#utility.yul\":11149:11152   */\n  dup10\n    /* \"#utility.yul\":11145:11164   */\n  add\n    /* \"#utility.yul\":11139:11165   */\n  mload\n    /* \"#utility.yul\":11131:11137   */\n  dup3\n    /* \"#utility.yul\":11124:11166   */\n  sstore\n    /* \"#utility.yul\":11205:11206   */\n  0x01\n    /* \"#utility.yul\":11197:11203   */\n  dup3\n    /* \"#utility.yul\":11193:11207   */\n  add\n    /* \"#utility.yul\":11183:11207   */\n  swap2\n  pop\n    /* \"#utility.yul\":11252:11254   */\n  0x20\n    /* \"#utility.yul\":11241:11250   */\n  dup6\n    /* \"#utility.yul\":11237:11255   */\n  add\n    /* \"#utility.yul\":11224:11255   */\n  swap5\n  pop\n    /* \"#utility.yul\":11098:11102   */\n  0x20\n    /* \"#utility.yul\":11095:11096   */\n  dup2\n    /* \"#utility.yul\":11091:11103   */\n  add\n    /* \"#utility.yul\":11086:11103   */\n  swap1\n  pop\n    /* \"#utility.yul\":11061:11269   */\n  jump(tag_204)\ntag_206:\n    /* \"#utility.yul\":11297:11303   */\n  dup7\n    /* \"#utility.yul\":11288:11295   */\n  dup4\n    /* \"#utility.yul\":11285:11304   */\n  lt\n    /* \"#utility.yul\":11282:11461   */\n  iszero\n  tag_207\n  jumpi\n    /* \"#utility.yul\":11355:11364   */\n  dup5\n    /* \"#utility.yul\":11350:11353   */\n  dup10\n    /* \"#utility.yul\":11346:11365   */\n  add\n    /* \"#utility.yul\":11340:11366   */\n  mload\n    /* \"#utility.yul\":11398:11446   */\n  tag_208\n    /* \"#utility.yul\":11440:11444   */\n  0x1f\n    /* \"#utility.yul\":11432:11438   */\n  dup10\n    /* \"#utility.yul\":11428:11445   */\n  and\n    /* \"#utility.yul\":11417:11426   */\n  dup3\n    /* \"#utility.yul\":11398:11446   */\n  tag_71\n  jump\t// in\ntag_208:\n    /* \"#utility.yul\":11390:11396   */\n  dup4\n    /* \"#utility.yul\":11383:11447   */\n  sstore\n    /* \"#utility.yul\":11305:11461   */\n  pop\n    /* \"#utility.yul\":11282:11461   */\ntag_207:\n    /* \"#utility.yul\":11507:11508   */\n  0x01\n    /* \"#utility.yul\":11503:11504   */\n  0x02\n    /* \"#utility.yul\":11495:11501   */\n  dup9\n    /* \"#utility.yul\":11491:11505   */\n  mul\n    /* \"#utility.yul\":11487:11509   */\n  add\n    /* \"#utility.yul\":11481:11485   */\n  dup9\n    /* \"#utility.yul\":11474:11510   */\n  sstore\n    /* \"#utility.yul\":10909:11520   */\n  pop\n  pop\n  pop\n    /* \"#utility.yul\":10872:11759   */\ntag_199:\n  pop\n    /* \"#utility.yul\":10462:11765   */\n  pop\n  pop\n  pop\n    /* \"#utility.yul\":10370:11765   */\n  pop\n  pop\n  jump\t// out\n    /* \"#utility.yul\":11771:11951   */\ntag_12:\n    /* \"#utility.yul\":11819:11896   */\n  0x4e487b7100000000000000000000000000000000000000000000000000000000\n    /* \"#utility.yul\":11816:11817   */\n  0x00\n    /* \"#utility.yul\":11809:11897   */\n  mstore\n    /* \"#utility.yul\":11916:11920   */\n  0x21\n    /* \"#utility.yul\":11913:11914   */\n  0x04\n    /* \"#utility.yul\":11906:11921   */\n  mstore\n    /* \"#utility.yul\":11940:11944   */\n  0x24\n    /* \"#utility.yul\":11937:11938   */\n  0x00\n    /* \"#utility.yul\":11930:11945   */\n  revert\n    /* \"Voting.sol\":2617:5755  contract Voting {... */\ntag_13:\n  dataSize(sub_0)\n  dup1\n  dataOffset(sub_0)\n  0x00\n  codecopy\n  0x00\n  return\nstop\n\nsub_0: assembly {\n        /* \"Voting.sol\":2617:5755  contract Voting {... */\n      mstore(0x40, 0x80)\n      callvalue\n      dup1\n      iszero\n      tag_1\n      jumpi\n      0x00\n      dup1\n      revert\n    tag_1:\n      pop\n      jumpi(tag_2, lt(calldatasize, 0x04))\n      shr(0xe0, calldataload(0x00))\n      dup1\n      0x98c07938\n      gt\n      tag_19\n      jumpi\n      dup1\n      0xc0f2a777\n      gt\n      tag_20\n      jumpi\n      dup1\n      0xc0f2a777\n      eq\n      tag_15\n      jumpi\n      dup1\n      0xc631b292\n      eq\n      tag_16\n      jumpi\n      dup1\n      0xcc2ee196\n      eq\n      tag_17\n      jumpi\n      dup1\n      0xfc36e15b\n      eq\n      tag_18\n      jumpi\n      jump(tag_2)\n    tag_20:\n      dup1\n      0x98c07938\n      eq\n      tag_11\n      jumpi\n      dup1\n      0xa3ec138d\n      eq\n      tag_12\n      jumpi\n      dup1\n      0xa4d4334a\n      eq\n      tag_13\n      jumpi\n      dup1\n      0xbf63a577\n      eq\n      tag_14\n      jumpi\n      jump(tag_2)\n    tag_19:\n      dup1\n      0x409e2205\n      gt\n      tag_21\n      jumpi\n      dup1\n      0x409e2205\n      eq\n      tag_7\n      jumpi\n      dup1\n      0x57c9d738\n      eq\n      tag_8\n      jumpi\n      dup1\n      0x597e1fb5\n      eq\n      tag_9\n      jumpi\n      dup1\n      0x889ae9f2\n      eq\n      tag_10\n      jumpi\n      jump(tag_2)\n    tag_21:\n      dup1\n      0x02d05d3f\n      eq\n      tag_3\n      jumpi\n      dup1\n      0x19ad7cd2\n      eq\n      tag_4\n      jumpi\n      dup1\n      0x1ee1f800\n      eq\n      tag_5\n      jumpi\n      dup1\n      0x4051ddac\n      eq\n      tag_6\n      jumpi\n    tag_2:\n      0x00\n      dup1\n      revert\n        /* \"Voting.sol\":2640:2662  address public creator */\n    tag_3:\n      tag_22\n      tag_23\n      jump\t// in\n    tag_22:\n      mload(0x40)\n      tag_24\n      swap2\n      swap1\n      tag_25\n      jump\t// in\n    tag_24:\n      mload(0x40)\n      dup1\n      swap2\n      sub\n      swap1\n      return\n        /* \"Voting.sol\":2798:2841  mapping(string => uint) public optionsVotes */\n    tag_4:\n      tag_26\n      0x04\n      dup1\n      calldatasize\n      sub\n      dup2\n      add\n      swap1\n      tag_27\n      swap2\n      swap1\n      tag_28\n      jump\t// in\n    tag_27:\n      tag_29\n      jump\t// in\n    tag_26:\n      mload(0x40)\n      tag_30\n      swap2\n      swap1\n      tag_31\n      jump\t// in\n    tag_30:\n      mload(0x40)\n      dup1\n      swap2\n      sub\n      swap1\n      return\n        /* \"Voting.sol\":2948:2972  Audience public audience */\n    tag_5:\n      tag_32\n      tag_33\n      jump\t// in\n    tag_32:\n      mload(0x40)\n      tag_34\n      swap2\n      swap1\n      tag_35\n      jump\t// in\n    tag_34:\n      mload(0x40)\n      dup1\n      swap2\n      sub\n      swap1\n      return\n        /* \"Voting.sol\":4754:5026  function getSummary() public view returns (... */\n    tag_6:\n      tag_36\n      tag_37\n      jump\t// in\n    tag_36:\n      mload(0x40)\n      tag_38\n      swap6\n      swap5\n      swap4\n      swap3\n      swap2\n      swap1\n      tag_39\n      jump\t// in\n    tag_38:\n      mload(0x40)\n      dup1\n      swap2\n      sub\n      swap1\n      return\n        /* \"Voting.sol\":2768:2791  string[] public options */\n    tag_7:\n      tag_40\n      0x04\n      dup1\n      calldatasize\n      sub\n      dup2\n      add\n      swap1\n      tag_41\n      swap2\n      swap1\n      tag_42\n      jump\t// in\n    tag_41:\n      tag_43\n      jump\t// in\n    tag_40:\n      mload(0x40)\n      tag_44\n      swap2\n      swap1\n      tag_45\n      jump\t// in\n    tag_44:\n      mload(0x40)\n      dup1\n      swap2\n      sub\n      swap1\n      return\n        /* \"Voting.sol\":5135:5254  function getOptionVotes(string memory option) public view returns (uint) {... */\n    tag_8:\n      tag_46\n      0x04\n      dup1\n      calldatasize\n      sub\n      dup2\n      add\n      swap1\n      tag_47\n      swap2\n      swap1\n      tag_28\n      jump\t// in\n    tag_47:\n      tag_48\n      jump\t// in\n    tag_46:\n      mload(0x40)\n      tag_49\n      swap2\n      swap1\n      tag_31\n      jump\t// in\n    tag_49:\n      mload(0x40)\n      dup1\n      swap2\n      sub\n      swap1\n      return\n        /* \"Voting.sol\":2923:2941  bool public closed */\n    tag_9:\n      tag_50\n      tag_51\n      jump\t// in\n    tag_50:\n      mload(0x40)\n      tag_52\n      swap2\n      swap1\n      tag_53\n      jump\t// in\n    tag_52:\n      mload(0x40)\n      dup1\n      swap2\n      sub\n      swap1\n      return\n        /* \"Voting.sol\":5462:5752  function getAudienceToString() public view returns(string memory){... */\n    tag_10:\n      tag_54\n      tag_55\n      jump\t// in\n    tag_54:\n      mload(0x40)\n      tag_56\n      swap2\n      swap1\n      tag_45\n      jump\t// in\n    tag_56:\n      mload(0x40)\n      dup1\n      swap2\n      sub\n      swap1\n      return\n        /* \"Voting.sol\":2893:2916  uint public votersCount */\n    tag_11:\n      tag_57\n      tag_58\n      jump\t// in\n    tag_57:\n      mload(0x40)\n      tag_59\n      swap2\n      swap1\n      tag_31\n      jump\t// in\n    tag_59:\n      mload(0x40)\n      dup1\n      swap2\n      sub\n      swap1\n      return\n        /* \"Voting.sol\":2848:2886  mapping(address => bool) public voters */\n    tag_12:\n      tag_60\n      0x04\n      dup1\n      calldatasize\n      sub\n      dup2\n      add\n      swap1\n      tag_61\n      swap2\n      swap1\n      tag_62\n      jump\t// in\n    tag_61:\n      tag_63\n      jump\t// in\n    tag_60:\n      mload(0x40)\n      tag_64\n      swap2\n      swap1\n      tag_53\n      jump\t// in\n    tag_64:\n      mload(0x40)\n      dup1\n      swap2\n      sub\n      swap1\n      return\n        /* \"Voting.sol\":5360:5454  function getOptionsCount() public view returns (uint) {... */\n    tag_13:\n      tag_65\n      tag_66\n      jump\t// in\n    tag_65:\n      mload(0x40)\n      tag_67\n      swap2\n      swap1\n      tag_31\n      jump\t// in\n    tag_67:\n      mload(0x40)\n      dup1\n      swap2\n      sub\n      swap1\n      return\n        /* \"Voting.sol\":2742:2761  string public topic */\n    tag_14:\n      tag_68\n      tag_69\n      jump\t// in\n    tag_68:\n      mload(0x40)\n      tag_70\n      swap2\n      swap1\n      tag_45\n      jump\t// in\n    tag_70:\n      mload(0x40)\n      dup1\n      swap2\n      sub\n      swap1\n      return\n        /* \"Voting.sol\":5262:5352  function getVotersCount() public view returns (uint) {... */\n    tag_15:\n      tag_71\n      tag_72\n      jump\t// in\n    tag_71:\n      mload(0x40)\n      tag_73\n      swap2\n      swap1\n      tag_31\n      jump\t// in\n    tag_73:\n      mload(0x40)\n      dup1\n      swap2\n      sub\n      swap1\n      return\n        /* \"Voting.sol\":4618:4746  function closeVoting() public restricted {... */\n    tag_16:\n      tag_74\n      tag_75\n      jump\t// in\n    tag_74:\n      stop\n        /* \"Voting.sol\":5034:5127  function getOptions() public view returns (string[] memory) {... */\n    tag_17:\n      tag_76\n      tag_77\n      jump\t// in\n    tag_76:\n      mload(0x40)\n      tag_78\n      swap2\n      swap1\n      tag_79\n      jump\t// in\n    tag_78:\n      mload(0x40)\n      dup1\n      swap2\n      sub\n      swap1\n      return\n        /* \"Voting.sol\":4000:4610  function vote(string memory option) public onlyByAudience() {... */\n    tag_18:\n      tag_80\n      0x04\n      dup1\n      calldatasize\n      sub\n      dup2\n      add\n      swap1\n      tag_81\n      swap2\n      swap1\n      tag_28\n      jump\t// in\n    tag_81:\n      tag_82\n      jump\t// in\n    tag_80:\n      stop\n        /* \"Voting.sol\":2640:2662  address public creator */\n    tag_23:\n      0x00\n      dup1\n      sload\n      swap1\n      0x0100\n      exp\n      swap1\n      div\n      0xffffffffffffffffffffffffffffffffffffffff\n      and\n      dup2\n      jump\t// out\n        /* \"Voting.sol\":2798:2841  mapping(string => uint) public optionsVotes */\n    tag_29:\n      0x05\n      dup2\n      dup1\n      mload\n      0x20\n      dup2\n      add\n      dup3\n      add\n      dup1\n      mload\n      dup5\n      dup3\n      mstore\n      0x20\n      dup4\n      add\n      0x20\n      dup6\n      add\n      keccak256\n      dup2\n      dup4\n      mstore\n      dup1\n      swap6\n      pop\n      pop\n      pop\n      pop\n      pop\n      pop\n      0x00\n      swap2\n      pop\n      swap1\n      pop\n      sload\n      dup2\n      jump\t// out\n        /* \"Voting.sol\":2948:2972  Audience public audience */\n    tag_33:\n      0x08\n      0x01\n      swap1\n      sload\n      swap1\n      0x0100\n      exp\n      swap1\n      div\n      0xff\n      and\n      dup2\n      jump\t// out\n        /* \"Voting.sol\":4754:5026  function getSummary() public view returns (... */\n    tag_37:\n        /* \"Voting.sol\":4807:4814  address */\n      0x00\n        /* \"Voting.sol\":4816:4829  string memory */\n      0x60\n        /* \"Voting.sol\":4831:4835  uint */\n      0x00\n        /* \"Voting.sol\":4837:4841  bool */\n      dup1\n        /* \"Voting.sol\":4843:4856  string memory */\n      0x60\n        /* \"Voting.sol\":4897:4904  creator */\n      0x00\n      dup1\n      sload\n      swap1\n      0x0100\n      exp\n      swap1\n      div\n      0xffffffffffffffffffffffffffffffffffffffff\n      and\n        /* \"Voting.sol\":4919:4924  topic */\n      0x03\n        /* \"Voting.sol\":4939:4950  votersCount */\n      sload(0x07)\n        /* \"Voting.sol\":4965:4971  closed */\n      0x08\n      0x00\n      swap1\n      sload\n      swap1\n      0x0100\n      exp\n      swap1\n      div\n      0xff\n      and\n        /* \"Voting.sol\":4986:5007  getAudienceToString() */\n      tag_84\n        /* \"Voting.sol\":4986:5005  getAudienceToString */\n      tag_55\n        /* \"Voting.sol\":4986:5007  getAudienceToString() */\n      jump\t// in\n    tag_84:\n        /* \"Voting.sol\":4875:5018  return (... */\n      dup4\n      dup1\n      sload\n      tag_85\n      swap1\n      tag_86\n      jump\t// in\n    tag_85:\n      dup1\n      0x1f\n      add\n      0x20\n      dup1\n      swap2\n      div\n      mul\n      0x20\n      add\n      mload(0x40)\n      swap1\n      dup2\n      add\n      0x40\n      mstore\n      dup1\n      swap3\n      swap2\n      swap1\n      dup2\n      dup2\n      mstore\n      0x20\n      add\n      dup3\n      dup1\n      sload\n      tag_87\n      swap1\n      tag_86\n      jump\t// in\n    tag_87:\n      dup1\n      iszero\n      tag_88\n      jumpi\n      dup1\n      0x1f\n      lt\n      tag_89\n      jumpi\n      0x0100\n      dup1\n      dup4\n      sload\n      div\n      mul\n      dup4\n      mstore\n      swap2\n      0x20\n      add\n      swap2\n      jump(tag_88)\n    tag_89:\n      dup3\n      add\n      swap2\n      swap1\n      0x00\n      mstore\n      keccak256(0x00, 0x20)\n      swap1\n    tag_90:\n      dup2\n      sload\n      dup2\n      mstore\n      swap1\n      0x01\n      add\n      swap1\n      0x20\n      add\n      dup1\n      dup4\n      gt\n      tag_90\n      jumpi\n      dup3\n      swap1\n      sub\n      0x1f\n      and\n      dup3\n      add\n      swap2\n    tag_88:\n      pop\n      pop\n      pop\n      pop\n      pop\n      swap4\n      pop\n      swap5\n      pop\n      swap5\n      pop\n      swap5\n      pop\n      swap5\n      pop\n      swap5\n      pop\n        /* \"Voting.sol\":4754:5026  function getSummary() public view returns (... */\n      swap1\n      swap2\n      swap3\n      swap4\n      swap5\n      jump\t// out\n        /* \"Voting.sol\":2768:2791  string[] public options */\n    tag_43:\n      0x04\n      dup2\n      dup2\n      sload\n      dup2\n      lt\n      tag_91\n      jumpi\n      0x00\n      dup1\n      revert\n    tag_91:\n      swap1\n      0x00\n      mstore\n      keccak256(0x00, 0x20)\n      add\n      0x00\n      swap2\n      pop\n      swap1\n      pop\n      dup1\n      sload\n      tag_93\n      swap1\n      tag_86\n      jump\t// in\n    tag_93:\n      dup1\n      0x1f\n      add\n      0x20\n      dup1\n      swap2\n      div\n      mul\n      0x20\n      add\n      mload(0x40)\n      swap1\n      dup2\n      add\n      0x40\n      mstore\n      dup1\n      swap3\n      swap2\n      swap1\n      dup2\n      dup2\n      mstore\n      0x20\n      add\n      dup3\n      dup1\n      sload\n      tag_94\n      swap1\n      tag_86\n      jump\t// in\n    tag_94:\n      dup1\n      iszero\n      tag_95\n      jumpi\n      dup1\n      0x1f\n      lt\n      tag_96\n      jumpi\n      0x0100\n      dup1\n      dup4\n      sload\n      div\n      mul\n      dup4\n      mstore\n      swap2\n      0x20\n      add\n      swap2\n      jump(tag_95)\n    tag_96:\n      dup3\n      add\n      swap2\n      swap1\n      0x00\n      mstore\n      keccak256(0x00, 0x20)\n      swap1\n    tag_97:\n      dup2\n      sload\n      dup2\n      mstore\n      swap1\n      0x01\n      add\n      swap1\n      0x20\n      add\n      dup1\n      dup4\n      gt\n      tag_97\n      jumpi\n      dup3\n      swap1\n      sub\n      0x1f\n      and\n      dup3\n      add\n      swap2\n    tag_95:\n      pop\n      pop\n      pop\n      pop\n      pop\n      dup2\n      jump\t// out\n        /* \"Voting.sol\":5135:5254  function getOptionVotes(string memory option) public view returns (uint) {... */\n    tag_48:\n        /* \"Voting.sol\":5202:5206  uint */\n      0x00\n        /* \"Voting.sol\":5226:5238  optionsVotes */\n      0x05\n        /* \"Voting.sol\":5239:5245  option */\n      dup3\n        /* \"Voting.sol\":5226:5246  optionsVotes[option] */\n      mload(0x40)\n      tag_99\n      swap2\n      swap1\n      tag_100\n      jump\t// in\n    tag_99:\n      swap1\n      dup2\n      mstore\n      0x20\n      add\n      mload(0x40)\n      dup1\n      swap2\n      sub\n      swap1\n      keccak256\n      sload\n        /* \"Voting.sol\":5219:5246  return optionsVotes[option] */\n      swap1\n      pop\n        /* \"Voting.sol\":5135:5254  function getOptionVotes(string memory option) public view returns (uint) {... */\n      swap2\n      swap1\n      pop\n      jump\t// out\n        /* \"Voting.sol\":2923:2941  bool public closed */\n    tag_51:\n      0x08\n      0x00\n      swap1\n      sload\n      swap1\n      0x0100\n      exp\n      swap1\n      div\n      0xff\n      and\n      dup2\n      jump\t// out\n        /* \"Voting.sol\":5462:5752  function getAudienceToString() public view returns(string memory){... */\n    tag_55:\n        /* \"Voting.sol\":5513:5526  string memory */\n      0x60\n        /* \"Voting.sol\":5553:5570  Audience.students */\n      0x00\n        /* \"Voting.sol\":5541:5570  audience == Audience.students */\n      0x02\n      dup2\n      gt\n      iszero\n      tag_102\n      jumpi\n      tag_103\n      tag_104\n      jump\t// in\n    tag_103:\n    tag_102:\n        /* \"Voting.sol\":5541:5549  audience */\n      0x08\n      0x01\n      swap1\n      sload\n      swap1\n      0x0100\n      exp\n      swap1\n      div\n      0xff\n      and\n        /* \"Voting.sol\":5541:5570  audience == Audience.students */\n      0x02\n      dup2\n      gt\n      iszero\n      tag_105\n      jumpi\n      tag_106\n      tag_104\n      jump\t// in\n    tag_106:\n    tag_105:\n      sub\n        /* \"Voting.sol\":5538:5745  if(audience == Audience.students){... */\n      tag_107\n      jumpi\n        /* \"Voting.sol\":5586:5603  return \"students\" */\n      mload(0x40)\n      dup1\n      0x40\n      add\n      0x40\n      mstore\n      dup1\n      0x08\n      dup2\n      mstore\n      0x20\n      add\n      0x73747564656e7473000000000000000000000000000000000000000000000000\n      dup2\n      mstore\n      pop\n      swap1\n      pop\n      jump(tag_101)\n        /* \"Voting.sol\":5538:5745  if(audience == Audience.students){... */\n    tag_107:\n        /* \"Voting.sol\":5636:5654  Audience.employees */\n      0x01\n        /* \"Voting.sol\":5624:5654  audience == Audience.employees */\n      0x02\n      dup2\n      gt\n      iszero\n      tag_109\n      jumpi\n      tag_110\n      tag_104\n      jump\t// in\n    tag_110:\n    tag_109:\n        /* \"Voting.sol\":5624:5632  audience */\n      0x08\n      0x01\n      swap1\n      sload\n      swap1\n      0x0100\n      exp\n      swap1\n      div\n      0xff\n      and\n        /* \"Voting.sol\":5624:5654  audience == Audience.employees */\n      0x02\n      dup2\n      gt\n      iszero\n      tag_111\n      jumpi\n      tag_112\n      tag_104\n      jump\t// in\n    tag_112:\n    tag_111:\n      sub\n        /* \"Voting.sol\":5621:5745  if(audience == Audience.employees){... */\n      tag_113\n      jumpi\n        /* \"Voting.sol\":5670:5688  return \"employees\" */\n      mload(0x40)\n      dup1\n      0x40\n      add\n      0x40\n      mstore\n      dup1\n      0x09\n      dup2\n      mstore\n      0x20\n      add\n      0x656d706c6f796565730000000000000000000000000000000000000000000000\n      dup2\n      mstore\n      pop\n      swap1\n      pop\n      jump(tag_101)\n        /* \"Voting.sol\":5621:5745  if(audience == Audience.employees){... */\n    tag_113:\n        /* \"Voting.sol\":5721:5733  return \"all\" */\n      mload(0x40)\n      dup1\n      0x40\n      add\n      0x40\n      mstore\n      dup1\n      0x03\n      dup2\n      mstore\n      0x20\n      add\n      0x616c6c0000000000000000000000000000000000000000000000000000000000\n      dup2\n      mstore\n      pop\n      swap1\n      pop\n        /* \"Voting.sol\":5462:5752  function getAudienceToString() public view returns(string memory){... */\n    tag_101:\n      swap1\n      jump\t// out\n        /* \"Voting.sol\":2893:2916  uint public votersCount */\n    tag_58:\n      sload(0x07)\n      dup2\n      jump\t// out\n        /* \"Voting.sol\":2848:2886  mapping(address => bool) public voters */\n    tag_63:\n      mstore(0x20, 0x06)\n      dup1\n      0x00\n      mstore\n      keccak256(0x00, 0x40)\n      0x00\n      swap2\n      pop\n      sload\n      swap1\n      0x0100\n      exp\n      swap1\n      div\n      0xff\n      and\n      dup2\n      jump\t// out\n        /* \"Voting.sol\":5360:5454  function getOptionsCount() public view returns (uint) {... */\n    tag_66:\n        /* \"Voting.sol\":5408:5412  uint */\n      0x00\n        /* \"Voting.sol\":5432:5439  options */\n      0x04\n        /* \"Voting.sol\":5432:5446  options.length */\n      dup1\n      sload\n      swap1\n      pop\n        /* \"Voting.sol\":5425:5446  return options.length */\n      swap1\n      pop\n        /* \"Voting.sol\":5360:5454  function getOptionsCount() public view returns (uint) {... */\n      swap1\n      jump\t// out\n        /* \"Voting.sol\":2742:2761  string public topic */\n    tag_69:\n      0x03\n      dup1\n      sload\n      tag_116\n      swap1\n      tag_86\n      jump\t// in\n    tag_116:\n      dup1\n      0x1f\n      add\n      0x20\n      dup1\n      swap2\n      div\n      mul\n      0x20\n      add\n      mload(0x40)\n      swap1\n      dup2\n      add\n      0x40\n      mstore\n      dup1\n      swap3\n      swap2\n      swap1\n      dup2\n      dup2\n      mstore\n      0x20\n      add\n      dup3\n      dup1\n      sload\n      tag_117\n      swap1\n      tag_86\n      jump\t// in\n    tag_117:\n      dup1\n      iszero\n      tag_118\n      jumpi\n      dup1\n      0x1f\n      lt\n      tag_119\n      jumpi\n      0x0100\n      dup1\n      dup4\n      sload\n      div\n      mul\n      dup4\n      mstore\n      swap2\n      0x20\n      add\n      swap2\n      jump(tag_118)\n    tag_119:\n      dup3\n      add\n      swap2\n      swap1\n      0x00\n      mstore\n      keccak256(0x00, 0x20)\n      swap1\n    tag_120:\n      dup2\n      sload\n      dup2\n      mstore\n      swap1\n      0x01\n      add\n      swap1\n      0x20\n      add\n      dup1\n      dup4\n      gt\n      tag_120\n      jumpi\n      dup3\n      swap1\n      sub\n      0x1f\n      and\n      dup3\n      add\n      swap2\n    tag_118:\n      pop\n      pop\n      pop\n      pop\n      pop\n      dup2\n      jump\t// out\n        /* \"Voting.sol\":5262:5352  function getVotersCount() public view returns (uint) {... */\n    tag_72:\n        /* \"Voting.sol\":5309:5313  uint */\n      0x00\n        /* \"Voting.sol\":5333:5344  votersCount */\n      sload(0x07)\n        /* \"Voting.sol\":5326:5344  return votersCount */\n      swap1\n      pop\n        /* \"Voting.sol\":5262:5352  function getVotersCount() public view returns (uint) {... */\n      swap1\n      jump\t// out\n        /* \"Voting.sol\":4618:4746  function closeVoting() public restricted {... */\n    tag_75:\n        /* \"Voting.sol\":3036:3043  creator */\n      0x00\n      dup1\n      sload\n      swap1\n      0x0100\n      exp\n      swap1\n      div\n      0xffffffffffffffffffffffffffffffffffffffff\n      and\n        /* \"Voting.sol\":3022:3043  msg.sender == creator */\n      0xffffffffffffffffffffffffffffffffffffffff\n      and\n        /* \"Voting.sol\":3022:3032  msg.sender */\n      caller\n        /* \"Voting.sol\":3022:3043  msg.sender == creator */\n      0xffffffffffffffffffffffffffffffffffffffff\n      and\n      eq\n        /* \"Voting.sol\":3014:3083  require(msg.sender == creator, \"Only creator can call this function\") */\n      tag_123\n      jumpi\n      mload(0x40)\n      0x08c379a000000000000000000000000000000000000000000000000000000000\n      dup2\n      mstore\n      0x04\n      add\n      tag_124\n      swap1\n      tag_125\n      jump\t// in\n    tag_124:\n      mload(0x40)\n      dup1\n      swap2\n      sub\n      swap1\n      revert\n    tag_123:\n        /* \"Voting.sol\":4679:4685  closed */\n      0x08\n      0x00\n      swap1\n      sload\n      swap1\n      0x0100\n      exp\n      swap1\n      div\n      0xff\n      and\n        /* \"Voting.sol\":4678:4685  !closed */\n      iszero\n        /* \"Voting.sol\":4670:4714  require(!closed, \"Voting is already closed\") */\n      tag_127\n      jumpi\n      mload(0x40)\n      0x08c379a000000000000000000000000000000000000000000000000000000000\n      dup2\n      mstore\n      0x04\n      add\n      tag_128\n      swap1\n      tag_129\n      jump\t// in\n    tag_128:\n      mload(0x40)\n      dup1\n      swap2\n      sub\n      swap1\n      revert\n    tag_127:\n        /* \"Voting.sol\":4734:4738  true */\n      0x01\n        /* \"Voting.sol\":4725:4731  closed */\n      0x08\n      0x00\n        /* \"Voting.sol\":4725:4738  closed = true */\n      0x0100\n      exp\n      dup2\n      sload\n      dup2\n      0xff\n      mul\n      not\n      and\n      swap1\n      dup4\n      iszero\n      iszero\n      mul\n      or\n      swap1\n      sstore\n      pop\n        /* \"Voting.sol\":4618:4746  function closeVoting() public restricted {... */\n      jump\t// out\n        /* \"Voting.sol\":5034:5127  function getOptions() public view returns (string[] memory) {... */\n    tag_77:\n        /* \"Voting.sol\":5077:5092  string[] memory */\n      0x60\n        /* \"Voting.sol\":5112:5119  options */\n      0x04\n        /* \"Voting.sol\":5105:5119  return options */\n      dup1\n      sload\n      dup1\n      0x20\n      mul\n      0x20\n      add\n      mload(0x40)\n      swap1\n      dup2\n      add\n      0x40\n      mstore\n      dup1\n      swap3\n      swap2\n      swap1\n      dup2\n      dup2\n      mstore\n      0x20\n      add\n      0x00\n      swap1\n    tag_131:\n      dup3\n      dup3\n      lt\n      iszero\n      tag_132\n      jumpi\n      dup4\n      dup3\n      swap1\n      0x00\n      mstore\n      keccak256(0x00, 0x20)\n      add\n      dup1\n      sload\n      tag_134\n      swap1\n      tag_86\n      jump\t// in\n    tag_134:\n      dup1\n      0x1f\n      add\n      0x20\n      dup1\n      swap2\n      div\n      mul\n      0x20\n      add\n      mload(0x40)\n      swap1\n      dup2\n      add\n      0x40\n      mstore\n      dup1\n      swap3\n      swap2\n      swap1\n      dup2\n      dup2\n      mstore\n      0x20\n      add\n      dup3\n      dup1\n      sload\n      tag_135\n      swap1\n      tag_86\n      jump\t// in\n    tag_135:\n      dup1\n      iszero\n      tag_136\n      jumpi\n      dup1\n      0x1f\n      lt\n      tag_137\n      jumpi\n      0x0100\n      dup1\n      dup4\n      sload\n      div\n      mul\n      dup4\n      mstore\n      swap2\n      0x20\n      add\n      swap2\n      jump(tag_136)\n    tag_137:\n      dup3\n      add\n      swap2\n      swap1\n      0x00\n      mstore\n      keccak256(0x00, 0x20)\n      swap1\n    tag_138:\n      dup2\n      sload\n      dup2\n      mstore\n      swap1\n      0x01\n      add\n      swap1\n      0x20\n      add\n      dup1\n      dup4\n      gt\n      tag_138\n      jumpi\n      dup3\n      swap1\n      sub\n      0x1f\n      and\n      dup3\n      add\n      swap2\n    tag_136:\n      pop\n      pop\n      pop\n      pop\n      pop\n      dup2\n      mstore\n      0x20\n      add\n      swap1\n      0x01\n      add\n      swap1\n      jump(tag_131)\n    tag_132:\n      pop\n      pop\n      pop\n      pop\n      swap1\n      pop\n        /* \"Voting.sol\":5034:5127  function getOptions() public view returns (string[] memory) {... */\n      swap1\n      jump\t// out\n        /* \"Voting.sol\":4000:4610  function vote(string memory option) public onlyByAudience() {... */\n    tag_82:\n        /* \"Voting.sol\":3164:3176  Audience.all */\n      0x02\n        /* \"Voting.sol\":3152:3176  audience == Audience.all */\n      dup1\n      dup2\n      gt\n      iszero\n      tag_140\n      jumpi\n      tag_141\n      tag_104\n      jump\t// in\n    tag_141:\n    tag_140:\n        /* \"Voting.sol\":3152:3160  audience */\n      0x08\n      0x01\n      swap1\n      sload\n      swap1\n      0x0100\n      exp\n      swap1\n      div\n      0xff\n      and\n        /* \"Voting.sol\":3152:3176  audience == Audience.all */\n      0x02\n      dup2\n      gt\n      iszero\n      tag_142\n      jumpi\n      tag_143\n      tag_104\n      jump\t// in\n    tag_143:\n    tag_142:\n      sub\n        /* \"Voting.sol\":3148:3626  if (audience == Audience.all) {... */\n      tag_144\n      jumpi\n        /* \"Voting.sol\":3201:3208  factory */\n      0x02\n      0x00\n      swap1\n      sload\n      swap1\n      0x0100\n      exp\n      swap1\n      div\n      0xffffffffffffffffffffffffffffffffffffffff\n      and\n        /* \"Voting.sol\":3201:3218  factory.isStudent */\n      0xffffffffffffffffffffffffffffffffffffffff\n      and\n      0x82f7d392\n        /* \"Voting.sol\":3219:3229  msg.sender */\n      caller\n        /* \"Voting.sol\":3201:3230  factory.isStudent(msg.sender) */\n      mload(0x40)\n      dup3\n      0xffffffff\n      and\n      0xe0\n      shl\n      dup2\n      mstore\n      0x04\n      add\n      tag_145\n      swap2\n      swap1\n      tag_25\n      jump\t// in\n    tag_145:\n      0x20\n      mload(0x40)\n      dup1\n      dup4\n      sub\n      dup2\n      dup7\n      gas\n      staticcall\n      iszero\n      dup1\n      iszero\n      tag_147\n      jumpi\n      returndatasize\n      0x00\n      dup1\n      returndatacopy\n      revert(0x00, returndatasize)\n    tag_147:\n      pop\n      pop\n      pop\n      pop\n      mload(0x40)\n      returndatasize\n      not(0x1f)\n      0x1f\n      dup3\n      add\n      and\n      dup3\n      add\n      dup1\n      0x40\n      mstore\n      pop\n      dup2\n      add\n      swap1\n      tag_148\n      swap2\n      swap1\n      tag_149\n      jump\t// in\n    tag_148:\n        /* \"Voting.sol\":3201:3264  factory.isStudent(msg.sender) || factory.isEmployee(msg.sender) */\n      dup1\n      tag_150\n      jumpi\n      pop\n        /* \"Voting.sol\":3234:3241  factory */\n      0x02\n      0x00\n      swap1\n      sload\n      swap1\n      0x0100\n      exp\n      swap1\n      div\n      0xffffffffffffffffffffffffffffffffffffffff\n      and\n        /* \"Voting.sol\":3234:3252  factory.isEmployee */\n      0xffffffffffffffffffffffffffffffffffffffff\n      and\n      0xea66543f\n        /* \"Voting.sol\":3253:3263  msg.sender */\n      caller\n        /* \"Voting.sol\":3234:3264  factory.isEmployee(msg.sender) */\n      mload(0x40)\n      dup3\n      0xffffffff\n      and\n      0xe0\n      shl\n      dup2\n      mstore\n      0x04\n      add\n      tag_151\n      swap2\n      swap1\n      tag_25\n      jump\t// in\n    tag_151:\n      0x20\n      mload(0x40)\n      dup1\n      dup4\n      sub\n      dup2\n      dup7\n      gas\n      staticcall\n      iszero\n      dup1\n      iszero\n      tag_153\n      jumpi\n      returndatasize\n      0x00\n      dup1\n      returndatacopy\n      revert(0x00, returndatasize)\n    tag_153:\n      pop\n      pop\n      pop\n      pop\n      mload(0x40)\n      returndatasize\n      not(0x1f)\n      0x1f\n      dup3\n      add\n      and\n      dup3\n      add\n      dup1\n      0x40\n      mstore\n      pop\n      dup2\n      add\n      swap1\n      tag_154\n      swap2\n      swap1\n      tag_149\n      jump\t// in\n    tag_154:\n        /* \"Voting.sol\":3201:3264  factory.isStudent(msg.sender) || factory.isEmployee(msg.sender) */\n    tag_150:\n        /* \"Voting.sol\":3193:3319  require(factory.isStudent(msg.sender) || factory.isEmployee(msg.sender), \"Only students and employees can call this function\") */\n      tag_155\n      jumpi\n      mload(0x40)\n      0x08c379a000000000000000000000000000000000000000000000000000000000\n      dup2\n      mstore\n      0x04\n      add\n      tag_156\n      swap1\n      tag_157\n      jump\t// in\n    tag_156:\n      mload(0x40)\n      dup1\n      swap2\n      sub\n      swap1\n      revert\n    tag_155:\n        /* \"Voting.sol\":3148:3626  if (audience == Audience.all) {... */\n      jump(tag_158)\n    tag_144:\n        /* \"Voting.sol\":3353:3370  Audience.students */\n      0x00\n        /* \"Voting.sol\":3341:3370  audience == Audience.students */\n      0x02\n      dup2\n      gt\n      iszero\n      tag_159\n      jumpi\n      tag_160\n      tag_104\n      jump\t// in\n    tag_160:\n    tag_159:\n        /* \"Voting.sol\":3341:3349  audience */\n      0x08\n      0x01\n      swap1\n      sload\n      swap1\n      0x0100\n      exp\n      swap1\n      div\n      0xff\n      and\n        /* \"Voting.sol\":3341:3370  audience == Audience.students */\n      0x02\n      dup2\n      gt\n      iszero\n      tag_161\n      jumpi\n      tag_162\n      tag_104\n      jump\t// in\n    tag_162:\n    tag_161:\n      sub\n        /* \"Voting.sol\":3337:3626  if (audience == Audience.students) {... */\n      tag_163\n      jumpi\n        /* \"Voting.sol\":3395:3402  factory */\n      0x02\n      0x00\n      swap1\n      sload\n      swap1\n      0x0100\n      exp\n      swap1\n      div\n      0xffffffffffffffffffffffffffffffffffffffff\n      and\n        /* \"Voting.sol\":3395:3412  factory.isStudent */\n      0xffffffffffffffffffffffffffffffffffffffff\n      and\n      0x82f7d392\n        /* \"Voting.sol\":3413:3423  msg.sender */\n      caller\n        /* \"Voting.sol\":3395:3424  factory.isStudent(msg.sender) */\n      mload(0x40)\n      dup3\n      0xffffffff\n      and\n      0xe0\n      shl\n      dup2\n      mstore\n      0x04\n      add\n      tag_164\n      swap2\n      swap1\n      tag_25\n      jump\t// in\n    tag_164:\n      0x20\n      mload(0x40)\n      dup1\n      dup4\n      sub\n      dup2\n      dup7\n      gas\n      staticcall\n      iszero\n      dup1\n      iszero\n      tag_166\n      jumpi\n      returndatasize\n      0x00\n      dup1\n      returndatacopy\n      revert(0x00, returndatasize)\n    tag_166:\n      pop\n      pop\n      pop\n      pop\n      mload(0x40)\n      returndatasize\n      not(0x1f)\n      0x1f\n      dup3\n      add\n      and\n      dup3\n      add\n      dup1\n      0x40\n      mstore\n      pop\n      dup2\n      add\n      swap1\n      tag_167\n      swap2\n      swap1\n      tag_149\n      jump\t// in\n    tag_167:\n        /* \"Voting.sol\":3387:3465  require(factory.isStudent(msg.sender), \"Only students can call this function\") */\n      tag_168\n      jumpi\n      mload(0x40)\n      0x08c379a000000000000000000000000000000000000000000000000000000000\n      dup2\n      mstore\n      0x04\n      add\n      tag_169\n      swap1\n      tag_170\n      jump\t// in\n    tag_169:\n      mload(0x40)\n      dup1\n      swap2\n      sub\n      swap1\n      revert\n    tag_168:\n        /* \"Voting.sol\":3337:3626  if (audience == Audience.students) {... */\n      jump(tag_171)\n    tag_163:\n        /* \"Voting.sol\":3499:3517  Audience.employees */\n      0x01\n        /* \"Voting.sol\":3487:3517  audience == Audience.employees */\n      0x02\n      dup2\n      gt\n      iszero\n      tag_172\n      jumpi\n      tag_173\n      tag_104\n      jump\t// in\n    tag_173:\n    tag_172:\n        /* \"Voting.sol\":3487:3495  audience */\n      0x08\n      0x01\n      swap1\n      sload\n      swap1\n      0x0100\n      exp\n      swap1\n      div\n      0xff\n      and\n        /* \"Voting.sol\":3487:3517  audience == Audience.employees */\n      0x02\n      dup2\n      gt\n      iszero\n      tag_174\n      jumpi\n      tag_175\n      tag_104\n      jump\t// in\n    tag_175:\n    tag_174:\n      sub\n        /* \"Voting.sol\":3483:3626  if (audience == Audience.employees) {... */\n      tag_176\n      jumpi\n        /* \"Voting.sol\":3542:3549  factory */\n      0x02\n      0x00\n      swap1\n      sload\n      swap1\n      0x0100\n      exp\n      swap1\n      div\n      0xffffffffffffffffffffffffffffffffffffffff\n      and\n        /* \"Voting.sol\":3542:3560  factory.isEmployee */\n      0xffffffffffffffffffffffffffffffffffffffff\n      and\n      0xea66543f\n        /* \"Voting.sol\":3561:3571  msg.sender */\n      caller\n        /* \"Voting.sol\":3542:3572  factory.isEmployee(msg.sender) */\n      mload(0x40)\n      dup3\n      0xffffffff\n      and\n      0xe0\n      shl\n      dup2\n      mstore\n      0x04\n      add\n      tag_177\n      swap2\n      swap1\n      tag_25\n      jump\t// in\n    tag_177:\n      0x20\n      mload(0x40)\n      dup1\n      dup4\n      sub\n      dup2\n      dup7\n      gas\n      staticcall\n      iszero\n      dup1\n      iszero\n      tag_179\n      jumpi\n      returndatasize\n      0x00\n      dup1\n      returndatacopy\n      revert(0x00, returndatasize)\n    tag_179:\n      pop\n      pop\n      pop\n      pop\n      mload(0x40)\n      returndatasize\n      not(0x1f)\n      0x1f\n      dup3\n      add\n      and\n      dup3\n      add\n      dup1\n      0x40\n      mstore\n      pop\n      dup2\n      add\n      swap1\n      tag_180\n      swap2\n      swap1\n      tag_149\n      jump\t// in\n    tag_180:\n        /* \"Voting.sol\":3534:3614  require(factory.isEmployee(msg.sender), \"Only employees can call this function\") */\n      tag_181\n      jumpi\n      mload(0x40)\n      0x08c379a000000000000000000000000000000000000000000000000000000000\n      dup2\n      mstore\n      0x04\n      add\n      tag_182\n      swap1\n      tag_183\n      jump\t// in\n    tag_182:\n      mload(0x40)\n      dup1\n      swap2\n      sub\n      swap1\n      revert\n    tag_181:\n        /* \"Voting.sol\":3483:3626  if (audience == Audience.employees) {... */\n    tag_176:\n        /* \"Voting.sol\":3337:3626  if (audience == Audience.students) {... */\n    tag_171:\n        /* \"Voting.sol\":3148:3626  if (audience == Audience.all) {... */\n    tag_158:\n        /* \"Voting.sol\":4080:4086  voters */\n      0x06\n        /* \"Voting.sol\":4080:4098  voters[msg.sender] */\n      0x00\n        /* \"Voting.sol\":4087:4097  msg.sender */\n      caller\n        /* \"Voting.sol\":4080:4098  voters[msg.sender] */\n      0xffffffffffffffffffffffffffffffffffffffff\n      and\n      0xffffffffffffffffffffffffffffffffffffffff\n      and\n      dup2\n      mstore\n      0x20\n      add\n      swap1\n      dup2\n      mstore\n      0x20\n      add\n      0x00\n      keccak256\n      0x00\n      swap1\n      sload\n      swap1\n      0x0100\n      exp\n      swap1\n      div\n      0xff\n      and\n        /* \"Voting.sol\":4079:4098  !voters[msg.sender] */\n      iszero\n        /* \"Voting.sol\":4071:4125  require(!voters[msg.sender], \"You have already voted\") */\n      tag_185\n      jumpi\n      mload(0x40)\n      0x08c379a000000000000000000000000000000000000000000000000000000000\n      dup2\n      mstore\n      0x04\n      add\n      tag_186\n      swap1\n      tag_187\n      jump\t// in\n    tag_186:\n      mload(0x40)\n      dup1\n      swap2\n      sub\n      swap1\n      revert\n    tag_185:\n        /* \"Voting.sol\":4145:4151  closed */\n      0x08\n      0x00\n      swap1\n      sload\n      swap1\n      0x0100\n      exp\n      swap1\n      div\n      0xff\n      and\n        /* \"Voting.sol\":4144:4151  !closed */\n      iszero\n        /* \"Voting.sol\":4136:4172  require(!closed, \"Voting is closed\") */\n      tag_188\n      jumpi\n      mload(0x40)\n      0x08c379a000000000000000000000000000000000000000000000000000000000\n      dup2\n      mstore\n      0x04\n      add\n      tag_189\n      swap1\n      tag_190\n      jump\t// in\n    tag_189:\n      mload(0x40)\n      dup1\n      swap2\n      sub\n      swap1\n      revert\n    tag_188:\n        /* \"Voting.sol\":4183:4200  bool optionExists */\n      0x00\n        /* \"Voting.sol\":4223:4229  uint i */\n      dup1\n        /* \"Voting.sol\":4219:4447  for(uint i = 0; i < options.length; i++) {... */\n    tag_191:\n        /* \"Voting.sol\":4239:4246  options */\n      0x04\n        /* \"Voting.sol\":4239:4253  options.length */\n      dup1\n      sload\n      swap1\n      pop\n        /* \"Voting.sol\":4235:4236  i */\n      dup2\n        /* \"Voting.sol\":4235:4253  i < options.length */\n      lt\n        /* \"Voting.sol\":4219:4447  for(uint i = 0; i < options.length; i++) {... */\n      iszero\n      tag_192\n      jumpi\n        /* \"Voting.sol\":4348:4354  option */\n      dup3\n        /* \"Voting.sol\":4331:4355  abi.encodePacked(option) */\n      add(0x20, mload(0x40))\n      tag_194\n      swap2\n      swap1\n      tag_100\n      jump\t// in\n    tag_194:\n      mload(0x40)\n      0x20\n      dup2\n      dup4\n      sub\n      sub\n      dup2\n      mstore\n      swap1\n      0x40\n      mstore\n        /* \"Voting.sol\":4321:4356  keccak256(abi.encodePacked(option)) */\n      dup1\n      mload\n      swap1\n      0x20\n      add\n      keccak256\n        /* \"Voting.sol\":4305:4312  options */\n      0x04\n        /* \"Voting.sol\":4313:4314  i */\n      dup3\n        /* \"Voting.sol\":4305:4315  options[i] */\n      dup2\n      sload\n      dup2\n      lt\n      tag_195\n      jumpi\n      tag_196\n      tag_197\n      jump\t// in\n    tag_196:\n    tag_195:\n      swap1\n      0x00\n      mstore\n      keccak256(0x00, 0x20)\n      add\n        /* \"Voting.sol\":4288:4316  abi.encodePacked(options[i]) */\n      add(0x20, mload(0x40))\n      tag_199\n      swap2\n      swap1\n      tag_200\n      jump\t// in\n    tag_199:\n      mload(0x40)\n      0x20\n      dup2\n      dup4\n      sub\n      sub\n      dup2\n      mstore\n      swap1\n      0x40\n      mstore\n        /* \"Voting.sol\":4278:4317  keccak256(abi.encodePacked(options[i])) */\n      dup1\n      mload\n      swap1\n      0x20\n      add\n      keccak256\n        /* \"Voting.sol\":4278:4356  keccak256(abi.encodePacked(options[i])) == keccak256(abi.encodePacked(option)) */\n      sub\n        /* \"Voting.sol\":4275:4436  if(keccak256(abi.encodePacked(options[i])) == keccak256(abi.encodePacked(option))) {... */\n      tag_201\n      jumpi\n        /* \"Voting.sol\":4392:4396  true */\n      0x01\n        /* \"Voting.sol\":4377:4396  optionExists = true */\n      swap2\n      pop\n        /* \"Voting.sol\":4415:4420  break */\n      jump(tag_192)\n        /* \"Voting.sol\":4275:4436  if(keccak256(abi.encodePacked(options[i])) == keccak256(abi.encodePacked(option))) {... */\n    tag_201:\n        /* \"Voting.sol\":4255:4258  i++ */\n      dup1\n      dup1\n      tag_202\n      swap1\n      tag_203\n      jump\t// in\n    tag_202:\n      swap2\n      pop\n      pop\n        /* \"Voting.sol\":4219:4447  for(uint i = 0; i < options.length; i++) {... */\n      jump(tag_191)\n    tag_192:\n      pop\n        /* \"Voting.sol\":4465:4477  optionExists */\n      dup1\n        /* \"Voting.sol\":4457:4503  require(optionExists, \"Option does not exist\") */\n      tag_204\n      jumpi\n      mload(0x40)\n      0x08c379a000000000000000000000000000000000000000000000000000000000\n      dup2\n      mstore\n      0x04\n      add\n      tag_205\n      swap1\n      tag_206\n      jump\t// in\n    tag_205:\n      mload(0x40)\n      dup1\n      swap2\n      sub\n      swap1\n      revert\n    tag_204:\n        /* \"Voting.sol\":4535:4539  true */\n      0x01\n        /* \"Voting.sol\":4514:4520  voters */\n      0x06\n        /* \"Voting.sol\":4514:4532  voters[msg.sender] */\n      0x00\n        /* \"Voting.sol\":4521:4531  msg.sender */\n      caller\n        /* \"Voting.sol\":4514:4532  voters[msg.sender] */\n      0xffffffffffffffffffffffffffffffffffffffff\n      and\n      0xffffffffffffffffffffffffffffffffffffffff\n      and\n      dup2\n      mstore\n      0x20\n      add\n      swap1\n      dup2\n      mstore\n      0x20\n      add\n      0x00\n      keccak256\n      0x00\n        /* \"Voting.sol\":4514:4539  voters[msg.sender] = true */\n      0x0100\n      exp\n      dup2\n      sload\n      dup2\n      0xff\n      mul\n      not\n      and\n      swap1\n      dup4\n      iszero\n      iszero\n      mul\n      or\n      swap1\n      sstore\n      pop\n        /* \"Voting.sol\":4574:4575  1 */\n      0x01\n        /* \"Voting.sol\":4550:4562  optionsVotes */\n      0x05\n        /* \"Voting.sol\":4563:4569  option */\n      dup4\n        /* \"Voting.sol\":4550:4570  optionsVotes[option] */\n      mload(0x40)\n      tag_207\n      swap2\n      swap1\n      tag_100\n      jump\t// in\n    tag_207:\n      swap1\n      dup2\n      mstore\n      0x20\n      add\n      mload(0x40)\n      dup1\n      swap2\n      sub\n      swap1\n      keccak256\n      0x00\n        /* \"Voting.sol\":4550:4575  optionsVotes[option] += 1 */\n      dup3\n      dup3\n      sload\n      tag_208\n      swap2\n      swap1\n      tag_209\n      jump\t// in\n    tag_208:\n      swap3\n      pop\n      pop\n      dup2\n      swap1\n      sstore\n      pop\n        /* \"Voting.sol\":4601:4602  1 */\n      0x01\n        /* \"Voting.sol\":4586:4597  votersCount */\n      0x07\n      0x00\n        /* \"Voting.sol\":4586:4602  votersCount += 1 */\n      dup3\n      dup3\n      sload\n      tag_210\n      swap2\n      swap1\n      tag_209\n      jump\t// in\n    tag_210:\n      swap3\n      pop\n      pop\n      dup2\n      swap1\n      sstore\n      pop\n        /* \"Voting.sol\":4060:4610  {... */\n      pop\n        /* \"Voting.sol\":4000:4610  function vote(string memory option) public onlyByAudience() {... */\n      pop\n      jump\t// out\n        /* \"#utility.yul\":7:133   */\n    tag_211:\n        /* \"#utility.yul\":44:51   */\n      0x00\n        /* \"#utility.yul\":84:126   */\n      0xffffffffffffffffffffffffffffffffffffffff\n        /* \"#utility.yul\":77:82   */\n      dup3\n        /* \"#utility.yul\":73:127   */\n      and\n        /* \"#utility.yul\":62:127   */\n      swap1\n      pop\n        /* \"#utility.yul\":7:133   */\n      swap2\n      swap1\n      pop\n      jump\t// out\n        /* \"#utility.yul\":139:235   */\n    tag_212:\n        /* \"#utility.yul\":176:183   */\n      0x00\n        /* \"#utility.yul\":205:229   */\n      tag_278\n        /* \"#utility.yul\":223:228   */\n      dup3\n        /* \"#utility.yul\":205:229   */\n      tag_211\n      jump\t// in\n    tag_278:\n        /* \"#utility.yul\":194:229   */\n      swap1\n      pop\n        /* \"#utility.yul\":139:235   */\n      swap2\n      swap1\n      pop\n      jump\t// out\n        /* \"#utility.yul\":241:359   */\n    tag_213:\n        /* \"#utility.yul\":328:352   */\n      tag_280\n        /* \"#utility.yul\":346:351   */\n      dup2\n        /* \"#utility.yul\":328:352   */\n      tag_212\n      jump\t// in\n    tag_280:\n        /* \"#utility.yul\":323:326   */\n      dup3\n        /* \"#utility.yul\":316:353   */\n      mstore\n        /* \"#utility.yul\":241:359   */\n      pop\n      pop\n      jump\t// out\n        /* \"#utility.yul\":365:587   */\n    tag_25:\n        /* \"#utility.yul\":458:462   */\n      0x00\n        /* \"#utility.yul\":496:498   */\n      0x20\n        /* \"#utility.yul\":485:494   */\n      dup3\n        /* \"#utility.yul\":481:499   */\n      add\n        /* \"#utility.yul\":473:499   */\n      swap1\n      pop\n        /* \"#utility.yul\":509:580   */\n      tag_282\n        /* \"#utility.yul\":577:578   */\n      0x00\n        /* \"#utility.yul\":566:575   */\n      dup4\n        /* \"#utility.yul\":562:579   */\n      add\n        /* \"#utility.yul\":553:559   */\n      dup5\n        /* \"#utility.yul\":509:580   */\n      tag_213\n      jump\t// in\n    tag_282:\n        /* \"#utility.yul\":365:587   */\n      swap3\n      swap2\n      pop\n      pop\n      jump\t// out\n        /* \"#utility.yul\":593:668   */\n    tag_214:\n        /* \"#utility.yul\":626:632   */\n      0x00\n        /* \"#utility.yul\":659:661   */\n      0x40\n        /* \"#utility.yul\":653:662   */\n      mload\n        /* \"#utility.yul\":643:662   */\n      swap1\n      pop\n        /* \"#utility.yul\":593:668   */\n      swap1\n      jump\t// out\n        /* \"#utility.yul\":674:791   */\n    tag_215:\n        /* \"#utility.yul\":783:784   */\n      0x00\n        /* \"#utility.yul\":780:781   */\n      dup1\n        /* \"#utility.yul\":773:785   */\n      revert\n        /* \"#utility.yul\":797:914   */\n    tag_216:\n        /* \"#utility.yul\":906:907   */\n      0x00\n        /* \"#utility.yul\":903:904   */\n      dup1\n        /* \"#utility.yul\":896:908   */\n      revert\n        /* \"#utility.yul\":920:1037   */\n    tag_217:\n        /* \"#utility.yul\":1029:1030   */\n      0x00\n        /* \"#utility.yul\":1026:1027   */\n      dup1\n        /* \"#utility.yul\":1019:1031   */\n      revert\n        /* \"#utility.yul\":1043:1160   */\n    tag_218:\n        /* \"#utility.yul\":1152:1153   */\n      0x00\n        /* \"#utility.yul\":1149:1150   */\n      dup1\n        /* \"#utility.yul\":1142:1154   */\n      revert\n        /* \"#utility.yul\":1166:1268   */\n    tag_219:\n        /* \"#utility.yul\":1207:1213   */\n      0x00\n        /* \"#utility.yul\":1258:1260   */\n      0x1f\n        /* \"#utility.yul\":1254:1261   */\n      not\n        /* \"#utility.yul\":1249:1251   */\n      0x1f\n        /* \"#utility.yul\":1242:1247   */\n      dup4\n        /* \"#utility.yul\":1238:1252   */\n      add\n        /* \"#utility.yul\":1234:1262   */\n      and\n        /* \"#utility.yul\":1224:1262   */\n      swap1\n      pop\n        /* \"#utility.yul\":1166:1268   */\n      swap2\n      swap1\n      pop\n      jump\t// out\n        /* \"#utility.yul\":1274:1454   */\n    tag_220:\n        /* \"#utility.yul\":1322:1399   */\n      0x4e487b7100000000000000000000000000000000000000000000000000000000\n        /* \"#utility.yul\":1319:1320   */\n      0x00\n        /* \"#utility.yul\":1312:1400   */\n      mstore\n        /* \"#utility.yul\":1419:1423   */\n      0x41\n        /* \"#utility.yul\":1416:1417   */\n      0x04\n        /* \"#utility.yul\":1409:1424   */\n      mstore\n        /* \"#utility.yul\":1443:1447   */\n      0x24\n        /* \"#utility.yul\":1440:1441   */\n      0x00\n        /* \"#utility.yul\":1433:1448   */\n      revert\n        /* \"#utility.yul\":1460:1741   */\n    tag_221:\n        /* \"#utility.yul\":1543:1570   */\n      tag_291\n        /* \"#utility.yul\":1565:1569   */\n      dup3\n        /* \"#utility.yul\":1543:1570   */\n      tag_219\n      jump\t// in\n    tag_291:\n        /* \"#utility.yul\":1535:1541   */\n      dup2\n        /* \"#utility.yul\":1531:1571   */\n      add\n        /* \"#utility.yul\":1673:1679   */\n      dup2\n        /* \"#utility.yul\":1661:1671   */\n      dup2\n        /* \"#utility.yul\":1658:1680   */\n      lt\n        /* \"#utility.yul\":1637:1655   */\n      0xffffffffffffffff\n        /* \"#utility.yul\":1625:1635   */\n      dup3\n        /* \"#utility.yul\":1622:1656   */\n      gt\n        /* \"#utility.yul\":1619:1681   */\n      or\n        /* \"#utility.yul\":1616:1704   */\n      iszero\n      tag_292\n      jumpi\n        /* \"#utility.yul\":1684:1702   */\n      tag_293\n      tag_220\n      jump\t// in\n    tag_293:\n        /* \"#utility.yul\":1616:1704   */\n    tag_292:\n        /* \"#utility.yul\":1724:1734   */\n      dup1\n        /* \"#utility.yul\":1720:1722   */\n      0x40\n        /* \"#utility.yul\":1713:1735   */\n      mstore\n        /* \"#utility.yul\":1503:1741   */\n      pop\n        /* \"#utility.yul\":1460:1741   */\n      pop\n      pop\n      jump\t// out\n        /* \"#utility.yul\":1747:1876   */\n    tag_222:\n        /* \"#utility.yul\":1781:1787   */\n      0x00\n        /* \"#utility.yul\":1808:1828   */\n      tag_295\n      tag_214\n      jump\t// in\n    tag_295:\n        /* \"#utility.yul\":1798:1828   */\n      swap1\n      pop\n        /* \"#utility.yul\":1837:1870   */\n      tag_296\n        /* \"#utility.yul\":1865:1869   */\n      dup3\n        /* \"#utility.yul\":1857:1863   */\n      dup3\n        /* \"#utility.yul\":1837:1870   */\n      tag_221\n      jump\t// in\n    tag_296:\n        /* \"#utility.yul\":1747:1876   */\n      swap2\n      swap1\n      pop\n      jump\t// out\n        /* \"#utility.yul\":1882:2190   */\n    tag_223:\n        /* \"#utility.yul\":1944:1948   */\n      0x00\n        /* \"#utility.yul\":2034:2052   */\n      0xffffffffffffffff\n        /* \"#utility.yul\":2026:2032   */\n      dup3\n        /* \"#utility.yul\":2023:2053   */\n      gt\n        /* \"#utility.yul\":2020:2076   */\n      iszero\n      tag_298\n      jumpi\n        /* \"#utility.yul\":2056:2074   */\n      tag_299\n      tag_220\n      jump\t// in\n    tag_299:\n        /* \"#utility.yul\":2020:2076   */\n    tag_298:\n        /* \"#utility.yul\":2094:2123   */\n      tag_300\n        /* \"#utility.yul\":2116:2122   */\n      dup3\n        /* \"#utility.yul\":2094:2123   */\n      tag_219\n      jump\t// in\n    tag_300:\n        /* \"#utility.yul\":2086:2123   */\n      swap1\n      pop\n        /* \"#utility.yul\":2178:2182   */\n      0x20\n        /* \"#utility.yul\":2172:2176   */\n      dup2\n        /* \"#utility.yul\":2168:2183   */\n      add\n        /* \"#utility.yul\":2160:2183   */\n      swap1\n      pop\n        /* \"#utility.yul\":1882:2190   */\n      swap2\n      swap1\n      pop\n      jump\t// out\n        /* \"#utility.yul\":2196:2342   */\n    tag_224:\n        /* \"#utility.yul\":2293:2299   */\n      dup3\n        /* \"#utility.yul\":2288:2291   */\n      dup2\n        /* \"#utility.yul\":2283:2286   */\n      dup4\n        /* \"#utility.yul\":2270:2300   */\n      calldatacopy\n        /* \"#utility.yul\":2334:2335   */\n      0x00\n        /* \"#utility.yul\":2325:2331   */\n      dup4\n        /* \"#utility.yul\":2320:2323   */\n      dup4\n        /* \"#utility.yul\":2316:2332   */\n      add\n        /* \"#utility.yul\":2309:2336   */\n      mstore\n        /* \"#utility.yul\":2196:2342   */\n      pop\n      pop\n      pop\n      jump\t// out\n        /* \"#utility.yul\":2348:2773   */\n    tag_225:\n        /* \"#utility.yul\":2426:2431   */\n      0x00\n        /* \"#utility.yul\":2451:2517   */\n      tag_303\n        /* \"#utility.yul\":2467:2516   */\n      tag_304\n        /* \"#utility.yul\":2509:2515   */\n      dup5\n        /* \"#utility.yul\":2467:2516   */\n      tag_223\n      jump\t// in\n    tag_304:\n        /* \"#utility.yul\":2451:2517   */\n      tag_222\n      jump\t// in\n    tag_303:\n        /* \"#utility.yul\":2442:2517   */\n      swap1\n      pop\n        /* \"#utility.yul\":2540:2546   */\n      dup3\n        /* \"#utility.yul\":2533:2538   */\n      dup2\n        /* \"#utility.yul\":2526:2547   */\n      mstore\n        /* \"#utility.yul\":2578:2582   */\n      0x20\n        /* \"#utility.yul\":2571:2576   */\n      dup2\n        /* \"#utility.yul\":2567:2583   */\n      add\n        /* \"#utility.yul\":2616:2619   */\n      dup5\n        /* \"#utility.yul\":2607:2613   */\n      dup5\n        /* \"#utility.yul\":2602:2605   */\n      dup5\n        /* \"#utility.yul\":2598:2614   */\n      add\n        /* \"#utility.yul\":2595:2620   */\n      gt\n        /* \"#utility.yul\":2592:2704   */\n      iszero\n      tag_305\n      jumpi\n        /* \"#utility.yul\":2623:2702   */\n      tag_306\n      tag_218\n      jump\t// in\n    tag_306:\n        /* \"#utility.yul\":2592:2704   */\n    tag_305:\n        /* \"#utility.yul\":2713:2767   */\n      tag_307\n        /* \"#utility.yul\":2760:2766   */\n      dup5\n        /* \"#utility.yul\":2755:2758   */\n      dup3\n        /* \"#utility.yul\":2750:2753   */\n      dup6\n        /* \"#utility.yul\":2713:2767   */\n      tag_224\n      jump\t// in\n    tag_307:\n        /* \"#utility.yul\":2432:2773   */\n      pop\n        /* \"#utility.yul\":2348:2773   */\n      swap4\n      swap3\n      pop\n      pop\n      pop\n      jump\t// out\n        /* \"#utility.yul\":2793:3133   */\n    tag_226:\n        /* \"#utility.yul\":2849:2854   */\n      0x00\n        /* \"#utility.yul\":2898:2901   */\n      dup3\n        /* \"#utility.yul\":2891:2895   */\n      0x1f\n        /* \"#utility.yul\":2883:2889   */\n      dup4\n        /* \"#utility.yul\":2879:2896   */\n      add\n        /* \"#utility.yul\":2875:2902   */\n      slt\n        /* \"#utility.yul\":2865:2987   */\n      tag_309\n      jumpi\n        /* \"#utility.yul\":2906:2985   */\n      tag_310\n      tag_217\n      jump\t// in\n    tag_310:\n        /* \"#utility.yul\":2865:2987   */\n    tag_309:\n        /* \"#utility.yul\":3023:3029   */\n      dup2\n        /* \"#utility.yul\":3010:3030   */\n      calldataload\n        /* \"#utility.yul\":3048:3127   */\n      tag_311\n        /* \"#utility.yul\":3123:3126   */\n      dup5\n        /* \"#utility.yul\":3115:3121   */\n      dup3\n        /* \"#utility.yul\":3108:3112   */\n      0x20\n        /* \"#utility.yul\":3100:3106   */\n      dup7\n        /* \"#utility.yul\":3096:3113   */\n      add\n        /* \"#utility.yul\":3048:3127   */\n      tag_225\n      jump\t// in\n    tag_311:\n        /* \"#utility.yul\":3039:3127   */\n      swap2\n      pop\n        /* \"#utility.yul\":2855:3133   */\n      pop\n        /* \"#utility.yul\":2793:3133   */\n      swap3\n      swap2\n      pop\n      pop\n      jump\t// out\n        /* \"#utility.yul\":3139:3648   */\n    tag_28:\n        /* \"#utility.yul\":3208:3214   */\n      0x00\n        /* \"#utility.yul\":3257:3259   */\n      0x20\n        /* \"#utility.yul\":3245:3254   */\n      dup3\n        /* \"#utility.yul\":3236:3243   */\n      dup5\n        /* \"#utility.yul\":3232:3255   */\n      sub\n        /* \"#utility.yul\":3228:3260   */\n      slt\n        /* \"#utility.yul\":3225:3344   */\n      iszero\n      tag_313\n      jumpi\n        /* \"#utility.yul\":3263:3342   */\n      tag_314\n      tag_215\n      jump\t// in\n    tag_314:\n        /* \"#utility.yul\":3225:3344   */\n    tag_313:\n        /* \"#utility.yul\":3411:3412   */\n      0x00\n        /* \"#utility.yul\":3400:3409   */\n      dup3\n        /* \"#utility.yul\":3396:3413   */\n      add\n        /* \"#utility.yul\":3383:3414   */\n      calldataload\n        /* \"#utility.yul\":3441:3459   */\n      0xffffffffffffffff\n        /* \"#utility.yul\":3433:3439   */\n      dup2\n        /* \"#utility.yul\":3430:3460   */\n      gt\n        /* \"#utility.yul\":3427:3544   */\n      iszero\n      tag_315\n      jumpi\n        /* \"#utility.yul\":3463:3542   */\n      tag_316\n      tag_216\n      jump\t// in\n    tag_316:\n        /* \"#utility.yul\":3427:3544   */\n    tag_315:\n        /* \"#utility.yul\":3568:3631   */\n      tag_317\n        /* \"#utility.yul\":3623:3630   */\n      dup5\n        /* \"#utility.yul\":3614:3620   */\n      dup3\n        /* \"#utility.yul\":3603:3612   */\n      dup6\n        /* \"#utility.yul\":3599:3621   */\n      add\n        /* \"#utility.yul\":3568:3631   */\n      tag_226\n      jump\t// in\n    tag_317:\n        /* \"#utility.yul\":3558:3631   */\n      swap2\n      pop\n        /* \"#utility.yul\":3354:3641   */\n      pop\n        /* \"#utility.yul\":3139:3648   */\n      swap3\n      swap2\n      pop\n      pop\n      jump\t// out\n        /* \"#utility.yul\":3654:3731   */\n    tag_227:\n        /* \"#utility.yul\":3691:3698   */\n      0x00\n        /* \"#utility.yul\":3720:3725   */\n      dup2\n        /* \"#utility.yul\":3709:3725   */\n      swap1\n      pop\n        /* \"#utility.yul\":3654:3731   */\n      swap2\n      swap1\n      pop\n      jump\t// out\n        /* \"#utility.yul\":3737:3855   */\n    tag_228:\n        /* \"#utility.yul\":3824:3848   */\n      tag_320\n        /* \"#utility.yul\":3842:3847   */\n      dup2\n        /* \"#utility.yul\":3824:3848   */\n      tag_227\n      jump\t// in\n    tag_320:\n        /* \"#utility.yul\":3819:3822   */\n      dup3\n        /* \"#utility.yul\":3812:3849   */\n      mstore\n        /* \"#utility.yul\":3737:3855   */\n      pop\n      pop\n      jump\t// out\n        /* \"#utility.yul\":3861:4083   */\n    tag_31:\n        /* \"#utility.yul\":3954:3958   */\n      0x00\n        /* \"#utility.yul\":3992:3994   */\n      0x20\n        /* \"#utility.yul\":3981:3990   */\n      dup3\n        /* \"#utility.yul\":3977:3995   */\n      add\n        /* \"#utility.yul\":3969:3995   */\n      swap1\n      pop\n        /* \"#utility.yul\":4005:4076   */\n      tag_322\n        /* \"#utility.yul\":4073:4074   */\n      0x00\n        /* \"#utility.yul\":4062:4071   */\n      dup4\n        /* \"#utility.yul\":4058:4075   */\n      add\n        /* \"#utility.yul\":4049:4055   */\n      dup5\n        /* \"#utility.yul\":4005:4076   */\n      tag_228\n      jump\t// in\n    tag_322:\n        /* \"#utility.yul\":3861:4083   */\n      swap3\n      swap2\n      pop\n      pop\n      jump\t// out\n        /* \"#utility.yul\":4089:4269   */\n    tag_104:\n        /* \"#utility.yul\":4137:4214   */\n      0x4e487b7100000000000000000000000000000000000000000000000000000000\n        /* \"#utility.yul\":4134:4135   */\n      0x00\n        /* \"#utility.yul\":4127:4215   */\n      mstore\n        /* \"#utility.yul\":4234:4238   */\n      0x21\n        /* \"#utility.yul\":4231:4232   */\n      0x04\n        /* \"#utility.yul\":4224:4239   */\n      mstore\n        /* \"#utility.yul\":4258:4262   */\n      0x24\n        /* \"#utility.yul\":4255:4256   */\n      0x00\n        /* \"#utility.yul\":4248:4263   */\n      revert\n        /* \"#utility.yul\":4275:4390   */\n    tag_229:\n        /* \"#utility.yul\":4358:4359   */\n      0x03\n        /* \"#utility.yul\":4351:4356   */\n      dup2\n        /* \"#utility.yul\":4348:4360   */\n      lt\n        /* \"#utility.yul\":4338:4384   */\n      tag_325\n      jumpi\n        /* \"#utility.yul\":4364:4382   */\n      tag_326\n      tag_104\n      jump\t// in\n    tag_326:\n        /* \"#utility.yul\":4338:4384   */\n    tag_325:\n        /* \"#utility.yul\":4275:4390   */\n      pop\n      jump\t// out\n        /* \"#utility.yul\":4396:4527   */\n    tag_230:\n        /* \"#utility.yul\":4443:4450   */\n      0x00\n        /* \"#utility.yul\":4472:4477   */\n      dup2\n        /* \"#utility.yul\":4461:4477   */\n      swap1\n      pop\n        /* \"#utility.yul\":4478:4521   */\n      tag_328\n        /* \"#utility.yul\":4515:4520   */\n      dup3\n        /* \"#utility.yul\":4478:4521   */\n      tag_229\n      jump\t// in\n    tag_328:\n        /* \"#utility.yul\":4396:4527   */\n      swap2\n      swap1\n      pop\n      jump\t// out\n        /* \"#utility.yul\":4533:4664   */\n    tag_231:\n        /* \"#utility.yul\":4591:4600   */\n      0x00\n        /* \"#utility.yul\":4624:4658   */\n      tag_330\n        /* \"#utility.yul\":4652:4657   */\n      dup3\n        /* \"#utility.yul\":4624:4658   */\n      tag_230\n      jump\t// in\n    tag_330:\n        /* \"#utility.yul\":4611:4658   */\n      swap1\n      pop\n        /* \"#utility.yul\":4533:4664   */\n      swap2\n      swap1\n      pop\n      jump\t// out\n        /* \"#utility.yul\":4670:4817   */\n    tag_232:\n        /* \"#utility.yul\":4765:4810   */\n      tag_332\n        /* \"#utility.yul\":4804:4809   */\n      dup2\n        /* \"#utility.yul\":4765:4810   */\n      tag_231\n      jump\t// in\n    tag_332:\n        /* \"#utility.yul\":4760:4763   */\n      dup3\n        /* \"#utility.yul\":4753:4811   */\n      mstore\n        /* \"#utility.yul\":4670:4817   */\n      pop\n      pop\n      jump\t// out\n        /* \"#utility.yul\":4823:5061   */\n    tag_35:\n        /* \"#utility.yul\":4924:4928   */\n      0x00\n        /* \"#utility.yul\":4962:4964   */\n      0x20\n        /* \"#utility.yul\":4951:4960   */\n      dup3\n        /* \"#utility.yul\":4947:4965   */\n      add\n        /* \"#utility.yul\":4939:4965   */\n      swap1\n      pop\n        /* \"#utility.yul\":4975:5054   */\n      tag_334\n        /* \"#utility.yul\":5051:5052   */\n      0x00\n        /* \"#utility.yul\":5040:5049   */\n      dup4\n        /* \"#utility.yul\":5036:5053   */\n      add\n        /* \"#utility.yul\":5027:5033   */\n      dup5\n        /* \"#utility.yul\":4975:5054   */\n      tag_232\n      jump\t// in\n    tag_334:\n        /* \"#utility.yul\":4823:5061   */\n      swap3\n      swap2\n      pop\n      pop\n      jump\t// out\n        /* \"#utility.yul\":5067:5166   */\n    tag_233:\n        /* \"#utility.yul\":5119:5125   */\n      0x00\n        /* \"#utility.yul\":5153:5158   */\n      dup2\n        /* \"#utility.yul\":5147:5159   */\n      mload\n        /* \"#utility.yul\":5137:5159   */\n      swap1\n      pop\n        /* \"#utility.yul\":5067:5166   */\n      swap2\n      swap1\n      pop\n      jump\t// out\n        /* \"#utility.yul\":5172:5341   */\n    tag_234:\n        /* \"#utility.yul\":5256:5267   */\n      0x00\n        /* \"#utility.yul\":5290:5296   */\n      dup3\n        /* \"#utility.yul\":5285:5288   */\n      dup3\n        /* \"#utility.yul\":5278:5297   */\n      mstore\n        /* \"#utility.yul\":5330:5334   */\n      0x20\n        /* \"#utility.yul\":5325:5328   */\n      dup3\n        /* \"#utility.yul\":5321:5335   */\n      add\n        /* \"#utility.yul\":5306:5335   */\n      swap1\n      pop\n        /* \"#utility.yul\":5172:5341   */\n      swap3\n      swap2\n      pop\n      pop\n      jump\t// out\n        /* \"#utility.yul\":5347:5593   */\n    tag_235:\n        /* \"#utility.yul\":5428:5429   */\n      0x00\n        /* \"#utility.yul\":5438:5551   */\n    tag_338:\n        /* \"#utility.yul\":5452:5458   */\n      dup4\n        /* \"#utility.yul\":5449:5450   */\n      dup2\n        /* \"#utility.yul\":5446:5459   */\n      lt\n        /* \"#utility.yul\":5438:5551   */\n      iszero\n      tag_340\n      jumpi\n        /* \"#utility.yul\":5537:5538   */\n      dup1\n        /* \"#utility.yul\":5532:5535   */\n      dup3\n        /* \"#utility.yul\":5528:5539   */\n      add\n        /* \"#utility.yul\":5522:5540   */\n      mload\n        /* \"#utility.yul\":5518:5519   */\n      dup2\n        /* \"#utility.yul\":5513:5516   */\n      dup5\n        /* \"#utility.yul\":5509:5520   */\n      add\n        /* \"#utility.yul\":5502:5541   */\n      mstore\n        /* \"#utility.yul\":5474:5476   */\n      0x20\n        /* \"#utility.yul\":5471:5472   */\n      dup2\n        /* \"#utility.yul\":5467:5477   */\n      add\n        /* \"#utility.yul\":5462:5477   */\n      swap1\n      pop\n        /* \"#utility.yul\":5438:5551   */\n      jump(tag_338)\n    tag_340:\n        /* \"#utility.yul\":5585:5586   */\n      0x00\n        /* \"#utility.yul\":5576:5582   */\n      dup5\n        /* \"#utility.yul\":5571:5574   */\n      dup5\n        /* \"#utility.yul\":5567:5583   */\n      add\n        /* \"#utility.yul\":5560:5587   */\n      mstore\n        /* \"#utility.yul\":5409:5593   */\n      pop\n        /* \"#utility.yul\":5347:5593   */\n      pop\n      pop\n      pop\n      jump\t// out\n        /* \"#utility.yul\":5599:5976   */\n    tag_236:\n        /* \"#utility.yul\":5687:5690   */\n      0x00\n        /* \"#utility.yul\":5715:5754   */\n      tag_342\n        /* \"#utility.yul\":5748:5753   */\n      dup3\n        /* \"#utility.yul\":5715:5754   */\n      tag_233\n      jump\t// in\n    tag_342:\n        /* \"#utility.yul\":5770:5841   */\n      tag_343\n        /* \"#utility.yul\":5834:5840   */\n      dup2\n        /* \"#utility.yul\":5829:5832   */\n      dup6\n        /* \"#utility.yul\":5770:5841   */\n      tag_234\n      jump\t// in\n    tag_343:\n        /* \"#utility.yul\":5763:5841   */\n      swap4\n      pop\n        /* \"#utility.yul\":5850:5915   */\n      tag_344\n        /* \"#utility.yul\":5908:5914   */\n      dup2\n        /* \"#utility.yul\":5903:5906   */\n      dup6\n        /* \"#utility.yul\":5896:5900   */\n      0x20\n        /* \"#utility.yul\":5889:5894   */\n      dup7\n        /* \"#utility.yul\":5885:5901   */\n      add\n        /* \"#utility.yul\":5850:5915   */\n      tag_235\n      jump\t// in\n    tag_344:\n        /* \"#utility.yul\":5940:5969   */\n      tag_345\n        /* \"#utility.yul\":5962:5968   */\n      dup2\n        /* \"#utility.yul\":5940:5969   */\n      tag_219\n      jump\t// in\n    tag_345:\n        /* \"#utility.yul\":5935:5938   */\n      dup5\n        /* \"#utility.yul\":5931:5970   */\n      add\n        /* \"#utility.yul\":5924:5970   */\n      swap2\n      pop\n        /* \"#utility.yul\":5691:5976   */\n      pop\n        /* \"#utility.yul\":5599:5976   */\n      swap3\n      swap2\n      pop\n      pop\n      jump\t// out\n        /* \"#utility.yul\":5982:6072   */\n    tag_237:\n        /* \"#utility.yul\":6016:6023   */\n      0x00\n        /* \"#utility.yul\":6059:6064   */\n      dup2\n        /* \"#utility.yul\":6052:6065   */\n      iszero\n        /* \"#utility.yul\":6045:6066   */\n      iszero\n        /* \"#utility.yul\":6034:6066   */\n      swap1\n      pop\n        /* \"#utility.yul\":5982:6072   */\n      swap2\n      swap1\n      pop\n      jump\t// out\n        /* \"#utility.yul\":6078:6187   */\n    tag_238:\n        /* \"#utility.yul\":6159:6180   */\n      tag_348\n        /* \"#utility.yul\":6174:6179   */\n      dup2\n        /* \"#utility.yul\":6159:6180   */\n      tag_237\n      jump\t// in\n    tag_348:\n        /* \"#utility.yul\":6154:6157   */\n      dup3\n        /* \"#utility.yul\":6147:6181   */\n      mstore\n        /* \"#utility.yul\":6078:6187   */\n      pop\n      pop\n      jump\t// out\n        /* \"#utility.yul\":6193:7027   */\n    tag_39:\n        /* \"#utility.yul\":6432:6436   */\n      0x00\n        /* \"#utility.yul\":6470:6473   */\n      0xa0\n        /* \"#utility.yul\":6459:6468   */\n      dup3\n        /* \"#utility.yul\":6455:6474   */\n      add\n        /* \"#utility.yul\":6447:6474   */\n      swap1\n      pop\n        /* \"#utility.yul\":6484:6555   */\n      tag_350\n        /* \"#utility.yul\":6552:6553   */\n      0x00\n        /* \"#utility.yul\":6541:6550   */\n      dup4\n        /* \"#utility.yul\":6537:6554   */\n      add\n        /* \"#utility.yul\":6528:6534   */\n      dup9\n        /* \"#utility.yul\":6484:6555   */\n      tag_213\n      jump\t// in\n    tag_350:\n        /* \"#utility.yul\":6602:6611   */\n      dup2\n        /* \"#utility.yul\":6596:6600   */\n      dup2\n        /* \"#utility.yul\":6592:6612   */\n      sub\n        /* \"#utility.yul\":6587:6589   */\n      0x20\n        /* \"#utility.yul\":6576:6585   */\n      dup4\n        /* \"#utility.yul\":6572:6590   */\n      add\n        /* \"#utility.yul\":6565:6613   */\n      mstore\n        /* \"#utility.yul\":6630:6708   */\n      tag_351\n        /* \"#utility.yul\":6703:6707   */\n      dup2\n        /* \"#utility.yul\":6694:6700   */\n      dup8\n        /* \"#utility.yul\":6630:6708   */\n      tag_236\n      jump\t// in\n    tag_351:\n        /* \"#utility.yul\":6622:6708   */\n      swap1\n      pop\n        /* \"#utility.yul\":6718:6790   */\n      tag_352\n        /* \"#utility.yul\":6786:6788   */\n      0x40\n        /* \"#utility.yul\":6775:6784   */\n      dup4\n        /* \"#utility.yul\":6771:6789   */\n      add\n        /* \"#utility.yul\":6762:6768   */\n      dup7\n        /* \"#utility.yul\":6718:6790   */\n      tag_228\n      jump\t// in\n    tag_352:\n        /* \"#utility.yul\":6800:6866   */\n      tag_353\n        /* \"#utility.yul\":6862:6864   */\n      0x60\n        /* \"#utility.yul\":6851:6860   */\n      dup4\n        /* \"#utility.yul\":6847:6865   */\n      add\n        /* \"#utility.yul\":6838:6844   */\n      dup6\n        /* \"#utility.yul\":6800:6866   */\n      tag_238\n      jump\t// in\n    tag_353:\n        /* \"#utility.yul\":6914:6923   */\n      dup2\n        /* \"#utility.yul\":6908:6912   */\n      dup2\n        /* \"#utility.yul\":6904:6924   */\n      sub\n        /* \"#utility.yul\":6898:6901   */\n      0x80\n        /* \"#utility.yul\":6887:6896   */\n      dup4\n        /* \"#utility.yul\":6883:6902   */\n      add\n        /* \"#utility.yul\":6876:6925   */\n      mstore\n        /* \"#utility.yul\":6942:7020   */\n      tag_354\n        /* \"#utility.yul\":7015:7019   */\n      dup2\n        /* \"#utility.yul\":7006:7012   */\n      dup5\n        /* \"#utility.yul\":6942:7020   */\n      tag_236\n      jump\t// in\n    tag_354:\n        /* \"#utility.yul\":6934:7020   */\n      swap1\n      pop\n        /* \"#utility.yul\":6193:7027   */\n      swap7\n      swap6\n      pop\n      pop\n      pop\n      pop\n      pop\n      pop\n      jump\t// out\n        /* \"#utility.yul\":7033:7155   */\n    tag_239:\n        /* \"#utility.yul\":7106:7130   */\n      tag_356\n        /* \"#utility.yul\":7124:7129   */\n      dup2\n        /* \"#utility.yul\":7106:7130   */\n      tag_227\n      jump\t// in\n    tag_356:\n        /* \"#utility.yul\":7099:7104   */\n      dup2\n        /* \"#utility.yul\":7096:7131   */\n      eq\n        /* \"#utility.yul\":7086:7149   */\n      tag_357\n      jumpi\n        /* \"#utility.yul\":7145:7146   */\n      0x00\n        /* \"#utility.yul\":7142:7143   */\n      dup1\n        /* \"#utility.yul\":7135:7147   */\n      revert\n        /* \"#utility.yul\":7086:7149   */\n    tag_357:\n        /* \"#utility.yul\":7033:7155   */\n      pop\n      jump\t// out\n        /* \"#utility.yul\":7161:7300   */\n    tag_240:\n        /* \"#utility.yul\":7207:7212   */\n      0x00\n        /* \"#utility.yul\":7245:7251   */\n      dup2\n        /* \"#utility.yul\":7232:7252   */\n      calldataload\n        /* \"#utility.yul\":7223:7252   */\n      swap1\n      pop\n        /* \"#utility.yul\":7261:7294   */\n      tag_359\n        /* \"#utility.yul\":7288:7293   */\n      dup2\n        /* \"#utility.yul\":7261:7294   */\n      tag_239\n      jump\t// in\n    tag_359:\n        /* \"#utility.yul\":7161:7300   */\n      swap3\n      swap2\n      pop\n      pop\n      jump\t// out\n        /* \"#utility.yul\":7306:7635   */\n    tag_42:\n        /* \"#utility.yul\":7365:7371   */\n      0x00\n        /* \"#utility.yul\":7414:7416   */\n      0x20\n        /* \"#utility.yul\":7402:7411   */\n      dup3\n        /* \"#utility.yul\":7393:7400   */\n      dup5\n        /* \"#utility.yul\":7389:7412   */\n      sub\n        /* \"#utility.yul\":7385:7417   */\n      slt\n        /* \"#utility.yul\":7382:7501   */\n      iszero\n      tag_361\n      jumpi\n        /* \"#utility.yul\":7420:7499   */\n      tag_362\n      tag_215\n      jump\t// in\n    tag_362:\n        /* \"#utility.yul\":7382:7501   */\n    tag_361:\n        /* \"#utility.yul\":7540:7541   */\n      0x00\n        /* \"#utility.yul\":7565:7618   */\n      tag_363\n        /* \"#utility.yul\":7610:7617   */\n      dup5\n        /* \"#utility.yul\":7601:7607   */\n      dup3\n        /* \"#utility.yul\":7590:7599   */\n      dup6\n        /* \"#utility.yul\":7586:7608   */\n      add\n        /* \"#utility.yul\":7565:7618   */\n      tag_240\n      jump\t// in\n    tag_363:\n        /* \"#utility.yul\":7555:7618   */\n      swap2\n      pop\n        /* \"#utility.yul\":7511:7628   */\n      pop\n        /* \"#utility.yul\":7306:7635   */\n      swap3\n      swap2\n      pop\n      pop\n      jump\t// out\n        /* \"#utility.yul\":7641:7954   */\n    tag_45:\n        /* \"#utility.yul\":7754:7758   */\n      0x00\n        /* \"#utility.yul\":7792:7794   */\n      0x20\n        /* \"#utility.yul\":7781:7790   */\n      dup3\n        /* \"#utility.yul\":7777:7795   */\n      add\n        /* \"#utility.yul\":7769:7795   */\n      swap1\n      pop\n        /* \"#utility.yul\":7841:7850   */\n      dup2\n        /* \"#utility.yul\":7835:7839   */\n      dup2\n        /* \"#utility.yul\":7831:7851   */\n      sub\n        /* \"#utility.yul\":7827:7828   */\n      0x00\n        /* \"#utility.yul\":7816:7825   */\n      dup4\n        /* \"#utility.yul\":7812:7829   */\n      add\n        /* \"#utility.yul\":7805:7852   */\n      mstore\n        /* \"#utility.yul\":7869:7947   */\n      tag_365\n        /* \"#utility.yul\":7942:7946   */\n      dup2\n        /* \"#utility.yul\":7933:7939   */\n      dup5\n        /* \"#utility.yul\":7869:7947   */\n      tag_236\n      jump\t// in\n    tag_365:\n        /* \"#utility.yul\":7861:7947   */\n      swap1\n      pop\n        /* \"#utility.yul\":7641:7954   */\n      swap3\n      swap2\n      pop\n      pop\n      jump\t// out\n        /* \"#utility.yul\":7960:8170   */\n    tag_53:\n        /* \"#utility.yul\":8047:8051   */\n      0x00\n        /* \"#utility.yul\":8085:8087   */\n      0x20\n        /* \"#utility.yul\":8074:8083   */\n      dup3\n        /* \"#utility.yul\":8070:8088   */\n      add\n        /* \"#utility.yul\":8062:8088   */\n      swap1\n      pop\n        /* \"#utility.yul\":8098:8163   */\n      tag_367\n        /* \"#utility.yul\":8160:8161   */\n      0x00\n        /* \"#utility.yul\":8149:8158   */\n      dup4\n        /* \"#utility.yul\":8145:8162   */\n      add\n        /* \"#utility.yul\":8136:8142   */\n      dup5\n        /* \"#utility.yul\":8098:8163   */\n      tag_238\n      jump\t// in\n    tag_367:\n        /* \"#utility.yul\":7960:8170   */\n      swap3\n      swap2\n      pop\n      pop\n      jump\t// out\n        /* \"#utility.yul\":8176:8298   */\n    tag_241:\n        /* \"#utility.yul\":8249:8273   */\n      tag_369\n        /* \"#utility.yul\":8267:8272   */\n      dup2\n        /* \"#utility.yul\":8249:8273   */\n      tag_212\n      jump\t// in\n    tag_369:\n        /* \"#utility.yul\":8242:8247   */\n      dup2\n        /* \"#utility.yul\":8239:8274   */\n      eq\n        /* \"#utility.yul\":8229:8292   */\n      tag_370\n      jumpi\n        /* \"#utility.yul\":8288:8289   */\n      0x00\n        /* \"#utility.yul\":8285:8286   */\n      dup1\n        /* \"#utility.yul\":8278:8290   */\n      revert\n        /* \"#utility.yul\":8229:8292   */\n    tag_370:\n        /* \"#utility.yul\":8176:8298   */\n      pop\n      jump\t// out\n        /* \"#utility.yul\":8304:8443   */\n    tag_242:\n        /* \"#utility.yul\":8350:8355   */\n      0x00\n        /* \"#utility.yul\":8388:8394   */\n      dup2\n        /* \"#utility.yul\":8375:8395   */\n      calldataload\n        /* \"#utility.yul\":8366:8395   */\n      swap1\n      pop\n        /* \"#utility.yul\":8404:8437   */\n      tag_372\n        /* \"#utility.yul\":8431:8436   */\n      dup2\n        /* \"#utility.yul\":8404:8437   */\n      tag_241\n      jump\t// in\n    tag_372:\n        /* \"#utility.yul\":8304:8443   */\n      swap3\n      swap2\n      pop\n      pop\n      jump\t// out\n        /* \"#utility.yul\":8449:8778   */\n    tag_62:\n        /* \"#utility.yul\":8508:8514   */\n      0x00\n        /* \"#utility.yul\":8557:8559   */\n      0x20\n        /* \"#utility.yul\":8545:8554   */\n      dup3\n        /* \"#utility.yul\":8536:8543   */\n      dup5\n        /* \"#utility.yul\":8532:8555   */\n      sub\n        /* \"#utility.yul\":8528:8560   */\n      slt\n        /* \"#utility.yul\":8525:8644   */\n      iszero\n      tag_374\n      jumpi\n        /* \"#utility.yul\":8563:8642   */\n      tag_375\n      tag_215\n      jump\t// in\n    tag_375:\n        /* \"#utility.yul\":8525:8644   */\n    tag_374:\n        /* \"#utility.yul\":8683:8684   */\n      0x00\n        /* \"#utility.yul\":8708:8761   */\n      tag_376\n        /* \"#utility.yul\":8753:8760   */\n      dup5\n        /* \"#utility.yul\":8744:8750   */\n      dup3\n        /* \"#utility.yul\":8733:8742   */\n      dup6\n        /* \"#utility.yul\":8729:8751   */\n      add\n        /* \"#utility.yul\":8708:8761   */\n      tag_242\n      jump\t// in\n    tag_376:\n        /* \"#utility.yul\":8698:8761   */\n      swap2\n      pop\n        /* \"#utility.yul\":8654:8771   */\n      pop\n        /* \"#utility.yul\":8449:8778   */\n      swap3\n      swap2\n      pop\n      pop\n      jump\t// out\n        /* \"#utility.yul\":8784:8908   */\n    tag_243:\n        /* \"#utility.yul\":8861:8867   */\n      0x00\n        /* \"#utility.yul\":8895:8900   */\n      dup2\n        /* \"#utility.yul\":8889:8901   */\n      mload\n        /* \"#utility.yul\":8879:8901   */\n      swap1\n      pop\n        /* \"#utility.yul\":8784:8908   */\n      swap2\n      swap1\n      pop\n      jump\t// out\n        /* \"#utility.yul\":8914:9108   */\n    tag_244:\n        /* \"#utility.yul\":9023:9034   */\n      0x00\n        /* \"#utility.yul\":9057:9063   */\n      dup3\n        /* \"#utility.yul\":9052:9055   */\n      dup3\n        /* \"#utility.yul\":9045:9064   */\n      mstore\n        /* \"#utility.yul\":9097:9101   */\n      0x20\n        /* \"#utility.yul\":9092:9095   */\n      dup3\n        /* \"#utility.yul\":9088:9102   */\n      add\n        /* \"#utility.yul\":9073:9102   */\n      swap1\n      pop\n        /* \"#utility.yul\":8914:9108   */\n      swap3\n      swap2\n      pop\n      pop\n      jump\t// out\n        /* \"#utility.yul\":9114:9256   */\n    tag_245:\n        /* \"#utility.yul\":9191:9195   */\n      0x00\n        /* \"#utility.yul\":9214:9217   */\n      dup2\n        /* \"#utility.yul\":9206:9217   */\n      swap1\n      pop\n        /* \"#utility.yul\":9244:9248   */\n      0x20\n        /* \"#utility.yul\":9239:9242   */\n      dup3\n        /* \"#utility.yul\":9235:9249   */\n      add\n        /* \"#utility.yul\":9227:9249   */\n      swap1\n      pop\n        /* \"#utility.yul\":9114:9256   */\n      swap2\n      swap1\n      pop\n      jump\t// out\n        /* \"#utility.yul\":9262:9421   */\n    tag_246:\n        /* \"#utility.yul\":9336:9347   */\n      0x00\n        /* \"#utility.yul\":9370:9376   */\n      dup3\n        /* \"#utility.yul\":9365:9368   */\n      dup3\n        /* \"#utility.yul\":9358:9377   */\n      mstore\n        /* \"#utility.yul\":9410:9414   */\n      0x20\n        /* \"#utility.yul\":9405:9408   */\n      dup3\n        /* \"#utility.yul\":9401:9415   */\n      add\n        /* \"#utility.yul\":9386:9415   */\n      swap1\n      pop\n        /* \"#utility.yul\":9262:9421   */\n      swap3\n      swap2\n      pop\n      pop\n      jump\t// out\n        /* \"#utility.yul\":9427:9784   */\n    tag_247:\n        /* \"#utility.yul\":9505:9508   */\n      0x00\n        /* \"#utility.yul\":9533:9572   */\n      tag_382\n        /* \"#utility.yul\":9566:9571   */\n      dup3\n        /* \"#utility.yul\":9533:9572   */\n      tag_233\n      jump\t// in\n    tag_382:\n        /* \"#utility.yul\":9588:9649   */\n      tag_383\n        /* \"#utility.yul\":9642:9648   */\n      dup2\n        /* \"#utility.yul\":9637:9640   */\n      dup6\n        /* \"#utility.yul\":9588:9649   */\n      tag_246\n      jump\t// in\n    tag_383:\n        /* \"#utility.yul\":9581:9649   */\n      swap4\n      pop\n        /* \"#utility.yul\":9658:9723   */\n      tag_384\n        /* \"#utility.yul\":9716:9722   */\n      dup2\n        /* \"#utility.yul\":9711:9714   */\n      dup6\n        /* \"#utility.yul\":9704:9708   */\n      0x20\n        /* \"#utility.yul\":9697:9702   */\n      dup7\n        /* \"#utility.yul\":9693:9709   */\n      add\n        /* \"#utility.yul\":9658:9723   */\n      tag_235\n      jump\t// in\n    tag_384:\n        /* \"#utility.yul\":9748:9777   */\n      tag_385\n        /* \"#utility.yul\":9770:9776   */\n      dup2\n        /* \"#utility.yul\":9748:9777   */\n      tag_219\n      jump\t// in\n    tag_385:\n        /* \"#utility.yul\":9743:9746   */\n      dup5\n        /* \"#utility.yul\":9739:9778   */\n      add\n        /* \"#utility.yul\":9732:9778   */\n      swap2\n      pop\n        /* \"#utility.yul\":9509:9784   */\n      pop\n        /* \"#utility.yul\":9427:9784   */\n      swap3\n      swap2\n      pop\n      pop\n      jump\t// out\n        /* \"#utility.yul\":9790:9986   */\n    tag_248:\n        /* \"#utility.yul\":9879:9889   */\n      0x00\n        /* \"#utility.yul\":9914:9980   */\n      tag_387\n        /* \"#utility.yul\":9976:9979   */\n      dup4\n        /* \"#utility.yul\":9968:9974   */\n      dup4\n        /* \"#utility.yul\":9914:9980   */\n      tag_247\n      jump\t// in\n    tag_387:\n        /* \"#utility.yul\":9900:9980   */\n      swap1\n      pop\n        /* \"#utility.yul\":9790:9986   */\n      swap3\n      swap2\n      pop\n      pop\n      jump\t// out\n        /* \"#utility.yul\":9992:10115   */\n    tag_249:\n        /* \"#utility.yul\":10072:10076   */\n      0x00\n        /* \"#utility.yul\":10104:10108   */\n      0x20\n        /* \"#utility.yul\":10099:10102   */\n      dup3\n        /* \"#utility.yul\":10095:10109   */\n      add\n        /* \"#utility.yul\":10087:10109   */\n      swap1\n      pop\n        /* \"#utility.yul\":9992:10115   */\n      swap2\n      swap1\n      pop\n      jump\t// out\n        /* \"#utility.yul\":10149:11140   */\n    tag_250:\n        /* \"#utility.yul\":10288:10291   */\n      0x00\n        /* \"#utility.yul\":10317:10381   */\n      tag_390\n        /* \"#utility.yul\":10375:10380   */\n      dup3\n        /* \"#utility.yul\":10317:10381   */\n      tag_243\n      jump\t// in\n    tag_390:\n        /* \"#utility.yul\":10397:10493   */\n      tag_391\n        /* \"#utility.yul\":10486:10492   */\n      dup2\n        /* \"#utility.yul\":10481:10484   */\n      dup6\n        /* \"#utility.yul\":10397:10493   */\n      tag_244\n      jump\t// in\n    tag_391:\n        /* \"#utility.yul\":10390:10493   */\n      swap4\n      pop\n        /* \"#utility.yul\":10519:10522   */\n      dup4\n        /* \"#utility.yul\":10564:10568   */\n      0x20\n        /* \"#utility.yul\":10556:10562   */\n      dup3\n        /* \"#utility.yul\":10552:10569   */\n      mul\n        /* \"#utility.yul\":10547:10550   */\n      dup6\n        /* \"#utility.yul\":10543:10570   */\n      add\n        /* \"#utility.yul\":10594:10660   */\n      tag_392\n        /* \"#utility.yul\":10654:10659   */\n      dup6\n        /* \"#utility.yul\":10594:10660   */\n      tag_245\n      jump\t// in\n    tag_392:\n        /* \"#utility.yul\":10683:10690   */\n      dup1\n        /* \"#utility.yul\":10714:10715   */\n      0x00\n        /* \"#utility.yul\":10699:11095   */\n    tag_393:\n        /* \"#utility.yul\":10724:10730   */\n      dup6\n        /* \"#utility.yul\":10721:10722   */\n      dup2\n        /* \"#utility.yul\":10718:10731   */\n      lt\n        /* \"#utility.yul\":10699:11095   */\n      iszero\n      tag_395\n      jumpi\n        /* \"#utility.yul\":10795:10804   */\n      dup5\n        /* \"#utility.yul\":10789:10793   */\n      dup5\n        /* \"#utility.yul\":10785:10805   */\n      sub\n        /* \"#utility.yul\":10780:10783   */\n      dup10\n        /* \"#utility.yul\":10773:10806   */\n      mstore\n        /* \"#utility.yul\":10846:10852   */\n      dup2\n        /* \"#utility.yul\":10840:10853   */\n      mload\n        /* \"#utility.yul\":10874:10958   */\n      tag_396\n        /* \"#utility.yul\":10953:10957   */\n      dup6\n        /* \"#utility.yul\":10938:10951   */\n      dup3\n        /* \"#utility.yul\":10874:10958   */\n      tag_248\n      jump\t// in\n    tag_396:\n        /* \"#utility.yul\":10866:10958   */\n      swap5\n      pop\n        /* \"#utility.yul\":10981:11051   */\n      tag_397\n        /* \"#utility.yul\":11044:11050   */\n      dup4\n        /* \"#utility.yul\":10981:11051   */\n      tag_249\n      jump\t// in\n    tag_397:\n        /* \"#utility.yul\":10971:11051   */\n      swap3\n      pop\n        /* \"#utility.yul\":11080:11084   */\n      0x20\n        /* \"#utility.yul\":11075:11078   */\n      dup11\n        /* \"#utility.yul\":11071:11085   */\n      add\n        /* \"#utility.yul\":11064:11085   */\n      swap10\n      pop\n        /* \"#utility.yul\":10759:11095   */\n      pop\n        /* \"#utility.yul\":10746:10747   */\n      0x01\n        /* \"#utility.yul\":10743:10744   */\n      dup2\n        /* \"#utility.yul\":10739:10748   */\n      add\n        /* \"#utility.yul\":10734:10748   */\n      swap1\n      pop\n        /* \"#utility.yul\":10699:11095   */\n      jump(tag_393)\n    tag_395:\n        /* \"#utility.yul\":10703:10717   */\n      pop\n        /* \"#utility.yul\":11111:11115   */\n      dup3\n        /* \"#utility.yul\":11104:11115   */\n      swap8\n      pop\n        /* \"#utility.yul\":11131:11134   */\n      dup8\n        /* \"#utility.yul\":11124:11134   */\n      swap6\n      pop\n        /* \"#utility.yul\":10293:11140   */\n      pop\n      pop\n      pop\n      pop\n      pop\n        /* \"#utility.yul\":10149:11140   */\n      swap3\n      swap2\n      pop\n      pop\n      jump\t// out\n        /* \"#utility.yul\":11146:11559   */\n    tag_79:\n        /* \"#utility.yul\":11309:11313   */\n      0x00\n        /* \"#utility.yul\":11347:11349   */\n      0x20\n        /* \"#utility.yul\":11336:11345   */\n      dup3\n        /* \"#utility.yul\":11332:11350   */\n      add\n        /* \"#utility.yul\":11324:11350   */\n      swap1\n      pop\n        /* \"#utility.yul\":11396:11405   */\n      dup2\n        /* \"#utility.yul\":11390:11394   */\n      dup2\n        /* \"#utility.yul\":11386:11406   */\n      sub\n        /* \"#utility.yul\":11382:11383   */\n      0x00\n        /* \"#utility.yul\":11371:11380   */\n      dup4\n        /* \"#utility.yul\":11367:11384   */\n      add\n        /* \"#utility.yul\":11360:11407   */\n      mstore\n        /* \"#utility.yul\":11424:11552   */\n      tag_399\n        /* \"#utility.yul\":11547:11551   */\n      dup2\n        /* \"#utility.yul\":11538:11544   */\n      dup5\n        /* \"#utility.yul\":11424:11552   */\n      tag_250\n      jump\t// in\n    tag_399:\n        /* \"#utility.yul\":11416:11552   */\n      swap1\n      pop\n        /* \"#utility.yul\":11146:11559   */\n      swap3\n      swap2\n      pop\n      pop\n      jump\t// out\n        /* \"#utility.yul\":11565:11745   */\n    tag_251:\n        /* \"#utility.yul\":11613:11690   */\n      0x4e487b7100000000000000000000000000000000000000000000000000000000\n        /* \"#utility.yul\":11610:11611   */\n      0x00\n        /* \"#utility.yul\":11603:11691   */\n      mstore\n        /* \"#utility.yul\":11710:11714   */\n      0x22\n        /* \"#utility.yul\":11707:11708   */\n      0x04\n        /* \"#utility.yul\":11700:11715   */\n      mstore\n        /* \"#utility.yul\":11734:11738   */\n      0x24\n        /* \"#utility.yul\":11731:11732   */\n      0x00\n        /* \"#utility.yul\":11724:11739   */\n      revert\n        /* \"#utility.yul\":11751:12071   */\n    tag_86:\n        /* \"#utility.yul\":11795:11801   */\n      0x00\n        /* \"#utility.yul\":11832:11833   */\n      0x02\n        /* \"#utility.yul\":11826:11830   */\n      dup3\n        /* \"#utility.yul\":11822:11834   */\n      div\n        /* \"#utility.yul\":11812:11834   */\n      swap1\n      pop\n        /* \"#utility.yul\":11879:11880   */\n      0x01\n        /* \"#utility.yul\":11873:11877   */\n      dup3\n        /* \"#utility.yul\":11869:11881   */\n      and\n        /* \"#utility.yul\":11900:11918   */\n      dup1\n        /* \"#utility.yul\":11890:11971   */\n      tag_402\n      jumpi\n        /* \"#utility.yul\":11956:11960   */\n      0x7f\n        /* \"#utility.yul\":11948:11954   */\n      dup3\n        /* \"#utility.yul\":11944:11961   */\n      and\n        /* \"#utility.yul\":11934:11961   */\n      swap2\n      pop\n        /* \"#utility.yul\":11890:11971   */\n    tag_402:\n        /* \"#utility.yul\":12018:12020   */\n      0x20\n        /* \"#utility.yul\":12010:12016   */\n      dup3\n        /* \"#utility.yul\":12007:12021   */\n      lt\n        /* \"#utility.yul\":11987:12005   */\n      dup2\n        /* \"#utility.yul\":11984:12022   */\n      sub\n        /* \"#utility.yul\":11981:12065   */\n      tag_403\n      jumpi\n        /* \"#utility.yul\":12037:12055   */\n      tag_404\n      tag_251\n      jump\t// in\n    tag_404:\n        /* \"#utility.yul\":11981:12065   */\n    tag_403:\n        /* \"#utility.yul\":11802:12071   */\n      pop\n        /* \"#utility.yul\":11751:12071   */\n      swap2\n      swap1\n      pop\n      jump\t// out\n        /* \"#utility.yul\":12077:12225   */\n    tag_252:\n        /* \"#utility.yul\":12179:12190   */\n      0x00\n        /* \"#utility.yul\":12216:12219   */\n      dup2\n        /* \"#utility.yul\":12201:12219   */\n      swap1\n      pop\n        /* \"#utility.yul\":12077:12225   */\n      swap3\n      swap2\n      pop\n      pop\n      jump\t// out\n        /* \"#utility.yul\":12231:12621   */\n    tag_253:\n        /* \"#utility.yul\":12337:12340   */\n      0x00\n        /* \"#utility.yul\":12365:12404   */\n      tag_407\n        /* \"#utility.yul\":12398:12403   */\n      dup3\n        /* \"#utility.yul\":12365:12404   */\n      tag_233\n      jump\t// in\n    tag_407:\n        /* \"#utility.yul\":12420:12509   */\n      tag_408\n        /* \"#utility.yul\":12502:12508   */\n      dup2\n        /* \"#utility.yul\":12497:12500   */\n      dup6\n        /* \"#utility.yul\":12420:12509   */\n      tag_252\n      jump\t// in\n    tag_408:\n        /* \"#utility.yul\":12413:12509   */\n      swap4\n      pop\n        /* \"#utility.yul\":12518:12583   */\n      tag_409\n        /* \"#utility.yul\":12576:12582   */\n      dup2\n        /* \"#utility.yul\":12571:12574   */\n      dup6\n        /* \"#utility.yul\":12564:12568   */\n      0x20\n        /* \"#utility.yul\":12557:12562   */\n      dup7\n        /* \"#utility.yul\":12553:12569   */\n      add\n        /* \"#utility.yul\":12518:12583   */\n      tag_235\n      jump\t// in\n    tag_409:\n        /* \"#utility.yul\":12608:12614   */\n      dup1\n        /* \"#utility.yul\":12603:12606   */\n      dup5\n        /* \"#utility.yul\":12599:12615   */\n      add\n        /* \"#utility.yul\":12592:12615   */\n      swap2\n      pop\n        /* \"#utility.yul\":12341:12621   */\n      pop\n        /* \"#utility.yul\":12231:12621   */\n      swap3\n      swap2\n      pop\n      pop\n      jump\t// out\n        /* \"#utility.yul\":12627:12902   */\n    tag_100:\n        /* \"#utility.yul\":12759:12762   */\n      0x00\n        /* \"#utility.yul\":12781:12876   */\n      tag_411\n        /* \"#utility.yul\":12872:12875   */\n      dup3\n        /* \"#utility.yul\":12863:12869   */\n      dup5\n        /* \"#utility.yul\":12781:12876   */\n      tag_253\n      jump\t// in\n    tag_411:\n        /* \"#utility.yul\":12774:12876   */\n      swap2\n      pop\n        /* \"#utility.yul\":12893:12896   */\n      dup2\n        /* \"#utility.yul\":12886:12896   */\n      swap1\n      pop\n        /* \"#utility.yul\":12627:12902   */\n      swap3\n      swap2\n      pop\n      pop\n      jump\t// out\n        /* \"#utility.yul\":12908:13130   */\n    tag_254:\n        /* \"#utility.yul\":13048:13082   */\n      0x4f6e6c792063726561746f722063616e2063616c6c20746869732066756e6374\n        /* \"#utility.yul\":13044:13045   */\n      0x00\n        /* \"#utility.yul\":13036:13042   */\n      dup3\n        /* \"#utility.yul\":13032:13046   */\n      add\n        /* \"#utility.yul\":13025:13083   */\n      mstore\n        /* \"#utility.yul\":13117:13122   */\n      0x696f6e0000000000000000000000000000000000000000000000000000000000\n        /* \"#utility.yul\":13112:13114   */\n      0x20\n        /* \"#utility.yul\":13104:13110   */\n      dup3\n        /* \"#utility.yul\":13100:13115   */\n      add\n        /* \"#utility.yul\":13093:13123   */\n      mstore\n        /* \"#utility.yul\":12908:13130   */\n      pop\n      jump\t// out\n        /* \"#utility.yul\":13136:13502   */\n    tag_255:\n        /* \"#utility.yul\":13278:13281   */\n      0x00\n        /* \"#utility.yul\":13299:13366   */\n      tag_414\n        /* \"#utility.yul\":13363:13365   */\n      0x23\n        /* \"#utility.yul\":13358:13361   */\n      dup4\n        /* \"#utility.yul\":13299:13366   */\n      tag_234\n      jump\t// in\n    tag_414:\n        /* \"#utility.yul\":13292:13366   */\n      swap2\n      pop\n        /* \"#utility.yul\":13375:13468   */\n      tag_415\n        /* \"#utility.yul\":13464:13467   */\n      dup3\n        /* \"#utility.yul\":13375:13468   */\n      tag_254\n      jump\t// in\n    tag_415:\n        /* \"#utility.yul\":13493:13495   */\n      0x40\n        /* \"#utility.yul\":13488:13491   */\n      dup3\n        /* \"#utility.yul\":13484:13496   */\n      add\n        /* \"#utility.yul\":13477:13496   */\n      swap1\n      pop\n        /* \"#utility.yul\":13136:13502   */\n      swap2\n      swap1\n      pop\n      jump\t// out\n        /* \"#utility.yul\":13508:13927   */\n    tag_125:\n        /* \"#utility.yul\":13674:13678   */\n      0x00\n        /* \"#utility.yul\":13712:13714   */\n      0x20\n        /* \"#utility.yul\":13701:13710   */\n      dup3\n        /* \"#utility.yul\":13697:13715   */\n      add\n        /* \"#utility.yul\":13689:13715   */\n      swap1\n      pop\n        /* \"#utility.yul\":13761:13770   */\n      dup2\n        /* \"#utility.yul\":13755:13759   */\n      dup2\n        /* \"#utility.yul\":13751:13771   */\n      sub\n        /* \"#utility.yul\":13747:13748   */\n      0x00\n        /* \"#utility.yul\":13736:13745   */\n      dup4\n        /* \"#utility.yul\":13732:13749   */\n      add\n        /* \"#utility.yul\":13725:13772   */\n      mstore\n        /* \"#utility.yul\":13789:13920   */\n      tag_417\n        /* \"#utility.yul\":13915:13919   */\n      dup2\n        /* \"#utility.yul\":13789:13920   */\n      tag_255\n      jump\t// in\n    tag_417:\n        /* \"#utility.yul\":13781:13920   */\n      swap1\n      pop\n        /* \"#utility.yul\":13508:13927   */\n      swap2\n      swap1\n      pop\n      jump\t// out\n        /* \"#utility.yul\":13933:14107   */\n    tag_256:\n        /* \"#utility.yul\":14073:14099   */\n      0x566f74696e6720697320616c726561647920636c6f7365640000000000000000\n        /* \"#utility.yul\":14069:14070   */\n      0x00\n        /* \"#utility.yul\":14061:14067   */\n      dup3\n        /* \"#utility.yul\":14057:14071   */\n      add\n        /* \"#utility.yul\":14050:14100   */\n      mstore\n        /* \"#utility.yul\":13933:14107   */\n      pop\n      jump\t// out\n        /* \"#utility.yul\":14113:14479   */\n    tag_257:\n        /* \"#utility.yul\":14255:14258   */\n      0x00\n        /* \"#utility.yul\":14276:14343   */\n      tag_420\n        /* \"#utility.yul\":14340:14342   */\n      0x18\n        /* \"#utility.yul\":14335:14338   */\n      dup4\n        /* \"#utility.yul\":14276:14343   */\n      tag_234\n      jump\t// in\n    tag_420:\n        /* \"#utility.yul\":14269:14343   */\n      swap2\n      pop\n        /* \"#utility.yul\":14352:14445   */\n      tag_421\n        /* \"#utility.yul\":14441:14444   */\n      dup3\n        /* \"#utility.yul\":14352:14445   */\n      tag_256\n      jump\t// in\n    tag_421:\n        /* \"#utility.yul\":14470:14472   */\n      0x20\n        /* \"#utility.yul\":14465:14468   */\n      dup3\n        /* \"#utility.yul\":14461:14473   */\n      add\n        /* \"#utility.yul\":14454:14473   */\n      swap1\n      pop\n        /* \"#utility.yul\":14113:14479   */\n      swap2\n      swap1\n      pop\n      jump\t// out\n        /* \"#utility.yul\":14485:14904   */\n    tag_129:\n        /* \"#utility.yul\":14651:14655   */\n      0x00\n        /* \"#utility.yul\":14689:14691   */\n      0x20\n        /* \"#utility.yul\":14678:14687   */\n      dup3\n        /* \"#utility.yul\":14674:14692   */\n      add\n        /* \"#utility.yul\":14666:14692   */\n      swap1\n      pop\n        /* \"#utility.yul\":14738:14747   */\n      dup2\n        /* \"#utility.yul\":14732:14736   */\n      dup2\n        /* \"#utility.yul\":14728:14748   */\n      sub\n        /* \"#utility.yul\":14724:14725   */\n      0x00\n        /* \"#utility.yul\":14713:14722   */\n      dup4\n        /* \"#utility.yul\":14709:14726   */\n      add\n        /* \"#utility.yul\":14702:14749   */\n      mstore\n        /* \"#utility.yul\":14766:14897   */\n      tag_423\n        /* \"#utility.yul\":14892:14896   */\n      dup2\n        /* \"#utility.yul\":14766:14897   */\n      tag_257\n      jump\t// in\n    tag_423:\n        /* \"#utility.yul\":14758:14897   */\n      swap1\n      pop\n        /* \"#utility.yul\":14485:14904   */\n      swap2\n      swap1\n      pop\n      jump\t// out\n        /* \"#utility.yul\":14910:15026   */\n    tag_258:\n        /* \"#utility.yul\":14980:15001   */\n      tag_425\n        /* \"#utility.yul\":14995:15000   */\n      dup2\n        /* \"#utility.yul\":14980:15001   */\n      tag_237\n      jump\t// in\n    tag_425:\n        /* \"#utility.yul\":14973:14978   */\n      dup2\n        /* \"#utility.yul\":14970:15002   */\n      eq\n        /* \"#utility.yul\":14960:15020   */\n      tag_426\n      jumpi\n        /* \"#utility.yul\":15016:15017   */\n      0x00\n        /* \"#utility.yul\":15013:15014   */\n      dup1\n        /* \"#utility.yul\":15006:15018   */\n      revert\n        /* \"#utility.yul\":14960:15020   */\n    tag_426:\n        /* \"#utility.yul\":14910:15026   */\n      pop\n      jump\t// out\n        /* \"#utility.yul\":15032:15169   */\n    tag_259:\n        /* \"#utility.yul\":15086:15091   */\n      0x00\n        /* \"#utility.yul\":15117:15123   */\n      dup2\n        /* \"#utility.yul\":15111:15124   */\n      mload\n        /* \"#utility.yul\":15102:15124   */\n      swap1\n      pop\n        /* \"#utility.yul\":15133:15163   */\n      tag_428\n        /* \"#utility.yul\":15157:15162   */\n      dup2\n        /* \"#utility.yul\":15133:15163   */\n      tag_258\n      jump\t// in\n    tag_428:\n        /* \"#utility.yul\":15032:15169   */\n      swap3\n      swap2\n      pop\n      pop\n      jump\t// out\n        /* \"#utility.yul\":15175:15520   */\n    tag_149:\n        /* \"#utility.yul\":15242:15248   */\n      0x00\n        /* \"#utility.yul\":15291:15293   */\n      0x20\n        /* \"#utility.yul\":15279:15288   */\n      dup3\n        /* \"#utility.yul\":15270:15277   */\n      dup5\n        /* \"#utility.yul\":15266:15289   */\n      sub\n        /* \"#utility.yul\":15262:15294   */\n      slt\n        /* \"#utility.yul\":15259:15378   */\n      iszero\n      tag_430\n      jumpi\n        /* \"#utility.yul\":15297:15376   */\n      tag_431\n      tag_215\n      jump\t// in\n    tag_431:\n        /* \"#utility.yul\":15259:15378   */\n    tag_430:\n        /* \"#utility.yul\":15417:15418   */\n      0x00\n        /* \"#utility.yul\":15442:15503   */\n      tag_432\n        /* \"#utility.yul\":15495:15502   */\n      dup5\n        /* \"#utility.yul\":15486:15492   */\n      dup3\n        /* \"#utility.yul\":15475:15484   */\n      dup6\n        /* \"#utility.yul\":15471:15493   */\n      add\n        /* \"#utility.yul\":15442:15503   */\n      tag_259\n      jump\t// in\n    tag_432:\n        /* \"#utility.yul\":15432:15503   */\n      swap2\n      pop\n        /* \"#utility.yul\":15388:15513   */\n      pop\n        /* \"#utility.yul\":15175:15520   */\n      swap3\n      swap2\n      pop\n      pop\n      jump\t// out\n        /* \"#utility.yul\":15526:15763   */\n    tag_260:\n        /* \"#utility.yul\":15666:15700   */\n      0x4f6e6c792073747564656e747320616e6420656d706c6f796565732063616e20\n        /* \"#utility.yul\":15662:15663   */\n      0x00\n        /* \"#utility.yul\":15654:15660   */\n      dup3\n        /* \"#utility.yul\":15650:15664   */\n      add\n        /* \"#utility.yul\":15643:15701   */\n      mstore\n        /* \"#utility.yul\":15735:15755   */\n      0x63616c6c20746869732066756e6374696f6e0000000000000000000000000000\n        /* \"#utility.yul\":15730:15732   */\n      0x20\n        /* \"#utility.yul\":15722:15728   */\n      dup3\n        /* \"#utility.yul\":15718:15733   */\n      add\n        /* \"#utility.yul\":15711:15756   */\n      mstore\n        /* \"#utility.yul\":15526:15763   */\n      pop\n      jump\t// out\n        /* \"#utility.yul\":15769:16135   */\n    tag_261:\n        /* \"#utility.yul\":15911:15914   */\n      0x00\n        /* \"#utility.yul\":15932:15999   */\n      tag_435\n        /* \"#utility.yul\":15996:15998   */\n      0x32\n        /* \"#utility.yul\":15991:15994   */\n      dup4\n        /* \"#utility.yul\":15932:15999   */\n      tag_234\n      jump\t// in\n    tag_435:\n        /* \"#utility.yul\":15925:15999   */\n      swap2\n      pop\n        /* \"#utility.yul\":16008:16101   */\n      tag_436\n        /* \"#utility.yul\":16097:16100   */\n      dup3\n        /* \"#utility.yul\":16008:16101   */\n      tag_260\n      jump\t// in\n    tag_436:\n        /* \"#utility.yul\":16126:16128   */\n      0x40\n        /* \"#utility.yul\":16121:16124   */\n      dup3\n        /* \"#utility.yul\":16117:16129   */\n      add\n        /* \"#utility.yul\":16110:16129   */\n      swap1\n      pop\n        /* \"#utility.yul\":15769:16135   */\n      swap2\n      swap1\n      pop\n      jump\t// out\n        /* \"#utility.yul\":16141:16560   */\n    tag_157:\n        /* \"#utility.yul\":16307:16311   */\n      0x00\n        /* \"#utility.yul\":16345:16347   */\n      0x20\n        /* \"#utility.yul\":16334:16343   */\n      dup3\n        /* \"#utility.yul\":16330:16348   */\n      add\n        /* \"#utility.yul\":16322:16348   */\n      swap1\n      pop\n        /* \"#utility.yul\":16394:16403   */\n      dup2\n        /* \"#utility.yul\":16388:16392   */\n      dup2\n        /* \"#utility.yul\":16384:16404   */\n      sub\n        /* \"#utility.yul\":16380:16381   */\n      0x00\n        /* \"#utility.yul\":16369:16378   */\n      dup4\n        /* \"#utility.yul\":16365:16382   */\n      add\n        /* \"#utility.yul\":16358:16405   */\n      mstore\n        /* \"#utility.yul\":16422:16553   */\n      tag_438\n        /* \"#utility.yul\":16548:16552   */\n      dup2\n        /* \"#utility.yul\":16422:16553   */\n      tag_261\n      jump\t// in\n    tag_438:\n        /* \"#utility.yul\":16414:16553   */\n      swap1\n      pop\n        /* \"#utility.yul\":16141:16560   */\n      swap2\n      swap1\n      pop\n      jump\t// out\n        /* \"#utility.yul\":16566:16789   */\n    tag_262:\n        /* \"#utility.yul\":16706:16740   */\n      0x4f6e6c792073747564656e74732063616e2063616c6c20746869732066756e63\n        /* \"#utility.yul\":16702:16703   */\n      0x00\n        /* \"#utility.yul\":16694:16700   */\n      dup3\n        /* \"#utility.yul\":16690:16704   */\n      add\n        /* \"#utility.yul\":16683:16741   */\n      mstore\n        /* \"#utility.yul\":16775:16781   */\n      0x74696f6e00000000000000000000000000000000000000000000000000000000\n        /* \"#utility.yul\":16770:16772   */\n      0x20\n        /* \"#utility.yul\":16762:16768   */\n      dup3\n        /* \"#utility.yul\":16758:16773   */\n      add\n        /* \"#utility.yul\":16751:16782   */\n      mstore\n        /* \"#utility.yul\":16566:16789   */\n      pop\n      jump\t// out\n        /* \"#utility.yul\":16795:17161   */\n    tag_263:\n        /* \"#utility.yul\":16937:16940   */\n      0x00\n        /* \"#utility.yul\":16958:17025   */\n      tag_441\n        /* \"#utility.yul\":17022:17024   */\n      0x24\n        /* \"#utility.yul\":17017:17020   */\n      dup4\n        /* \"#utility.yul\":16958:17025   */\n      tag_234\n      jump\t// in\n    tag_441:\n        /* \"#utility.yul\":16951:17025   */\n      swap2\n      pop\n        /* \"#utility.yul\":17034:17127   */\n      tag_442\n        /* \"#utility.yul\":17123:17126   */\n      dup3\n        /* \"#utility.yul\":17034:17127   */\n      tag_262\n      jump\t// in\n    tag_442:\n        /* \"#utility.yul\":17152:17154   */\n      0x40\n        /* \"#utility.yul\":17147:17150   */\n      dup3\n        /* \"#utility.yul\":17143:17155   */\n      add\n        /* \"#utility.yul\":17136:17155   */\n      swap1\n      pop\n        /* \"#utility.yul\":16795:17161   */\n      swap2\n      swap1\n      pop\n      jump\t// out\n        /* \"#utility.yul\":17167:17586   */\n    tag_170:\n        /* \"#utility.yul\":17333:17337   */\n      0x00\n        /* \"#utility.yul\":17371:17373   */\n      0x20\n        /* \"#utility.yul\":17360:17369   */\n      dup3\n        /* \"#utility.yul\":17356:17374   */\n      add\n        /* \"#utility.yul\":17348:17374   */\n      swap1\n      pop\n        /* \"#utility.yul\":17420:17429   */\n      dup2\n        /* \"#utility.yul\":17414:17418   */\n      dup2\n        /* \"#utility.yul\":17410:17430   */\n      sub\n        /* \"#utility.yul\":17406:17407   */\n      0x00\n        /* \"#utility.yul\":17395:17404   */\n      dup4\n        /* \"#utility.yul\":17391:17408   */\n      add\n        /* \"#utility.yul\":17384:17431   */\n      mstore\n        /* \"#utility.yul\":17448:17579   */\n      tag_444\n        /* \"#utility.yul\":17574:17578   */\n      dup2\n        /* \"#utility.yul\":17448:17579   */\n      tag_263\n      jump\t// in\n    tag_444:\n        /* \"#utility.yul\":17440:17579   */\n      swap1\n      pop\n        /* \"#utility.yul\":17167:17586   */\n      swap2\n      swap1\n      pop\n      jump\t// out\n        /* \"#utility.yul\":17592:17816   */\n    tag_264:\n        /* \"#utility.yul\":17732:17766   */\n      0x4f6e6c7920656d706c6f796565732063616e2063616c6c20746869732066756e\n        /* \"#utility.yul\":17728:17729   */\n      0x00\n        /* \"#utility.yul\":17720:17726   */\n      dup3\n        /* \"#utility.yul\":17716:17730   */\n      add\n        /* \"#utility.yul\":17709:17767   */\n      mstore\n        /* \"#utility.yul\":17801:17808   */\n      0x6374696f6e000000000000000000000000000000000000000000000000000000\n        /* \"#utility.yul\":17796:17798   */\n      0x20\n        /* \"#utility.yul\":17788:17794   */\n      dup3\n        /* \"#utility.yul\":17784:17799   */\n      add\n        /* \"#utility.yul\":17777:17809   */\n      mstore\n        /* \"#utility.yul\":17592:17816   */\n      pop\n      jump\t// out\n        /* \"#utility.yul\":17822:18188   */\n    tag_265:\n        /* \"#utility.yul\":17964:17967   */\n      0x00\n        /* \"#utility.yul\":17985:18052   */\n      tag_447\n        /* \"#utility.yul\":18049:18051   */\n      0x25\n        /* \"#utility.yul\":18044:18047   */\n      dup4\n        /* \"#utility.yul\":17985:18052   */\n      tag_234\n      jump\t// in\n    tag_447:\n        /* \"#utility.yul\":17978:18052   */\n      swap2\n      pop\n        /* \"#utility.yul\":18061:18154   */\n      tag_448\n        /* \"#utility.yul\":18150:18153   */\n      dup3\n        /* \"#utility.yul\":18061:18154   */\n      tag_264\n      jump\t// in\n    tag_448:\n        /* \"#utility.yul\":18179:18181   */\n      0x40\n        /* \"#utility.yul\":18174:18177   */\n      dup3\n        /* \"#utility.yul\":18170:18182   */\n      add\n        /* \"#utility.yul\":18163:18182   */\n      swap1\n      pop\n        /* \"#utility.yul\":17822:18188   */\n      swap2\n      swap1\n      pop\n      jump\t// out\n        /* \"#utility.yul\":18194:18613   */\n    tag_183:\n        /* \"#utility.yul\":18360:18364   */\n      0x00\n        /* \"#utility.yul\":18398:18400   */\n      0x20\n        /* \"#utility.yul\":18387:18396   */\n      dup3\n        /* \"#utility.yul\":18383:18401   */\n      add\n        /* \"#utility.yul\":18375:18401   */\n      swap1\n      pop\n        /* \"#utility.yul\":18447:18456   */\n      dup2\n        /* \"#utility.yul\":18441:18445   */\n      dup2\n        /* \"#utility.yul\":18437:18457   */\n      sub\n        /* \"#utility.yul\":18433:18434   */\n      0x00\n        /* \"#utility.yul\":18422:18431   */\n      dup4\n        /* \"#utility.yul\":18418:18435   */\n      add\n        /* \"#utility.yul\":18411:18458   */\n      mstore\n        /* \"#utility.yul\":18475:18606   */\n      tag_450\n        /* \"#utility.yul\":18601:18605   */\n      dup2\n        /* \"#utility.yul\":18475:18606   */\n      tag_265\n      jump\t// in\n    tag_450:\n        /* \"#utility.yul\":18467:18606   */\n      swap1\n      pop\n        /* \"#utility.yul\":18194:18613   */\n      swap2\n      swap1\n      pop\n      jump\t// out\n        /* \"#utility.yul\":18619:18791   */\n    tag_266:\n        /* \"#utility.yul\":18759:18783   */\n      0x596f75206861766520616c726561647920766f74656400000000000000000000\n        /* \"#utility.yul\":18755:18756   */\n      0x00\n        /* \"#utility.yul\":18747:18753   */\n      dup3\n        /* \"#utility.yul\":18743:18757   */\n      add\n        /* \"#utility.yul\":18736:18784   */\n      mstore\n        /* \"#utility.yul\":18619:18791   */\n      pop\n      jump\t// out\n        /* \"#utility.yul\":18797:19163   */\n    tag_267:\n        /* \"#utility.yul\":18939:18942   */\n      0x00\n        /* \"#utility.yul\":18960:19027   */\n      tag_453\n        /* \"#utility.yul\":19024:19026   */\n      0x16\n        /* \"#utility.yul\":19019:19022   */\n      dup4\n        /* \"#utility.yul\":18960:19027   */\n      tag_234\n      jump\t// in\n    tag_453:\n        /* \"#utility.yul\":18953:19027   */\n      swap2\n      pop\n        /* \"#utility.yul\":19036:19129   */\n      tag_454\n        /* \"#utility.yul\":19125:19128   */\n      dup3\n        /* \"#utility.yul\":19036:19129   */\n      tag_266\n      jump\t// in\n    tag_454:\n        /* \"#utility.yul\":19154:19156   */\n      0x20\n        /* \"#utility.yul\":19149:19152   */\n      dup3\n        /* \"#utility.yul\":19145:19157   */\n      add\n        /* \"#utility.yul\":19138:19157   */\n      swap1\n      pop\n        /* \"#utility.yul\":18797:19163   */\n      swap2\n      swap1\n      pop\n      jump\t// out\n        /* \"#utility.yul\":19169:19588   */\n    tag_187:\n        /* \"#utility.yul\":19335:19339   */\n      0x00\n        /* \"#utility.yul\":19373:19375   */\n      0x20\n        /* \"#utility.yul\":19362:19371   */\n      dup3\n        /* \"#utility.yul\":19358:19376   */\n      add\n        /* \"#utility.yul\":19350:19376   */\n      swap1\n      pop\n        /* \"#utility.yul\":19422:19431   */\n      dup2\n        /* \"#utility.yul\":19416:19420   */\n      dup2\n        /* \"#utility.yul\":19412:19432   */\n      sub\n        /* \"#utility.yul\":19408:19409   */\n      0x00\n        /* \"#utility.yul\":19397:19406   */\n      dup4\n        /* \"#utility.yul\":19393:19410   */\n      add\n        /* \"#utility.yul\":19386:19433   */\n      mstore\n        /* \"#utility.yul\":19450:19581   */\n      tag_456\n        /* \"#utility.yul\":19576:19580   */\n      dup2\n        /* \"#utility.yul\":19450:19581   */\n      tag_267\n      jump\t// in\n    tag_456:\n        /* \"#utility.yul\":19442:19581   */\n      swap1\n      pop\n        /* \"#utility.yul\":19169:19588   */\n      swap2\n      swap1\n      pop\n      jump\t// out\n        /* \"#utility.yul\":19594:19760   */\n    tag_268:\n        /* \"#utility.yul\":19734:19752   */\n      0x566f74696e6720697320636c6f73656400000000000000000000000000000000\n        /* \"#utility.yul\":19730:19731   */\n      0x00\n        /* \"#utility.yul\":19722:19728   */\n      dup3\n        /* \"#utility.yul\":19718:19732   */\n      add\n        /* \"#utility.yul\":19711:19753   */\n      mstore\n        /* \"#utility.yul\":19594:19760   */\n      pop\n      jump\t// out\n        /* \"#utility.yul\":19766:20132   */\n    tag_269:\n        /* \"#utility.yul\":19908:19911   */\n      0x00\n        /* \"#utility.yul\":19929:19996   */\n      tag_459\n        /* \"#utility.yul\":19993:19995   */\n      0x10\n        /* \"#utility.yul\":19988:19991   */\n      dup4\n        /* \"#utility.yul\":19929:19996   */\n      tag_234\n      jump\t// in\n    tag_459:\n        /* \"#utility.yul\":19922:19996   */\n      swap2\n      pop\n        /* \"#utility.yul\":20005:20098   */\n      tag_460\n        /* \"#utility.yul\":20094:20097   */\n      dup3\n        /* \"#utility.yul\":20005:20098   */\n      tag_268\n      jump\t// in\n    tag_460:\n        /* \"#utility.yul\":20123:20125   */\n      0x20\n        /* \"#utility.yul\":20118:20121   */\n      dup3\n        /* \"#utility.yul\":20114:20126   */\n      add\n        /* \"#utility.yul\":20107:20126   */\n      swap1\n      pop\n        /* \"#utility.yul\":19766:20132   */\n      swap2\n      swap1\n      pop\n      jump\t// out\n        /* \"#utility.yul\":20138:20557   */\n    tag_190:\n        /* \"#utility.yul\":20304:20308   */\n      0x00\n        /* \"#utility.yul\":20342:20344   */\n      0x20\n        /* \"#utility.yul\":20331:20340   */\n      dup3\n        /* \"#utility.yul\":20327:20345   */\n      add\n        /* \"#utility.yul\":20319:20345   */\n      swap1\n      pop\n        /* \"#utility.yul\":20391:20400   */\n      dup2\n        /* \"#utility.yul\":20385:20389   */\n      dup2\n        /* \"#utility.yul\":20381:20401   */\n      sub\n        /* \"#utility.yul\":20377:20378   */\n      0x00\n        /* \"#utility.yul\":20366:20375   */\n      dup4\n        /* \"#utility.yul\":20362:20379   */\n      add\n        /* \"#utility.yul\":20355:20402   */\n      mstore\n        /* \"#utility.yul\":20419:20550   */\n      tag_462\n        /* \"#utility.yul\":20545:20549   */\n      dup2\n        /* \"#utility.yul\":20419:20550   */\n      tag_269\n      jump\t// in\n    tag_462:\n        /* \"#utility.yul\":20411:20550   */\n      swap1\n      pop\n        /* \"#utility.yul\":20138:20557   */\n      swap2\n      swap1\n      pop\n      jump\t// out\n        /* \"#utility.yul\":20563:20743   */\n    tag_197:\n        /* \"#utility.yul\":20611:20688   */\n      0x4e487b7100000000000000000000000000000000000000000000000000000000\n        /* \"#utility.yul\":20608:20609   */\n      0x00\n        /* \"#utility.yul\":20601:20689   */\n      mstore\n        /* \"#utility.yul\":20708:20712   */\n      0x32\n        /* \"#utility.yul\":20705:20706   */\n      0x04\n        /* \"#utility.yul\":20698:20713   */\n      mstore\n        /* \"#utility.yul\":20732:20736   */\n      0x24\n        /* \"#utility.yul\":20729:20730   */\n      0x00\n        /* \"#utility.yul\":20722:20737   */\n      revert\n        /* \"#utility.yul\":20749:20890   */\n    tag_270:\n        /* \"#utility.yul\":20798:20802   */\n      0x00\n        /* \"#utility.yul\":20821:20824   */\n      dup2\n        /* \"#utility.yul\":20813:20824   */\n      swap1\n      pop\n        /* \"#utility.yul\":20844:20847   */\n      dup2\n        /* \"#utility.yul\":20841:20842   */\n      0x00\n        /* \"#utility.yul\":20834:20848   */\n      mstore\n        /* \"#utility.yul\":20878:20882   */\n      0x20\n        /* \"#utility.yul\":20875:20876   */\n      0x00\n        /* \"#utility.yul\":20865:20883   */\n      keccak256\n        /* \"#utility.yul\":20857:20883   */\n      swap1\n      pop\n        /* \"#utility.yul\":20749:20890   */\n      swap2\n      swap1\n      pop\n      jump\t// out\n        /* \"#utility.yul\":20920:21794   */\n    tag_271:\n        /* \"#utility.yul\":21023:21026   */\n      0x00\n        /* \"#utility.yul\":21060:21065   */\n      dup2\n        /* \"#utility.yul\":21054:21066   */\n      sload\n        /* \"#utility.yul\":21089:21125   */\n      tag_466\n        /* \"#utility.yul\":21115:21124   */\n      dup2\n        /* \"#utility.yul\":21089:21125   */\n      tag_86\n      jump\t// in\n    tag_466:\n        /* \"#utility.yul\":21141:21230   */\n      tag_467\n        /* \"#utility.yul\":21223:21229   */\n      dup2\n        /* \"#utility.yul\":21218:21221   */\n      dup7\n        /* \"#utility.yul\":21141:21230   */\n      tag_252\n      jump\t// in\n    tag_467:\n        /* \"#utility.yul\":21134:21230   */\n      swap5\n      pop\n        /* \"#utility.yul\":21261:21262   */\n      0x01\n        /* \"#utility.yul\":21250:21259   */\n      dup3\n        /* \"#utility.yul\":21246:21263   */\n      and\n        /* \"#utility.yul\":21277:21278   */\n      0x00\n        /* \"#utility.yul\":21272:21438   */\n      dup2\n      eq\n      tag_469\n      jumpi\n        /* \"#utility.yul\":21452:21453   */\n      0x01\n        /* \"#utility.yul\":21447:21788   */\n      dup2\n      eq\n      tag_470\n      jumpi\n        /* \"#utility.yul\":21239:21788   */\n      jump(tag_468)\n        /* \"#utility.yul\":21272:21438   */\n    tag_469:\n        /* \"#utility.yul\":21356:21360   */\n      0xff\n        /* \"#utility.yul\":21352:21361   */\n      not\n        /* \"#utility.yul\":21341:21350   */\n      dup4\n        /* \"#utility.yul\":21337:21362   */\n      and\n        /* \"#utility.yul\":21332:21335   */\n      dup7\n        /* \"#utility.yul\":21325:21363   */\n      mstore\n        /* \"#utility.yul\":21418:21424   */\n      dup2\n        /* \"#utility.yul\":21411:21425   */\n      iszero\n        /* \"#utility.yul\":21404:21426   */\n      iszero\n        /* \"#utility.yul\":21396:21402   */\n      dup3\n        /* \"#utility.yul\":21392:21427   */\n      mul\n        /* \"#utility.yul\":21387:21390   */\n      dup7\n        /* \"#utility.yul\":21383:21428   */\n      add\n        /* \"#utility.yul\":21376:21428   */\n      swap4\n      pop\n        /* \"#utility.yul\":21272:21438   */\n      jump(tag_468)\n        /* \"#utility.yul\":21447:21788   */\n    tag_470:\n        /* \"#utility.yul\":21514:21552   */\n      tag_471\n        /* \"#utility.yul\":21546:21551   */\n      dup6\n        /* \"#utility.yul\":21514:21552   */\n      tag_270\n      jump\t// in\n    tag_471:\n        /* \"#utility.yul\":21574:21575   */\n      0x00\n        /* \"#utility.yul\":21588:21742   */\n    tag_472:\n        /* \"#utility.yul\":21602:21608   */\n      dup4\n        /* \"#utility.yul\":21599:21600   */\n      dup2\n        /* \"#utility.yul\":21596:21609   */\n      lt\n        /* \"#utility.yul\":21588:21742   */\n      iszero\n      tag_474\n      jumpi\n        /* \"#utility.yul\":21676:21683   */\n      dup2\n        /* \"#utility.yul\":21670:21684   */\n      sload\n        /* \"#utility.yul\":21666:21667   */\n      dup2\n        /* \"#utility.yul\":21661:21664   */\n      dup10\n        /* \"#utility.yul\":21657:21668   */\n      add\n        /* \"#utility.yul\":21650:21685   */\n      mstore\n        /* \"#utility.yul\":21726:21727   */\n      0x01\n        /* \"#utility.yul\":21717:21724   */\n      dup3\n        /* \"#utility.yul\":21713:21728   */\n      add\n        /* \"#utility.yul\":21702:21728   */\n      swap2\n      pop\n        /* \"#utility.yul\":21624:21628   */\n      0x20\n        /* \"#utility.yul\":21621:21622   */\n      dup2\n        /* \"#utility.yul\":21617:21629   */\n      add\n        /* \"#utility.yul\":21612:21629   */\n      swap1\n      pop\n        /* \"#utility.yul\":21588:21742   */\n      jump(tag_472)\n    tag_474:\n        /* \"#utility.yul\":21771:21777   */\n      dup4\n        /* \"#utility.yul\":21766:21769   */\n      dup9\n        /* \"#utility.yul\":21762:21778   */\n      add\n        /* \"#utility.yul\":21755:21778   */\n      swap6\n      pop\n        /* \"#utility.yul\":21454:21788   */\n      pop\n      pop\n        /* \"#utility.yul\":21239:21788   */\n    tag_468:\n      pop\n        /* \"#utility.yul\":21027:21794   */\n      pop\n      pop\n        /* \"#utility.yul\":20920:21794   */\n      swap3\n      swap2\n      pop\n      pop\n      jump\t// out\n        /* \"#utility.yul\":21800:22069   */\n    tag_200:\n        /* \"#utility.yul\":21929:21932   */\n      0x00\n        /* \"#utility.yul\":21951:22043   */\n      tag_476\n        /* \"#utility.yul\":22039:22042   */\n      dup3\n        /* \"#utility.yul\":22030:22036   */\n      dup5\n        /* \"#utility.yul\":21951:22043   */\n      tag_271\n      jump\t// in\n    tag_476:\n        /* \"#utility.yul\":21944:22043   */\n      swap2\n      pop\n        /* \"#utility.yul\":22060:22063   */\n      dup2\n        /* \"#utility.yul\":22053:22063   */\n      swap1\n      pop\n        /* \"#utility.yul\":21800:22069   */\n      swap3\n      swap2\n      pop\n      pop\n      jump\t// out\n        /* \"#utility.yul\":22075:22255   */\n    tag_272:\n        /* \"#utility.yul\":22123:22200   */\n      0x4e487b7100000000000000000000000000000000000000000000000000000000\n        /* \"#utility.yul\":22120:22121   */\n      0x00\n        /* \"#utility.yul\":22113:22201   */\n      mstore\n        /* \"#utility.yul\":22220:22224   */\n      0x11\n        /* \"#utility.yul\":22217:22218   */\n      0x04\n        /* \"#utility.yul\":22210:22225   */\n      mstore\n        /* \"#utility.yul\":22244:22248   */\n      0x24\n        /* \"#utility.yul\":22241:22242   */\n      0x00\n        /* \"#utility.yul\":22234:22249   */\n      revert\n        /* \"#utility.yul\":22261:22494   */\n    tag_203:\n        /* \"#utility.yul\":22300:22303   */\n      0x00\n        /* \"#utility.yul\":22323:22347   */\n      tag_479\n        /* \"#utility.yul\":22341:22346   */\n      dup3\n        /* \"#utility.yul\":22323:22347   */\n      tag_227\n      jump\t// in\n    tag_479:\n        /* \"#utility.yul\":22314:22347   */\n      swap2\n      pop\n        /* \"#utility.yul\":22369:22435   */\n      0xffffffffffffffffffffffffffffffffffffffffffffffffffffffffffffffff\n        /* \"#utility.yul\":22362:22367   */\n      dup3\n        /* \"#utility.yul\":22359:22436   */\n      sub\n        /* \"#utility.yul\":22356:22459   */\n      tag_480\n      jumpi\n        /* \"#utility.yul\":22439:22457   */\n      tag_481\n      tag_272\n      jump\t// in\n    tag_481:\n        /* \"#utility.yul\":22356:22459   */\n    tag_480:\n        /* \"#utility.yul\":22486:22487   */\n      0x01\n        /* \"#utility.yul\":22479:22484   */\n      dup3\n        /* \"#utility.yul\":22475:22488   */\n      add\n        /* \"#utility.yul\":22468:22488   */\n      swap1\n      pop\n        /* \"#utility.yul\":22261:22494   */\n      swap2\n      swap1\n      pop\n      jump\t// out\n        /* \"#utility.yul\":22500:22671   */\n    tag_273:\n        /* \"#utility.yul\":22640:22663   */\n      0x4f7074696f6e20646f6573206e6f742065786973740000000000000000000000\n        /* \"#utility.yul\":22636:22637   */\n      0x00\n        /* \"#utility.yul\":22628:22634   */\n      dup3\n        /* \"#utility.yul\":22624:22638   */\n      add\n        /* \"#utility.yul\":22617:22664   */\n      mstore\n        /* \"#utility.yul\":22500:22671   */\n      pop\n      jump\t// out\n        /* \"#utility.yul\":22677:23043   */\n    tag_274:\n        /* \"#utility.yul\":22819:22822   */\n      0x00\n        /* \"#utility.yul\":22840:22907   */\n      tag_484\n        /* \"#utility.yul\":22904:22906   */\n      0x15\n        /* \"#utility.yul\":22899:22902   */\n      dup4\n        /* \"#utility.yul\":22840:22907   */\n      tag_234\n      jump\t// in\n    tag_484:\n        /* \"#utility.yul\":22833:22907   */\n      swap2\n      pop\n        /* \"#utility.yul\":22916:23009   */\n      tag_485\n        /* \"#utility.yul\":23005:23008   */\n      dup3\n        /* \"#utility.yul\":22916:23009   */\n      tag_273\n      jump\t// in\n    tag_485:\n        /* \"#utility.yul\":23034:23036   */\n      0x20\n        /* \"#utility.yul\":23029:23032   */\n      dup3\n        /* \"#utility.yul\":23025:23037   */\n      add\n        /* \"#utility.yul\":23018:23037   */\n      swap1\n      pop\n        /* \"#utility.yul\":22677:23043   */\n      swap2\n      swap1\n      pop\n      jump\t// out\n        /* \"#utility.yul\":23049:23468   */\n    tag_206:\n        /* \"#utility.yul\":23215:23219   */\n      0x00\n        /* \"#utility.yul\":23253:23255   */\n      0x20\n        /* \"#utility.yul\":23242:23251   */\n      dup3\n        /* \"#utility.yul\":23238:23256   */\n      add\n        /* \"#utility.yul\":23230:23256   */\n      swap1\n      pop\n        /* \"#utility.yul\":23302:23311   */\n      dup2\n        /* \"#utility.yul\":23296:23300   */\n      dup2\n        /* \"#utility.yul\":23292:23312   */\n      sub\n        /* \"#utility.yul\":23288:23289   */\n      0x00\n        /* \"#utility.yul\":23277:23286   */\n      dup4\n        /* \"#utility.yul\":23273:23290   */\n      add\n        /* \"#utility.yul\":23266:23313   */\n      mstore\n        /* \"#utility.yul\":23330:23461   */\n      tag_487\n        /* \"#utility.yul\":23456:23460   */\n      dup2\n        /* \"#utility.yul\":23330:23461   */\n      tag_274\n      jump\t// in\n    tag_487:\n        /* \"#utility.yul\":23322:23461   */\n      swap1\n      pop\n        /* \"#utility.yul\":23049:23468   */\n      swap2\n      swap1\n      pop\n      jump\t// out\n        /* \"#utility.yul\":23474:23665   */\n    tag_209:\n        /* \"#utility.yul\":23514:23517   */\n      0x00\n        /* \"#utility.yul\":23533:23553   */\n      tag_489\n        /* \"#utility.yul\":23551:23552   */\n      dup3\n        /* \"#utility.yul\":23533:23553   */\n      tag_227\n      jump\t// in\n    tag_489:\n        /* \"#utility.yul\":23528:23553   */\n      swap2\n      pop\n        /* \"#utility.yul\":23567:23587   */\n      tag_490\n        /* \"#utility.yul\":23585:23586   */\n      dup4\n        /* \"#utility.yul\":23567:23587   */\n      tag_227\n      jump\t// in\n    tag_490:\n        /* \"#utility.yul\":23562:23587   */\n      swap3\n      pop\n        /* \"#utility.yul\":23610:23611   */\n      dup3\n        /* \"#utility.yul\":23607:23608   */\n      dup3\n        /* \"#utility.yul\":23603:23612   */\n      add\n        /* \"#utility.yul\":23596:23612   */\n      swap1\n      pop\n        /* \"#utility.yul\":23631:23634   */\n      dup1\n        /* \"#utility.yul\":23628:23629   */\n      dup3\n        /* \"#utility.yul\":23625:23635   */\n      gt\n        /* \"#utility.yul\":23622:23658   */\n      iszero\n      tag_491\n      jumpi\n        /* \"#utility.yul\":23638:23656   */\n      tag_492\n      tag_272\n      jump\t// in\n    tag_492:\n        /* \"#utility.yul\":23622:23658   */\n    tag_491:\n        /* \"#utility.yul\":23474:23665   */\n      swap3\n      swap2\n      pop\n      pop\n      jump\t// out\n\n    auxdata: 0xa264697066735822122031ab9588190ef4edb56affcbb0b3ee0bd9fe1fc77da4c107d17930e9e0b5e9ff64736f6c63430008110033\n}\n","bytecode":{"linkReferences":{},"object":"60806040523480156200001157600080fd5b50604051620025ce380380620025ce833981810160405281019062000037919062000587565b836000806101000a81548173ffffffffffffffffffffffffffffffffffffffff021916908373ffffffffffffffffffffffffffffffffffffffff16021790555084600160006101000a81548173ffffffffffffffffffffffffffffffffffffffff021916908373ffffffffffffffffffffffffffffffffffffffff160217905550600160009054906101000a900473ffffffffffffffffffffffffffffffffffffffff16600260006101000a81548173ffffffffffffffffffffffffffffffffffffffff021916908373ffffffffffffffffffffffffffffffffffffffff16021790555082600390816200012c919062000898565b508160049080519060200190620001459291906200017e565b5080600860016101000a81548160ff021916908360028111156200016e576200016d6200097f565b5b02179055505050505050620009ae565b828054828255906000526020600020908101928215620001cb579160200282015b82811115620001ca578251829081620001b9919062000898565b50916020019190600101906200019f565b5b509050620001da9190620001de565b5090565b5b80821115620002025760008181620001f8919062000206565b50600101620001df565b5090565b508054620002149062000687565b6000825580601f1062000228575062000249565b601f0160209004906000526020600020908101906200024891906200024c565b5b50565b5b80821115620002675760008160009055506001016200024d565b5090565b6000604051905090565b600080fd5b600080fd5b600073ffffffffffffffffffffffffffffffffffffffff82169050919050565b6000620002ac826200027f565b9050919050565b620002be816200029f565b8114620002ca57600080fd5b50565b600081519050620002de81620002b3565b92915050565b600080fd5b600080fd5b6000601f19601f8301169050919050565b7f4e487b7100000000000000000000000000000000000000000000000000000000600052604160045260246000fd5b6200033982620002ee565b810181811067ffffffffffffffff821117156200035b576200035a620002ff565b5b80604052505050565b6000620003706200026b565b90506200037e82826200032e565b919050565b600067ffffffffffffffff821115620003a157620003a0620002ff565b5b620003ac82620002ee565b9050602081019050919050565b60005b83811015620003d9578082015181840152602081019050620003bc565b60008484015250505050565b6000620003fc620003f68462000383565b62000364565b9050828152602081018484840111156200041b576200041a620002e9565b5b62000428848285620003b9565b509392505050565b600082601f830112620004485762000447620002e4565b5b81516200045a848260208601620003e5565b91505092915050565b600067ffffffffffffffff821115620004815762000480620002ff565b5b602082029050602081019050919050565b600080fd5b6000620004ae620004a88462000463565b62000364565b90508083825260208201905060208402830185811115620004d457620004d362000492565b5b835b818110156200052257805167ffffffffffffffff811115620004fd57620004fc620002e4565b5b8086016200050c898262000430565b85526020850194505050602081019050620004d6565b5050509392505050565b600082601f830112620005445762000543620002e4565b5b81516200055684826020860162000497565b91505092915050565b600381106200056d57600080fd5b50565b60008151905062000581816200055f565b92915050565b600080600080600060a08688031215620005a657620005a562000275565b5b6000620005b688828901620002cd565b9550506020620005c988828901620002cd565b945050604086015167ffffffffffffffff811115620005ed57620005ec6200027a565b5b620005fb8882890162000430565b935050606086015167ffffffffffffffff8111156200061f576200061e6200027a565b5b6200062d888289016200052c565b9250506080620006408882890162000570565b9150509295509295909350565b600081519050919050565b7f4e487b7100000000000000000000000000000000000000000000000000000000600052602260045260246000fd5b60006002820490506001821680620006a057607f821691505b602082108103620006b657620006b562000658565b5b50919050565b60008190508160005260206000209050919050565b60006020601f8301049050919050565b600082821b905092915050565b600060088302620007207fffffffffffffffffffffffffffffffffffffffffffffffffffffffffffffffff82620006e1565b6200072c8683620006e1565b95508019841693508086168417925050509392505050565b6000819050919050565b6000819050919050565b600062000779620007736200076d8462000744565b6200074e565b62000744565b9050919050565b6000819050919050565b620007958362000758565b620007ad620007a48262000780565b848454620006ee565b825550505050565b600090565b620007c4620007b5565b620007d18184846200078a565b505050565b5b81811015620007f957620007ed600082620007ba565b600181019050620007d7565b5050565b601f82111562000848576200081281620006bc565b6200081d84620006d1565b810160208510156200082d578190505b620008456200083c85620006d1565b830182620007d6565b50505b505050565b600082821c905092915050565b60006200086d600019846008026200084d565b1980831691505092915050565b60006200088883836200085a565b9150826002028217905092915050565b620008a3826200064d565b67ffffffffffffffff811115620008bf57620008be620002ff565b5b620008cb825462000687565b620008d8828285620007fd565b600060209050601f831160018114620009105760008415620008fb578287015190505b6200090785826200087a565b86555062000977565b601f1984166200092086620006bc565b60005b828110156200094a5784890151825560018201915060208501945060208101905062000923565b868310156200096a578489015162000966601f8916826200085a565b8355505b6001600288020188555050505b505050505050565b7f4e487b7100000000000000000000000000000000000000000000000000000000600052602160045260246000fd5b611c1080620009be6000396000f3fe608060405234801561001057600080fd5b50600436106101005760003560e01c806398c0793811610097578063c0f2a77711610066578063c0f2a777146102b9578063c631b292146102d7578063cc2ee196146102e1578063fc36e15b146102ff57610100565b806398c079381461022f578063a3ec138d1461024d578063a4d4334a1461027d578063bf63a5771461029b57610100565b8063409e2205116100d3578063409e22051461019357806357c9d738146101c3578063597e1fb5146101f3578063889ae9f21461021157610100565b806302d05d3f1461010557806319ad7cd2146101235780631ee1f800146101535780634051ddac14610171575b600080fd5b61010d61031b565b60405161011a9190610fb1565b60405180910390f35b61013d60048036038101906101389190611126565b61033f565b60405161014a9190611188565b60405180910390f35b61015b61036d565b604051610168919061121a565b60405180910390f35b610179610380565b60405161018a9594939291906112cf565b60405180910390f35b6101ad60048036038101906101a8919061135c565b610464565b6040516101ba9190611389565b60405180910390f35b6101dd60048036038101906101d89190611126565b610510565b6040516101ea9190611188565b60405180910390f35b6101fb610538565b60405161020891906113ab565b60405180910390f35b61021961054b565b6040516102269190611389565b60405180910390f35b610237610679565b6040516102449190611188565b60405180910390f35b610267600480360381019061026291906113f2565b61067f565b60405161027491906113ab565b60405180910390f35b61028561069f565b6040516102929190611188565b60405180910390f35b6102a36106ac565b6040516102b09190611389565b60405180910390f35b6102c161073a565b6040516102ce9190611188565b60405180910390f35b6102df610744565b005b6102e961083f565b6040516102f6919061152b565b60405180910390f35b61031960048036038101906103149190611126565b610918565b005b60008054906101000a900473ffffffffffffffffffffffffffffffffffffffff1681565b6005818051602081018201805184825260208301602085012081835280955050505050506000915090505481565b600860019054906101000a900460ff1681565b60006060600080606060008054906101000a900473ffffffffffffffffffffffffffffffffffffffff166003600754600860009054906101000a900460ff166103c761054b565b8380546103d39061157c565b80601f01602080910402602001604051908101604052809291908181526020018280546103ff9061157c565b801561044c5780601f106104215761010080835404028352916020019161044c565b820191906000526020600020905b81548152906001019060200180831161042f57829003601f168201915b50505050509350945094509450945094509091929394565b6004818154811061047457600080fd5b90600052602060002001600091509050805461048f9061157c565b80601f01602080910402602001604051908101604052809291908181526020018280546104bb9061157c565b80156105085780601f106104dd57610100808354040283529160200191610508565b820191906000526020600020905b8154815290600101906020018083116104eb57829003601f168201915b505050505081565b600060058260405161052291906115e9565b9081526020016040518091039020549050919050565b600860009054906101000a900460ff1681565b606060006002811115610561576105606111a3565b5b600860019054906101000a900460ff166002811115610583576105826111a3565b5b036105c5576040518060400160405280600881526020017f73747564656e74730000000000000000000000000000000000000000000000008152509050610676565b600160028111156105d9576105d86111a3565b5b600860019054906101000a900460ff1660028111156105fb576105fa6111a3565b5b0361063d576040518060400160405280600981526020017f656d706c6f7965657300000000000000000000000000000000000000000000008152509050610676565b6040518060400160405280600381526020017f616c6c000000000000000000000000000000000000000000000000000000000081525090505b90565b60075481565b60066020528060005260406000206000915054906101000a900460ff1681565b6000600480549050905090565b600380546106b99061157c565b80601f01602080910402602001604051908101604052809291908181526020018280546106e59061157c565b80156107325780601f1061070757610100808354040283529160200191610732565b820191906000526020600020905b81548152906001019060200180831161071557829003601f168201915b505050505081565b6000600754905090565b60008054906101000a900473ffffffffffffffffffffffffffffffffffffffff1673ffffffffffffffffffffffffffffffffffffffff163373ffffffffffffffffffffffffffffffffffffffff16146107d2576040517f08c379a00000000000000000000000000000000000000000000000000000000081526004016107c990611672565b60405180910390fd5b600860009054906101000a900460ff1615610822576040517f08c379a0000000000000000000000000000000000000000000000000000000008152600401610819906116de565b60405180910390fd5b6001600860006101000a81548160ff021916908315150217905550565b60606004805480602002602001604051908101604052809291908181526020016000905b8282101561090f5783829060005260206000200180546108829061157c565b80601f01602080910402602001604051908101604052809291908181526020018280546108ae9061157c565b80156108fb5780601f106108d0576101008083540402835291602001916108fb565b820191906000526020600020905b8154815290600101906020018083116108de57829003601f168201915b505050505081526020019060010190610863565b50505050905090565b60028081111561092b5761092a6111a3565b5b600860019054906101000a900460ff16600281111561094d5761094c6111a3565b5b03610ad557600260009054906101000a900473ffffffffffffffffffffffffffffffffffffffff1673ffffffffffffffffffffffffffffffffffffffff166382f7d392336040518263ffffffff1660e01b81526004016109ad9190610fb1565b602060405180830381865afa1580156109ca573d6000803e3d6000fd5b505050506040513d601f19601f820116820180604052508101906109ee919061172a565b80610a915750600260009054906101000a900473ffffffffffffffffffffffffffffffffffffffff1673ffffffffffffffffffffffffffffffffffffffff1663ea66543f336040518263ffffffff1660e01b8152600401610a4f9190610fb1565b602060405180830381865afa158015610a6c573d6000803e3d6000fd5b505050506040513d601f19601f82011682018060405250810190610a90919061172a565b5b610ad0576040517f08c379a0000000000000000000000000000000000000000000000000000000008152600401610ac7906117c9565b60405180910390fd5b610d09565b60006002811115610ae957610ae86111a3565b5b600860019054906101000a900460ff166002811115610b0b57610b0a6111a3565b5b03610bf057600260009054906101000a900473ffffffffffffffffffffffffffffffffffffffff1673ffffffffffffffffffffffffffffffffffffffff166382f7d392336040518263ffffffff1660e01b8152600401610b6b9190610fb1565b602060405180830381865afa158015610b88573d6000803e3d6000fd5b505050506040513d601f19601f82011682018060405250810190610bac919061172a565b610beb576040517f08c379a0000000000000000000000000000000000000000000000000000000008152600401610be29061185b565b60405180910390fd5b610d08565b60016002811115610c0457610c036111a3565b5b600860019054906101000a900460ff166002811115610c2657610c256111a3565b5b03610d0757600260009054906101000a900473ffffffffffffffffffffffffffffffffffffffff1673ffffffffffffffffffffffffffffffffffffffff1663ea66543f336040518263ffffffff1660e01b8152600401610c869190610fb1565b602060405180830381865afa158015610ca3573d6000803e3d6000fd5b505050506040513d601f19601f82011682018060405250810190610cc7919061172a565b610d06576040517f08c379a0000000000000000000000000000000000000000000000000000000008152600401610cfd906118ed565b60405180910390fd5b5b5b5b600660003373ffffffffffffffffffffffffffffffffffffffff1673ffffffffffffffffffffffffffffffffffffffff16815260200190815260200160002060009054906101000a900460ff1615610d96576040517f08c379a0000000000000000000000000000000000000000000000000000000008152600401610d8d90611959565b60405180910390fd5b600860009054906101000a900460ff1615610de6576040517f08c379a0000000000000000000000000000000000000000000000000000000008152600401610ddd906119c5565b60405180910390fd5b6000805b600480549050811015610e835782604051602001610e0891906115e9565b6040516020818303038152906040528051906020012060048281548110610e3257610e316119e5565b5b90600052602060002001604051602001610e4c9190611aac565b6040516020818303038152906040528051906020012003610e705760019150610e83565b8080610e7b90611af2565b915050610dea565b5080610ec4576040517f08c379a0000000000000000000000000000000000000000000000000000000008152600401610ebb90611b86565b60405180910390fd5b6001600660003373ffffffffffffffffffffffffffffffffffffffff1673ffffffffffffffffffffffffffffffffffffffff16815260200190815260200160002060006101000a81548160ff0219169083151502179055506001600583604051610f2e91906115e9565b90815260200160405180910390206000828254610f4b9190611ba6565b92505081905550600160076000828254610f659190611ba6565b925050819055505050565b600073ffffffffffffffffffffffffffffffffffffffff82169050919050565b6000610f9b82610f70565b9050919050565b610fab81610f90565b82525050565b6000602082019050610fc66000830184610fa2565b92915050565b6000604051905090565b600080fd5b600080fd5b600080fd5b600080fd5b6000601f19601f8301169050919050565b7f4e487b7100000000000000000000000000000000000000000000000000000000600052604160045260246000fd5b61103382610fea565b810181811067ffffffffffffffff8211171561105257611051610ffb565b5b80604052505050565b6000611065610fcc565b9050611071828261102a565b919050565b600067ffffffffffffffff82111561109157611090610ffb565b5b61109a82610fea565b9050602081019050919050565b82818337600083830152505050565b60006110c96110c484611076565b61105b565b9050828152602081018484840111156110e5576110e4610fe5565b5b6110f08482856110a7565b509392505050565b600082601f83011261110d5761110c610fe0565b5b813561111d8482602086016110b6565b91505092915050565b60006020828403121561113c5761113b610fd6565b5b600082013567ffffffffffffffff81111561115a57611159610fdb565b5b611166848285016110f8565b91505092915050565b6000819050919050565b6111828161116f565b82525050565b600060208201905061119d6000830184611179565b92915050565b7f4e487b7100000000000000000000000000000000000000000000000000000000600052602160045260246000fd5b600381106111e3576111e26111a3565b5b50565b60008190506111f4826111d2565b919050565b6000611204826111e6565b9050919050565b611214816111f9565b82525050565b600060208201905061122f600083018461120b565b92915050565b600081519050919050565b600082825260208201905092915050565b60005b8381101561126f578082015181840152602081019050611254565b60008484015250505050565b600061128682611235565b6112908185611240565b93506112a0818560208601611251565b6112a981610fea565b840191505092915050565b60008115159050919050565b6112c9816112b4565b82525050565b600060a0820190506112e46000830188610fa2565b81810360208301526112f6818761127b565b90506113056040830186611179565b61131260608301856112c0565b8181036080830152611324818461127b565b90509695505050505050565b6113398161116f565b811461134457600080fd5b50565b60008135905061135681611330565b92915050565b60006020828403121561137257611371610fd6565b5b600061138084828501611347565b91505092915050565b600060208201905081810360008301526113a3818461127b565b905092915050565b60006020820190506113c060008301846112c0565b92915050565b6113cf81610f90565b81146113da57600080fd5b50565b6000813590506113ec816113c6565b92915050565b60006020828403121561140857611407610fd6565b5b6000611416848285016113dd565b91505092915050565b600081519050919050565b600082825260208201905092915050565b6000819050602082019050919050565b600082825260208201905092915050565b600061146782611235565b611471818561144b565b9350611481818560208601611251565b61148a81610fea565b840191505092915050565b60006114a1838361145c565b905092915050565b6000602082019050919050565b60006114c18261141f565b6114cb818561142a565b9350836020820285016114dd8561143b565b8060005b8581101561151957848403895281516114fa8582611495565b9450611505836114a9565b925060208a019950506001810190506114e1565b50829750879550505050505092915050565b6000602082019050818103600083015261154581846114b6565b905092915050565b7f4e487b7100000000000000000000000000000000000000000000000000000000600052602260045260246000fd5b6000600282049050600182168061159457607f821691505b6020821081036115a7576115a661154d565b5b50919050565b600081905092915050565b60006115c382611235565b6115cd81856115ad565b93506115dd818560208601611251565b80840191505092915050565b60006115f582846115b8565b915081905092915050565b7f4f6e6c792063726561746f722063616e2063616c6c20746869732066756e637460008201527f696f6e0000000000000000000000000000000000000000000000000000000000602082015250565b600061165c602383611240565b915061166782611600565b604082019050919050565b6000602082019050818103600083015261168b8161164f565b9050919050565b7f566f74696e6720697320616c726561647920636c6f7365640000000000000000600082015250565b60006116c8601883611240565b91506116d382611692565b602082019050919050565b600060208201905081810360008301526116f7816116bb565b9050919050565b611707816112b4565b811461171257600080fd5b50565b600081519050611724816116fe565b92915050565b6000602082840312156117405761173f610fd6565b5b600061174e84828501611715565b91505092915050565b7f4f6e6c792073747564656e747320616e6420656d706c6f796565732063616e2060008201527f63616c6c20746869732066756e6374696f6e0000000000000000000000000000602082015250565b60006117b3603283611240565b91506117be82611757565b604082019050919050565b600060208201905081810360008301526117e2816117a6565b9050919050565b7f4f6e6c792073747564656e74732063616e2063616c6c20746869732066756e6360008201527f74696f6e00000000000000000000000000000000000000000000000000000000602082015250565b6000611845602483611240565b9150611850826117e9565b604082019050919050565b6000602082019050818103600083015261187481611838565b9050919050565b7f4f6e6c7920656d706c6f796565732063616e2063616c6c20746869732066756e60008201527f6374696f6e000000000000000000000000000000000000000000000000000000602082015250565b60006118d7602583611240565b91506118e28261187b565b604082019050919050565b60006020820190508181036000830152611906816118ca565b9050919050565b7f596f75206861766520616c726561647920766f74656400000000000000000000600082015250565b6000611943601683611240565b915061194e8261190d565b602082019050919050565b6000602082019050818103600083015261197281611936565b9050919050565b7f566f74696e6720697320636c6f73656400000000000000000000000000000000600082015250565b60006119af601083611240565b91506119ba82611979565b602082019050919050565b600060208201905081810360008301526119de816119a2565b9050919050565b7f4e487b7100000000000000000000000000000000000000000000000000000000600052603260045260246000fd5b60008190508160005260206000209050919050565b60008154611a368161157c565b611a4081866115ad565b94506001821660008114611a5b5760018114611a7057611aa3565b60ff1983168652811515820286019350611aa3565b611a7985611a14565b60005b83811015611a9b57815481890152600182019150602081019050611a7c565b838801955050505b50505092915050565b6000611ab88284611a29565b915081905092915050565b7f4e487b7100000000000000000000000000000000000000000000000000000000600052601160045260246000fd5b6000611afd8261116f565b91507fffffffffffffffffffffffffffffffffffffffffffffffffffffffffffffffff8203611b2f57611b2e611ac3565b5b600182019050919050565b7f4f7074696f6e20646f6573206e6f742065786973740000000000000000000000600082015250565b6000611b70601583611240565b9150611b7b82611b3a565b602082019050919050565b60006020820190508181036000830152611b9f81611b63565b9050919050565b6000611bb18261116f565b9150611bbc8361116f565b9250828201905080821115611bd457611bd3611ac3565b5b9291505056fea264697066735822122031ab9588190ef4edb56affcbb0b3ee0bd9fe1fc77da4c107d17930e9e0b5e9ff64736f6c63430008110033","opcodes":"PUSH1 0x80 PUSH1 0x40 MSTORE CALLVALUE DUP1 ISZERO PUSH3 0x11 JUMPI PUSH1 0x0 DUP1 REVERT JUMPDEST POP PUSH1 0x40 MLOAD PUSH3 0x25CE CODESIZE SUB DUP1 PUSH3 0x25CE DUP4 CODECOPY DUP2 DUP2 ADD PUSH1 0x40 MSTORE DUP2 ADD SWAP1 PUSH3 0x37 SWAP2 SWAP1 PUSH3 0x587 JUMP JUMPDEST DUP4 PUSH1 0x0 DUP1 PUSH2 0x100 EXP DUP2 SLOAD DUP2 PUSH20 0xFFFFFFFFFFFFFFFFFFFFFFFFFFFFFFFFFFFFFFFF MUL NOT AND SWAP1 DUP4 PUSH20 0xFFFFFFFFFFFFFFFFFFFFFFFFFFFFFFFFFFFFFFFF AND MUL OR SWAP1 SSTORE POP DUP5 PUSH1 0x1 PUSH1 0x0 PUSH2 0x100 EXP DUP2 SLOAD DUP2 PUSH20 0xFFFFFFFFFFFFFFFFFFFFFFFFFFFFFFFFFFFFFFFF MUL NOT AND SWAP1 DUP4 PUSH20 0xFFFFFFFFFFFFFFFFFFFFFFFFFFFFFFFFFFFFFFFF AND MUL OR SWAP1 SSTORE POP PUSH1 0x1 PUSH1 0x0 SWAP1 SLOAD SWAP1 PUSH2 0x100 EXP SWAP1 DIV PUSH20 0xFFFFFFFFFFFFFFFFFFFFFFFFFFFFFFFFFFFFFFFF AND PUSH1 0x2 PUSH1 0x0 PUSH2 0x100 EXP DUP2 SLOAD DUP2 PUSH20 0xFFFFFFFFFFFFFFFFFFFFFFFFFFFFFFFFFFFFFFFF MUL NOT AND SWAP1 DUP4 PUSH20 0xFFFFFFFFFFFFFFFFFFFFFFFFFFFFFFFFFFFFFFFF AND MUL OR SWAP1 SSTORE POP DUP3 PUSH1 0x3 SWAP1 DUP2 PUSH3 0x12C SWAP2 SWAP1 PUSH3 0x898 JUMP JUMPDEST POP DUP2 PUSH1 0x4 SWAP1 DUP1 MLOAD SWAP1 PUSH1 0x20 ADD SWAP1 PUSH3 0x145 SWAP3 SWAP2 SWAP1 PUSH3 0x17E JUMP JUMPDEST POP DUP1 PUSH1 0x8 PUSH1 0x1 PUSH2 0x100 EXP DUP2 SLOAD DUP2 PUSH1 0xFF MUL NOT AND SWAP1 DUP4 PUSH1 0x2 DUP2 GT ISZERO PUSH3 0x16E JUMPI PUSH3 0x16D PUSH3 0x97F JUMP JUMPDEST JUMPDEST MUL OR SWAP1 SSTORE POP POP POP POP POP POP PUSH3 0x9AE JUMP JUMPDEST DUP3 DUP1 SLOAD DUP3 DUP3 SSTORE SWAP1 PUSH1 0x0 MSTORE PUSH1 0x20 PUSH1 0x0 KECCAK256 SWAP1 DUP2 ADD SWAP3 DUP3 ISZERO PUSH3 0x1CB JUMPI SWAP2 PUSH1 0x20 MUL DUP3 ADD JUMPDEST DUP3 DUP2 GT ISZERO PUSH3 0x1CA JUMPI DUP3 MLOAD DUP3 SWAP1 DUP2 PUSH3 0x1B9 SWAP2 SWAP1 PUSH3 0x898 JUMP JUMPDEST POP SWAP2 PUSH1 0x20 ADD SWAP2 SWAP1 PUSH1 0x1 ADD SWAP1 PUSH3 0x19F JUMP JUMPDEST JUMPDEST POP SWAP1 POP PUSH3 0x1DA SWAP2 SWAP1 PUSH3 0x1DE JUMP JUMPDEST POP SWAP1 JUMP JUMPDEST JUMPDEST DUP1 DUP3 GT ISZERO PUSH3 0x202 JUMPI PUSH1 0x0 DUP2 DUP2 PUSH3 0x1F8 SWAP2 SWAP1 PUSH3 0x206 JUMP JUMPDEST POP PUSH1 0x1 ADD PUSH3 0x1DF JUMP JUMPDEST POP SWAP1 JUMP JUMPDEST POP DUP1 SLOAD PUSH3 0x214 SWAP1 PUSH3 0x687 JUMP JUMPDEST PUSH1 0x0 DUP3 SSTORE DUP1 PUSH1 0x1F LT PUSH3 0x228 JUMPI POP PUSH3 0x249 JUMP JUMPDEST PUSH1 0x1F ADD PUSH1 0x20 SWAP1 DIV SWAP1 PUSH1 0x0 MSTORE PUSH1 0x20 PUSH1 0x0 KECCAK256 SWAP1 DUP2 ADD SWAP1 PUSH3 0x248 SWAP2 SWAP1 PUSH3 0x24C JUMP JUMPDEST JUMPDEST POP JUMP JUMPDEST JUMPDEST DUP1 DUP3 GT ISZERO PUSH3 0x267 JUMPI PUSH1 0x0 DUP2 PUSH1 0x0 SWAP1 SSTORE POP PUSH1 0x1 ADD PUSH3 0x24D JUMP JUMPDEST POP SWAP1 JUMP JUMPDEST PUSH1 0x0 PUSH1 0x40 MLOAD SWAP1 POP SWAP1 JUMP JUMPDEST PUSH1 0x0 DUP1 REVERT JUMPDEST PUSH1 0x0 DUP1 REVERT JUMPDEST PUSH1 0x0 PUSH20 0xFFFFFFFFFFFFFFFFFFFFFFFFFFFFFFFFFFFFFFFF DUP3 AND SWAP1 POP SWAP2 SWAP1 POP JUMP JUMPDEST PUSH1 0x0 PUSH3 0x2AC DUP3 PUSH3 0x27F JUMP JUMPDEST SWAP1 POP SWAP2 SWAP1 POP JUMP JUMPDEST PUSH3 0x2BE DUP2 PUSH3 0x29F JUMP JUMPDEST DUP2 EQ PUSH3 0x2CA JUMPI PUSH1 0x0 DUP1 REVERT JUMPDEST POP JUMP JUMPDEST PUSH1 0x0 DUP2 MLOAD SWAP1 POP PUSH3 0x2DE DUP2 PUSH3 0x2B3 JUMP JUMPDEST SWAP3 SWAP2 POP POP JUMP JUMPDEST PUSH1 0x0 DUP1 REVERT JUMPDEST PUSH1 0x0 DUP1 REVERT JUMPDEST PUSH1 0x0 PUSH1 0x1F NOT PUSH1 0x1F DUP4 ADD AND SWAP1 POP SWAP2 SWAP1 POP JUMP JUMPDEST PUSH32 0x4E487B7100000000000000000000000000000000000000000000000000000000 PUSH1 0x0 MSTORE PUSH1 0x41 PUSH1 0x4 MSTORE PUSH1 0x24 PUSH1 0x0 REVERT JUMPDEST PUSH3 0x339 DUP3 PUSH3 0x2EE JUMP JUMPDEST DUP2 ADD DUP2 DUP2 LT PUSH8 0xFFFFFFFFFFFFFFFF DUP3 GT OR ISZERO PUSH3 0x35B JUMPI PUSH3 0x35A PUSH3 0x2FF JUMP JUMPDEST JUMPDEST DUP1 PUSH1 0x40 MSTORE POP POP POP JUMP JUMPDEST PUSH1 0x0 PUSH3 0x370 PUSH3 0x26B JUMP JUMPDEST SWAP1 POP PUSH3 0x37E DUP3 DUP3 PUSH3 0x32E JUMP JUMPDEST SWAP2 SWAP1 POP JUMP JUMPDEST PUSH1 0x0 PUSH8 0xFFFFFFFFFFFFFFFF DUP3 GT ISZERO PUSH3 0x3A1 JUMPI PUSH3 0x3A0 PUSH3 0x2FF JUMP JUMPDEST JUMPDEST PUSH3 0x3AC DUP3 PUSH3 0x2EE JUMP JUMPDEST SWAP1 POP PUSH1 0x20 DUP2 ADD SWAP1 POP SWAP2 SWAP1 POP JUMP JUMPDEST PUSH1 0x0 JUMPDEST DUP4 DUP2 LT ISZERO PUSH3 0x3D9 JUMPI DUP1 DUP3 ADD MLOAD DUP2 DUP5 ADD MSTORE PUSH1 0x20 DUP2 ADD SWAP1 POP PUSH3 0x3BC JUMP JUMPDEST PUSH1 0x0 DUP5 DUP5 ADD MSTORE POP POP POP POP JUMP JUMPDEST PUSH1 0x0 PUSH3 0x3FC PUSH3 0x3F6 DUP5 PUSH3 0x383 JUMP JUMPDEST PUSH3 0x364 JUMP JUMPDEST SWAP1 POP DUP3 DUP2 MSTORE PUSH1 0x20 DUP2 ADD DUP5 DUP5 DUP5 ADD GT ISZERO PUSH3 0x41B JUMPI PUSH3 0x41A PUSH3 0x2E9 JUMP JUMPDEST JUMPDEST PUSH3 0x428 DUP5 DUP3 DUP6 PUSH3 0x3B9 JUMP JUMPDEST POP SWAP4 SWAP3 POP POP POP JUMP JUMPDEST PUSH1 0x0 DUP3 PUSH1 0x1F DUP4 ADD SLT PUSH3 0x448 JUMPI PUSH3 0x447 PUSH3 0x2E4 JUMP JUMPDEST JUMPDEST DUP2 MLOAD PUSH3 0x45A DUP5 DUP3 PUSH1 0x20 DUP7 ADD PUSH3 0x3E5 JUMP JUMPDEST SWAP2 POP POP SWAP3 SWAP2 POP POP JUMP JUMPDEST PUSH1 0x0 PUSH8 0xFFFFFFFFFFFFFFFF DUP3 GT ISZERO PUSH3 0x481 JUMPI PUSH3 0x480 PUSH3 0x2FF JUMP JUMPDEST JUMPDEST PUSH1 0x20 DUP3 MUL SWAP1 POP PUSH1 0x20 DUP2 ADD SWAP1 POP SWAP2 SWAP1 POP JUMP JUMPDEST PUSH1 0x0 DUP1 REVERT JUMPDEST PUSH1 0x0 PUSH3 0x4AE PUSH3 0x4A8 DUP5 PUSH3 0x463 JUMP JUMPDEST PUSH3 0x364 JUMP JUMPDEST SWAP1 POP DUP1 DUP4 DUP3 MSTORE PUSH1 0x20 DUP3 ADD SWAP1 POP PUSH1 0x20 DUP5 MUL DUP4 ADD DUP6 DUP2 GT ISZERO PUSH3 0x4D4 JUMPI PUSH3 0x4D3 PUSH3 0x492 JUMP JUMPDEST JUMPDEST DUP4 JUMPDEST DUP2 DUP2 LT ISZERO PUSH3 0x522 JUMPI DUP1 MLOAD PUSH8 0xFFFFFFFFFFFFFFFF DUP2 GT ISZERO PUSH3 0x4FD JUMPI PUSH3 0x4FC PUSH3 0x2E4 JUMP JUMPDEST JUMPDEST DUP1 DUP7 ADD PUSH3 0x50C DUP10 DUP3 PUSH3 0x430 JUMP JUMPDEST DUP6 MSTORE PUSH1 0x20 DUP6 ADD SWAP5 POP POP POP PUSH1 0x20 DUP2 ADD SWAP1 POP PUSH3 0x4D6 JUMP JUMPDEST POP POP POP SWAP4 SWAP3 POP POP POP JUMP JUMPDEST PUSH1 0x0 DUP3 PUSH1 0x1F DUP4 ADD SLT PUSH3 0x544 JUMPI PUSH3 0x543 PUSH3 0x2E4 JUMP JUMPDEST JUMPDEST DUP2 MLOAD PUSH3 0x556 DUP5 DUP3 PUSH1 0x20 DUP7 ADD PUSH3 0x497 JUMP JUMPDEST SWAP2 POP POP SWAP3 SWAP2 POP POP JUMP JUMPDEST PUSH1 0x3 DUP2 LT PUSH3 0x56D JUMPI PUSH1 0x0 DUP1 REVERT JUMPDEST POP JUMP JUMPDEST PUSH1 0x0 DUP2 MLOAD SWAP1 POP PUSH3 0x581 DUP2 PUSH3 0x55F JUMP JUMPDEST SWAP3 SWAP2 POP POP JUMP JUMPDEST PUSH1 0x0 DUP1 PUSH1 0x0 DUP1 PUSH1 0x0 PUSH1 0xA0 DUP7 DUP9 SUB SLT ISZERO PUSH3 0x5A6 JUMPI PUSH3 0x5A5 PUSH3 0x275 JUMP JUMPDEST JUMPDEST PUSH1 0x0 PUSH3 0x5B6 DUP9 DUP3 DUP10 ADD PUSH3 0x2CD JUMP JUMPDEST SWAP6 POP POP PUSH1 0x20 PUSH3 0x5C9 DUP9 DUP3 DUP10 ADD PUSH3 0x2CD JUMP JUMPDEST SWAP5 POP POP PUSH1 0x40 DUP7 ADD MLOAD PUSH8 0xFFFFFFFFFFFFFFFF DUP2 GT ISZERO PUSH3 0x5ED JUMPI PUSH3 0x5EC PUSH3 0x27A JUMP JUMPDEST JUMPDEST PUSH3 0x5FB DUP9 DUP3 DUP10 ADD PUSH3 0x430 JUMP JUMPDEST SWAP4 POP POP PUSH1 0x60 DUP7 ADD MLOAD PUSH8 0xFFFFFFFFFFFFFFFF DUP2 GT ISZERO PUSH3 0x61F JUMPI PUSH3 0x61E PUSH3 0x27A JUMP JUMPDEST JUMPDEST PUSH3 0x62D DUP9 DUP3 DUP10 ADD PUSH3 0x52C JUMP JUMPDEST SWAP3 POP POP PUSH1 0x80 PUSH3 0x640 DUP9 DUP3 DUP10 ADD PUSH3 0x570 JUMP JUMPDEST SWAP2 POP POP SWAP3 SWAP6 POP SWAP3 SWAP6 SWAP1 SWAP4 POP JUMP JUMPDEST PUSH1 0x0 DUP2 MLOAD SWAP1 POP SWAP2 SWAP1 POP JUMP JUMPDEST PUSH32 0x4E487B7100000000000000000000000000000000000000000000000000000000 PUSH1 0x0 MSTORE PUSH1 0x22 PUSH1 0x4 MSTORE PUSH1 0x24 PUSH1 0x0 REVERT JUMPDEST PUSH1 0x0 PUSH1 0x2 DUP3 DIV SWAP1 POP PUSH1 0x1 DUP3 AND DUP1 PUSH3 0x6A0 JUMPI PUSH1 0x7F DUP3 AND SWAP2 POP JUMPDEST PUSH1 0x20 DUP3 LT DUP2 SUB PUSH3 0x6B6 JUMPI PUSH3 0x6B5 PUSH3 0x658 JUMP JUMPDEST JUMPDEST POP SWAP2 SWAP1 POP JUMP JUMPDEST PUSH1 0x0 DUP2 SWAP1 POP DUP2 PUSH1 0x0 MSTORE PUSH1 0x20 PUSH1 0x0 KECCAK256 SWAP1 POP SWAP2 SWAP1 POP JUMP JUMPDEST PUSH1 0x0 PUSH1 0x20 PUSH1 0x1F DUP4 ADD DIV SWAP1 POP SWAP2 SWAP1 POP JUMP JUMPDEST PUSH1 0x0 DUP3 DUP3 SHL SWAP1 POP SWAP3 SWAP2 POP POP JUMP JUMPDEST PUSH1 0x0 PUSH1 0x8 DUP4 MUL PUSH3 0x720 PUSH32 0xFFFFFFFFFFFFFFFFFFFFFFFFFFFFFFFFFFFFFFFFFFFFFFFFFFFFFFFFFFFFFFFF DUP3 PUSH3 0x6E1 JUMP JUMPDEST PUSH3 0x72C DUP7 DUP4 PUSH3 0x6E1 JUMP JUMPDEST SWAP6 POP DUP1 NOT DUP5 AND SWAP4 POP DUP1 DUP7 AND DUP5 OR SWAP3 POP POP POP SWAP4 SWAP3 POP POP POP JUMP JUMPDEST PUSH1 0x0 DUP2 SWAP1 POP SWAP2 SWAP1 POP JUMP JUMPDEST PUSH1 0x0 DUP2 SWAP1 POP SWAP2 SWAP1 POP JUMP JUMPDEST PUSH1 0x0 PUSH3 0x779 PUSH3 0x773 PUSH3 0x76D DUP5 PUSH3 0x744 JUMP JUMPDEST PUSH3 0x74E JUMP JUMPDEST PUSH3 0x744 JUMP JUMPDEST SWAP1 POP SWAP2 SWAP1 POP JUMP JUMPDEST PUSH1 0x0 DUP2 SWAP1 POP SWAP2 SWAP1 POP JUMP JUMPDEST PUSH3 0x795 DUP4 PUSH3 0x758 JUMP JUMPDEST PUSH3 0x7AD PUSH3 0x7A4 DUP3 PUSH3 0x780 JUMP JUMPDEST DUP5 DUP5 SLOAD PUSH3 0x6EE JUMP JUMPDEST DUP3 SSTORE POP POP POP POP JUMP JUMPDEST PUSH1 0x0 SWAP1 JUMP JUMPDEST PUSH3 0x7C4 PUSH3 0x7B5 JUMP JUMPDEST PUSH3 0x7D1 DUP2 DUP5 DUP5 PUSH3 0x78A JUMP JUMPDEST POP POP POP JUMP JUMPDEST JUMPDEST DUP2 DUP2 LT ISZERO PUSH3 0x7F9 JUMPI PUSH3 0x7ED PUSH1 0x0 DUP3 PUSH3 0x7BA JUMP JUMPDEST PUSH1 0x1 DUP2 ADD SWAP1 POP PUSH3 0x7D7 JUMP JUMPDEST POP POP JUMP JUMPDEST PUSH1 0x1F DUP3 GT ISZERO PUSH3 0x848 JUMPI PUSH3 0x812 DUP2 PUSH3 0x6BC JUMP JUMPDEST PUSH3 0x81D DUP5 PUSH3 0x6D1 JUMP JUMPDEST DUP2 ADD PUSH1 0x20 DUP6 LT ISZERO PUSH3 0x82D JUMPI DUP2 SWAP1 POP JUMPDEST PUSH3 0x845 PUSH3 0x83C DUP6 PUSH3 0x6D1 JUMP JUMPDEST DUP4 ADD DUP3 PUSH3 0x7D6 JUMP JUMPDEST POP POP JUMPDEST POP POP POP JUMP JUMPDEST PUSH1 0x0 DUP3 DUP3 SHR SWAP1 POP SWAP3 SWAP2 POP POP JUMP JUMPDEST PUSH1 0x0 PUSH3 0x86D PUSH1 0x0 NOT DUP5 PUSH1 0x8 MUL PUSH3 0x84D JUMP JUMPDEST NOT DUP1 DUP4 AND SWAP2 POP POP SWAP3 SWAP2 POP POP JUMP JUMPDEST PUSH1 0x0 PUSH3 0x888 DUP4 DUP4 PUSH3 0x85A JUMP JUMPDEST SWAP2 POP DUP3 PUSH1 0x2 MUL DUP3 OR SWAP1 POP SWAP3 SWAP2 POP POP JUMP JUMPDEST PUSH3 0x8A3 DUP3 PUSH3 0x64D JUMP JUMPDEST PUSH8 0xFFFFFFFFFFFFFFFF DUP2 GT ISZERO PUSH3 0x8BF JUMPI PUSH3 0x8BE PUSH3 0x2FF JUMP JUMPDEST JUMPDEST PUSH3 0x8CB DUP3 SLOAD PUSH3 0x687 JUMP JUMPDEST PUSH3 0x8D8 DUP3 DUP3 DUP6 PUSH3 0x7FD JUMP JUMPDEST PUSH1 0x0 PUSH1 0x20 SWAP1 POP PUSH1 0x1F DUP4 GT PUSH1 0x1 DUP2 EQ PUSH3 0x910 JUMPI PUSH1 0x0 DUP5 ISZERO PUSH3 0x8FB JUMPI DUP3 DUP8 ADD MLOAD SWAP1 POP JUMPDEST PUSH3 0x907 DUP6 DUP3 PUSH3 0x87A JUMP JUMPDEST DUP7 SSTORE POP PUSH3 0x977 JUMP JUMPDEST PUSH1 0x1F NOT DUP5 AND PUSH3 0x920 DUP7 PUSH3 0x6BC JUMP JUMPDEST PUSH1 0x0 JUMPDEST DUP3 DUP2 LT ISZERO PUSH3 0x94A JUMPI DUP5 DUP10 ADD MLOAD DUP3 SSTORE PUSH1 0x1 DUP3 ADD SWAP2 POP PUSH1 0x20 DUP6 ADD SWAP5 POP PUSH1 0x20 DUP2 ADD SWAP1 POP PUSH3 0x923 JUMP JUMPDEST DUP7 DUP4 LT ISZERO PUSH3 0x96A JUMPI DUP5 DUP10 ADD MLOAD PUSH3 0x966 PUSH1 0x1F DUP10 AND DUP3 PUSH3 0x85A JUMP JUMPDEST DUP4 SSTORE POP JUMPDEST PUSH1 0x1 PUSH1 0x2 DUP9 MUL ADD DUP9 SSTORE POP POP POP JUMPDEST POP POP POP POP POP POP JUMP JUMPDEST PUSH32 0x4E487B7100000000000000000000000000000000000000000000000000000000 PUSH1 0x0 MSTORE PUSH1 0x21 PUSH1 0x4 MSTORE PUSH1 0x24 PUSH1 0x0 REVERT JUMPDEST PUSH2 0x1C10 DUP1 PUSH3 0x9BE PUSH1 0x0 CODECOPY PUSH1 0x0 RETURN INVALID PUSH1 0x80 PUSH1 0x40 MSTORE CALLVALUE DUP1 ISZERO PUSH2 0x10 JUMPI PUSH1 0x0 DUP1 REVERT JUMPDEST POP PUSH1 0x4 CALLDATASIZE LT PUSH2 0x100 JUMPI PUSH1 0x0 CALLDATALOAD PUSH1 0xE0 SHR DUP1 PUSH4 0x98C07938 GT PUSH2 0x97 JUMPI DUP1 PUSH4 0xC0F2A777 GT PUSH2 0x66 JUMPI DUP1 PUSH4 0xC0F2A777 EQ PUSH2 0x2B9 JUMPI DUP1 PUSH4 0xC631B292 EQ PUSH2 0x2D7 JUMPI DUP1 PUSH4 0xCC2EE196 EQ PUSH2 0x2E1 JUMPI DUP1 PUSH4 0xFC36E15B EQ PUSH2 0x2FF JUMPI PUSH2 0x100 JUMP JUMPDEST DUP1 PUSH4 0x98C07938 EQ PUSH2 0x22F JUMPI DUP1 PUSH4 0xA3EC138D EQ PUSH2 0x24D JUMPI DUP1 PUSH4 0xA4D4334A EQ PUSH2 0x27D JUMPI DUP1 PUSH4 0xBF63A577 EQ PUSH2 0x29B JUMPI PUSH2 0x100 JUMP JUMPDEST DUP1 PUSH4 0x409E2205 GT PUSH2 0xD3 JUMPI DUP1 PUSH4 0x409E2205 EQ PUSH2 0x193 JUMPI DUP1 PUSH4 0x57C9D738 EQ PUSH2 0x1C3 JUMPI DUP1 PUSH4 0x597E1FB5 EQ PUSH2 0x1F3 JUMPI DUP1 PUSH4 0x889AE9F2 EQ PUSH2 0x211 JUMPI PUSH2 0x100 JUMP JUMPDEST DUP1 PUSH4 0x2D05D3F EQ PUSH2 0x105 JUMPI DUP1 PUSH4 0x19AD7CD2 EQ PUSH2 0x123 JUMPI DUP1 PUSH4 0x1EE1F800 EQ PUSH2 0x153 JUMPI DUP1 PUSH4 0x4051DDAC EQ PUSH2 0x171 JUMPI JUMPDEST PUSH1 0x0 DUP1 REVERT JUMPDEST PUSH2 0x10D PUSH2 0x31B JUMP JUMPDEST PUSH1 0x40 MLOAD PUSH2 0x11A SWAP2 SWAP1 PUSH2 0xFB1 JUMP JUMPDEST PUSH1 0x40 MLOAD DUP1 SWAP2 SUB SWAP1 RETURN JUMPDEST PUSH2 0x13D PUSH1 0x4 DUP1 CALLDATASIZE SUB DUP2 ADD SWAP1 PUSH2 0x138 SWAP2 SWAP1 PUSH2 0x1126 JUMP JUMPDEST PUSH2 0x33F JUMP JUMPDEST PUSH1 0x40 MLOAD PUSH2 0x14A SWAP2 SWAP1 PUSH2 0x1188 JUMP JUMPDEST PUSH1 0x40 MLOAD DUP1 SWAP2 SUB SWAP1 RETURN JUMPDEST PUSH2 0x15B PUSH2 0x36D JUMP JUMPDEST PUSH1 0x40 MLOAD PUSH2 0x168 SWAP2 SWAP1 PUSH2 0x121A JUMP JUMPDEST PUSH1 0x40 MLOAD DUP1 SWAP2 SUB SWAP1 RETURN JUMPDEST PUSH2 0x179 PUSH2 0x380 JUMP JUMPDEST PUSH1 0x40 MLOAD PUSH2 0x18A SWAP6 SWAP5 SWAP4 SWAP3 SWAP2 SWAP1 PUSH2 0x12CF JUMP JUMPDEST PUSH1 0x40 MLOAD DUP1 SWAP2 SUB SWAP1 RETURN JUMPDEST PUSH2 0x1AD PUSH1 0x4 DUP1 CALLDATASIZE SUB DUP2 ADD SWAP1 PUSH2 0x1A8 SWAP2 SWAP1 PUSH2 0x135C JUMP JUMPDEST PUSH2 0x464 JUMP JUMPDEST PUSH1 0x40 MLOAD PUSH2 0x1BA SWAP2 SWAP1 PUSH2 0x1389 JUMP JUMPDEST PUSH1 0x40 MLOAD DUP1 SWAP2 SUB SWAP1 RETURN JUMPDEST PUSH2 0x1DD PUSH1 0x4 DUP1 CALLDATASIZE SUB DUP2 ADD SWAP1 PUSH2 0x1D8 SWAP2 SWAP1 PUSH2 0x1126 JUMP JUMPDEST PUSH2 0x510 JUMP JUMPDEST PUSH1 0x40 MLOAD PUSH2 0x1EA SWAP2 SWAP1 PUSH2 0x1188 JUMP JUMPDEST PUSH1 0x40 MLOAD DUP1 SWAP2 SUB SWAP1 RETURN JUMPDEST PUSH2 0x1FB PUSH2 0x538 JUMP JUMPDEST PUSH1 0x40 MLOAD PUSH2 0x208 SWAP2 SWAP1 PUSH2 0x13AB JUMP JUMPDEST PUSH1 0x40 MLOAD DUP1 SWAP2 SUB SWAP1 RETURN JUMPDEST PUSH2 0x219 PUSH2 0x54B JUMP JUMPDEST PUSH1 0x40 MLOAD PUSH2 0x226 SWAP2 SWAP1 PUSH2 0x1389 JUMP JUMPDEST PUSH1 0x40 MLOAD DUP1 SWAP2 SUB SWAP1 RETURN JUMPDEST PUSH2 0x237 PUSH2 0x679 JUMP JUMPDEST PUSH1 0x40 MLOAD PUSH2 0x244 SWAP2 SWAP1 PUSH2 0x1188 JUMP JUMPDEST PUSH1 0x40 MLOAD DUP1 SWAP2 SUB SWAP1 RETURN JUMPDEST PUSH2 0x267 PUSH1 0x4 DUP1 CALLDATASIZE SUB DUP2 ADD SWAP1 PUSH2 0x262 SWAP2 SWAP1 PUSH2 0x13F2 JUMP JUMPDEST PUSH2 0x67F JUMP JUMPDEST PUSH1 0x40 MLOAD PUSH2 0x274 SWAP2 SWAP1 PUSH2 0x13AB JUMP JUMPDEST PUSH1 0x40 MLOAD DUP1 SWAP2 SUB SWAP1 RETURN JUMPDEST PUSH2 0x285 PUSH2 0x69F JUMP JUMPDEST PUSH1 0x40 MLOAD PUSH2 0x292 SWAP2 SWAP1 PUSH2 0x1188 JUMP JUMPDEST PUSH1 0x40 MLOAD DUP1 SWAP2 SUB SWAP1 RETURN JUMPDEST PUSH2 0x2A3 PUSH2 0x6AC JUMP JUMPDEST PUSH1 0x40 MLOAD PUSH2 0x2B0 SWAP2 SWAP1 PUSH2 0x1389 JUMP JUMPDEST PUSH1 0x40 MLOAD DUP1 SWAP2 SUB SWAP1 RETURN JUMPDEST PUSH2 0x2C1 PUSH2 0x73A JUMP JUMPDEST PUSH1 0x40 MLOAD PUSH2 0x2CE SWAP2 SWAP1 PUSH2 0x1188 JUMP JUMPDEST PUSH1 0x40 MLOAD DUP1 SWAP2 SUB SWAP1 RETURN JUMPDEST PUSH2 0x2DF PUSH2 0x744 JUMP JUMPDEST STOP JUMPDEST PUSH2 0x2E9 PUSH2 0x83F JUMP JUMPDEST PUSH1 0x40 MLOAD PUSH2 0x2F6 SWAP2 SWAP1 PUSH2 0x152B JUMP JUMPDEST PUSH1 0x40 MLOAD DUP1 SWAP2 SUB SWAP1 RETURN JUMPDEST PUSH2 0x319 PUSH1 0x4 DUP1 CALLDATASIZE SUB DUP2 ADD SWAP1 PUSH2 0x314 SWAP2 SWAP1 PUSH2 0x1126 JUMP JUMPDEST PUSH2 0x918 JUMP JUMPDEST STOP JUMPDEST PUSH1 0x0 DUP1 SLOAD SWAP1 PUSH2 0x100 EXP SWAP1 DIV PUSH20 0xFFFFFFFFFFFFFFFFFFFFFFFFFFFFFFFFFFFFFFFF AND DUP2 JUMP JUMPDEST PUSH1 0x5 DUP2 DUP1 MLOAD PUSH1 0x20 DUP2 ADD DUP3 ADD DUP1 MLOAD DUP5 DUP3 MSTORE PUSH1 0x20 DUP4 ADD PUSH1 0x20 DUP6 ADD KECCAK256 DUP2 DUP4 MSTORE DUP1 SWAP6 POP POP POP POP POP POP PUSH1 0x0 SWAP2 POP SWAP1 POP SLOAD DUP2 JUMP JUMPDEST PUSH1 0x8 PUSH1 0x1 SWAP1 SLOAD SWAP1 PUSH2 0x100 EXP SWAP1 DIV PUSH1 0xFF AND DUP2 JUMP JUMPDEST PUSH1 0x0 PUSH1 0x60 PUSH1 0x0 DUP1 PUSH1 0x60 PUSH1 0x0 DUP1 SLOAD SWAP1 PUSH2 0x100 EXP SWAP1 DIV PUSH20 0xFFFFFFFFFFFFFFFFFFFFFFFFFFFFFFFFFFFFFFFF AND PUSH1 0x3 PUSH1 0x7 SLOAD PUSH1 0x8 PUSH1 0x0 SWAP1 SLOAD SWAP1 PUSH2 0x100 EXP SWAP1 DIV PUSH1 0xFF AND PUSH2 0x3C7 PUSH2 0x54B JUMP JUMPDEST DUP4 DUP1 SLOAD PUSH2 0x3D3 SWAP1 PUSH2 0x157C JUMP JUMPDEST DUP1 PUSH1 0x1F ADD PUSH1 0x20 DUP1 SWAP2 DIV MUL PUSH1 0x20 ADD PUSH1 0x40 MLOAD SWAP1 DUP2 ADD PUSH1 0x40 MSTORE DUP1 SWAP3 SWAP2 SWAP1 DUP2 DUP2 MSTORE PUSH1 0x20 ADD DUP3 DUP1 SLOAD PUSH2 0x3FF SWAP1 PUSH2 0x157C JUMP JUMPDEST DUP1 ISZERO PUSH2 0x44C JUMPI DUP1 PUSH1 0x1F LT PUSH2 0x421 JUMPI PUSH2 0x100 DUP1 DUP4 SLOAD DIV MUL DUP4 MSTORE SWAP2 PUSH1 0x20 ADD SWAP2 PUSH2 0x44C JUMP JUMPDEST DUP3 ADD SWAP2 SWAP1 PUSH1 0x0 MSTORE PUSH1 0x20 PUSH1 0x0 KECCAK256 SWAP1 JUMPDEST DUP2 SLOAD DUP2 MSTORE SWAP1 PUSH1 0x1 ADD SWAP1 PUSH1 0x20 ADD DUP1 DUP4 GT PUSH2 0x42F JUMPI DUP3 SWAP1 SUB PUSH1 0x1F AND DUP3 ADD SWAP2 JUMPDEST POP POP POP POP POP SWAP4 POP SWAP5 POP SWAP5 POP SWAP5 POP SWAP5 POP SWAP5 POP SWAP1 SWAP2 SWAP3 SWAP4 SWAP5 JUMP JUMPDEST PUSH1 0x4 DUP2 DUP2 SLOAD DUP2 LT PUSH2 0x474 JUMPI PUSH1 0x0 DUP1 REVERT JUMPDEST SWAP1 PUSH1 0x0 MSTORE PUSH1 0x20 PUSH1 0x0 KECCAK256 ADD PUSH1 0x0 SWAP2 POP SWAP1 POP DUP1 SLOAD PUSH2 0x48F SWAP1 PUSH2 0x157C JUMP JUMPDEST DUP1 PUSH1 0x1F ADD PUSH1 0x20 DUP1 SWAP2 DIV MUL PUSH1 0x20 ADD PUSH1 0x40 MLOAD SWAP1 DUP2 ADD PUSH1 0x40 MSTORE DUP1 SWAP3 SWAP2 SWAP1 DUP2 DUP2 MSTORE PUSH1 0x20 ADD DUP3 DUP1 SLOAD PUSH2 0x4BB SWAP1 PUSH2 0x157C JUMP JUMPDEST DUP1 ISZERO PUSH2 0x508 JUMPI DUP1 PUSH1 0x1F LT PUSH2 0x4DD JUMPI PUSH2 0x100 DUP1 DUP4 SLOAD DIV MUL DUP4 MSTORE SWAP2 PUSH1 0x20 ADD SWAP2 PUSH2 0x508 JUMP JUMPDEST DUP3 ADD SWAP2 SWAP1 PUSH1 0x0 MSTORE PUSH1 0x20 PUSH1 0x0 KECCAK256 SWAP1 JUMPDEST DUP2 SLOAD DUP2 MSTORE SWAP1 PUSH1 0x1 ADD SWAP1 PUSH1 0x20 ADD DUP1 DUP4 GT PUSH2 0x4EB JUMPI DUP3 SWAP1 SUB PUSH1 0x1F AND DUP3 ADD SWAP2 JUMPDEST POP POP POP POP POP DUP2 JUMP JUMPDEST PUSH1 0x0 PUSH1 0x5 DUP3 PUSH1 0x40 MLOAD PUSH2 0x522 SWAP2 SWAP1 PUSH2 0x15E9 JUMP JUMPDEST SWAP1 DUP2 MSTORE PUSH1 0x20 ADD PUSH1 0x40 MLOAD DUP1 SWAP2 SUB SWAP1 KECCAK256 SLOAD SWAP1 POP SWAP2 SWAP1 POP JUMP JUMPDEST PUSH1 0x8 PUSH1 0x0 SWAP1 SLOAD SWAP1 PUSH2 0x100 EXP SWAP1 DIV PUSH1 0xFF AND DUP2 JUMP JUMPDEST PUSH1 0x60 PUSH1 0x0 PUSH1 0x2 DUP2 GT ISZERO PUSH2 0x561 JUMPI PUSH2 0x560 PUSH2 0x11A3 JUMP JUMPDEST JUMPDEST PUSH1 0x8 PUSH1 0x1 SWAP1 SLOAD SWAP1 PUSH2 0x100 EXP SWAP1 DIV PUSH1 0xFF AND PUSH1 0x2 DUP2 GT ISZERO PUSH2 0x583 JUMPI PUSH2 0x582 PUSH2 0x11A3 JUMP JUMPDEST JUMPDEST SUB PUSH2 0x5C5 JUMPI PUSH1 0x40 MLOAD DUP1 PUSH1 0x40 ADD PUSH1 0x40 MSTORE DUP1 PUSH1 0x8 DUP2 MSTORE PUSH1 0x20 ADD PUSH32 0x73747564656E7473000000000000000000000000000000000000000000000000 DUP2 MSTORE POP SWAP1 POP PUSH2 0x676 JUMP JUMPDEST PUSH1 0x1 PUSH1 0x2 DUP2 GT ISZERO PUSH2 0x5D9 JUMPI PUSH2 0x5D8 PUSH2 0x11A3 JUMP JUMPDEST JUMPDEST PUSH1 0x8 PUSH1 0x1 SWAP1 SLOAD SWAP1 PUSH2 0x100 EXP SWAP1 DIV PUSH1 0xFF AND PUSH1 0x2 DUP2 GT ISZERO PUSH2 0x5FB JUMPI PUSH2 0x5FA PUSH2 0x11A3 JUMP JUMPDEST JUMPDEST SUB PUSH2 0x63D JUMPI PUSH1 0x40 MLOAD DUP1 PUSH1 0x40 ADD PUSH1 0x40 MSTORE DUP1 PUSH1 0x9 DUP2 MSTORE PUSH1 0x20 ADD PUSH32 0x656D706C6F796565730000000000000000000000000000000000000000000000 DUP2 MSTORE POP SWAP1 POP PUSH2 0x676 JUMP JUMPDEST PUSH1 0x40 MLOAD DUP1 PUSH1 0x40 ADD PUSH1 0x40 MSTORE DUP1 PUSH1 0x3 DUP2 MSTORE PUSH1 0x20 ADD PUSH32 0x616C6C0000000000000000000000000000000000000000000000000000000000 DUP2 MSTORE POP SWAP1 POP JUMPDEST SWAP1 JUMP JUMPDEST PUSH1 0x7 SLOAD DUP2 JUMP JUMPDEST PUSH1 0x6 PUSH1 0x20 MSTORE DUP1 PUSH1 0x0 MSTORE PUSH1 0x40 PUSH1 0x0 KECCAK256 PUSH1 0x0 SWAP2 POP SLOAD SWAP1 PUSH2 0x100 EXP SWAP1 DIV PUSH1 0xFF AND DUP2 JUMP JUMPDEST PUSH1 0x0 PUSH1 0x4 DUP1 SLOAD SWAP1 POP SWAP1 POP SWAP1 JUMP JUMPDEST PUSH1 0x3 DUP1 SLOAD PUSH2 0x6B9 SWAP1 PUSH2 0x157C JUMP JUMPDEST DUP1 PUSH1 0x1F ADD PUSH1 0x20 DUP1 SWAP2 DIV MUL PUSH1 0x20 ADD PUSH1 0x40 MLOAD SWAP1 DUP2 ADD PUSH1 0x40 MSTORE DUP1 SWAP3 SWAP2 SWAP1 DUP2 DUP2 MSTORE PUSH1 0x20 ADD DUP3 DUP1 SLOAD PUSH2 0x6E5 SWAP1 PUSH2 0x157C JUMP JUMPDEST DUP1 ISZERO PUSH2 0x732 JUMPI DUP1 PUSH1 0x1F LT PUSH2 0x707 JUMPI PUSH2 0x100 DUP1 DUP4 SLOAD DIV MUL DUP4 MSTORE SWAP2 PUSH1 0x20 ADD SWAP2 PUSH2 0x732 JUMP JUMPDEST DUP3 ADD SWAP2 SWAP1 PUSH1 0x0 MSTORE PUSH1 0x20 PUSH1 0x0 KECCAK256 SWAP1 JUMPDEST DUP2 SLOAD DUP2 MSTORE SWAP1 PUSH1 0x1 ADD SWAP1 PUSH1 0x20 ADD DUP1 DUP4 GT PUSH2 0x715 JUMPI DUP3 SWAP1 SUB PUSH1 0x1F AND DUP3 ADD SWAP2 JUMPDEST POP POP POP POP POP DUP2 JUMP JUMPDEST PUSH1 0x0 PUSH1 0x7 SLOAD SWAP1 POP SWAP1 JUMP JUMPDEST PUSH1 0x0 DUP1 SLOAD SWAP1 PUSH2 0x100 EXP SWAP1 DIV PUSH20 0xFFFFFFFFFFFFFFFFFFFFFFFFFFFFFFFFFFFFFFFF AND PUSH20 0xFFFFFFFFFFFFFFFFFFFFFFFFFFFFFFFFFFFFFFFF AND CALLER PUSH20 0xFFFFFFFFFFFFFFFFFFFFFFFFFFFFFFFFFFFFFFFF AND EQ PUSH2 0x7D2 JUMPI PUSH1 0x40 MLOAD PUSH32 0x8C379A000000000000000000000000000000000000000000000000000000000 DUP2 MSTORE PUSH1 0x4 ADD PUSH2 0x7C9 SWAP1 PUSH2 0x1672 JUMP JUMPDEST PUSH1 0x40 MLOAD DUP1 SWAP2 SUB SWAP1 REVERT JUMPDEST PUSH1 0x8 PUSH1 0x0 SWAP1 SLOAD SWAP1 PUSH2 0x100 EXP SWAP1 DIV PUSH1 0xFF AND ISZERO PUSH2 0x822 JUMPI PUSH1 0x40 MLOAD PUSH32 0x8C379A000000000000000000000000000000000000000000000000000000000 DUP2 MSTORE PUSH1 0x4 ADD PUSH2 0x819 SWAP1 PUSH2 0x16DE JUMP JUMPDEST PUSH1 0x40 MLOAD DUP1 SWAP2 SUB SWAP1 REVERT JUMPDEST PUSH1 0x1 PUSH1 0x8 PUSH1 0x0 PUSH2 0x100 EXP DUP2 SLOAD DUP2 PUSH1 0xFF MUL NOT AND SWAP1 DUP4 ISZERO ISZERO MUL OR SWAP1 SSTORE POP JUMP JUMPDEST PUSH1 0x60 PUSH1 0x4 DUP1 SLOAD DUP1 PUSH1 0x20 MUL PUSH1 0x20 ADD PUSH1 0x40 MLOAD SWAP1 DUP2 ADD PUSH1 0x40 MSTORE DUP1 SWAP3 SWAP2 SWAP1 DUP2 DUP2 MSTORE PUSH1 0x20 ADD PUSH1 0x0 SWAP1 JUMPDEST DUP3 DUP3 LT ISZERO PUSH2 0x90F JUMPI DUP4 DUP3 SWAP1 PUSH1 0x0 MSTORE PUSH1 0x20 PUSH1 0x0 KECCAK256 ADD DUP1 SLOAD PUSH2 0x882 SWAP1 PUSH2 0x157C JUMP JUMPDEST DUP1 PUSH1 0x1F ADD PUSH1 0x20 DUP1 SWAP2 DIV MUL PUSH1 0x20 ADD PUSH1 0x40 MLOAD SWAP1 DUP2 ADD PUSH1 0x40 MSTORE DUP1 SWAP3 SWAP2 SWAP1 DUP2 DUP2 MSTORE PUSH1 0x20 ADD DUP3 DUP1 SLOAD PUSH2 0x8AE SWAP1 PUSH2 0x157C JUMP JUMPDEST DUP1 ISZERO PUSH2 0x8FB JUMPI DUP1 PUSH1 0x1F LT PUSH2 0x8D0 JUMPI PUSH2 0x100 DUP1 DUP4 SLOAD DIV MUL DUP4 MSTORE SWAP2 PUSH1 0x20 ADD SWAP2 PUSH2 0x8FB JUMP JUMPDEST DUP3 ADD SWAP2 SWAP1 PUSH1 0x0 MSTORE PUSH1 0x20 PUSH1 0x0 KECCAK256 SWAP1 JUMPDEST DUP2 SLOAD DUP2 MSTORE SWAP1 PUSH1 0x1 ADD SWAP1 PUSH1 0x20 ADD DUP1 DUP4 GT PUSH2 0x8DE JUMPI DUP3 SWAP1 SUB PUSH1 0x1F AND DUP3 ADD SWAP2 JUMPDEST POP POP POP POP POP DUP2 MSTORE PUSH1 0x20 ADD SWAP1 PUSH1 0x1 ADD SWAP1 PUSH2 0x863 JUMP JUMPDEST POP POP POP POP SWAP1 POP SWAP1 JUMP JUMPDEST PUSH1 0x2 DUP1 DUP2 GT ISZERO PUSH2 0x92B JUMPI PUSH2 0x92A PUSH2 0x11A3 JUMP JUMPDEST JUMPDEST PUSH1 0x8 PUSH1 0x1 SWAP1 SLOAD SWAP1 PUSH2 0x100 EXP SWAP1 DIV PUSH1 0xFF AND PUSH1 0x2 DUP2 GT ISZERO PUSH2 0x94D JUMPI PUSH2 0x94C PUSH2 0x11A3 JUMP JUMPDEST JUMPDEST SUB PUSH2 0xAD5 JUMPI PUSH1 0x2 PUSH1 0x0 SWAP1 SLOAD SWAP1 PUSH2 0x100 EXP SWAP1 DIV PUSH20 0xFFFFFFFFFFFFFFFFFFFFFFFFFFFFFFFFFFFFFFFF AND PUSH20 0xFFFFFFFFFFFFFFFFFFFFFFFFFFFFFFFFFFFFFFFF AND PUSH4 0x82F7D392 CALLER PUSH1 0x40 MLOAD DUP3 PUSH4 0xFFFFFFFF AND PUSH1 0xE0 SHL DUP2 MSTORE PUSH1 0x4 ADD PUSH2 0x9AD SWAP2 SWAP1 PUSH2 0xFB1 JUMP JUMPDEST PUSH1 0x20 PUSH1 0x40 MLOAD DUP1 DUP4 SUB DUP2 DUP7 GAS STATICCALL ISZERO DUP1 ISZERO PUSH2 0x9CA JUMPI RETURNDATASIZE PUSH1 0x0 DUP1 RETURNDATACOPY RETURNDATASIZE PUSH1 0x0 REVERT JUMPDEST POP POP POP POP PUSH1 0x40 MLOAD RETURNDATASIZE PUSH1 0x1F NOT PUSH1 0x1F DUP3 ADD AND DUP3 ADD DUP1 PUSH1 0x40 MSTORE POP DUP2 ADD SWAP1 PUSH2 0x9EE SWAP2 SWAP1 PUSH2 0x172A JUMP JUMPDEST DUP1 PUSH2 0xA91 JUMPI POP PUSH1 0x2 PUSH1 0x0 SWAP1 SLOAD SWAP1 PUSH2 0x100 EXP SWAP1 DIV PUSH20 0xFFFFFFFFFFFFFFFFFFFFFFFFFFFFFFFFFFFFFFFF AND PUSH20 0xFFFFFFFFFFFFFFFFFFFFFFFFFFFFFFFFFFFFFFFF AND PUSH4 0xEA66543F CALLER PUSH1 0x40 MLOAD DUP3 PUSH4 0xFFFFFFFF AND PUSH1 0xE0 SHL DUP2 MSTORE PUSH1 0x4 ADD PUSH2 0xA4F SWAP2 SWAP1 PUSH2 0xFB1 JUMP JUMPDEST PUSH1 0x20 PUSH1 0x40 MLOAD DUP1 DUP4 SUB DUP2 DUP7 GAS STATICCALL ISZERO DUP1 ISZERO PUSH2 0xA6C JUMPI RETURNDATASIZE PUSH1 0x0 DUP1 RETURNDATACOPY RETURNDATASIZE PUSH1 0x0 REVERT JUMPDEST POP POP POP POP PUSH1 0x40 MLOAD RETURNDATASIZE PUSH1 0x1F NOT PUSH1 0x1F DUP3 ADD AND DUP3 ADD DUP1 PUSH1 0x40 MSTORE POP DUP2 ADD SWAP1 PUSH2 0xA90 SWAP2 SWAP1 PUSH2 0x172A JUMP JUMPDEST JUMPDEST PUSH2 0xAD0 JUMPI PUSH1 0x40 MLOAD PUSH32 0x8C379A000000000000000000000000000000000000000000000000000000000 DUP2 MSTORE PUSH1 0x4 ADD PUSH2 0xAC7 SWAP1 PUSH2 0x17C9 JUMP JUMPDEST PUSH1 0x40 MLOAD DUP1 SWAP2 SUB SWAP1 REVERT JUMPDEST PUSH2 0xD09 JUMP JUMPDEST PUSH1 0x0 PUSH1 0x2 DUP2 GT ISZERO PUSH2 0xAE9 JUMPI PUSH2 0xAE8 PUSH2 0x11A3 JUMP JUMPDEST JUMPDEST PUSH1 0x8 PUSH1 0x1 SWAP1 SLOAD SWAP1 PUSH2 0x100 EXP SWAP1 DIV PUSH1 0xFF AND PUSH1 0x2 DUP2 GT ISZERO PUSH2 0xB0B JUMPI PUSH2 0xB0A PUSH2 0x11A3 JUMP JUMPDEST JUMPDEST SUB PUSH2 0xBF0 JUMPI PUSH1 0x2 PUSH1 0x0 SWAP1 SLOAD SWAP1 PUSH2 0x100 EXP SWAP1 DIV PUSH20 0xFFFFFFFFFFFFFFFFFFFFFFFFFFFFFFFFFFFFFFFF AND PUSH20 0xFFFFFFFFFFFFFFFFFFFFFFFFFFFFFFFFFFFFFFFF AND PUSH4 0x82F7D392 CALLER PUSH1 0x40 MLOAD DUP3 PUSH4 0xFFFFFFFF AND PUSH1 0xE0 SHL DUP2 MSTORE PUSH1 0x4 ADD PUSH2 0xB6B SWAP2 SWAP1 PUSH2 0xFB1 JUMP JUMPDEST PUSH1 0x20 PUSH1 0x40 MLOAD DUP1 DUP4 SUB DUP2 DUP7 GAS STATICCALL ISZERO DUP1 ISZERO PUSH2 0xB88 JUMPI RETURNDATASIZE PUSH1 0x0 DUP1 RETURNDATACOPY RETURNDATASIZE PUSH1 0x0 REVERT JUMPDEST POP POP POP POP PUSH1 0x40 MLOAD RETURNDATASIZE PUSH1 0x1F NOT PUSH1 0x1F DUP3 ADD AND DUP3 ADD DUP1 PUSH1 0x40 MSTORE POP DUP2 ADD SWAP1 PUSH2 0xBAC SWAP2 SWAP1 PUSH2 0x172A JUMP JUMPDEST PUSH2 0xBEB JUMPI PUSH1 0x40 MLOAD PUSH32 0x8C379A000000000000000000000000000000000000000000000000000000000 DUP2 MSTORE PUSH1 0x4 ADD PUSH2 0xBE2 SWAP1 PUSH2 0x185B JUMP JUMPDEST PUSH1 0x40 MLOAD DUP1 SWAP2 SUB SWAP1 REVERT JUMPDEST PUSH2 0xD08 JUMP JUMPDEST PUSH1 0x1 PUSH1 0x2 DUP2 GT ISZERO PUSH2 0xC04 JUMPI PUSH2 0xC03 PUSH2 0x11A3 JUMP JUMPDEST JUMPDEST PUSH1 0x8 PUSH1 0x1 SWAP1 SLOAD SWAP1 PUSH2 0x100 EXP SWAP1 DIV PUSH1 0xFF AND PUSH1 0x2 DUP2 GT ISZERO PUSH2 0xC26 JUMPI PUSH2 0xC25 PUSH2 0x11A3 JUMP JUMPDEST JUMPDEST SUB PUSH2 0xD07 JUMPI PUSH1 0x2 PUSH1 0x0 SWAP1 SLOAD SWAP1 PUSH2 0x100 EXP SWAP1 DIV PUSH20 0xFFFFFFFFFFFFFFFFFFFFFFFFFFFFFFFFFFFFFFFF AND PUSH20 0xFFFFFFFFFFFFFFFFFFFFFFFFFFFFFFFFFFFFFFFF AND PUSH4 0xEA66543F CALLER PUSH1 0x40 MLOAD DUP3 PUSH4 0xFFFFFFFF AND PUSH1 0xE0 SHL DUP2 MSTORE PUSH1 0x4 ADD PUSH2 0xC86 SWAP2 SWAP1 PUSH2 0xFB1 JUMP JUMPDEST PUSH1 0x20 PUSH1 0x40 MLOAD DUP1 DUP4 SUB DUP2 DUP7 GAS STATICCALL ISZERO DUP1 ISZERO PUSH2 0xCA3 JUMPI RETURNDATASIZE PUSH1 0x0 DUP1 RETURNDATACOPY RETURNDATASIZE PUSH1 0x0 REVERT JUMPDEST POP POP POP POP PUSH1 0x40 MLOAD RETURNDATASIZE PUSH1 0x1F NOT PUSH1 0x1F DUP3 ADD AND DUP3 ADD DUP1 PUSH1 0x40 MSTORE POP DUP2 ADD SWAP1 PUSH2 0xCC7 SWAP2 SWAP1 PUSH2 0x172A JUMP JUMPDEST PUSH2 0xD06 JUMPI PUSH1 0x40 MLOAD PUSH32 0x8C379A000000000000000000000000000000000000000000000000000000000 DUP2 MSTORE PUSH1 0x4 ADD PUSH2 0xCFD SWAP1 PUSH2 0x18ED JUMP JUMPDEST PUSH1 0x40 MLOAD DUP1 SWAP2 SUB SWAP1 REVERT JUMPDEST JUMPDEST JUMPDEST JUMPDEST PUSH1 0x6 PUSH1 0x0 CALLER PUSH20 0xFFFFFFFFFFFFFFFFFFFFFFFFFFFFFFFFFFFFFFFF AND PUSH20 0xFFFFFFFFFFFFFFFFFFFFFFFFFFFFFFFFFFFFFFFF AND DUP2 MSTORE PUSH1 0x20 ADD SWAP1 DUP2 MSTORE PUSH1 0x20 ADD PUSH1 0x0 KECCAK256 PUSH1 0x0 SWAP1 SLOAD SWAP1 PUSH2 0x100 EXP SWAP1 DIV PUSH1 0xFF AND ISZERO PUSH2 0xD96 JUMPI PUSH1 0x40 MLOAD PUSH32 0x8C379A000000000000000000000000000000000000000000000000000000000 DUP2 MSTORE PUSH1 0x4 ADD PUSH2 0xD8D SWAP1 PUSH2 0x1959 JUMP JUMPDEST PUSH1 0x40 MLOAD DUP1 SWAP2 SUB SWAP1 REVERT JUMPDEST PUSH1 0x8 PUSH1 0x0 SWAP1 SLOAD SWAP1 PUSH2 0x100 EXP SWAP1 DIV PUSH1 0xFF AND ISZERO PUSH2 0xDE6 JUMPI PUSH1 0x40 MLOAD PUSH32 0x8C379A000000000000000000000000000000000000000000000000000000000 DUP2 MSTORE PUSH1 0x4 ADD PUSH2 0xDDD SWAP1 PUSH2 0x19C5 JUMP JUMPDEST PUSH1 0x40 MLOAD DUP1 SWAP2 SUB SWAP1 REVERT JUMPDEST PUSH1 0x0 DUP1 JUMPDEST PUSH1 0x4 DUP1 SLOAD SWAP1 POP DUP2 LT ISZERO PUSH2 0xE83 JUMPI DUP3 PUSH1 0x40 MLOAD PUSH1 0x20 ADD PUSH2 0xE08 SWAP2 SWAP1 PUSH2 0x15E9 JUMP JUMPDEST PUSH1 0x40 MLOAD PUSH1 0x20 DUP2 DUP4 SUB SUB DUP2 MSTORE SWAP1 PUSH1 0x40 MSTORE DUP1 MLOAD SWAP1 PUSH1 0x20 ADD KECCAK256 PUSH1 0x4 DUP3 DUP2 SLOAD DUP2 LT PUSH2 0xE32 JUMPI PUSH2 0xE31 PUSH2 0x19E5 JUMP JUMPDEST JUMPDEST SWAP1 PUSH1 0x0 MSTORE PUSH1 0x20 PUSH1 0x0 KECCAK256 ADD PUSH1 0x40 MLOAD PUSH1 0x20 ADD PUSH2 0xE4C SWAP2 SWAP1 PUSH2 0x1AAC JUMP JUMPDEST PUSH1 0x40 MLOAD PUSH1 0x20 DUP2 DUP4 SUB SUB DUP2 MSTORE SWAP1 PUSH1 0x40 MSTORE DUP1 MLOAD SWAP1 PUSH1 0x20 ADD KECCAK256 SUB PUSH2 0xE70 JUMPI PUSH1 0x1 SWAP2 POP PUSH2 0xE83 JUMP JUMPDEST DUP1 DUP1 PUSH2 0xE7B SWAP1 PUSH2 0x1AF2 JUMP JUMPDEST SWAP2 POP POP PUSH2 0xDEA JUMP JUMPDEST POP DUP1 PUSH2 0xEC4 JUMPI PUSH1 0x40 MLOAD PUSH32 0x8C379A000000000000000000000000000000000000000000000000000000000 DUP2 MSTORE PUSH1 0x4 ADD PUSH2 0xEBB SWAP1 PUSH2 0x1B86 JUMP JUMPDEST PUSH1 0x40 MLOAD DUP1 SWAP2 SUB SWAP1 REVERT JUMPDEST PUSH1 0x1 PUSH1 0x6 PUSH1 0x0 CALLER PUSH20 0xFFFFFFFFFFFFFFFFFFFFFFFFFFFFFFFFFFFFFFFF AND PUSH20 0xFFFFFFFFFFFFFFFFFFFFFFFFFFFFFFFFFFFFFFFF AND DUP2 MSTORE PUSH1 0x20 ADD SWAP1 DUP2 MSTORE PUSH1 0x20 ADD PUSH1 0x0 KECCAK256 PUSH1 0x0 PUSH2 0x100 EXP DUP2 SLOAD DUP2 PUSH1 0xFF MUL NOT AND SWAP1 DUP4 ISZERO ISZERO MUL OR SWAP1 SSTORE POP PUSH1 0x1 PUSH1 0x5 DUP4 PUSH1 0x40 MLOAD PUSH2 0xF2E SWAP2 SWAP1 PUSH2 0x15E9 JUMP JUMPDEST SWAP1 DUP2 MSTORE PUSH1 0x20 ADD PUSH1 0x40 MLOAD DUP1 SWAP2 SUB SWAP1 KECCAK256 PUSH1 0x0 DUP3 DUP3 SLOAD PUSH2 0xF4B SWAP2 SWAP1 PUSH2 0x1BA6 JUMP JUMPDEST SWAP3 POP POP DUP2 SWAP1 SSTORE POP PUSH1 0x1 PUSH1 0x7 PUSH1 0x0 DUP3 DUP3 SLOAD PUSH2 0xF65 SWAP2 SWAP1 PUSH2 0x1BA6 JUMP JUMPDEST SWAP3 POP POP DUP2 SWAP1 SSTORE POP POP POP JUMP JUMPDEST PUSH1 0x0 PUSH20 0xFFFFFFFFFFFFFFFFFFFFFFFFFFFFFFFFFFFFFFFF DUP3 AND SWAP1 POP SWAP2 SWAP1 POP JUMP JUMPDEST PUSH1 0x0 PUSH2 0xF9B DUP3 PUSH2 0xF70 JUMP JUMPDEST SWAP1 POP SWAP2 SWAP1 POP JUMP JUMPDEST PUSH2 0xFAB DUP2 PUSH2 0xF90 JUMP JUMPDEST DUP3 MSTORE POP POP JUMP JUMPDEST PUSH1 0x0 PUSH1 0x20 DUP3 ADD SWAP1 POP PUSH2 0xFC6 PUSH1 0x0 DUP4 ADD DUP5 PUSH2 0xFA2 JUMP JUMPDEST SWAP3 SWAP2 POP POP JUMP JUMPDEST PUSH1 0x0 PUSH1 0x40 MLOAD SWAP1 POP SWAP1 JUMP JUMPDEST PUSH1 0x0 DUP1 REVERT JUMPDEST PUSH1 0x0 DUP1 REVERT JUMPDEST PUSH1 0x0 DUP1 REVERT JUMPDEST PUSH1 0x0 DUP1 REVERT JUMPDEST PUSH1 0x0 PUSH1 0x1F NOT PUSH1 0x1F DUP4 ADD AND SWAP1 POP SWAP2 SWAP1 POP JUMP JUMPDEST PUSH32 0x4E487B7100000000000000000000000000000000000000000000000000000000 PUSH1 0x0 MSTORE PUSH1 0x41 PUSH1 0x4 MSTORE PUSH1 0x24 PUSH1 0x0 REVERT JUMPDEST PUSH2 0x1033 DUP3 PUSH2 0xFEA JUMP JUMPDEST DUP2 ADD DUP2 DUP2 LT PUSH8 0xFFFFFFFFFFFFFFFF DUP3 GT OR ISZERO PUSH2 0x1052 JUMPI PUSH2 0x1051 PUSH2 0xFFB JUMP JUMPDEST JUMPDEST DUP1 PUSH1 0x40 MSTORE POP POP POP JUMP JUMPDEST PUSH1 0x0 PUSH2 0x1065 PUSH2 0xFCC JUMP JUMPDEST SWAP1 POP PUSH2 0x1071 DUP3 DUP3 PUSH2 0x102A JUMP JUMPDEST SWAP2 SWAP1 POP JUMP JUMPDEST PUSH1 0x0 PUSH8 0xFFFFFFFFFFFFFFFF DUP3 GT ISZERO PUSH2 0x1091 JUMPI PUSH2 0x1090 PUSH2 0xFFB JUMP JUMPDEST JUMPDEST PUSH2 0x109A DUP3 PUSH2 0xFEA JUMP JUMPDEST SWAP1 POP PUSH1 0x20 DUP2 ADD SWAP1 POP SWAP2 SWAP1 POP JUMP JUMPDEST DUP3 DUP2 DUP4 CALLDATACOPY PUSH1 0x0 DUP4 DUP4 ADD MSTORE POP POP POP JUMP JUMPDEST PUSH1 0x0 PUSH2 0x10C9 PUSH2 0x10C4 DUP5 PUSH2 0x1076 JUMP JUMPDEST PUSH2 0x105B JUMP JUMPDEST SWAP1 POP DUP3 DUP2 MSTORE PUSH1 0x20 DUP2 ADD DUP5 DUP5 DUP5 ADD GT ISZERO PUSH2 0x10E5 JUMPI PUSH2 0x10E4 PUSH2 0xFE5 JUMP JUMPDEST JUMPDEST PUSH2 0x10F0 DUP5 DUP3 DUP6 PUSH2 0x10A7 JUMP JUMPDEST POP SWAP4 SWAP3 POP POP POP JUMP JUMPDEST PUSH1 0x0 DUP3 PUSH1 0x1F DUP4 ADD SLT PUSH2 0x110D JUMPI PUSH2 0x110C PUSH2 0xFE0 JUMP JUMPDEST JUMPDEST DUP2 CALLDATALOAD PUSH2 0x111D DUP5 DUP3 PUSH1 0x20 DUP7 ADD PUSH2 0x10B6 JUMP JUMPDEST SWAP2 POP POP SWAP3 SWAP2 POP POP JUMP JUMPDEST PUSH1 0x0 PUSH1 0x20 DUP3 DUP5 SUB SLT ISZERO PUSH2 0x113C JUMPI PUSH2 0x113B PUSH2 0xFD6 JUMP JUMPDEST JUMPDEST PUSH1 0x0 DUP3 ADD CALLDATALOAD PUSH8 0xFFFFFFFFFFFFFFFF DUP2 GT ISZERO PUSH2 0x115A JUMPI PUSH2 0x1159 PUSH2 0xFDB JUMP JUMPDEST JUMPDEST PUSH2 0x1166 DUP5 DUP3 DUP6 ADD PUSH2 0x10F8 JUMP JUMPDEST SWAP2 POP POP SWAP3 SWAP2 POP POP JUMP JUMPDEST PUSH1 0x0 DUP2 SWAP1 POP SWAP2 SWAP1 POP JUMP JUMPDEST PUSH2 0x1182 DUP2 PUSH2 0x116F JUMP JUMPDEST DUP3 MSTORE POP POP JUMP JUMPDEST PUSH1 0x0 PUSH1 0x20 DUP3 ADD SWAP1 POP PUSH2 0x119D PUSH1 0x0 DUP4 ADD DUP5 PUSH2 0x1179 JUMP JUMPDEST SWAP3 SWAP2 POP POP JUMP JUMPDEST PUSH32 0x4E487B7100000000000000000000000000000000000000000000000000000000 PUSH1 0x0 MSTORE PUSH1 0x21 PUSH1 0x4 MSTORE PUSH1 0x24 PUSH1 0x0 REVERT JUMPDEST PUSH1 0x3 DUP2 LT PUSH2 0x11E3 JUMPI PUSH2 0x11E2 PUSH2 0x11A3 JUMP JUMPDEST JUMPDEST POP JUMP JUMPDEST PUSH1 0x0 DUP2 SWAP1 POP PUSH2 0x11F4 DUP3 PUSH2 0x11D2 JUMP JUMPDEST SWAP2 SWAP1 POP JUMP JUMPDEST PUSH1 0x0 PUSH2 0x1204 DUP3 PUSH2 0x11E6 JUMP JUMPDEST SWAP1 POP SWAP2 SWAP1 POP JUMP JUMPDEST PUSH2 0x1214 DUP2 PUSH2 0x11F9 JUMP JUMPDEST DUP3 MSTORE POP POP JUMP JUMPDEST PUSH1 0x0 PUSH1 0x20 DUP3 ADD SWAP1 POP PUSH2 0x122F PUSH1 0x0 DUP4 ADD DUP5 PUSH2 0x120B JUMP JUMPDEST SWAP3 SWAP2 POP POP JUMP JUMPDEST PUSH1 0x0 DUP2 MLOAD SWAP1 POP SWAP2 SWAP1 POP JUMP JUMPDEST PUSH1 0x0 DUP3 DUP3 MSTORE PUSH1 0x20 DUP3 ADD SWAP1 POP SWAP3 SWAP2 POP POP JUMP JUMPDEST PUSH1 0x0 JUMPDEST DUP4 DUP2 LT ISZERO PUSH2 0x126F JUMPI DUP1 DUP3 ADD MLOAD DUP2 DUP5 ADD MSTORE PUSH1 0x20 DUP2 ADD SWAP1 POP PUSH2 0x1254 JUMP JUMPDEST PUSH1 0x0 DUP5 DUP5 ADD MSTORE POP POP POP POP JUMP JUMPDEST PUSH1 0x0 PUSH2 0x1286 DUP3 PUSH2 0x1235 JUMP JUMPDEST PUSH2 0x1290 DUP2 DUP6 PUSH2 0x1240 JUMP JUMPDEST SWAP4 POP PUSH2 0x12A0 DUP2 DUP6 PUSH1 0x20 DUP7 ADD PUSH2 0x1251 JUMP JUMPDEST PUSH2 0x12A9 DUP2 PUSH2 0xFEA JUMP JUMPDEST DUP5 ADD SWAP2 POP POP SWAP3 SWAP2 POP POP JUMP JUMPDEST PUSH1 0x0 DUP2 ISZERO ISZERO SWAP1 POP SWAP2 SWAP1 POP JUMP JUMPDEST PUSH2 0x12C9 DUP2 PUSH2 0x12B4 JUMP JUMPDEST DUP3 MSTORE POP POP JUMP JUMPDEST PUSH1 0x0 PUSH1 0xA0 DUP3 ADD SWAP1 POP PUSH2 0x12E4 PUSH1 0x0 DUP4 ADD DUP9 PUSH2 0xFA2 JUMP JUMPDEST DUP2 DUP2 SUB PUSH1 0x20 DUP4 ADD MSTORE PUSH2 0x12F6 DUP2 DUP8 PUSH2 0x127B JUMP JUMPDEST SWAP1 POP PUSH2 0x1305 PUSH1 0x40 DUP4 ADD DUP7 PUSH2 0x1179 JUMP JUMPDEST PUSH2 0x1312 PUSH1 0x60 DUP4 ADD DUP6 PUSH2 0x12C0 JUMP JUMPDEST DUP2 DUP2 SUB PUSH1 0x80 DUP4 ADD MSTORE PUSH2 0x1324 DUP2 DUP5 PUSH2 0x127B JUMP JUMPDEST SWAP1 POP SWAP7 SWAP6 POP POP POP POP POP POP JUMP JUMPDEST PUSH2 0x1339 DUP2 PUSH2 0x116F JUMP JUMPDEST DUP2 EQ PUSH2 0x1344 JUMPI PUSH1 0x0 DUP1 REVERT JUMPDEST POP JUMP JUMPDEST PUSH1 0x0 DUP2 CALLDATALOAD SWAP1 POP PUSH2 0x1356 DUP2 PUSH2 0x1330 JUMP JUMPDEST SWAP3 SWAP2 POP POP JUMP JUMPDEST PUSH1 0x0 PUSH1 0x20 DUP3 DUP5 SUB SLT ISZERO PUSH2 0x1372 JUMPI PUSH2 0x1371 PUSH2 0xFD6 JUMP JUMPDEST JUMPDEST PUSH1 0x0 PUSH2 0x1380 DUP5 DUP3 DUP6 ADD PUSH2 0x1347 JUMP JUMPDEST SWAP2 POP POP SWAP3 SWAP2 POP POP JUMP JUMPDEST PUSH1 0x0 PUSH1 0x20 DUP3 ADD SWAP1 POP DUP2 DUP2 SUB PUSH1 0x0 DUP4 ADD MSTORE PUSH2 0x13A3 DUP2 DUP5 PUSH2 0x127B JUMP JUMPDEST SWAP1 POP SWAP3 SWAP2 POP POP JUMP JUMPDEST PUSH1 0x0 PUSH1 0x20 DUP3 ADD SWAP1 POP PUSH2 0x13C0 PUSH1 0x0 DUP4 ADD DUP5 PUSH2 0x12C0 JUMP JUMPDEST SWAP3 SWAP2 POP POP JUMP JUMPDEST PUSH2 0x13CF DUP2 PUSH2 0xF90 JUMP JUMPDEST DUP2 EQ PUSH2 0x13DA JUMPI PUSH1 0x0 DUP1 REVERT JUMPDEST POP JUMP JUMPDEST PUSH1 0x0 DUP2 CALLDATALOAD SWAP1 POP PUSH2 0x13EC DUP2 PUSH2 0x13C6 JUMP JUMPDEST SWAP3 SWAP2 POP POP JUMP JUMPDEST PUSH1 0x0 PUSH1 0x20 DUP3 DUP5 SUB SLT ISZERO PUSH2 0x1408 JUMPI PUSH2 0x1407 PUSH2 0xFD6 JUMP JUMPDEST JUMPDEST PUSH1 0x0 PUSH2 0x1416 DUP5 DUP3 DUP6 ADD PUSH2 0x13DD JUMP JUMPDEST SWAP2 POP POP SWAP3 SWAP2 POP POP JUMP JUMPDEST PUSH1 0x0 DUP2 MLOAD SWAP1 POP SWAP2 SWAP1 POP JUMP JUMPDEST PUSH1 0x0 DUP3 DUP3 MSTORE PUSH1 0x20 DUP3 ADD SWAP1 POP SWAP3 SWAP2 POP POP JUMP JUMPDEST PUSH1 0x0 DUP2 SWAP1 POP PUSH1 0x20 DUP3 ADD SWAP1 POP SWAP2 SWAP1 POP JUMP JUMPDEST PUSH1 0x0 DUP3 DUP3 MSTORE PUSH1 0x20 DUP3 ADD SWAP1 POP SWAP3 SWAP2 POP POP JUMP JUMPDEST PUSH1 0x0 PUSH2 0x1467 DUP3 PUSH2 0x1235 JUMP JUMPDEST PUSH2 0x1471 DUP2 DUP6 PUSH2 0x144B JUMP JUMPDEST SWAP4 POP PUSH2 0x1481 DUP2 DUP6 PUSH1 0x20 DUP7 ADD PUSH2 0x1251 JUMP JUMPDEST PUSH2 0x148A DUP2 PUSH2 0xFEA JUMP JUMPDEST DUP5 ADD SWAP2 POP POP SWAP3 SWAP2 POP POP JUMP JUMPDEST PUSH1 0x0 PUSH2 0x14A1 DUP4 DUP4 PUSH2 0x145C JUMP JUMPDEST SWAP1 POP SWAP3 SWAP2 POP POP JUMP JUMPDEST PUSH1 0x0 PUSH1 0x20 DUP3 ADD SWAP1 POP SWAP2 SWAP1 POP JUMP JUMPDEST PUSH1 0x0 PUSH2 0x14C1 DUP3 PUSH2 0x141F JUMP JUMPDEST PUSH2 0x14CB DUP2 DUP6 PUSH2 0x142A JUMP JUMPDEST SWAP4 POP DUP4 PUSH1 0x20 DUP3 MUL DUP6 ADD PUSH2 0x14DD DUP6 PUSH2 0x143B JUMP JUMPDEST DUP1 PUSH1 0x0 JUMPDEST DUP6 DUP2 LT ISZERO PUSH2 0x1519 JUMPI DUP5 DUP5 SUB DUP10 MSTORE DUP2 MLOAD PUSH2 0x14FA DUP6 DUP3 PUSH2 0x1495 JUMP JUMPDEST SWAP5 POP PUSH2 0x1505 DUP4 PUSH2 0x14A9 JUMP JUMPDEST SWAP3 POP PUSH1 0x20 DUP11 ADD SWAP10 POP POP PUSH1 0x1 DUP2 ADD SWAP1 POP PUSH2 0x14E1 JUMP JUMPDEST POP DUP3 SWAP8 POP DUP8 SWAP6 POP POP POP POP POP POP SWAP3 SWAP2 POP POP JUMP JUMPDEST PUSH1 0x0 PUSH1 0x20 DUP3 ADD SWAP1 POP DUP2 DUP2 SUB PUSH1 0x0 DUP4 ADD MSTORE PUSH2 0x1545 DUP2 DUP5 PUSH2 0x14B6 JUMP JUMPDEST SWAP1 POP SWAP3 SWAP2 POP POP JUMP JUMPDEST PUSH32 0x4E487B7100000000000000000000000000000000000000000000000000000000 PUSH1 0x0 MSTORE PUSH1 0x22 PUSH1 0x4 MSTORE PUSH1 0x24 PUSH1 0x0 REVERT JUMPDEST PUSH1 0x0 PUSH1 0x2 DUP3 DIV SWAP1 POP PUSH1 0x1 DUP3 AND DUP1 PUSH2 0x1594 JUMPI PUSH1 0x7F DUP3 AND SWAP2 POP JUMPDEST PUSH1 0x20 DUP3 LT DUP2 SUB PUSH2 0x15A7 JUMPI PUSH2 0x15A6 PUSH2 0x154D JUMP JUMPDEST JUMPDEST POP SWAP2 SWAP1 POP JUMP JUMPDEST PUSH1 0x0 DUP2 SWAP1 POP SWAP3 SWAP2 POP POP JUMP JUMPDEST PUSH1 0x0 PUSH2 0x15C3 DUP3 PUSH2 0x1235 JUMP JUMPDEST PUSH2 0x15CD DUP2 DUP6 PUSH2 0x15AD JUMP JUMPDEST SWAP4 POP PUSH2 0x15DD DUP2 DUP6 PUSH1 0x20 DUP7 ADD PUSH2 0x1251 JUMP JUMPDEST DUP1 DUP5 ADD SWAP2 POP POP SWAP3 SWAP2 POP POP JUMP JUMPDEST PUSH1 0x0 PUSH2 0x15F5 DUP3 DUP5 PUSH2 0x15B8 JUMP JUMPDEST SWAP2 POP DUP2 SWAP1 POP SWAP3 SWAP2 POP POP JUMP JUMPDEST PUSH32 0x4F6E6C792063726561746F722063616E2063616C6C20746869732066756E6374 PUSH1 0x0 DUP3 ADD MSTORE PUSH32 0x696F6E0000000000000000000000000000000000000000000000000000000000 PUSH1 0x20 DUP3 ADD MSTORE POP JUMP JUMPDEST PUSH1 0x0 PUSH2 0x165C PUSH1 0x23 DUP4 PUSH2 0x1240 JUMP JUMPDEST SWAP2 POP PUSH2 0x1667 DUP3 PUSH2 0x1600 JUMP JUMPDEST PUSH1 0x40 DUP3 ADD SWAP1 POP SWAP2 SWAP1 POP JUMP JUMPDEST PUSH1 0x0 PUSH1 0x20 DUP3 ADD SWAP1 POP DUP2 DUP2 SUB PUSH1 0x0 DUP4 ADD MSTORE PUSH2 0x168B DUP2 PUSH2 0x164F JUMP JUMPDEST SWAP1 POP SWAP2 SWAP1 POP JUMP JUMPDEST PUSH32 0x566F74696E6720697320616C726561647920636C6F7365640000000000000000 PUSH1 0x0 DUP3 ADD MSTORE POP JUMP JUMPDEST PUSH1 0x0 PUSH2 0x16C8 PUSH1 0x18 DUP4 PUSH2 0x1240 JUMP JUMPDEST SWAP2 POP PUSH2 0x16D3 DUP3 PUSH2 0x1692 JUMP JUMPDEST PUSH1 0x20 DUP3 ADD SWAP1 POP SWAP2 SWAP1 POP JUMP JUMPDEST PUSH1 0x0 PUSH1 0x20 DUP3 ADD SWAP1 POP DUP2 DUP2 SUB PUSH1 0x0 DUP4 ADD MSTORE PUSH2 0x16F7 DUP2 PUSH2 0x16BB JUMP JUMPDEST SWAP1 POP SWAP2 SWAP1 POP JUMP JUMPDEST PUSH2 0x1707 DUP2 PUSH2 0x12B4 JUMP JUMPDEST DUP2 EQ PUSH2 0x1712 JUMPI PUSH1 0x0 DUP1 REVERT JUMPDEST POP JUMP JUMPDEST PUSH1 0x0 DUP2 MLOAD SWAP1 POP PUSH2 0x1724 DUP2 PUSH2 0x16FE JUMP JUMPDEST SWAP3 SWAP2 POP POP JUMP JUMPDEST PUSH1 0x0 PUSH1 0x20 DUP3 DUP5 SUB SLT ISZERO PUSH2 0x1740 JUMPI PUSH2 0x173F PUSH2 0xFD6 JUMP JUMPDEST JUMPDEST PUSH1 0x0 PUSH2 0x174E DUP5 DUP3 DUP6 ADD PUSH2 0x1715 JUMP JUMPDEST SWAP2 POP POP SWAP3 SWAP2 POP POP JUMP JUMPDEST PUSH32 0x4F6E6C792073747564656E747320616E6420656D706C6F796565732063616E20 PUSH1 0x0 DUP3 ADD MSTORE PUSH32 0x63616C6C20746869732066756E6374696F6E0000000000000000000000000000 PUSH1 0x20 DUP3 ADD MSTORE POP JUMP JUMPDEST PUSH1 0x0 PUSH2 0x17B3 PUSH1 0x32 DUP4 PUSH2 0x1240 JUMP JUMPDEST SWAP2 POP PUSH2 0x17BE DUP3 PUSH2 0x1757 JUMP JUMPDEST PUSH1 0x40 DUP3 ADD SWAP1 POP SWAP2 SWAP1 POP JUMP JUMPDEST PUSH1 0x0 PUSH1 0x20 DUP3 ADD SWAP1 POP DUP2 DUP2 SUB PUSH1 0x0 DUP4 ADD MSTORE PUSH2 0x17E2 DUP2 PUSH2 0x17A6 JUMP JUMPDEST SWAP1 POP SWAP2 SWAP1 POP JUMP JUMPDEST PUSH32 0x4F6E6C792073747564656E74732063616E2063616C6C20746869732066756E63 PUSH1 0x0 DUP3 ADD MSTORE PUSH32 0x74696F6E00000000000000000000000000000000000000000000000000000000 PUSH1 0x20 DUP3 ADD MSTORE POP JUMP JUMPDEST PUSH1 0x0 PUSH2 0x1845 PUSH1 0x24 DUP4 PUSH2 0x1240 JUMP JUMPDEST SWAP2 POP PUSH2 0x1850 DUP3 PUSH2 0x17E9 JUMP JUMPDEST PUSH1 0x40 DUP3 ADD SWAP1 POP SWAP2 SWAP1 POP JUMP JUMPDEST PUSH1 0x0 PUSH1 0x20 DUP3 ADD SWAP1 POP DUP2 DUP2 SUB PUSH1 0x0 DUP4 ADD MSTORE PUSH2 0x1874 DUP2 PUSH2 0x1838 JUMP JUMPDEST SWAP1 POP SWAP2 SWAP1 POP JUMP JUMPDEST PUSH32 0x4F6E6C7920656D706C6F796565732063616E2063616C6C20746869732066756E PUSH1 0x0 DUP3 ADD MSTORE PUSH32 0x6374696F6E000000000000000000000000000000000000000000000000000000 PUSH1 0x20 DUP3 ADD MSTORE POP JUMP JUMPDEST PUSH1 0x0 PUSH2 0x18D7 PUSH1 0x25 DUP4 PUSH2 0x1240 JUMP JUMPDEST SWAP2 POP PUSH2 0x18E2 DUP3 PUSH2 0x187B JUMP JUMPDEST PUSH1 0x40 DUP3 ADD SWAP1 POP SWAP2 SWAP1 POP JUMP JUMPDEST PUSH1 0x0 PUSH1 0x20 DUP3 ADD SWAP1 POP DUP2 DUP2 SUB PUSH1 0x0 DUP4 ADD MSTORE PUSH2 0x1906 DUP2 PUSH2 0x18CA JUMP JUMPDEST SWAP1 POP SWAP2 SWAP1 POP JUMP JUMPDEST PUSH32 0x596F75206861766520616C726561647920766F74656400000000000000000000 PUSH1 0x0 DUP3 ADD MSTORE POP JUMP JUMPDEST PUSH1 0x0 PUSH2 0x1943 PUSH1 0x16 DUP4 PUSH2 0x1240 JUMP JUMPDEST SWAP2 POP PUSH2 0x194E DUP3 PUSH2 0x190D JUMP JUMPDEST PUSH1 0x20 DUP3 ADD SWAP1 POP SWAP2 SWAP1 POP JUMP JUMPDEST PUSH1 0x0 PUSH1 0x20 DUP3 ADD SWAP1 POP DUP2 DUP2 SUB PUSH1 0x0 DUP4 ADD MSTORE PUSH2 0x1972 DUP2 PUSH2 0x1936 JUMP JUMPDEST SWAP1 POP SWAP2 SWAP1 POP JUMP JUMPDEST PUSH32 0x566F74696E6720697320636C6F73656400000000000000000000000000000000 PUSH1 0x0 DUP3 ADD MSTORE POP JUMP JUMPDEST PUSH1 0x0 PUSH2 0x19AF PUSH1 0x10 DUP4 PUSH2 0x1240 JUMP JUMPDEST SWAP2 POP PUSH2 0x19BA DUP3 PUSH2 0x1979 JUMP JUMPDEST PUSH1 0x20 DUP3 ADD SWAP1 POP SWAP2 SWAP1 POP JUMP JUMPDEST PUSH1 0x0 PUSH1 0x20 DUP3 ADD SWAP1 POP DUP2 DUP2 SUB PUSH1 0x0 DUP4 ADD MSTORE PUSH2 0x19DE DUP2 PUSH2 0x19A2 JUMP JUMPDEST SWAP1 POP SWAP2 SWAP1 POP JUMP JUMPDEST PUSH32 0x4E487B7100000000000000000000000000000000000000000000000000000000 PUSH1 0x0 MSTORE PUSH1 0x32 PUSH1 0x4 MSTORE PUSH1 0x24 PUSH1 0x0 REVERT JUMPDEST PUSH1 0x0 DUP2 SWAP1 POP DUP2 PUSH1 0x0 MSTORE PUSH1 0x20 PUSH1 0x0 KECCAK256 SWAP1 POP SWAP2 SWAP1 POP JUMP JUMPDEST PUSH1 0x0 DUP2 SLOAD PUSH2 0x1A36 DUP2 PUSH2 0x157C JUMP JUMPDEST PUSH2 0x1A40 DUP2 DUP7 PUSH2 0x15AD JUMP JUMPDEST SWAP5 POP PUSH1 0x1 DUP3 AND PUSH1 0x0 DUP2 EQ PUSH2 0x1A5B JUMPI PUSH1 0x1 DUP2 EQ PUSH2 0x1A70 JUMPI PUSH2 0x1AA3 JUMP JUMPDEST PUSH1 0xFF NOT DUP4 AND DUP7 MSTORE DUP2 ISZERO ISZERO DUP3 MUL DUP7 ADD SWAP4 POP PUSH2 0x1AA3 JUMP JUMPDEST PUSH2 0x1A79 DUP6 PUSH2 0x1A14 JUMP JUMPDEST PUSH1 0x0 JUMPDEST DUP4 DUP2 LT ISZERO PUSH2 0x1A9B JUMPI DUP2 SLOAD DUP2 DUP10 ADD MSTORE PUSH1 0x1 DUP3 ADD SWAP2 POP PUSH1 0x20 DUP2 ADD SWAP1 POP PUSH2 0x1A7C JUMP JUMPDEST DUP4 DUP9 ADD SWAP6 POP POP POP JUMPDEST POP POP POP SWAP3 SWAP2 POP POP JUMP JUMPDEST PUSH1 0x0 PUSH2 0x1AB8 DUP3 DUP5 PUSH2 0x1A29 JUMP JUMPDEST SWAP2 POP DUP2 SWAP1 POP SWAP3 SWAP2 POP POP JUMP JUMPDEST PUSH32 0x4E487B7100000000000000000000000000000000000000000000000000000000 PUSH1 0x0 MSTORE PUSH1 0x11 PUSH1 0x4 MSTORE PUSH1 0x24 PUSH1 0x0 REVERT JUMPDEST PUSH1 0x0 PUSH2 0x1AFD DUP3 PUSH2 0x116F JUMP JUMPDEST SWAP2 POP PUSH32 0xFFFFFFFFFFFFFFFFFFFFFFFFFFFFFFFFFFFFFFFFFFFFFFFFFFFFFFFFFFFFFFFF DUP3 SUB PUSH2 0x1B2F JUMPI PUSH2 0x1B2E PUSH2 0x1AC3 JUMP JUMPDEST JUMPDEST PUSH1 0x1 DUP3 ADD SWAP1 POP SWAP2 SWAP1 POP JUMP JUMPDEST PUSH32 0x4F7074696F6E20646F6573206E6F742065786973740000000000000000000000 PUSH1 0x0 DUP3 ADD MSTORE POP JUMP JUMPDEST PUSH1 0x0 PUSH2 0x1B70 PUSH1 0x15 DUP4 PUSH2 0x1240 JUMP JUMPDEST SWAP2 POP PUSH2 0x1B7B DUP3 PUSH2 0x1B3A JUMP JUMPDEST PUSH1 0x20 DUP3 ADD SWAP1 POP SWAP2 SWAP1 POP JUMP JUMPDEST PUSH1 0x0 PUSH1 0x20 DUP3 ADD SWAP1 POP DUP2 DUP2 SUB PUSH1 0x0 DUP4 ADD MSTORE PUSH2 0x1B9F DUP2 PUSH2 0x1B63 JUMP JUMPDEST SWAP1 POP SWAP2 SWAP1 POP JUMP JUMPDEST PUSH1 0x0 PUSH2 0x1BB1 DUP3 PUSH2 0x116F JUMP JUMPDEST SWAP2 POP PUSH2 0x1BBC DUP4 PUSH2 0x116F JUMP JUMPDEST SWAP3 POP DUP3 DUP3 ADD SWAP1 POP DUP1 DUP3 GT ISZERO PUSH2 0x1BD4 JUMPI PUSH2 0x1BD3 PUSH2 0x1AC3 JUMP JUMPDEST JUMPDEST SWAP3 SWAP2 POP POP JUMP INVALID LOG2 PUSH5 0x6970667358 0x22 SLT KECCAK256 BALANCE 0xAB SWAP6 DUP9 NOT 0xE DELEGATECALL 0xED 0xB5 PUSH11 0xFFCBB0B3EE0BD9FE1FC77D LOG4 0xC1 SMOD 0xD1 PUSH26 0x30E9E0B5E9FF64736F6C63430008110033000000000000000000 "},"gasEstimates":{"creation":{"codeDepositCost":"1436800","executionCost":"infinite","totalCost":"infinite"},"external":{"audience()":"2678","closeVoting()":"28778","closed()":"2538","creator()":"2535","getAudienceToString()":"infinite","getOptionVotes(string)":"infinite","getOptions()":"infinite","getOptionsCount()":"2512","getSummary()":"infinite","getVotersCount()":"2459","options(uint256)":"infinite","optionsVotes(string)":"infinite","topic()":"infinite","vote(string)":"infinite","voters(address)":"2890","votersCount()":"2452"}},"methodIdentifiers":{"audience()":"1ee1f800","closeVoting()":"c631b292","closed()":"597e1fb5","creator()":"02d05d3f","getAudienceToString()":"889ae9f2","getOptionVotes(string)":"57c9d738","getOptions()":"cc2ee196","getOptionsCount()":"a4d4334a","getSummary()":"4051ddac","getVotersCount()":"c0f2a777","options(uint256)":"409e2205","optionsVotes(string)":"19ad7cd2","topic()":"bf63a577","vote(string)":"fc36e15b","voters(address)":"a3ec138d","votersCount()":"98c07938"}},"storageLayout":{"storage":[{"astId":241,"contract":"Voting.sol:Voting","label":"creator","offset":0,"slot":"0","type":"t_address"},{"astId":243,"contract":"Voting.sol:Voting","label":"factoryAddress","offset":0,"slot":"1","type":"t_address"},{"astId":246,"contract":"Voting.sol:Voting","label":"factory","offset":0,"slot":"2","type":"t_contract(VotingFactory)239"},{"astId":248,"contract":"Voting.sol:Voting","label":"topic","offset":0,"slot":"3","type":"t_string_storage"},{"astId":251,"contract":"Voting.sol:Voting","label":"options","offset":0,"slot":"4","type":"t_array(t_string_storage)dyn_storage"},{"astId":255,"contract":"Voting.sol:Voting","label":"optionsVotes","offset":0,"slot":"5","type":"t_mapping(t_string_memory_ptr,t_uint256)"},{"astId":259,"contract":"Voting.sol:Voting","label":"voters","offset":0,"slot":"6","type":"t_mapping(t_address,t_bool)"},{"astId":261,"contract":"Voting.sol:Voting","label":"votersCount","offset":0,"slot":"7","type":"t_uint256"},{"astId":263,"contract":"Voting.sol:Voting","label":"closed","offset":0,"slot":"8","type":"t_bool"},{"astId":266,"contract":"Voting.sol:Voting","label":"audience","offset":1,"slot":"8","type":"t_enum(Audience)5"}],"types":{"t_address":{"encoding":"inplace","label":"address","numberOfBytes":"20"},"t_array(t_string_storage)dyn_storage":{"base":"t_string_storage","encoding":"dynamic_array","label":"string[]","numberOfBytes":"32"},"t_bool":{"encoding":"inplace","label":"bool","numberOfBytes":"1"},"t_contract(VotingFactory)239":{"encoding":"inplace","label":"contract VotingFactory","numberOfBytes":"20"},"t_enum(Audience)5":{"encoding":"inplace","label":"enum Audience","numberOfBytes":"1"},"t_mapping(t_address,t_bool)":{"encoding":"mapping","key":"t_address","label":"mapping(address => bool)","numberOfBytes":"32","value":"t_bool"},"t_mapping(t_string_memory_ptr,t_uint256)":{"encoding":"mapping","key":"t_string_memory_ptr","label":"mapping(string => uint256)","numberOfBytes":"32","value":"t_uint256"},"t_string_memory_ptr":{"encoding":"bytes","label":"string","numberOfBytes":"32"},"t_string_storage":{"encoding":"bytes","label":"string","numberOfBytes":"32"},"t_uint256":{"encoding":"inplace","label":"uint256","numberOfBytes":"32"}}},"userdoc":{"kind":"user","methods":{},"version":1}}